{
	"contracts/Timelock.sol": {
		"Timelock": {
			"abi": [
				{
					"inputs": [
						{
							"internalType": "string",
							"name": "_description",
							"type": "string"
						},
						{
							"internalType": "address",
							"name": "_owner",
							"type": "address"
						}
					],
					"stateMutability": "nonpayable",
					"type": "constructor"
				},
				{
					"anonymous": false,
					"inputs": [
						{
							"indexed": true,
							"internalType": "bytes32",
							"name": "_txId",
							"type": "bytes32"
						}
					],
					"name": "CanceledTxEvent",
					"type": "event"
				},
				{
					"anonymous": false,
					"inputs": [
						{
							"indexed": true,
							"internalType": "bytes32",
							"name": "_depositId",
							"type": "bytes32"
						}
					],
					"name": "ClaimedDepositEvent",
					"type": "event"
				},
				{
					"anonymous": false,
					"inputs": [
						{
							"indexed": true,
							"internalType": "address",
							"name": "_from",
							"type": "address"
						},
						{
							"indexed": true,
							"internalType": "address",
							"name": "_to",
							"type": "address"
						},
						{
							"indexed": false,
							"internalType": "uint256",
							"name": "_amount",
							"type": "uint256"
						},
						{
							"indexed": false,
							"internalType": "uint256",
							"name": "_timestamp",
							"type": "uint256"
						}
					],
					"name": "DepositedFundsEvent",
					"type": "event"
				},
				{
					"anonymous": false,
					"inputs": [
						{
							"indexed": true,
							"internalType": "bytes32",
							"name": "_txId",
							"type": "bytes32"
						},
						{
							"indexed": true,
							"internalType": "address",
							"name": "_target",
							"type": "address"
						},
						{
							"indexed": true,
							"internalType": "address",
							"name": "_to",
							"type": "address"
						},
						{
							"indexed": false,
							"internalType": "uint256",
							"name": "_amount",
							"type": "uint256"
						},
						{
							"indexed": false,
							"internalType": "uint256",
							"name": "_timestamp",
							"type": "uint256"
						}
					],
					"name": "ExecutedTxEvent",
					"type": "event"
				},
				{
					"anonymous": false,
					"inputs": [
						{
							"indexed": true,
							"internalType": "bytes32",
							"name": "_txId",
							"type": "bytes32"
						},
						{
							"indexed": true,
							"internalType": "address",
							"name": "_target",
							"type": "address"
						},
						{
							"indexed": true,
							"internalType": "address",
							"name": "_to",
							"type": "address"
						},
						{
							"indexed": false,
							"internalType": "uint256",
							"name": "_amount",
							"type": "uint256"
						},
						{
							"indexed": false,
							"internalType": "string",
							"name": "_func",
							"type": "string"
						},
						{
							"indexed": false,
							"internalType": "uint256",
							"name": "_timestamp",
							"type": "uint256"
						}
					],
					"name": "QueuedEvent",
					"type": "event"
				},
				{
					"anonymous": false,
					"inputs": [
						{
							"indexed": false,
							"internalType": "string",
							"name": "_description",
							"type": "string"
						},
						{
							"indexed": true,
							"internalType": "address",
							"name": "_from",
							"type": "address"
						},
						{
							"indexed": true,
							"internalType": "address",
							"name": "_to",
							"type": "address"
						},
						{
							"indexed": false,
							"internalType": "uint256",
							"name": "_amount",
							"type": "uint256"
						},
						{
							"indexed": false,
							"internalType": "uint256",
							"name": "_timestamp",
							"type": "uint256"
						}
					],
					"name": "UpdatedDepositEvent",
					"type": "event"
				},
				{
					"inputs": [],
					"name": "GRACE_PERIOD",
					"outputs": [
						{
							"internalType": "uint256",
							"name": "",
							"type": "uint256"
						}
					],
					"stateMutability": "view",
					"type": "function"
				},
				{
					"inputs": [],
					"name": "MAX_DELAY",
					"outputs": [
						{
							"internalType": "uint256",
							"name": "",
							"type": "uint256"
						}
					],
					"stateMutability": "view",
					"type": "function"
				},
				{
					"inputs": [],
					"name": "MIN_DELAY",
					"outputs": [
						{
							"internalType": "uint256",
							"name": "",
							"type": "uint256"
						}
					],
					"stateMutability": "view",
					"type": "function"
				},
				{
					"inputs": [
						{
							"internalType": "bytes32",
							"name": "_txId",
							"type": "bytes32"
						}
					],
					"name": "cancel",
					"outputs": [],
					"stateMutability": "nonpayable",
					"type": "function"
				},
				{
					"inputs": [
						{
							"internalType": "bytes32",
							"name": "_depositId",
							"type": "bytes32"
						}
					],
					"name": "claim",
					"outputs": [],
					"stateMutability": "nonpayable",
					"type": "function"
				},
				{
					"inputs": [
						{
							"internalType": "bytes32",
							"name": "",
							"type": "bytes32"
						}
					],
					"name": "depositIdToDeposit",
					"outputs": [
						{
							"internalType": "bytes32",
							"name": "depositId",
							"type": "bytes32"
						},
						{
							"internalType": "string",
							"name": "description",
							"type": "string"
						},
						{
							"internalType": "address",
							"name": "from",
							"type": "address"
						},
						{
							"internalType": "address",
							"name": "to",
							"type": "address"
						},
						{
							"internalType": "uint256",
							"name": "amount",
							"type": "uint256"
						},
						{
							"internalType": "uint256",
							"name": "timestamp",
							"type": "uint256"
						},
						{
							"internalType": "bool",
							"name": "claimed",
							"type": "bool"
						}
					],
					"stateMutability": "view",
					"type": "function"
				},
				{
					"inputs": [
						{
							"internalType": "address",
							"name": "",
							"type": "address"
						},
						{
							"internalType": "uint256",
							"name": "",
							"type": "uint256"
						}
					],
					"name": "deposits",
					"outputs": [
						{
							"internalType": "bytes32",
							"name": "depositId",
							"type": "bytes32"
						},
						{
							"internalType": "string",
							"name": "description",
							"type": "string"
						},
						{
							"internalType": "address",
							"name": "from",
							"type": "address"
						},
						{
							"internalType": "address",
							"name": "to",
							"type": "address"
						},
						{
							"internalType": "uint256",
							"name": "amount",
							"type": "uint256"
						},
						{
							"internalType": "uint256",
							"name": "timestamp",
							"type": "uint256"
						},
						{
							"internalType": "bool",
							"name": "claimed",
							"type": "bool"
						}
					],
					"stateMutability": "view",
					"type": "function"
				},
				{
					"inputs": [],
					"name": "description",
					"outputs": [
						{
							"internalType": "string",
							"name": "",
							"type": "string"
						}
					],
					"stateMutability": "view",
					"type": "function"
				},
				{
					"inputs": [
						{
							"internalType": "address",
							"name": "_target",
							"type": "address"
						},
						{
							"internalType": "bytes32",
							"name": "_depositId",
							"type": "bytes32"
						},
						{
							"internalType": "string",
							"name": "_func",
							"type": "string"
						}
					],
					"name": "execute",
					"outputs": [
						{
							"internalType": "bytes",
							"name": "",
							"type": "bytes"
						}
					],
					"stateMutability": "payable",
					"type": "function"
				},
				{
					"inputs": [
						{
							"internalType": "string",
							"name": "_description",
							"type": "string"
						},
						{
							"internalType": "address",
							"name": "_from",
							"type": "address"
						},
						{
							"internalType": "address",
							"name": "_to",
							"type": "address"
						},
						{
							"internalType": "uint256",
							"name": "_amount",
							"type": "uint256"
						},
						{
							"internalType": "uint256",
							"name": "_timestamp",
							"type": "uint256"
						}
					],
					"name": "getDepositTxId",
					"outputs": [
						{
							"internalType": "bytes32",
							"name": "",
							"type": "bytes32"
						}
					],
					"stateMutability": "pure",
					"type": "function"
				},
				{
					"inputs": [],
					"name": "getDeposits",
					"outputs": [
						{
							"components": [
								{
									"internalType": "bytes32",
									"name": "depositId",
									"type": "bytes32"
								},
								{
									"internalType": "string",
									"name": "description",
									"type": "string"
								},
								{
									"internalType": "address",
									"name": "from",
									"type": "address"
								},
								{
									"internalType": "address",
									"name": "to",
									"type": "address"
								},
								{
									"internalType": "uint256",
									"name": "amount",
									"type": "uint256"
								},
								{
									"internalType": "uint256",
									"name": "timestamp",
									"type": "uint256"
								},
								{
									"internalType": "bool",
									"name": "claimed",
									"type": "bool"
								}
							],
							"internalType": "struct Timelock.Deposit[]",
							"name": "",
							"type": "tuple[]"
						}
					],
					"stateMutability": "view",
					"type": "function"
				},
				{
					"inputs": [
						{
							"internalType": "bytes32",
							"name": "_depositTxId",
							"type": "bytes32"
						}
					],
					"name": "getOneDeposit",
					"outputs": [
						{
							"components": [
								{
									"internalType": "bytes32",
									"name": "depositId",
									"type": "bytes32"
								},
								{
									"internalType": "string",
									"name": "description",
									"type": "string"
								},
								{
									"internalType": "address",
									"name": "from",
									"type": "address"
								},
								{
									"internalType": "address",
									"name": "to",
									"type": "address"
								},
								{
									"internalType": "uint256",
									"name": "amount",
									"type": "uint256"
								},
								{
									"internalType": "uint256",
									"name": "timestamp",
									"type": "uint256"
								},
								{
									"internalType": "bool",
									"name": "claimed",
									"type": "bool"
								}
							],
							"internalType": "struct Timelock.Deposit",
							"name": "deposit",
							"type": "tuple"
						},
						{
							"internalType": "uint256",
							"name": "index",
							"type": "uint256"
						}
					],
					"stateMutability": "view",
					"type": "function"
				},
				{
					"inputs": [
						{
							"internalType": "address",
							"name": "_target",
							"type": "address"
						},
						{
							"internalType": "bytes32",
							"name": "depositId",
							"type": "bytes32"
						},
						{
							"internalType": "string",
							"name": "_func",
							"type": "string"
						}
					],
					"name": "getTxId",
					"outputs": [
						{
							"internalType": "bytes32",
							"name": "",
							"type": "bytes32"
						}
					],
					"stateMutability": "pure",
					"type": "function"
				},
				{
					"inputs": [
						{
							"internalType": "bytes32",
							"name": "_txId",
							"type": "bytes32"
						}
					],
					"name": "isQueued",
					"outputs": [
						{
							"internalType": "bool",
							"name": "_isQueued",
							"type": "bool"
						}
					],
					"stateMutability": "view",
					"type": "function"
				},
				{
					"inputs": [],
					"name": "owner",
					"outputs": [
						{
							"internalType": "address",
							"name": "",
							"type": "address"
						}
					],
					"stateMutability": "view",
					"type": "function"
				},
				{
					"inputs": [
						{
							"internalType": "address",
							"name": "_target",
							"type": "address"
						},
						{
							"internalType": "bytes32",
							"name": "_depositId",
							"type": "bytes32"
						},
						{
							"internalType": "string",
							"name": "_func",
							"type": "string"
						}
					],
					"name": "queue",
					"outputs": [],
					"stateMutability": "nonpayable",
					"type": "function"
				},
				{
					"inputs": [
						{
							"internalType": "bytes32",
							"name": "",
							"type": "bytes32"
						}
					],
					"name": "queued",
					"outputs": [
						{
							"internalType": "bytes32",
							"name": "depositId",
							"type": "bytes32"
						},
						{
							"internalType": "string",
							"name": "description",
							"type": "string"
						},
						{
							"internalType": "address",
							"name": "from",
							"type": "address"
						},
						{
							"internalType": "address",
							"name": "to",
							"type": "address"
						},
						{
							"internalType": "uint256",
							"name": "amount",
							"type": "uint256"
						},
						{
							"internalType": "uint256",
							"name": "timestamp",
							"type": "uint256"
						},
						{
							"internalType": "bool",
							"name": "claimed",
							"type": "bool"
						}
					],
					"stateMutability": "view",
					"type": "function"
				},
				{
					"inputs": [
						{
							"internalType": "bytes32",
							"name": "_depositId",
							"type": "bytes32"
						},
						{
							"internalType": "string",
							"name": "_description",
							"type": "string"
						},
						{
							"internalType": "address",
							"name": "_to",
							"type": "address"
						},
						{
							"internalType": "uint256",
							"name": "_amount",
							"type": "uint256"
						},
						{
							"internalType": "uint256",
							"name": "_timestamp",
							"type": "uint256"
						}
					],
					"name": "updateDeposit",
					"outputs": [],
					"stateMutability": "payable",
					"type": "function"
				},
				{
					"stateMutability": "payable",
					"type": "receive"
				}
			],
			"devdoc": {
				"kind": "dev",
				"methods": {},
				"version": 1
			},
			"evm": {
				"assembly": "    /* \"contracts/Timelock.sol\":66:10900  contract Timelock {... */\n  mstore(0x40, 0x80)\n    /* \"contracts/Timelock.sol\":4474:4597  constructor(string memory _description, address _owner) {... */\n  callvalue\n  dup1\n  iszero\n  tag_1\n  jumpi\n  0x00\n  dup1\n  revert\ntag_1:\n  pop\n  mload(0x40)\n  sub(codesize, bytecodeSize)\n  dup1\n  bytecodeSize\n  dup4\n  codecopy\n  dup2\n  dup2\n  add\n  0x40\n  mstore\n  dup2\n  add\n  swap1\n  tag_2\n  swap2\n  swap1\n  tag_3\n  jump\t// in\ntag_2:\n    /* \"contracts/Timelock.sol\":4554:4566  _description */\n  dup2\n    /* \"contracts/Timelock.sol\":4540:4551  description */\n  0x01\n    /* \"contracts/Timelock.sol\":4540:4566  description = _description */\n  swap1\n  dup2\n  tag_6\n  swap2\n  swap1\n  tag_7\n  jump\t// in\ntag_6:\n  pop\n    /* \"contracts/Timelock.sol\":4584:4590  _owner */\n  dup1\n    /* \"contracts/Timelock.sol\":4576:4581  owner */\n  0x00\n  dup1\n    /* \"contracts/Timelock.sol\":4576:4590  owner = _owner */\n  0x0100\n  exp\n  dup2\n  sload\n  dup2\n  0xffffffffffffffffffffffffffffffffffffffff\n  mul\n  not\n  and\n  swap1\n  dup4\n  0xffffffffffffffffffffffffffffffffffffffff\n  and\n  mul\n  or\n  swap1\n  sstore\n  pop\n    /* \"contracts/Timelock.sol\":4474:4597  constructor(string memory _description, address _owner) {... */\n  pop\n  pop\n    /* \"contracts/Timelock.sol\":66:10900  contract Timelock {... */\n  jump(tag_8)\n    /* \"#utility.yul\":7:82   */\ntag_9:\n    /* \"#utility.yul\":40:46   */\n  0x00\n    /* \"#utility.yul\":73:75   */\n  0x40\n    /* \"#utility.yul\":67:76   */\n  mload\n    /* \"#utility.yul\":57:76   */\n  swap1\n  pop\n    /* \"#utility.yul\":7:82   */\n  swap1\n  jump\t// out\n    /* \"#utility.yul\":88:205   */\ntag_10:\n    /* \"#utility.yul\":197:198   */\n  0x00\n    /* \"#utility.yul\":194:195   */\n  dup1\n    /* \"#utility.yul\":187:199   */\n  revert\n    /* \"#utility.yul\":211:328   */\ntag_11:\n    /* \"#utility.yul\":320:321   */\n  0x00\n    /* \"#utility.yul\":317:318   */\n  dup1\n    /* \"#utility.yul\":310:322   */\n  revert\n    /* \"#utility.yul\":334:451   */\ntag_12:\n    /* \"#utility.yul\":443:444   */\n  0x00\n    /* \"#utility.yul\":440:441   */\n  dup1\n    /* \"#utility.yul\":433:445   */\n  revert\n    /* \"#utility.yul\":457:574   */\ntag_13:\n    /* \"#utility.yul\":566:567   */\n  0x00\n    /* \"#utility.yul\":563:564   */\n  dup1\n    /* \"#utility.yul\":556:568   */\n  revert\n    /* \"#utility.yul\":580:682   */\ntag_14:\n    /* \"#utility.yul\":621:627   */\n  0x00\n    /* \"#utility.yul\":672:674   */\n  0x1f\n    /* \"#utility.yul\":668:675   */\n  not\n    /* \"#utility.yul\":663:665   */\n  0x1f\n    /* \"#utility.yul\":656:661   */\n  dup4\n    /* \"#utility.yul\":652:666   */\n  add\n    /* \"#utility.yul\":648:676   */\n  and\n    /* \"#utility.yul\":638:676   */\n  swap1\n  pop\n    /* \"#utility.yul\":580:682   */\n  swap2\n  swap1\n  pop\n  jump\t// out\n    /* \"#utility.yul\":688:868   */\ntag_15:\n    /* \"#utility.yul\":736:813   */\n  0x4e487b7100000000000000000000000000000000000000000000000000000000\n    /* \"#utility.yul\":733:734   */\n  0x00\n    /* \"#utility.yul\":726:814   */\n  mstore\n    /* \"#utility.yul\":833:837   */\n  0x41\n    /* \"#utility.yul\":830:831   */\n  0x04\n    /* \"#utility.yul\":823:838   */\n  mstore\n    /* \"#utility.yul\":857:861   */\n  0x24\n    /* \"#utility.yul\":854:855   */\n  0x00\n    /* \"#utility.yul\":847:862   */\n  revert\n    /* \"#utility.yul\":874:1155   */\ntag_16:\n    /* \"#utility.yul\":957:984   */\n  tag_54\n    /* \"#utility.yul\":979:983   */\n  dup3\n    /* \"#utility.yul\":957:984   */\n  tag_14\n  jump\t// in\ntag_54:\n    /* \"#utility.yul\":949:955   */\n  dup2\n    /* \"#utility.yul\":945:985   */\n  add\n    /* \"#utility.yul\":1087:1093   */\n  dup2\n    /* \"#utility.yul\":1075:1085   */\n  dup2\n    /* \"#utility.yul\":1072:1094   */\n  lt\n    /* \"#utility.yul\":1051:1069   */\n  0xffffffffffffffff\n    /* \"#utility.yul\":1039:1049   */\n  dup3\n    /* \"#utility.yul\":1036:1070   */\n  gt\n    /* \"#utility.yul\":1033:1095   */\n  or\n    /* \"#utility.yul\":1030:1118   */\n  iszero\n  tag_55\n  jumpi\n    /* \"#utility.yul\":1098:1116   */\n  tag_56\n  tag_15\n  jump\t// in\ntag_56:\n    /* \"#utility.yul\":1030:1118   */\ntag_55:\n    /* \"#utility.yul\":1138:1148   */\n  dup1\n    /* \"#utility.yul\":1134:1136   */\n  0x40\n    /* \"#utility.yul\":1127:1149   */\n  mstore\n    /* \"#utility.yul\":917:1155   */\n  pop\n    /* \"#utility.yul\":874:1155   */\n  pop\n  pop\n  jump\t// out\n    /* \"#utility.yul\":1161:1290   */\ntag_17:\n    /* \"#utility.yul\":1195:1201   */\n  0x00\n    /* \"#utility.yul\":1222:1242   */\n  tag_58\n  tag_9\n  jump\t// in\ntag_58:\n    /* \"#utility.yul\":1212:1242   */\n  swap1\n  pop\n    /* \"#utility.yul\":1251:1284   */\n  tag_59\n    /* \"#utility.yul\":1279:1283   */\n  dup3\n    /* \"#utility.yul\":1271:1277   */\n  dup3\n    /* \"#utility.yul\":1251:1284   */\n  tag_16\n  jump\t// in\ntag_59:\n    /* \"#utility.yul\":1161:1290   */\n  swap2\n  swap1\n  pop\n  jump\t// out\n    /* \"#utility.yul\":1296:1604   */\ntag_18:\n    /* \"#utility.yul\":1358:1362   */\n  0x00\n    /* \"#utility.yul\":1448:1466   */\n  0xffffffffffffffff\n    /* \"#utility.yul\":1440:1446   */\n  dup3\n    /* \"#utility.yul\":1437:1467   */\n  gt\n    /* \"#utility.yul\":1434:1490   */\n  iszero\n  tag_61\n  jumpi\n    /* \"#utility.yul\":1470:1488   */\n  tag_62\n  tag_15\n  jump\t// in\ntag_62:\n    /* \"#utility.yul\":1434:1490   */\ntag_61:\n    /* \"#utility.yul\":1508:1537   */\n  tag_63\n    /* \"#utility.yul\":1530:1536   */\n  dup3\n    /* \"#utility.yul\":1508:1537   */\n  tag_14\n  jump\t// in\ntag_63:\n    /* \"#utility.yul\":1500:1537   */\n  swap1\n  pop\n    /* \"#utility.yul\":1592:1596   */\n  0x20\n    /* \"#utility.yul\":1586:1590   */\n  dup2\n    /* \"#utility.yul\":1582:1597   */\n  add\n    /* \"#utility.yul\":1574:1597   */\n  swap1\n  pop\n    /* \"#utility.yul\":1296:1604   */\n  swap2\n  swap1\n  pop\n  jump\t// out\n    /* \"#utility.yul\":1610:1749   */\ntag_19:\n    /* \"#utility.yul\":1699:1705   */\n  dup3\n    /* \"#utility.yul\":1694:1697   */\n  dup2\n    /* \"#utility.yul\":1689:1692   */\n  dup4\n    /* \"#utility.yul\":1683:1706   */\n  mcopy\n    /* \"#utility.yul\":1740:1741   */\n  0x00\n    /* \"#utility.yul\":1731:1737   */\n  dup4\n    /* \"#utility.yul\":1726:1729   */\n  dup4\n    /* \"#utility.yul\":1722:1738   */\n  add\n    /* \"#utility.yul\":1715:1742   */\n  mstore\n    /* \"#utility.yul\":1610:1749   */\n  pop\n  pop\n  pop\n  jump\t// out\n    /* \"#utility.yul\":1755:2189   */\ntag_20:\n    /* \"#utility.yul\":1844:1849   */\n  0x00\n    /* \"#utility.yul\":1869:1935   */\n  tag_66\n    /* \"#utility.yul\":1885:1934   */\n  tag_67\n    /* \"#utility.yul\":1927:1933   */\n  dup5\n    /* \"#utility.yul\":1885:1934   */\n  tag_18\n  jump\t// in\ntag_67:\n    /* \"#utility.yul\":1869:1935   */\n  tag_17\n  jump\t// in\ntag_66:\n    /* \"#utility.yul\":1860:1935   */\n  swap1\n  pop\n    /* \"#utility.yul\":1958:1964   */\n  dup3\n    /* \"#utility.yul\":1951:1956   */\n  dup2\n    /* \"#utility.yul\":1944:1965   */\n  mstore\n    /* \"#utility.yul\":1996:2000   */\n  0x20\n    /* \"#utility.yul\":1989:1994   */\n  dup2\n    /* \"#utility.yul\":1985:2001   */\n  add\n    /* \"#utility.yul\":2034:2037   */\n  dup5\n    /* \"#utility.yul\":2025:2031   */\n  dup5\n    /* \"#utility.yul\":2020:2023   */\n  dup5\n    /* \"#utility.yul\":2016:2032   */\n  add\n    /* \"#utility.yul\":2013:2038   */\n  gt\n    /* \"#utility.yul\":2010:2122   */\n  iszero\n  tag_68\n  jumpi\n    /* \"#utility.yul\":2041:2120   */\n  tag_69\n  tag_13\n  jump\t// in\ntag_69:\n    /* \"#utility.yul\":2010:2122   */\ntag_68:\n    /* \"#utility.yul\":2131:2183   */\n  tag_70\n    /* \"#utility.yul\":2176:2182   */\n  dup5\n    /* \"#utility.yul\":2171:2174   */\n  dup3\n    /* \"#utility.yul\":2166:2169   */\n  dup6\n    /* \"#utility.yul\":2131:2183   */\n  tag_19\n  jump\t// in\ntag_70:\n    /* \"#utility.yul\":1850:2189   */\n  pop\n    /* \"#utility.yul\":1755:2189   */\n  swap4\n  swap3\n  pop\n  pop\n  pop\n  jump\t// out\n    /* \"#utility.yul\":2209:2564   */\ntag_21:\n    /* \"#utility.yul\":2276:2281   */\n  0x00\n    /* \"#utility.yul\":2325:2328   */\n  dup3\n    /* \"#utility.yul\":2318:2322   */\n  0x1f\n    /* \"#utility.yul\":2310:2316   */\n  dup4\n    /* \"#utility.yul\":2306:2323   */\n  add\n    /* \"#utility.yul\":2302:2329   */\n  slt\n    /* \"#utility.yul\":2292:2414   */\n  tag_72\n  jumpi\n    /* \"#utility.yul\":2333:2412   */\n  tag_73\n  tag_12\n  jump\t// in\ntag_73:\n    /* \"#utility.yul\":2292:2414   */\ntag_72:\n    /* \"#utility.yul\":2443:2449   */\n  dup2\n    /* \"#utility.yul\":2437:2450   */\n  mload\n    /* \"#utility.yul\":2468:2558   */\n  tag_74\n    /* \"#utility.yul\":2554:2557   */\n  dup5\n    /* \"#utility.yul\":2546:2552   */\n  dup3\n    /* \"#utility.yul\":2539:2543   */\n  0x20\n    /* \"#utility.yul\":2531:2537   */\n  dup7\n    /* \"#utility.yul\":2527:2544   */\n  add\n    /* \"#utility.yul\":2468:2558   */\n  tag_20\n  jump\t// in\ntag_74:\n    /* \"#utility.yul\":2459:2558   */\n  swap2\n  pop\n    /* \"#utility.yul\":2282:2564   */\n  pop\n    /* \"#utility.yul\":2209:2564   */\n  swap3\n  swap2\n  pop\n  pop\n  jump\t// out\n    /* \"#utility.yul\":2570:2696   */\ntag_22:\n    /* \"#utility.yul\":2607:2614   */\n  0x00\n    /* \"#utility.yul\":2647:2689   */\n  0xffffffffffffffffffffffffffffffffffffffff\n    /* \"#utility.yul\":2640:2645   */\n  dup3\n    /* \"#utility.yul\":2636:2690   */\n  and\n    /* \"#utility.yul\":2625:2690   */\n  swap1\n  pop\n    /* \"#utility.yul\":2570:2696   */\n  swap2\n  swap1\n  pop\n  jump\t// out\n    /* \"#utility.yul\":2702:2798   */\ntag_23:\n    /* \"#utility.yul\":2739:2746   */\n  0x00\n    /* \"#utility.yul\":2768:2792   */\n  tag_77\n    /* \"#utility.yul\":2786:2791   */\n  dup3\n    /* \"#utility.yul\":2768:2792   */\n  tag_22\n  jump\t// in\ntag_77:\n    /* \"#utility.yul\":2757:2792   */\n  swap1\n  pop\n    /* \"#utility.yul\":2702:2798   */\n  swap2\n  swap1\n  pop\n  jump\t// out\n    /* \"#utility.yul\":2804:2926   */\ntag_24:\n    /* \"#utility.yul\":2877:2901   */\n  tag_79\n    /* \"#utility.yul\":2895:2900   */\n  dup2\n    /* \"#utility.yul\":2877:2901   */\n  tag_23\n  jump\t// in\ntag_79:\n    /* \"#utility.yul\":2870:2875   */\n  dup2\n    /* \"#utility.yul\":2867:2902   */\n  eq\n    /* \"#utility.yul\":2857:2920   */\n  tag_80\n  jumpi\n    /* \"#utility.yul\":2916:2917   */\n  0x00\n    /* \"#utility.yul\":2913:2914   */\n  dup1\n    /* \"#utility.yul\":2906:2918   */\n  revert\n    /* \"#utility.yul\":2857:2920   */\ntag_80:\n    /* \"#utility.yul\":2804:2926   */\n  pop\n  jump\t// out\n    /* \"#utility.yul\":2932:3075   */\ntag_25:\n    /* \"#utility.yul\":2989:2994   */\n  0x00\n    /* \"#utility.yul\":3020:3026   */\n  dup2\n    /* \"#utility.yul\":3014:3027   */\n  mload\n    /* \"#utility.yul\":3005:3027   */\n  swap1\n  pop\n    /* \"#utility.yul\":3036:3069   */\n  tag_82\n    /* \"#utility.yul\":3063:3068   */\n  dup2\n    /* \"#utility.yul\":3036:3069   */\n  tag_24\n  jump\t// in\ntag_82:\n    /* \"#utility.yul\":2932:3075   */\n  swap3\n  swap2\n  pop\n  pop\n  jump\t// out\n    /* \"#utility.yul\":3081:3761   */\ntag_3:\n    /* \"#utility.yul\":3170:3176   */\n  0x00\n    /* \"#utility.yul\":3178:3184   */\n  dup1\n    /* \"#utility.yul\":3227:3229   */\n  0x40\n    /* \"#utility.yul\":3215:3224   */\n  dup4\n    /* \"#utility.yul\":3206:3213   */\n  dup6\n    /* \"#utility.yul\":3202:3225   */\n  sub\n    /* \"#utility.yul\":3198:3230   */\n  slt\n    /* \"#utility.yul\":3195:3314   */\n  iszero\n  tag_84\n  jumpi\n    /* \"#utility.yul\":3233:3312   */\n  tag_85\n  tag_10\n  jump\t// in\ntag_85:\n    /* \"#utility.yul\":3195:3314   */\ntag_84:\n    /* \"#utility.yul\":3374:3375   */\n  0x00\n    /* \"#utility.yul\":3363:3372   */\n  dup4\n    /* \"#utility.yul\":3359:3376   */\n  add\n    /* \"#utility.yul\":3353:3377   */\n  mload\n    /* \"#utility.yul\":3404:3422   */\n  0xffffffffffffffff\n    /* \"#utility.yul\":3396:3402   */\n  dup2\n    /* \"#utility.yul\":3393:3423   */\n  gt\n    /* \"#utility.yul\":3390:3507   */\n  iszero\n  tag_86\n  jumpi\n    /* \"#utility.yul\":3426:3505   */\n  tag_87\n  tag_11\n  jump\t// in\ntag_87:\n    /* \"#utility.yul\":3390:3507   */\ntag_86:\n    /* \"#utility.yul\":3531:3605   */\n  tag_88\n    /* \"#utility.yul\":3597:3604   */\n  dup6\n    /* \"#utility.yul\":3588:3594   */\n  dup3\n    /* \"#utility.yul\":3577:3586   */\n  dup7\n    /* \"#utility.yul\":3573:3595   */\n  add\n    /* \"#utility.yul\":3531:3605   */\n  tag_21\n  jump\t// in\ntag_88:\n    /* \"#utility.yul\":3521:3605   */\n  swap3\n  pop\n    /* \"#utility.yul\":3324:3615   */\n  pop\n    /* \"#utility.yul\":3654:3656   */\n  0x20\n    /* \"#utility.yul\":3680:3744   */\n  tag_89\n    /* \"#utility.yul\":3736:3743   */\n  dup6\n    /* \"#utility.yul\":3727:3733   */\n  dup3\n    /* \"#utility.yul\":3716:3725   */\n  dup7\n    /* \"#utility.yul\":3712:3734   */\n  add\n    /* \"#utility.yul\":3680:3744   */\n  tag_25\n  jump\t// in\ntag_89:\n    /* \"#utility.yul\":3670:3744   */\n  swap2\n  pop\n    /* \"#utility.yul\":3625:3754   */\n  pop\n    /* \"#utility.yul\":3081:3761   */\n  swap3\n  pop\n  swap3\n  swap1\n  pop\n  jump\t// out\n    /* \"#utility.yul\":3767:3866   */\ntag_26:\n    /* \"#utility.yul\":3819:3825   */\n  0x00\n    /* \"#utility.yul\":3853:3858   */\n  dup2\n    /* \"#utility.yul\":3847:3859   */\n  mload\n    /* \"#utility.yul\":3837:3859   */\n  swap1\n  pop\n    /* \"#utility.yul\":3767:3866   */\n  swap2\n  swap1\n  pop\n  jump\t// out\n    /* \"#utility.yul\":3872:4052   */\ntag_27:\n    /* \"#utility.yul\":3920:3997   */\n  0x4e487b7100000000000000000000000000000000000000000000000000000000\n    /* \"#utility.yul\":3917:3918   */\n  0x00\n    /* \"#utility.yul\":3910:3998   */\n  mstore\n    /* \"#utility.yul\":4017:4021   */\n  0x22\n    /* \"#utility.yul\":4014:4015   */\n  0x04\n    /* \"#utility.yul\":4007:4022   */\n  mstore\n    /* \"#utility.yul\":4041:4045   */\n  0x24\n    /* \"#utility.yul\":4038:4039   */\n  0x00\n    /* \"#utility.yul\":4031:4046   */\n  revert\n    /* \"#utility.yul\":4058:4378   */\ntag_28:\n    /* \"#utility.yul\":4102:4108   */\n  0x00\n    /* \"#utility.yul\":4139:4140   */\n  0x02\n    /* \"#utility.yul\":4133:4137   */\n  dup3\n    /* \"#utility.yul\":4129:4141   */\n  div\n    /* \"#utility.yul\":4119:4141   */\n  swap1\n  pop\n    /* \"#utility.yul\":4186:4187   */\n  0x01\n    /* \"#utility.yul\":4180:4184   */\n  dup3\n    /* \"#utility.yul\":4176:4188   */\n  and\n    /* \"#utility.yul\":4207:4225   */\n  dup1\n    /* \"#utility.yul\":4197:4278   */\n  tag_93\n  jumpi\n    /* \"#utility.yul\":4263:4267   */\n  0x7f\n    /* \"#utility.yul\":4255:4261   */\n  dup3\n    /* \"#utility.yul\":4251:4268   */\n  and\n    /* \"#utility.yul\":4241:4268   */\n  swap2\n  pop\n    /* \"#utility.yul\":4197:4278   */\ntag_93:\n    /* \"#utility.yul\":4325:4327   */\n  0x20\n    /* \"#utility.yul\":4317:4323   */\n  dup3\n    /* \"#utility.yul\":4314:4328   */\n  lt\n    /* \"#utility.yul\":4294:4312   */\n  dup2\n    /* \"#utility.yul\":4291:4329   */\n  sub\n    /* \"#utility.yul\":4288:4372   */\n  tag_94\n  jumpi\n    /* \"#utility.yul\":4344:4362   */\n  tag_95\n  tag_27\n  jump\t// in\ntag_95:\n    /* \"#utility.yul\":4288:4372   */\ntag_94:\n    /* \"#utility.yul\":4109:4378   */\n  pop\n    /* \"#utility.yul\":4058:4378   */\n  swap2\n  swap1\n  pop\n  jump\t// out\n    /* \"#utility.yul\":4384:4525   */\ntag_29:\n    /* \"#utility.yul\":4433:4437   */\n  0x00\n    /* \"#utility.yul\":4456:4459   */\n  dup2\n    /* \"#utility.yul\":4448:4459   */\n  swap1\n  pop\n    /* \"#utility.yul\":4479:4482   */\n  dup2\n    /* \"#utility.yul\":4476:4477   */\n  0x00\n    /* \"#utility.yul\":4469:4483   */\n  mstore\n    /* \"#utility.yul\":4513:4517   */\n  0x20\n    /* \"#utility.yul\":4510:4511   */\n  0x00\n    /* \"#utility.yul\":4500:4518   */\n  keccak256\n    /* \"#utility.yul\":4492:4518   */\n  swap1\n  pop\n    /* \"#utility.yul\":4384:4525   */\n  swap2\n  swap1\n  pop\n  jump\t// out\n    /* \"#utility.yul\":4531:4624   */\ntag_30:\n    /* \"#utility.yul\":4568:4574   */\n  0x00\n    /* \"#utility.yul\":4615:4617   */\n  0x20\n    /* \"#utility.yul\":4610:4612   */\n  0x1f\n    /* \"#utility.yul\":4603:4608   */\n  dup4\n    /* \"#utility.yul\":4599:4613   */\n  add\n    /* \"#utility.yul\":4595:4618   */\n  div\n    /* \"#utility.yul\":4585:4618   */\n  swap1\n  pop\n    /* \"#utility.yul\":4531:4624   */\n  swap2\n  swap1\n  pop\n  jump\t// out\n    /* \"#utility.yul\":4630:4737   */\ntag_31:\n    /* \"#utility.yul\":4674:4682   */\n  0x00\n    /* \"#utility.yul\":4724:4729   */\n  dup3\n    /* \"#utility.yul\":4718:4722   */\n  dup3\n    /* \"#utility.yul\":4714:4730   */\n  shl\n    /* \"#utility.yul\":4693:4730   */\n  swap1\n  pop\n    /* \"#utility.yul\":4630:4737   */\n  swap3\n  swap2\n  pop\n  pop\n  jump\t// out\n    /* \"#utility.yul\":4743:5136   */\ntag_32:\n    /* \"#utility.yul\":4812:4818   */\n  0x00\n    /* \"#utility.yul\":4862:4863   */\n  0x08\n    /* \"#utility.yul\":4850:4860   */\n  dup4\n    /* \"#utility.yul\":4846:4864   */\n  mul\n    /* \"#utility.yul\":4885:4982   */\n  tag_100\n    /* \"#utility.yul\":4915:4981   */\n  0xffffffffffffffffffffffffffffffffffffffffffffffffffffffffffffffff\n    /* \"#utility.yul\":4904:4913   */\n  dup3\n    /* \"#utility.yul\":4885:4982   */\n  tag_31\n  jump\t// in\ntag_100:\n    /* \"#utility.yul\":5003:5042   */\n  tag_101\n    /* \"#utility.yul\":5033:5041   */\n  dup7\n    /* \"#utility.yul\":5022:5031   */\n  dup4\n    /* \"#utility.yul\":5003:5042   */\n  tag_31\n  jump\t// in\ntag_101:\n    /* \"#utility.yul\":4991:5042   */\n  swap6\n  pop\n    /* \"#utility.yul\":5075:5079   */\n  dup1\n    /* \"#utility.yul\":5071:5080   */\n  not\n    /* \"#utility.yul\":5064:5069   */\n  dup5\n    /* \"#utility.yul\":5060:5081   */\n  and\n    /* \"#utility.yul\":5051:5081   */\n  swap4\n  pop\n    /* \"#utility.yul\":5124:5128   */\n  dup1\n    /* \"#utility.yul\":5114:5122   */\n  dup7\n    /* \"#utility.yul\":5110:5129   */\n  and\n    /* \"#utility.yul\":5103:5108   */\n  dup5\n    /* \"#utility.yul\":5100:5130   */\n  or\n    /* \"#utility.yul\":5090:5130   */\n  swap3\n  pop\n    /* \"#utility.yul\":4819:5136   */\n  pop\n  pop\n    /* \"#utility.yul\":4743:5136   */\n  swap4\n  swap3\n  pop\n  pop\n  pop\n  jump\t// out\n    /* \"#utility.yul\":5142:5219   */\ntag_33:\n    /* \"#utility.yul\":5179:5186   */\n  0x00\n    /* \"#utility.yul\":5208:5213   */\n  dup2\n    /* \"#utility.yul\":5197:5213   */\n  swap1\n  pop\n    /* \"#utility.yul\":5142:5219   */\n  swap2\n  swap1\n  pop\n  jump\t// out\n    /* \"#utility.yul\":5225:5285   */\ntag_34:\n    /* \"#utility.yul\":5253:5256   */\n  0x00\n    /* \"#utility.yul\":5274:5279   */\n  dup2\n    /* \"#utility.yul\":5267:5279   */\n  swap1\n  pop\n    /* \"#utility.yul\":5225:5285   */\n  swap2\n  swap1\n  pop\n  jump\t// out\n    /* \"#utility.yul\":5291:5433   */\ntag_35:\n    /* \"#utility.yul\":5341:5350   */\n  0x00\n    /* \"#utility.yul\":5374:5427   */\n  tag_105\n    /* \"#utility.yul\":5392:5426   */\n  tag_106\n    /* \"#utility.yul\":5401:5425   */\n  tag_107\n    /* \"#utility.yul\":5419:5424   */\n  dup5\n    /* \"#utility.yul\":5401:5425   */\n  tag_33\n  jump\t// in\ntag_107:\n    /* \"#utility.yul\":5392:5426   */\n  tag_34\n  jump\t// in\ntag_106:\n    /* \"#utility.yul\":5374:5427   */\n  tag_33\n  jump\t// in\ntag_105:\n    /* \"#utility.yul\":5361:5427   */\n  swap1\n  pop\n    /* \"#utility.yul\":5291:5433   */\n  swap2\n  swap1\n  pop\n  jump\t// out\n    /* \"#utility.yul\":5439:5514   */\ntag_36:\n    /* \"#utility.yul\":5482:5485   */\n  0x00\n    /* \"#utility.yul\":5503:5508   */\n  dup2\n    /* \"#utility.yul\":5496:5508   */\n  swap1\n  pop\n    /* \"#utility.yul\":5439:5514   */\n  swap2\n  swap1\n  pop\n  jump\t// out\n    /* \"#utility.yul\":5520:5789   */\ntag_37:\n    /* \"#utility.yul\":5630:5669   */\n  tag_110\n    /* \"#utility.yul\":5661:5668   */\n  dup4\n    /* \"#utility.yul\":5630:5669   */\n  tag_35\n  jump\t// in\ntag_110:\n    /* \"#utility.yul\":5691:5782   */\n  tag_111\n    /* \"#utility.yul\":5740:5781   */\n  tag_112\n    /* \"#utility.yul\":5764:5780   */\n  dup3\n    /* \"#utility.yul\":5740:5781   */\n  tag_36\n  jump\t// in\ntag_112:\n    /* \"#utility.yul\":5732:5738   */\n  dup5\n    /* \"#utility.yul\":5725:5729   */\n  dup5\n    /* \"#utility.yul\":5719:5730   */\n  sload\n    /* \"#utility.yul\":5691:5782   */\n  tag_32\n  jump\t// in\ntag_111:\n    /* \"#utility.yul\":5685:5689   */\n  dup3\n    /* \"#utility.yul\":5678:5783   */\n  sstore\n    /* \"#utility.yul\":5596:5789   */\n  pop\n    /* \"#utility.yul\":5520:5789   */\n  pop\n  pop\n  pop\n  jump\t// out\n    /* \"#utility.yul\":5795:5868   */\ntag_38:\n    /* \"#utility.yul\":5840:5843   */\n  0x00\n    /* \"#utility.yul\":5795:5868   */\n  swap1\n  jump\t// out\n    /* \"#utility.yul\":5874:6063   */\ntag_39:\n    /* \"#utility.yul\":5951:5983   */\n  tag_115\n  tag_38\n  jump\t// in\ntag_115:\n    /* \"#utility.yul\":5992:6057   */\n  tag_116\n    /* \"#utility.yul\":6050:6056   */\n  dup2\n    /* \"#utility.yul\":6042:6048   */\n  dup5\n    /* \"#utility.yul\":6036:6040   */\n  dup5\n    /* \"#utility.yul\":5992:6057   */\n  tag_37\n  jump\t// in\ntag_116:\n    /* \"#utility.yul\":5927:6063   */\n  pop\n    /* \"#utility.yul\":5874:6063   */\n  pop\n  pop\n  jump\t// out\n    /* \"#utility.yul\":6069:6255   */\ntag_40:\n    /* \"#utility.yul\":6129:6249   */\ntag_118:\n    /* \"#utility.yul\":6146:6149   */\n  dup2\n    /* \"#utility.yul\":6139:6144   */\n  dup2\n    /* \"#utility.yul\":6136:6150   */\n  lt\n    /* \"#utility.yul\":6129:6249   */\n  iszero\n  tag_120\n  jumpi\n    /* \"#utility.yul\":6200:6239   */\n  tag_121\n    /* \"#utility.yul\":6237:6238   */\n  0x00\n    /* \"#utility.yul\":6230:6235   */\n  dup3\n    /* \"#utility.yul\":6200:6239   */\n  tag_39\n  jump\t// in\ntag_121:\n    /* \"#utility.yul\":6173:6174   */\n  0x01\n    /* \"#utility.yul\":6166:6171   */\n  dup2\n    /* \"#utility.yul\":6162:6175   */\n  add\n    /* \"#utility.yul\":6153:6175   */\n  swap1\n  pop\n    /* \"#utility.yul\":6129:6249   */\n  jump(tag_118)\ntag_120:\n    /* \"#utility.yul\":6069:6255   */\n  pop\n  pop\n  jump\t// out\n    /* \"#utility.yul\":6261:6804   */\ntag_41:\n    /* \"#utility.yul\":6362:6364   */\n  0x1f\n    /* \"#utility.yul\":6357:6360   */\n  dup3\n    /* \"#utility.yul\":6354:6365   */\n  gt\n    /* \"#utility.yul\":6351:6797   */\n  iszero\n  tag_123\n  jumpi\n    /* \"#utility.yul\":6396:6434   */\n  tag_124\n    /* \"#utility.yul\":6428:6433   */\n  dup2\n    /* \"#utility.yul\":6396:6434   */\n  tag_29\n  jump\t// in\ntag_124:\n    /* \"#utility.yul\":6480:6509   */\n  tag_125\n    /* \"#utility.yul\":6498:6508   */\n  dup5\n    /* \"#utility.yul\":6480:6509   */\n  tag_30\n  jump\t// in\ntag_125:\n    /* \"#utility.yul\":6470:6478   */\n  dup2\n    /* \"#utility.yul\":6466:6510   */\n  add\n    /* \"#utility.yul\":6663:6665   */\n  0x20\n    /* \"#utility.yul\":6651:6661   */\n  dup6\n    /* \"#utility.yul\":6648:6666   */\n  lt\n    /* \"#utility.yul\":6645:6694   */\n  iszero\n  tag_126\n  jumpi\n    /* \"#utility.yul\":6684:6692   */\n  dup2\n    /* \"#utility.yul\":6669:6692   */\n  swap1\n  pop\n    /* \"#utility.yul\":6645:6694   */\ntag_126:\n    /* \"#utility.yul\":6707:6787   */\n  tag_127\n    /* \"#utility.yul\":6763:6785   */\n  tag_128\n    /* \"#utility.yul\":6781:6784   */\n  dup6\n    /* \"#utility.yul\":6763:6785   */\n  tag_30\n  jump\t// in\ntag_128:\n    /* \"#utility.yul\":6753:6761   */\n  dup4\n    /* \"#utility.yul\":6749:6786   */\n  add\n    /* \"#utility.yul\":6736:6747   */\n  dup3\n    /* \"#utility.yul\":6707:6787   */\n  tag_40\n  jump\t// in\ntag_127:\n    /* \"#utility.yul\":6366:6797   */\n  pop\n  pop\n    /* \"#utility.yul\":6351:6797   */\ntag_123:\n    /* \"#utility.yul\":6261:6804   */\n  pop\n  pop\n  pop\n  jump\t// out\n    /* \"#utility.yul\":6810:6927   */\ntag_42:\n    /* \"#utility.yul\":6864:6872   */\n  0x00\n    /* \"#utility.yul\":6914:6919   */\n  dup3\n    /* \"#utility.yul\":6908:6912   */\n  dup3\n    /* \"#utility.yul\":6904:6920   */\n  shr\n    /* \"#utility.yul\":6883:6920   */\n  swap1\n  pop\n    /* \"#utility.yul\":6810:6927   */\n  swap3\n  swap2\n  pop\n  pop\n  jump\t// out\n    /* \"#utility.yul\":6933:7102   */\ntag_43:\n    /* \"#utility.yul\":6977:6983   */\n  0x00\n    /* \"#utility.yul\":7010:7061   */\n  tag_131\n    /* \"#utility.yul\":7058:7059   */\n  0x00\n    /* \"#utility.yul\":7054:7060   */\n  not\n    /* \"#utility.yul\":7046:7051   */\n  dup5\n    /* \"#utility.yul\":7043:7044   */\n  0x08\n    /* \"#utility.yul\":7039:7052   */\n  mul\n    /* \"#utility.yul\":7010:7061   */\n  tag_42\n  jump\t// in\ntag_131:\n    /* \"#utility.yul\":7006:7062   */\n  not\n    /* \"#utility.yul\":7091:7095   */\n  dup1\n    /* \"#utility.yul\":7085:7089   */\n  dup4\n    /* \"#utility.yul\":7081:7096   */\n  and\n    /* \"#utility.yul\":7071:7096   */\n  swap2\n  pop\n    /* \"#utility.yul\":6984:7102   */\n  pop\n    /* \"#utility.yul\":6933:7102   */\n  swap3\n  swap2\n  pop\n  pop\n  jump\t// out\n    /* \"#utility.yul\":7107:7402   */\ntag_44:\n    /* \"#utility.yul\":7183:7187   */\n  0x00\n    /* \"#utility.yul\":7329:7358   */\n  tag_133\n    /* \"#utility.yul\":7354:7357   */\n  dup4\n    /* \"#utility.yul\":7348:7352   */\n  dup4\n    /* \"#utility.yul\":7329:7358   */\n  tag_43\n  jump\t// in\ntag_133:\n    /* \"#utility.yul\":7321:7358   */\n  swap2\n  pop\n    /* \"#utility.yul\":7391:7394   */\n  dup3\n    /* \"#utility.yul\":7388:7389   */\n  0x02\n    /* \"#utility.yul\":7384:7395   */\n  mul\n    /* \"#utility.yul\":7378:7382   */\n  dup3\n    /* \"#utility.yul\":7375:7396   */\n  or\n    /* \"#utility.yul\":7367:7396   */\n  swap1\n  pop\n    /* \"#utility.yul\":7107:7402   */\n  swap3\n  swap2\n  pop\n  pop\n  jump\t// out\n    /* \"#utility.yul\":7407:8802   */\ntag_7:\n    /* \"#utility.yul\":7524:7561   */\n  tag_135\n    /* \"#utility.yul\":7557:7560   */\n  dup3\n    /* \"#utility.yul\":7524:7561   */\n  tag_26\n  jump\t// in\ntag_135:\n    /* \"#utility.yul\":7626:7644   */\n  0xffffffffffffffff\n    /* \"#utility.yul\":7618:7624   */\n  dup2\n    /* \"#utility.yul\":7615:7645   */\n  gt\n    /* \"#utility.yul\":7612:7668   */\n  iszero\n  tag_136\n  jumpi\n    /* \"#utility.yul\":7648:7666   */\n  tag_137\n  tag_15\n  jump\t// in\ntag_137:\n    /* \"#utility.yul\":7612:7668   */\ntag_136:\n    /* \"#utility.yul\":7692:7730   */\n  tag_138\n    /* \"#utility.yul\":7724:7728   */\n  dup3\n    /* \"#utility.yul\":7718:7729   */\n  sload\n    /* \"#utility.yul\":7692:7730   */\n  tag_28\n  jump\t// in\ntag_138:\n    /* \"#utility.yul\":7777:7844   */\n  tag_139\n    /* \"#utility.yul\":7837:7843   */\n  dup3\n    /* \"#utility.yul\":7829:7835   */\n  dup3\n    /* \"#utility.yul\":7823:7827   */\n  dup6\n    /* \"#utility.yul\":7777:7844   */\n  tag_41\n  jump\t// in\ntag_139:\n    /* \"#utility.yul\":7871:7872   */\n  0x00\n    /* \"#utility.yul\":7895:7899   */\n  0x20\n    /* \"#utility.yul\":7882:7899   */\n  swap1\n  pop\n    /* \"#utility.yul\":7927:7929   */\n  0x1f\n    /* \"#utility.yul\":7919:7925   */\n  dup4\n    /* \"#utility.yul\":7916:7930   */\n  gt\n    /* \"#utility.yul\":7944:7945   */\n  0x01\n    /* \"#utility.yul\":7939:8557   */\n  dup2\n  eq\n  tag_141\n  jumpi\n    /* \"#utility.yul\":8601:8602   */\n  0x00\n    /* \"#utility.yul\":8618:8624   */\n  dup5\n    /* \"#utility.yul\":8615:8692   */\n  iszero\n  tag_142\n  jumpi\n    /* \"#utility.yul\":8667:8676   */\n  dup3\n    /* \"#utility.yul\":8662:8665   */\n  dup8\n    /* \"#utility.yul\":8658:8677   */\n  add\n    /* \"#utility.yul\":8652:8678   */\n  mload\n    /* \"#utility.yul\":8643:8678   */\n  swap1\n  pop\n    /* \"#utility.yul\":8615:8692   */\ntag_142:\n    /* \"#utility.yul\":8718:8785   */\n  tag_143\n    /* \"#utility.yul\":8778:8784   */\n  dup6\n    /* \"#utility.yul\":8771:8776   */\n  dup3\n    /* \"#utility.yul\":8718:8785   */\n  tag_44\n  jump\t// in\ntag_143:\n    /* \"#utility.yul\":8712:8716   */\n  dup7\n    /* \"#utility.yul\":8705:8786   */\n  sstore\n    /* \"#utility.yul\":8574:8796   */\n  pop\n    /* \"#utility.yul\":7909:8796   */\n  jump(tag_140)\n    /* \"#utility.yul\":7939:8557   */\ntag_141:\n    /* \"#utility.yul\":7991:7995   */\n  0x1f\n    /* \"#utility.yul\":7987:7996   */\n  not\n    /* \"#utility.yul\":7979:7985   */\n  dup5\n    /* \"#utility.yul\":7975:7997   */\n  and\n    /* \"#utility.yul\":8025:8062   */\n  tag_144\n    /* \"#utility.yul\":8057:8061   */\n  dup7\n    /* \"#utility.yul\":8025:8062   */\n  tag_29\n  jump\t// in\ntag_144:\n    /* \"#utility.yul\":8084:8085   */\n  0x00\n    /* \"#utility.yul\":8098:8306   */\ntag_145:\n    /* \"#utility.yul\":8112:8119   */\n  dup3\n    /* \"#utility.yul\":8109:8110   */\n  dup2\n    /* \"#utility.yul\":8106:8120   */\n  lt\n    /* \"#utility.yul\":8098:8306   */\n  iszero\n  tag_147\n  jumpi\n    /* \"#utility.yul\":8191:8200   */\n  dup5\n    /* \"#utility.yul\":8186:8189   */\n  dup10\n    /* \"#utility.yul\":8182:8201   */\n  add\n    /* \"#utility.yul\":8176:8202   */\n  mload\n    /* \"#utility.yul\":8168:8174   */\n  dup3\n    /* \"#utility.yul\":8161:8203   */\n  sstore\n    /* \"#utility.yul\":8242:8243   */\n  0x01\n    /* \"#utility.yul\":8234:8240   */\n  dup3\n    /* \"#utility.yul\":8230:8244   */\n  add\n    /* \"#utility.yul\":8220:8244   */\n  swap2\n  pop\n    /* \"#utility.yul\":8289:8291   */\n  0x20\n    /* \"#utility.yul\":8278:8287   */\n  dup6\n    /* \"#utility.yul\":8274:8292   */\n  add\n    /* \"#utility.yul\":8261:8292   */\n  swap5\n  pop\n    /* \"#utility.yul\":8135:8139   */\n  0x20\n    /* \"#utility.yul\":8132:8133   */\n  dup2\n    /* \"#utility.yul\":8128:8140   */\n  add\n    /* \"#utility.yul\":8123:8140   */\n  swap1\n  pop\n    /* \"#utility.yul\":8098:8306   */\n  jump(tag_145)\ntag_147:\n    /* \"#utility.yul\":8334:8340   */\n  dup7\n    /* \"#utility.yul\":8325:8332   */\n  dup4\n    /* \"#utility.yul\":8322:8341   */\n  lt\n    /* \"#utility.yul\":8319:8498   */\n  iszero\n  tag_148\n  jumpi\n    /* \"#utility.yul\":8392:8401   */\n  dup5\n    /* \"#utility.yul\":8387:8390   */\n  dup10\n    /* \"#utility.yul\":8383:8402   */\n  add\n    /* \"#utility.yul\":8377:8403   */\n  mload\n    /* \"#utility.yul\":8435:8483   */\n  tag_149\n    /* \"#utility.yul\":8477:8481   */\n  0x1f\n    /* \"#utility.yul\":8469:8475   */\n  dup10\n    /* \"#utility.yul\":8465:8482   */\n  and\n    /* \"#utility.yul\":8454:8463   */\n  dup3\n    /* \"#utility.yul\":8435:8483   */\n  tag_43\n  jump\t// in\ntag_149:\n    /* \"#utility.yul\":8427:8433   */\n  dup4\n    /* \"#utility.yul\":8420:8484   */\n  sstore\n    /* \"#utility.yul\":8342:8498   */\n  pop\n    /* \"#utility.yul\":8319:8498   */\ntag_148:\n    /* \"#utility.yul\":8544:8545   */\n  0x01\n    /* \"#utility.yul\":8540:8541   */\n  0x02\n    /* \"#utility.yul\":8532:8538   */\n  dup9\n    /* \"#utility.yul\":8528:8542   */\n  mul\n    /* \"#utility.yul\":8524:8546   */\n  add\n    /* \"#utility.yul\":8518:8522   */\n  dup9\n    /* \"#utility.yul\":8511:8547   */\n  sstore\n    /* \"#utility.yul\":7946:8557   */\n  pop\n  pop\n  pop\n    /* \"#utility.yul\":7909:8796   */\ntag_140:\n  pop\n    /* \"#utility.yul\":7499:8802   */\n  pop\n  pop\n  pop\n    /* \"#utility.yul\":7407:8802   */\n  pop\n  pop\n  jump\t// out\n    /* \"contracts/Timelock.sol\":66:10900  contract Timelock {... */\ntag_8:\n  dataSize(sub_0)\n  dup1\n  dataOffset(sub_0)\n  0x00\n  codecopy\n  0x00\n  return\nstop\n\nsub_0: assembly {\n        /* \"contracts/Timelock.sol\":66:10900  contract Timelock {... */\n      mstore(0x40, 0x80)\n      jumpi(tag_1, lt(calldatasize, 0x04))\n      shr(0xe0, calldataload(0x00))\n      dup1\n      0xbaf61ac3\n      gt\n      tag_21\n      jumpi\n      dup1\n      0xd283238b\n      gt\n      tag_22\n      jumpi\n      dup1\n      0xd283238b\n      eq\n      tag_16\n      jumpi\n      dup1\n      0xd6d68177\n      eq\n      tag_17\n      jumpi\n      dup1\n      0xe62e7f04\n      eq\n      tag_18\n      jumpi\n      dup1\n      0xfb580b76\n      eq\n      tag_19\n      jumpi\n      dup1\n      0xff1529e7\n      eq\n      tag_20\n      jumpi\n      jump(tag_2)\n    tag_22:\n      dup1\n      0xbaf61ac3\n      eq\n      tag_12\n      jumpi\n      dup1\n      0xbd66528a\n      eq\n      tag_13\n      jumpi\n      dup1\n      0xc1a287e2\n      eq\n      tag_14\n      jumpi\n      dup1\n      0xc4d252f5\n      eq\n      tag_15\n      jumpi\n      jump(tag_2)\n    tag_21:\n      dup1\n      0x6b149d87\n      gt\n      tag_23\n      jumpi\n      dup1\n      0x6b149d87\n      eq\n      tag_7\n      jumpi\n      dup1\n      0x7284e416\n      eq\n      tag_8\n      jumpi\n      dup1\n      0x85d3ca09\n      eq\n      tag_9\n      jumpi\n      dup1\n      0x8da5cb5b\n      eq\n      tag_10\n      jumpi\n      dup1\n      0x9f81aed7\n      eq\n      tag_11\n      jumpi\n      jump(tag_2)\n    tag_23:\n      dup1\n      0x0dc051f8\n      eq\n      tag_3\n      jumpi\n      dup1\n      0x228250c9\n      eq\n      tag_4\n      jumpi\n      dup1\n      0x4125ff90\n      eq\n      tag_5\n      jumpi\n      dup1\n      0x4f4ac9a4\n      eq\n      tag_6\n      jumpi\n      jump(tag_2)\n    tag_1:\n      jumpi(tag_2, calldatasize)\n      stop\n    tag_2:\n      0x00\n      dup1\n      revert\n        /* \"contracts/Timelock.sol\":10097:10231  function isQueued(bytes32 _txId) public view returns (bool _isQueued) {... */\n    tag_3:\n      callvalue\n      dup1\n      iszero\n      tag_26\n      jumpi\n      0x00\n      dup1\n      revert\n    tag_26:\n      pop\n      tag_27\n      0x04\n      dup1\n      calldatasize\n      sub\n      dup2\n      add\n      swap1\n      tag_28\n      swap2\n      swap1\n      tag_29\n      jump\t// in\n    tag_28:\n      tag_30\n      jump\t// in\n    tag_27:\n      mload(0x40)\n      tag_31\n      swap2\n      swap1\n      tag_32\n      jump\t// in\n    tag_31:\n      mload(0x40)\n      dup1\n      swap2\n      sub\n      swap1\n      return\n        /* \"contracts/Timelock.sol\":8994:9035  mapping(bytes32 => Deposit) public queued */\n    tag_4:\n      callvalue\n      dup1\n      iszero\n      tag_33\n      jumpi\n      0x00\n      dup1\n      revert\n    tag_33:\n      pop\n      tag_34\n      0x04\n      dup1\n      calldatasize\n      sub\n      dup2\n      add\n      swap1\n      tag_35\n      swap2\n      swap1\n      tag_29\n      jump\t// in\n    tag_35:\n      tag_36\n      jump\t// in\n    tag_34:\n      mload(0x40)\n      tag_37\n      swap8\n      swap7\n      swap6\n      swap5\n      swap4\n      swap3\n      swap2\n      swap1\n      tag_38\n      jump\t// in\n    tag_37:\n      mload(0x40)\n      dup1\n      swap2\n      sub\n      swap1\n      return\n        /* \"contracts/Timelock.sol\":419:461  uint256 public constant MAX_DELAY = 172800 */\n    tag_5:\n      callvalue\n      dup1\n      iszero\n      tag_39\n      jumpi\n      0x00\n      dup1\n      revert\n    tag_39:\n      pop\n      tag_40\n      tag_41\n      jump\t// in\n    tag_40:\n      mload(0x40)\n      tag_42\n      swap2\n      swap1\n      tag_43\n      jump\t// in\n    tag_42:\n      mload(0x40)\n      dup1\n      swap2\n      sub\n      swap1\n      return\n        /* \"contracts/Timelock.sol\":575:1709  function queue(... */\n    tag_6:\n      callvalue\n      dup1\n      iszero\n      tag_44\n      jumpi\n      0x00\n      dup1\n      revert\n    tag_44:\n      pop\n      tag_45\n      0x04\n      dup1\n      calldatasize\n      sub\n      dup2\n      add\n      swap1\n      tag_46\n      swap2\n      swap1\n      tag_47\n      jump\t// in\n    tag_46:\n      tag_48\n      jump\t// in\n    tag_45:\n      stop\n        /* \"contracts/Timelock.sol\":5145:5251  function getDeposits() public view returns (Deposit[] memory) {... */\n    tag_7:\n      callvalue\n      dup1\n      iszero\n      tag_49\n      jumpi\n      0x00\n      dup1\n      revert\n    tag_49:\n      pop\n      tag_50\n      tag_51\n      jump\t// in\n    tag_50:\n      mload(0x40)\n      tag_52\n      swap2\n      swap1\n      tag_53\n      jump\t// in\n    tag_52:\n      mload(0x40)\n      dup1\n      swap2\n      sub\n      swap1\n      return\n        /* \"contracts/Timelock.sol\":116:141  string public description */\n    tag_8:\n      callvalue\n      dup1\n      iszero\n      tag_54\n      jumpi\n      0x00\n      dup1\n      revert\n    tag_54:\n      pop\n      tag_55\n      tag_56\n      jump\t// in\n    tag_55:\n      mload(0x40)\n      tag_57\n      swap2\n      swap1\n      tag_58\n      jump\t// in\n    tag_57:\n      mload(0x40)\n      dup1\n      swap2\n      sub\n      swap1\n      return\n        /* \"contracts/Timelock.sol\":9883:10091  function getTxId(... */\n    tag_9:\n      callvalue\n      dup1\n      iszero\n      tag_59\n      jumpi\n      0x00\n      dup1\n      revert\n    tag_59:\n      pop\n      tag_60\n      0x04\n      dup1\n      calldatasize\n      sub\n      dup2\n      add\n      swap1\n      tag_61\n      swap2\n      swap1\n      tag_47\n      jump\t// in\n    tag_61:\n      tag_62\n      jump\t// in\n    tag_60:\n      mload(0x40)\n      tag_63\n      swap2\n      swap1\n      tag_64\n      jump\t// in\n    tag_63:\n      mload(0x40)\n      dup1\n      swap2\n      sub\n      swap1\n      return\n        /* \"contracts/Timelock.sol\":90:110  address public owner */\n    tag_10:\n      callvalue\n      dup1\n      iszero\n      tag_65\n      jumpi\n      0x00\n      dup1\n      revert\n    tag_65:\n      pop\n      tag_66\n      tag_67\n      jump\t// in\n    tag_66:\n      mload(0x40)\n      tag_68\n      swap2\n      swap1\n      tag_69\n      jump\t// in\n    tag_68:\n      mload(0x40)\n      dup1\n      swap2\n      sub\n      swap1\n      return\n        /* \"contracts/Timelock.sol\":368:406  uint256 public constant MIN_DELAY = 10 */\n    tag_11:\n      callvalue\n      dup1\n      iszero\n      tag_70\n      jumpi\n      0x00\n      dup1\n      revert\n    tag_70:\n      pop\n      tag_71\n      tag_72\n      jump\t// in\n    tag_71:\n      mload(0x40)\n      tag_73\n      swap2\n      swap1\n      tag_43\n      jump\t// in\n    tag_73:\n      mload(0x40)\n      dup1\n      swap2\n      sub\n      swap1\n      return\n        /* \"contracts/Timelock.sol\":4679:5006  function getDepositTxId(... */\n    tag_12:\n      callvalue\n      dup1\n      iszero\n      tag_74\n      jumpi\n      0x00\n      dup1\n      revert\n    tag_74:\n      pop\n      tag_75\n      0x04\n      dup1\n      calldatasize\n      sub\n      dup2\n      add\n      swap1\n      tag_76\n      swap2\n      swap1\n      tag_77\n      jump\t// in\n    tag_76:\n      tag_78\n      jump\t// in\n    tag_75:\n      mload(0x40)\n      tag_79\n      swap2\n      swap1\n      tag_64\n      jump\t// in\n    tag_79:\n      mload(0x40)\n      dup1\n      swap2\n      sub\n      swap1\n      return\n        /* \"contracts/Timelock.sol\":3118:4080  function claim(bytes32 _depositId) external onlyOwner {... */\n    tag_13:\n      callvalue\n      dup1\n      iszero\n      tag_80\n      jumpi\n      0x00\n      dup1\n      revert\n    tag_80:\n      pop\n      tag_81\n      0x04\n      dup1\n      calldatasize\n      sub\n      dup2\n      add\n      swap1\n      tag_82\n      swap2\n      swap1\n      tag_29\n      jump\t// in\n    tag_82:\n      tag_83\n      jump\t// in\n    tag_81:\n      stop\n        /* \"contracts/Timelock.sol\":495:540  uint256 public constant GRACE_PERIOD = 432000 */\n    tag_14:\n      callvalue\n      dup1\n      iszero\n      tag_84\n      jumpi\n      0x00\n      dup1\n      revert\n    tag_84:\n      pop\n      tag_85\n      tag_86\n      jump\t// in\n    tag_85:\n      mload(0x40)\n      tag_87\n      swap2\n      swap1\n      tag_43\n      jump\t// in\n    tag_87:\n      mload(0x40)\n      dup1\n      swap2\n      sub\n      swap1\n      return\n        /* \"contracts/Timelock.sol\":10237:10898  function cancel(bytes32 _txId) external onlyOwner {... */\n    tag_15:\n      callvalue\n      dup1\n      iszero\n      tag_88\n      jumpi\n      0x00\n      dup1\n      revert\n    tag_88:\n      pop\n      tag_89\n      0x04\n      dup1\n      calldatasize\n      sub\n      dup2\n      add\n      swap1\n      tag_90\n      swap2\n      swap1\n      tag_29\n      jump\t// in\n    tag_90:\n      tag_91\n      jump\t// in\n    tag_89:\n      stop\n        /* \"contracts/Timelock.sol\":5257:5595  function getOneDeposit(bytes32 _depositTxId)... */\n    tag_16:\n      callvalue\n      dup1\n      iszero\n      tag_92\n      jumpi\n      0x00\n      dup1\n      revert\n    tag_92:\n      pop\n      tag_93\n      0x04\n      dup1\n      calldatasize\n      sub\n      dup2\n      add\n      swap1\n      tag_94\n      swap2\n      swap1\n      tag_29\n      jump\t// in\n    tag_94:\n      tag_95\n      jump\t// in\n    tag_93:\n      mload(0x40)\n      tag_96\n      swap3\n      swap2\n      swap1\n      tag_97\n      jump\t// in\n    tag_96:\n      mload(0x40)\n      dup1\n      swap2\n      sub\n      swap1\n      return\n        /* \"contracts/Timelock.sol\":8784:8829  mapping(address => Deposit[]) public deposits */\n    tag_17:\n      callvalue\n      dup1\n      iszero\n      tag_98\n      jumpi\n      0x00\n      dup1\n      revert\n    tag_98:\n      pop\n      tag_99\n      0x04\n      dup1\n      calldatasize\n      sub\n      dup2\n      add\n      swap1\n      tag_100\n      swap2\n      swap1\n      tag_101\n      jump\t// in\n    tag_100:\n      tag_102\n      jump\t// in\n    tag_99:\n      mload(0x40)\n      tag_103\n      swap8\n      swap7\n      swap6\n      swap5\n      swap4\n      swap3\n      swap2\n      swap1\n      tag_38\n      jump\t// in\n    tag_103:\n      mload(0x40)\n      dup1\n      swap2\n      sub\n      swap1\n      return\n        /* \"contracts/Timelock.sol\":8873:8926  mapping(bytes32 => Deposit) public depositIdToDeposit */\n    tag_18:\n      callvalue\n      dup1\n      iszero\n      tag_104\n      jumpi\n      0x00\n      dup1\n      revert\n    tag_104:\n      pop\n      tag_105\n      0x04\n      dup1\n      calldatasize\n      sub\n      dup2\n      add\n      swap1\n      tag_106\n      swap2\n      swap1\n      tag_29\n      jump\t// in\n    tag_106:\n      tag_107\n      jump\t// in\n    tag_105:\n      mload(0x40)\n      tag_108\n      swap8\n      swap7\n      swap6\n      swap5\n      swap4\n      swap3\n      swap2\n      swap1\n      tag_38\n      jump\t// in\n    tag_108:\n      mload(0x40)\n      dup1\n      swap2\n      sub\n      swap1\n      return\n        /* \"contracts/Timelock.sol\":6135:8235  function updateDeposit(... */\n    tag_19:\n      tag_109\n      0x04\n      dup1\n      calldatasize\n      sub\n      dup2\n      add\n      swap1\n      tag_110\n      swap2\n      swap1\n      tag_111\n      jump\t// in\n    tag_110:\n      tag_112\n      jump\t// in\n    tag_109:\n      stop\n        /* \"contracts/Timelock.sol\":1715:3112  function execute(... */\n    tag_20:\n      tag_113\n      0x04\n      dup1\n      calldatasize\n      sub\n      dup2\n      add\n      swap1\n      tag_114\n      swap2\n      swap1\n      tag_47\n      jump\t// in\n    tag_114:\n      tag_115\n      jump\t// in\n    tag_113:\n      mload(0x40)\n      tag_116\n      swap2\n      swap1\n      tag_117\n      jump\t// in\n    tag_116:\n      mload(0x40)\n      dup1\n      swap2\n      sub\n      swap1\n      return\n        /* \"contracts/Timelock.sol\":10097:10231  function isQueued(bytes32 _txId) public view returns (bool _isQueued) {... */\n    tag_30:\n        /* \"contracts/Timelock.sol\":10151:10165  bool _isQueued */\n      0x00\n        /* \"contracts/Timelock.sol\":10209:10210  0 */\n      dup1\n        /* \"contracts/Timelock.sol\":10181:10211  queued[_txId].to != address(0) */\n      0xffffffffffffffffffffffffffffffffffffffff\n      and\n        /* \"contracts/Timelock.sol\":10181:10187  queued */\n      0x04\n        /* \"contracts/Timelock.sol\":10181:10194  queued[_txId] */\n      0x00\n        /* \"contracts/Timelock.sol\":10188:10193  _txId */\n      dup5\n        /* \"contracts/Timelock.sol\":10181:10194  queued[_txId] */\n      dup2\n      mstore\n      0x20\n      add\n      swap1\n      dup2\n      mstore\n      0x20\n      add\n      0x00\n      keccak256\n        /* \"contracts/Timelock.sol\":10181:10197  queued[_txId].to */\n      0x03\n      add\n      0x00\n      swap1\n      sload\n      swap1\n      0x0100\n      exp\n      swap1\n      div\n      0xffffffffffffffffffffffffffffffffffffffff\n      and\n        /* \"contracts/Timelock.sol\":10181:10211  queued[_txId].to != address(0) */\n      0xffffffffffffffffffffffffffffffffffffffff\n      and\n      eq\n        /* \"contracts/Timelock.sol\":10177:10224  if (queued[_txId].to != address(0)) return true */\n      tag_119\n      jumpi\n        /* \"contracts/Timelock.sol\":10220:10224  true */\n      0x01\n        /* \"contracts/Timelock.sol\":10213:10224  return true */\n      swap1\n      pop\n      jump(tag_118)\n        /* \"contracts/Timelock.sol\":10177:10224  if (queued[_txId].to != address(0)) return true */\n    tag_119:\n        /* \"contracts/Timelock.sol\":10097:10231  function isQueued(bytes32 _txId) public view returns (bool _isQueued) {... */\n    tag_118:\n      swap2\n      swap1\n      pop\n      jump\t// out\n        /* \"contracts/Timelock.sol\":8994:9035  mapping(bytes32 => Deposit) public queued */\n    tag_36:\n      mstore(0x20, 0x04)\n      dup1\n      0x00\n      mstore\n      keccak256(0x00, 0x40)\n      0x00\n      swap2\n      pop\n      swap1\n      pop\n      dup1\n      0x00\n      add\n      sload\n      swap1\n      dup1\n      0x01\n      add\n      dup1\n      sload\n      tag_120\n      swap1\n      tag_121\n      jump\t// in\n    tag_120:\n      dup1\n      0x1f\n      add\n      0x20\n      dup1\n      swap2\n      div\n      mul\n      0x20\n      add\n      mload(0x40)\n      swap1\n      dup2\n      add\n      0x40\n      mstore\n      dup1\n      swap3\n      swap2\n      swap1\n      dup2\n      dup2\n      mstore\n      0x20\n      add\n      dup3\n      dup1\n      sload\n      tag_122\n      swap1\n      tag_121\n      jump\t// in\n    tag_122:\n      dup1\n      iszero\n      tag_123\n      jumpi\n      dup1\n      0x1f\n      lt\n      tag_124\n      jumpi\n      0x0100\n      dup1\n      dup4\n      sload\n      div\n      mul\n      dup4\n      mstore\n      swap2\n      0x20\n      add\n      swap2\n      jump(tag_123)\n    tag_124:\n      dup3\n      add\n      swap2\n      swap1\n      0x00\n      mstore\n      keccak256(0x00, 0x20)\n      swap1\n    tag_125:\n      dup2\n      sload\n      dup2\n      mstore\n      swap1\n      0x01\n      add\n      swap1\n      0x20\n      add\n      dup1\n      dup4\n      gt\n      tag_125\n      jumpi\n      dup3\n      swap1\n      sub\n      0x1f\n      and\n      dup3\n      add\n      swap2\n    tag_123:\n      pop\n      pop\n      pop\n      pop\n      pop\n      swap1\n      dup1\n      0x02\n      add\n      0x00\n      swap1\n      sload\n      swap1\n      0x0100\n      exp\n      swap1\n      div\n      0xffffffffffffffffffffffffffffffffffffffff\n      and\n      swap1\n      dup1\n      0x03\n      add\n      0x00\n      swap1\n      sload\n      swap1\n      0x0100\n      exp\n      swap1\n      div\n      0xffffffffffffffffffffffffffffffffffffffff\n      and\n      swap1\n      dup1\n      0x04\n      add\n      sload\n      swap1\n      dup1\n      0x05\n      add\n      sload\n      swap1\n      dup1\n      0x06\n      add\n      0x00\n      swap1\n      sload\n      swap1\n      0x0100\n      exp\n      swap1\n      div\n      0xff\n      and\n      swap1\n      pop\n      dup8\n      jump\t// out\n        /* \"contracts/Timelock.sol\":419:461  uint256 public constant MAX_DELAY = 172800 */\n    tag_41:\n        /* \"contracts/Timelock.sol\":455:461  172800 */\n      0x02a300\n        /* \"contracts/Timelock.sol\":419:461  uint256 public constant MAX_DELAY = 172800 */\n      dup2\n      jump\t// out\n        /* \"contracts/Timelock.sol\":575:1709  function queue(... */\n    tag_48:\n        /* \"contracts/Timelock.sol\":4139:4144  owner */\n      0x00\n      dup1\n      sload\n      swap1\n      0x0100\n      exp\n      swap1\n      div\n      0xffffffffffffffffffffffffffffffffffffffff\n      and\n        /* \"contracts/Timelock.sol\":4125:4144  msg.sender == owner */\n      0xffffffffffffffffffffffffffffffffffffffff\n      and\n        /* \"contracts/Timelock.sol\":4125:4135  msg.sender */\n      caller\n        /* \"contracts/Timelock.sol\":4125:4144  msg.sender == owner */\n      0xffffffffffffffffffffffffffffffffffffffff\n      and\n      eq\n        /* \"contracts/Timelock.sol\":4117:4185  require(msg.sender == owner, \"Only Owner can execute this function\") */\n      tag_127\n      jumpi\n      mload(0x40)\n      0x08c379a000000000000000000000000000000000000000000000000000000000\n      dup2\n      mstore\n      0x04\n      add\n      tag_128\n      swap1\n      tag_129\n      jump\t// in\n    tag_128:\n      mload(0x40)\n      dup1\n      swap2\n      sub\n      swap1\n      revert\n    tag_127:\n        /* \"contracts/Timelock.sol\":709:731  Deposit memory deposit */\n      0x00\n        /* \"contracts/Timelock.sol\":734:752  depositIdToDeposit */\n      0x03\n        /* \"contracts/Timelock.sol\":734:764  depositIdToDeposit[_depositId] */\n      0x00\n        /* \"contracts/Timelock.sol\":753:763  _depositId */\n      dup6\n        /* \"contracts/Timelock.sol\":734:764  depositIdToDeposit[_depositId] */\n      dup2\n      mstore\n      0x20\n      add\n      swap1\n      dup2\n      mstore\n      0x20\n      add\n      0x00\n      keccak256\n        /* \"contracts/Timelock.sol\":709:764  Deposit memory deposit = depositIdToDeposit[_depositId] */\n      mload(0x40)\n      dup1\n      0xe0\n      add\n      0x40\n      mstore\n      swap1\n      dup2\n      0x00\n      dup3\n      add\n      sload\n      dup2\n      mstore\n      0x20\n      add\n      0x01\n      dup3\n      add\n      dup1\n      sload\n      tag_131\n      swap1\n      tag_121\n      jump\t// in\n    tag_131:\n      dup1\n      0x1f\n      add\n      0x20\n      dup1\n      swap2\n      div\n      mul\n      0x20\n      add\n      mload(0x40)\n      swap1\n      dup2\n      add\n      0x40\n      mstore\n      dup1\n      swap3\n      swap2\n      swap1\n      dup2\n      dup2\n      mstore\n      0x20\n      add\n      dup3\n      dup1\n      sload\n      tag_132\n      swap1\n      tag_121\n      jump\t// in\n    tag_132:\n      dup1\n      iszero\n      tag_133\n      jumpi\n      dup1\n      0x1f\n      lt\n      tag_134\n      jumpi\n      0x0100\n      dup1\n      dup4\n      sload\n      div\n      mul\n      dup4\n      mstore\n      swap2\n      0x20\n      add\n      swap2\n      jump(tag_133)\n    tag_134:\n      dup3\n      add\n      swap2\n      swap1\n      0x00\n      mstore\n      keccak256(0x00, 0x20)\n      swap1\n    tag_135:\n      dup2\n      sload\n      dup2\n      mstore\n      swap1\n      0x01\n      add\n      swap1\n      0x20\n      add\n      dup1\n      dup4\n      gt\n      tag_135\n      jumpi\n      dup3\n      swap1\n      sub\n      0x1f\n      and\n      dup3\n      add\n      swap2\n    tag_133:\n      pop\n      pop\n      pop\n      pop\n      pop\n      dup2\n      mstore\n      0x20\n      add\n      0x02\n      dup3\n      add\n      0x00\n      swap1\n      sload\n      swap1\n      0x0100\n      exp\n      swap1\n      div\n      0xffffffffffffffffffffffffffffffffffffffff\n      and\n      0xffffffffffffffffffffffffffffffffffffffff\n      and\n      0xffffffffffffffffffffffffffffffffffffffff\n      and\n      dup2\n      mstore\n      0x20\n      add\n      0x03\n      dup3\n      add\n      0x00\n      swap1\n      sload\n      swap1\n      0x0100\n      exp\n      swap1\n      div\n      0xffffffffffffffffffffffffffffffffffffffff\n      and\n      0xffffffffffffffffffffffffffffffffffffffff\n      and\n      0xffffffffffffffffffffffffffffffffffffffff\n      and\n      dup2\n      mstore\n      0x20\n      add\n      0x04\n      dup3\n      add\n      sload\n      dup2\n      mstore\n      0x20\n      add\n      0x05\n      dup3\n      add\n      sload\n      dup2\n      mstore\n      0x20\n      add\n      0x06\n      dup3\n      add\n      0x00\n      swap1\n      sload\n      swap1\n      0x0100\n      exp\n      swap1\n      div\n      0xff\n      and\n      iszero\n      iszero\n      iszero\n      iszero\n      dup2\n      mstore\n      pop\n      pop\n      swap1\n      pop\n        /* \"contracts/Timelock.sol\":774:786  bytes32 txId */\n      0x00\n        /* \"contracts/Timelock.sol\":789:824  getTxId(_target, _depositId, _func) */\n      tag_136\n        /* \"contracts/Timelock.sol\":797:804  _target */\n      dup7\n        /* \"contracts/Timelock.sol\":806:816  _depositId */\n      dup7\n        /* \"contracts/Timelock.sol\":818:823  _func */\n      dup7\n      dup7\n        /* \"contracts/Timelock.sol\":789:796  getTxId */\n      tag_62\n        /* \"contracts/Timelock.sol\":789:824  getTxId(_target, _depositId, _func) */\n      jump\t// in\n    tag_136:\n        /* \"contracts/Timelock.sol\":774:824  bytes32 txId = getTxId(_target, _depositId, _func) */\n      swap1\n      pop\n        /* \"contracts/Timelock.sol\":920:925  false */\n      0x00\n        /* \"contracts/Timelock.sol\":902:925  isQueued(txId) == false */\n      iszero\n      iszero\n        /* \"contracts/Timelock.sol\":902:916  isQueued(txId) */\n      tag_137\n        /* \"contracts/Timelock.sol\":911:915  txId */\n      dup3\n        /* \"contracts/Timelock.sol\":902:910  isQueued */\n      tag_30\n        /* \"contracts/Timelock.sol\":902:916  isQueued(txId) */\n      jump\t// in\n    tag_137:\n        /* \"contracts/Timelock.sol\":902:925  isQueued(txId) == false */\n      iszero\n      iszero\n      eq\n        /* \"contracts/Timelock.sol\":894:948  require(isQueued(txId) == false, \"AlreadyQueuedError\") */\n      tag_138\n      jumpi\n      mload(0x40)\n      0x08c379a000000000000000000000000000000000000000000000000000000000\n      dup2\n      mstore\n      0x04\n      add\n      tag_139\n      swap1\n      tag_140\n      jump\t// in\n    tag_139:\n      mload(0x40)\n      dup1\n      swap2\n      sub\n      swap1\n      revert\n    tag_138:\n        /* \"contracts/Timelock.sol\":404:406  10 */\n      0x0a\n        /* \"contracts/Timelock.sol\":1198:1213  block.timestamp */\n      timestamp\n        /* \"contracts/Timelock.sol\":1198:1225  block.timestamp + MIN_DELAY */\n      tag_141\n      swap2\n      swap1\n      tag_142\n      jump\t// in\n    tag_141:\n        /* \"contracts/Timelock.sol\":1178:1185  deposit */\n      dup3\n        /* \"contracts/Timelock.sol\":1178:1195  deposit.timestamp */\n      0xa0\n      add\n      mload\n        /* \"contracts/Timelock.sol\":1178:1225  deposit.timestamp > block.timestamp + MIN_DELAY */\n      gt\n        /* \"contracts/Timelock.sol\":1178:1292  deposit.timestamp > block.timestamp + MIN_DELAY &&... */\n      dup1\n      iszero\n      tag_143\n      jumpi\n      pop\n        /* \"contracts/Timelock.sol\":455:461  172800 */\n      0x02a300\n        /* \"contracts/Timelock.sol\":1265:1280  block.timestamp */\n      timestamp\n        /* \"contracts/Timelock.sol\":1265:1292  block.timestamp + MAX_DELAY */\n      tag_144\n      swap2\n      swap1\n      tag_142\n      jump\t// in\n    tag_144:\n        /* \"contracts/Timelock.sol\":1245:1252  deposit */\n      dup3\n        /* \"contracts/Timelock.sol\":1245:1262  deposit.timestamp */\n      0xa0\n      add\n      mload\n        /* \"contracts/Timelock.sol\":1245:1292  deposit.timestamp < block.timestamp + MAX_DELAY */\n      lt\n        /* \"contracts/Timelock.sol\":1178:1292  deposit.timestamp > block.timestamp + MIN_DELAY &&... */\n    tag_143:\n        /* \"contracts/Timelock.sol\":1157:1342  require(... */\n      tag_145\n      jumpi\n      mload(0x40)\n      0x08c379a000000000000000000000000000000000000000000000000000000000\n      dup2\n      mstore\n      0x04\n      add\n      tag_146\n      swap1\n      tag_147\n      jump\t// in\n    tag_146:\n      mload(0x40)\n      dup1\n      swap2\n      sub\n      swap1\n      revert\n    tag_145:\n        /* \"contracts/Timelock.sol\":1418:1425  deposit */\n      dup2\n        /* \"contracts/Timelock.sol\":1403:1409  queued */\n      0x04\n        /* \"contracts/Timelock.sol\":1403:1415  queued[txId] */\n      0x00\n        /* \"contracts/Timelock.sol\":1410:1414  txId */\n      dup4\n        /* \"contracts/Timelock.sol\":1403:1415  queued[txId] */\n      dup2\n      mstore\n      0x20\n      add\n      swap1\n      dup2\n      mstore\n      0x20\n      add\n      0x00\n      keccak256\n        /* \"contracts/Timelock.sol\":1403:1425  queued[txId] = deposit */\n      0x00\n      dup3\n      add\n      mload\n      dup2\n      0x00\n      add\n      sstore\n      0x20\n      dup3\n      add\n      mload\n      dup2\n      0x01\n      add\n      swap1\n      dup2\n      tag_148\n      swap2\n      swap1\n      tag_149\n      jump\t// in\n    tag_148:\n      pop\n      0x40\n      dup3\n      add\n      mload\n      dup2\n      0x02\n      add\n      exp(0x0100, 0x00)\n      dup2\n      sload\n      dup2\n      0xffffffffffffffffffffffffffffffffffffffff\n      mul\n      not\n      and\n      swap1\n      dup4\n      0xffffffffffffffffffffffffffffffffffffffff\n      and\n      mul\n      or\n      swap1\n      sstore\n      pop\n      0x60\n      dup3\n      add\n      mload\n      dup2\n      0x03\n      add\n      exp(0x0100, 0x00)\n      dup2\n      sload\n      dup2\n      0xffffffffffffffffffffffffffffffffffffffff\n      mul\n      not\n      and\n      swap1\n      dup4\n      0xffffffffffffffffffffffffffffffffffffffff\n      and\n      mul\n      or\n      swap1\n      sstore\n      pop\n      0x80\n      dup3\n      add\n      mload\n      dup2\n      0x04\n      add\n      sstore\n      0xa0\n      dup3\n      add\n      mload\n      dup2\n      0x05\n      add\n      sstore\n      0xc0\n      dup3\n      add\n      mload\n      dup2\n      0x06\n      add\n      exp(0x0100, 0x00)\n      dup2\n      sload\n      dup2\n      0xff\n      mul\n      not\n      and\n      swap1\n      dup4\n      iszero\n      iszero\n      mul\n      or\n      swap1\n      sstore\n      pop\n      swap1\n      pop\n      pop\n        /* \"contracts/Timelock.sol\":1530:1537  deposit */\n      dup2\n        /* \"contracts/Timelock.sol\":1530:1540  deposit.to */\n      0x60\n      add\n      mload\n        /* \"contracts/Timelock.sol\":1466:1628  QueuedEvent(... */\n      0xffffffffffffffffffffffffffffffffffffffff\n      and\n        /* \"contracts/Timelock.sol\":1509:1516  _target */\n      dup7\n        /* \"contracts/Timelock.sol\":1466:1628  QueuedEvent(... */\n      0xffffffffffffffffffffffffffffffffffffffff\n      and\n        /* \"contracts/Timelock.sol\":1491:1495  txId */\n      dup3\n        /* \"contracts/Timelock.sol\":1466:1628  QueuedEvent(... */\n      0x4762453ff07afa9b0dc3d8842a3bb2c3bada1fec4956fc404dbcc3c7ee45457e\n        /* \"contracts/Timelock.sol\":1554:1561  deposit */\n      dup6\n        /* \"contracts/Timelock.sol\":1554:1568  deposit.amount */\n      0x80\n      add\n      mload\n        /* \"contracts/Timelock.sol\":1582:1587  _func */\n      dup9\n      dup9\n        /* \"contracts/Timelock.sol\":1601:1608  deposit */\n      dup9\n        /* \"contracts/Timelock.sol\":1601:1618  deposit.timestamp */\n      0xa0\n      add\n      mload\n        /* \"contracts/Timelock.sol\":1466:1628  QueuedEvent(... */\n      mload(0x40)\n      tag_150\n      swap5\n      swap4\n      swap3\n      swap2\n      swap1\n      tag_151\n      jump\t// in\n    tag_150:\n      mload(0x40)\n      dup1\n      swap2\n      sub\n      swap1\n      log4\n        /* \"contracts/Timelock.sol\":1667:1681  delete deposit */\n      tag_152\n      tag_153\n      jump\t// in\n    tag_152:\n      swap2\n      pop\n        /* \"contracts/Timelock.sol\":1691:1702  delete txId */\n      0x00\n      swap1\n      pop\n        /* \"contracts/Timelock.sol\":699:1709  {... */\n      pop\n      pop\n        /* \"contracts/Timelock.sol\":575:1709  function queue(... */\n      pop\n      pop\n      pop\n      pop\n      jump\t// out\n        /* \"contracts/Timelock.sol\":5145:5251  function getDeposits() public view returns (Deposit[] memory) {... */\n    tag_51:\n        /* \"contracts/Timelock.sol\":5189:5205  Deposit[] memory */\n      0x60\n        /* \"contracts/Timelock.sol\":5224:5232  deposits */\n      0x02\n        /* \"contracts/Timelock.sol\":5224:5244  deposits[msg.sender] */\n      0x00\n        /* \"contracts/Timelock.sol\":5233:5243  msg.sender */\n      caller\n        /* \"contracts/Timelock.sol\":5224:5244  deposits[msg.sender] */\n      0xffffffffffffffffffffffffffffffffffffffff\n      and\n      0xffffffffffffffffffffffffffffffffffffffff\n      and\n      dup2\n      mstore\n      0x20\n      add\n      swap1\n      dup2\n      mstore\n      0x20\n      add\n      0x00\n      keccak256\n        /* \"contracts/Timelock.sol\":5217:5244  return deposits[msg.sender] */\n      dup1\n      sload\n      dup1\n      0x20\n      mul\n      0x20\n      add\n      mload(0x40)\n      swap1\n      dup2\n      add\n      0x40\n      mstore\n      dup1\n      swap3\n      swap2\n      swap1\n      dup2\n      dup2\n      mstore\n      0x20\n      add\n      0x00\n      swap1\n    tag_155:\n      dup3\n      dup3\n      lt\n      iszero\n      tag_156\n      jumpi\n      dup4\n      dup3\n      swap1\n      0x00\n      mstore\n      keccak256(0x00, 0x20)\n      swap1\n      0x07\n      mul\n      add\n      mload(0x40)\n      dup1\n      0xe0\n      add\n      0x40\n      mstore\n      swap1\n      dup2\n      0x00\n      dup3\n      add\n      sload\n      dup2\n      mstore\n      0x20\n      add\n      0x01\n      dup3\n      add\n      dup1\n      sload\n      tag_158\n      swap1\n      tag_121\n      jump\t// in\n    tag_158:\n      dup1\n      0x1f\n      add\n      0x20\n      dup1\n      swap2\n      div\n      mul\n      0x20\n      add\n      mload(0x40)\n      swap1\n      dup2\n      add\n      0x40\n      mstore\n      dup1\n      swap3\n      swap2\n      swap1\n      dup2\n      dup2\n      mstore\n      0x20\n      add\n      dup3\n      dup1\n      sload\n      tag_159\n      swap1\n      tag_121\n      jump\t// in\n    tag_159:\n      dup1\n      iszero\n      tag_160\n      jumpi\n      dup1\n      0x1f\n      lt\n      tag_161\n      jumpi\n      0x0100\n      dup1\n      dup4\n      sload\n      div\n      mul\n      dup4\n      mstore\n      swap2\n      0x20\n      add\n      swap2\n      jump(tag_160)\n    tag_161:\n      dup3\n      add\n      swap2\n      swap1\n      0x00\n      mstore\n      keccak256(0x00, 0x20)\n      swap1\n    tag_162:\n      dup2\n      sload\n      dup2\n      mstore\n      swap1\n      0x01\n      add\n      swap1\n      0x20\n      add\n      dup1\n      dup4\n      gt\n      tag_162\n      jumpi\n      dup3\n      swap1\n      sub\n      0x1f\n      and\n      dup3\n      add\n      swap2\n    tag_160:\n      pop\n      pop\n      pop\n      pop\n      pop\n      dup2\n      mstore\n      0x20\n      add\n      0x02\n      dup3\n      add\n      0x00\n      swap1\n      sload\n      swap1\n      0x0100\n      exp\n      swap1\n      div\n      0xffffffffffffffffffffffffffffffffffffffff\n      and\n      0xffffffffffffffffffffffffffffffffffffffff\n      and\n      0xffffffffffffffffffffffffffffffffffffffff\n      and\n      dup2\n      mstore\n      0x20\n      add\n      0x03\n      dup3\n      add\n      0x00\n      swap1\n      sload\n      swap1\n      0x0100\n      exp\n      swap1\n      div\n      0xffffffffffffffffffffffffffffffffffffffff\n      and\n      0xffffffffffffffffffffffffffffffffffffffff\n      and\n      0xffffffffffffffffffffffffffffffffffffffff\n      and\n      dup2\n      mstore\n      0x20\n      add\n      0x04\n      dup3\n      add\n      sload\n      dup2\n      mstore\n      0x20\n      add\n      0x05\n      dup3\n      add\n      sload\n      dup2\n      mstore\n      0x20\n      add\n      0x06\n      dup3\n      add\n      0x00\n      swap1\n      sload\n      swap1\n      0x0100\n      exp\n      swap1\n      div\n      0xff\n      and\n      iszero\n      iszero\n      iszero\n      iszero\n      dup2\n      mstore\n      pop\n      pop\n      dup2\n      mstore\n      0x20\n      add\n      swap1\n      0x01\n      add\n      swap1\n      jump(tag_155)\n    tag_156:\n      pop\n      pop\n      pop\n      pop\n      swap1\n      pop\n        /* \"contracts/Timelock.sol\":5145:5251  function getDeposits() public view returns (Deposit[] memory) {... */\n      swap1\n      jump\t// out\n        /* \"contracts/Timelock.sol\":116:141  string public description */\n    tag_56:\n      0x01\n      dup1\n      sload\n      tag_163\n      swap1\n      tag_121\n      jump\t// in\n    tag_163:\n      dup1\n      0x1f\n      add\n      0x20\n      dup1\n      swap2\n      div\n      mul\n      0x20\n      add\n      mload(0x40)\n      swap1\n      dup2\n      add\n      0x40\n      mstore\n      dup1\n      swap3\n      swap2\n      swap1\n      dup2\n      dup2\n      mstore\n      0x20\n      add\n      dup3\n      dup1\n      sload\n      tag_164\n      swap1\n      tag_121\n      jump\t// in\n    tag_164:\n      dup1\n      iszero\n      tag_165\n      jumpi\n      dup1\n      0x1f\n      lt\n      tag_166\n      jumpi\n      0x0100\n      dup1\n      dup4\n      sload\n      div\n      mul\n      dup4\n      mstore\n      swap2\n      0x20\n      add\n      swap2\n      jump(tag_165)\n    tag_166:\n      dup3\n      add\n      swap2\n      swap1\n      0x00\n      mstore\n      keccak256(0x00, 0x20)\n      swap1\n    tag_167:\n      dup2\n      sload\n      dup2\n      mstore\n      swap1\n      0x01\n      add\n      swap1\n      0x20\n      add\n      dup1\n      dup4\n      gt\n      tag_167\n      jumpi\n      dup3\n      swap1\n      sub\n      0x1f\n      and\n      dup3\n      add\n      swap2\n    tag_165:\n      pop\n      pop\n      pop\n      pop\n      pop\n      dup2\n      jump\t// out\n        /* \"contracts/Timelock.sol\":9883:10091  function getTxId(... */\n    tag_62:\n        /* \"contracts/Timelock.sol\":10010:10017  bytes32 */\n      0x00\n        /* \"contracts/Timelock.sol\":10057:10064  _target */\n      dup5\n        /* \"contracts/Timelock.sol\":10066:10075  depositId */\n      dup5\n        /* \"contracts/Timelock.sol\":10077:10082  _func */\n      dup5\n      dup5\n        /* \"contracts/Timelock.sol\":10046:10083  abi.encode(_target, depositId, _func) */\n      add(0x20, mload(0x40))\n      tag_169\n      swap5\n      swap4\n      swap3\n      swap2\n      swap1\n      tag_170\n      jump\t// in\n    tag_169:\n      mload(0x40)\n      0x20\n      dup2\n      dup4\n      sub\n      sub\n      dup2\n      mstore\n      swap1\n      0x40\n      mstore\n        /* \"contracts/Timelock.sol\":10036:10084  keccak256(abi.encode(_target, depositId, _func)) */\n      dup1\n      mload\n      swap1\n      0x20\n      add\n      keccak256\n        /* \"contracts/Timelock.sol\":10029:10084  return keccak256(abi.encode(_target, depositId, _func)) */\n      swap1\n      pop\n        /* \"contracts/Timelock.sol\":9883:10091  function getTxId(... */\n      swap5\n      swap4\n      pop\n      pop\n      pop\n      pop\n      jump\t// out\n        /* \"contracts/Timelock.sol\":90:110  address public owner */\n    tag_67:\n      0x00\n      dup1\n      sload\n      swap1\n      0x0100\n      exp\n      swap1\n      div\n      0xffffffffffffffffffffffffffffffffffffffff\n      and\n      dup2\n      jump\t// out\n        /* \"contracts/Timelock.sol\":368:406  uint256 public constant MIN_DELAY = 10 */\n    tag_72:\n        /* \"contracts/Timelock.sol\":404:406  10 */\n      0x0a\n        /* \"contracts/Timelock.sol\":368:406  uint256 public constant MIN_DELAY = 10 */\n      dup2\n      jump\t// out\n        /* \"contracts/Timelock.sol\":4679:5006  function getDepositTxId(... */\n    tag_78:\n        /* \"contracts/Timelock.sol\":4863:4870  bytes32 */\n      0x00\n        /* \"contracts/Timelock.sol\":4939:4951  _description */\n      dup6\n        /* \"contracts/Timelock.sol\":4953:4958  _from */\n      dup6\n        /* \"contracts/Timelock.sol\":4960:4963  _to */\n      dup6\n        /* \"contracts/Timelock.sol\":4965:4972  _amount */\n      dup6\n        /* \"contracts/Timelock.sol\":4974:4984  _timestamp */\n      dup6\n        /* \"contracts/Timelock.sol\":4928:4985  abi.encode(_description, _from, _to, _amount, _timestamp) */\n      add(0x20, mload(0x40))\n      tag_172\n      swap6\n      swap5\n      swap4\n      swap3\n      swap2\n      swap1\n      tag_173\n      jump\t// in\n    tag_172:\n      mload(0x40)\n      0x20\n      dup2\n      dup4\n      sub\n      sub\n      dup2\n      mstore\n      swap1\n      0x40\n      mstore\n        /* \"contracts/Timelock.sol\":4901:4999  keccak256(... */\n      dup1\n      mload\n      swap1\n      0x20\n      add\n      keccak256\n        /* \"contracts/Timelock.sol\":4882:4999  return... */\n      swap1\n      pop\n        /* \"contracts/Timelock.sol\":4679:5006  function getDepositTxId(... */\n      swap6\n      swap5\n      pop\n      pop\n      pop\n      pop\n      pop\n      jump\t// out\n        /* \"contracts/Timelock.sol\":3118:4080  function claim(bytes32 _depositId) external onlyOwner {... */\n    tag_83:\n        /* \"contracts/Timelock.sol\":4139:4144  owner */\n      0x00\n      dup1\n      sload\n      swap1\n      0x0100\n      exp\n      swap1\n      div\n      0xffffffffffffffffffffffffffffffffffffffff\n      and\n        /* \"contracts/Timelock.sol\":4125:4144  msg.sender == owner */\n      0xffffffffffffffffffffffffffffffffffffffff\n      and\n        /* \"contracts/Timelock.sol\":4125:4135  msg.sender */\n      caller\n        /* \"contracts/Timelock.sol\":4125:4144  msg.sender == owner */\n      0xffffffffffffffffffffffffffffffffffffffff\n      and\n      eq\n        /* \"contracts/Timelock.sol\":4117:4185  require(msg.sender == owner, \"Only Owner can execute this function\") */\n      tag_175\n      jumpi\n      mload(0x40)\n      0x08c379a000000000000000000000000000000000000000000000000000000000\n      dup2\n      mstore\n      0x04\n      add\n      tag_176\n      swap1\n      tag_129\n      jump\t// in\n    tag_176:\n      mload(0x40)\n      dup1\n      swap2\n      sub\n      swap1\n      revert\n    tag_175:\n        /* \"contracts/Timelock.sol\":3183:3208  Deposit memory oneDeposit */\n      0x00\n        /* \"contracts/Timelock.sol\":3210:3223  uint256 index */\n      dup1\n        /* \"contracts/Timelock.sol\":3227:3252  getOneDeposit(_depositId) */\n      tag_178\n        /* \"contracts/Timelock.sol\":3241:3251  _depositId */\n      dup4\n        /* \"contracts/Timelock.sol\":3227:3240  getOneDeposit */\n      tag_95\n        /* \"contracts/Timelock.sol\":3227:3252  getOneDeposit(_depositId) */\n      jump\t// in\n    tag_178:\n        /* \"contracts/Timelock.sol\":3182:3252  (Deposit memory oneDeposit, uint256 index) = getOneDeposit(_depositId) */\n      swap2\n      pop\n      swap2\n      pop\n        /* \"contracts/Timelock.sol\":3366:3371  false */\n      0x00\n        /* \"contracts/Timelock.sol\":3344:3371  oneDeposit.claimed == false */\n      iszero\n      iszero\n        /* \"contracts/Timelock.sol\":3344:3354  oneDeposit */\n      dup3\n        /* \"contracts/Timelock.sol\":3344:3362  oneDeposit.claimed */\n      0xc0\n      add\n      mload\n        /* \"contracts/Timelock.sol\":3344:3371  oneDeposit.claimed == false */\n      iszero\n      iszero\n      eq\n        /* \"contracts/Timelock.sol\":3344:3438  oneDeposit.claimed == false &&... */\n      dup1\n      iszero\n      tag_179\n      jumpi\n      pop\n        /* \"contracts/Timelock.sol\":3433:3438  false */\n      0x00\n        /* \"contracts/Timelock.sol\":3391:3438  depositIdToDeposit[_depositId].claimed == false */\n      iszero\n      iszero\n        /* \"contracts/Timelock.sol\":3391:3409  depositIdToDeposit */\n      0x03\n        /* \"contracts/Timelock.sol\":3391:3421  depositIdToDeposit[_depositId] */\n      0x00\n        /* \"contracts/Timelock.sol\":3410:3420  _depositId */\n      dup6\n        /* \"contracts/Timelock.sol\":3391:3421  depositIdToDeposit[_depositId] */\n      dup2\n      mstore\n      0x20\n      add\n      swap1\n      dup2\n      mstore\n      0x20\n      add\n      0x00\n      keccak256\n        /* \"contracts/Timelock.sol\":3391:3429  depositIdToDeposit[_depositId].claimed */\n      0x06\n      add\n      0x00\n      swap1\n      sload\n      swap1\n      0x0100\n      exp\n      swap1\n      div\n      0xff\n      and\n        /* \"contracts/Timelock.sol\":3391:3438  depositIdToDeposit[_depositId].claimed == false */\n      iszero\n      iszero\n      eq\n        /* \"contracts/Timelock.sol\":3344:3438  oneDeposit.claimed == false &&... */\n    tag_179:\n        /* \"contracts/Timelock.sol\":3323:3501  require(... */\n      tag_180\n      jumpi\n      mload(0x40)\n      0x08c379a000000000000000000000000000000000000000000000000000000000\n      dup2\n      mstore\n      0x04\n      add\n      tag_181\n      swap1\n      tag_182\n      jump\t// in\n    tag_181:\n      mload(0x40)\n      dup1\n      swap2\n      sub\n      swap1\n      revert\n    tag_180:\n        /* \"contracts/Timelock.sol\":3605:3821  Deposit(... */\n      mload(0x40)\n      dup1\n      0xe0\n      add\n      0x40\n      mstore\n      dup1\n        /* \"contracts/Timelock.sol\":3626:3636  _depositId */\n      dup5\n        /* \"contracts/Timelock.sol\":3605:3821  Deposit(... */\n      dup2\n      mstore\n      0x20\n      add\n        /* \"contracts/Timelock.sol\":3650:3660  oneDeposit */\n      dup4\n        /* \"contracts/Timelock.sol\":3650:3672  oneDeposit.description */\n      0x20\n      add\n      mload\n        /* \"contracts/Timelock.sol\":3605:3821  Deposit(... */\n      dup2\n      mstore\n      0x20\n      add\n        /* \"contracts/Timelock.sol\":3686:3696  oneDeposit */\n      dup4\n        /* \"contracts/Timelock.sol\":3686:3701  oneDeposit.from */\n      0x40\n      add\n      mload\n        /* \"contracts/Timelock.sol\":3605:3821  Deposit(... */\n      0xffffffffffffffffffffffffffffffffffffffff\n      and\n      dup2\n      mstore\n      0x20\n      add\n        /* \"contracts/Timelock.sol\":3715:3725  oneDeposit */\n      dup4\n        /* \"contracts/Timelock.sol\":3715:3728  oneDeposit.to */\n      0x60\n      add\n      mload\n        /* \"contracts/Timelock.sol\":3605:3821  Deposit(... */\n      0xffffffffffffffffffffffffffffffffffffffff\n      and\n      dup2\n      mstore\n      0x20\n      add\n        /* \"contracts/Timelock.sol\":3742:3752  oneDeposit */\n      dup4\n        /* \"contracts/Timelock.sol\":3742:3759  oneDeposit.amount */\n      0x80\n      add\n      mload\n        /* \"contracts/Timelock.sol\":3605:3821  Deposit(... */\n      dup2\n      mstore\n      0x20\n      add\n        /* \"contracts/Timelock.sol\":3773:3783  oneDeposit */\n      dup4\n        /* \"contracts/Timelock.sol\":3773:3793  oneDeposit.timestamp */\n      0xa0\n      add\n      mload\n        /* \"contracts/Timelock.sol\":3605:3821  Deposit(... */\n      dup2\n      mstore\n      0x20\n      add\n        /* \"contracts/Timelock.sol\":3807:3811  true */\n      0x01\n        /* \"contracts/Timelock.sol\":3605:3821  Deposit(... */\n      iszero\n      iszero\n      dup2\n      mstore\n      pop\n        /* \"contracts/Timelock.sol\":3570:3578  deposits */\n      0x02\n        /* \"contracts/Timelock.sol\":3570:3595  deposits[oneDeposit.from] */\n      0x00\n        /* \"contracts/Timelock.sol\":3579:3589  oneDeposit */\n      dup5\n        /* \"contracts/Timelock.sol\":3579:3594  oneDeposit.from */\n      0x40\n      add\n      mload\n        /* \"contracts/Timelock.sol\":3570:3595  deposits[oneDeposit.from] */\n      0xffffffffffffffffffffffffffffffffffffffff\n      and\n      0xffffffffffffffffffffffffffffffffffffffff\n      and\n      dup2\n      mstore\n      0x20\n      add\n      swap1\n      dup2\n      mstore\n      0x20\n      add\n      0x00\n      keccak256\n        /* \"contracts/Timelock.sol\":3596:3601  index */\n      dup3\n        /* \"contracts/Timelock.sol\":3570:3602  deposits[oneDeposit.from][index] */\n      dup2\n      sload\n      dup2\n      lt\n      tag_183\n      jumpi\n      tag_184\n      tag_185\n      jump\t// in\n    tag_184:\n    tag_183:\n      swap1\n      0x00\n      mstore\n      keccak256(0x00, 0x20)\n      swap1\n      0x07\n      mul\n      add\n        /* \"contracts/Timelock.sol\":3570:3821  deposits[oneDeposit.from][index] = Deposit(... */\n      0x00\n      dup3\n      add\n      mload\n      dup2\n      0x00\n      add\n      sstore\n      0x20\n      dup3\n      add\n      mload\n      dup2\n      0x01\n      add\n      swap1\n      dup2\n      tag_187\n      swap2\n      swap1\n      tag_149\n      jump\t// in\n    tag_187:\n      pop\n      0x40\n      dup3\n      add\n      mload\n      dup2\n      0x02\n      add\n      exp(0x0100, 0x00)\n      dup2\n      sload\n      dup2\n      0xffffffffffffffffffffffffffffffffffffffff\n      mul\n      not\n      and\n      swap1\n      dup4\n      0xffffffffffffffffffffffffffffffffffffffff\n      and\n      mul\n      or\n      swap1\n      sstore\n      pop\n      0x60\n      dup3\n      add\n      mload\n      dup2\n      0x03\n      add\n      exp(0x0100, 0x00)\n      dup2\n      sload\n      dup2\n      0xffffffffffffffffffffffffffffffffffffffff\n      mul\n      not\n      and\n      swap1\n      dup4\n      0xffffffffffffffffffffffffffffffffffffffff\n      and\n      mul\n      or\n      swap1\n      sstore\n      pop\n      0x80\n      dup3\n      add\n      mload\n      dup2\n      0x04\n      add\n      sstore\n      0xa0\n      dup3\n      add\n      mload\n      dup2\n      0x05\n      add\n      sstore\n      0xc0\n      dup3\n      add\n      mload\n      dup2\n      0x06\n      add\n      exp(0x0100, 0x00)\n      dup2\n      sload\n      dup2\n      0xff\n      mul\n      not\n      and\n      swap1\n      dup4\n      iszero\n      iszero\n      mul\n      or\n      swap1\n      sstore\n      pop\n      swap1\n      pop\n      pop\n        /* \"contracts/Timelock.sol\":3940:3944  true */\n      0x01\n        /* \"contracts/Timelock.sol\":3899:3917  depositIdToDeposit */\n      0x03\n        /* \"contracts/Timelock.sol\":3899:3929  depositIdToDeposit[_depositId] */\n      0x00\n        /* \"contracts/Timelock.sol\":3918:3928  _depositId */\n      dup6\n        /* \"contracts/Timelock.sol\":3899:3929  depositIdToDeposit[_depositId] */\n      dup2\n      mstore\n      0x20\n      add\n      swap1\n      dup2\n      mstore\n      0x20\n      add\n      0x00\n      keccak256\n        /* \"contracts/Timelock.sol\":3899:3937  depositIdToDeposit[_depositId].claimed */\n      0x06\n      add\n      0x00\n        /* \"contracts/Timelock.sol\":3899:3944  depositIdToDeposit[_depositId].claimed = true */\n      0x0100\n      exp\n      dup2\n      sload\n      dup2\n      0xff\n      mul\n      not\n      and\n      swap1\n      dup4\n      iszero\n      iszero\n      mul\n      or\n      swap1\n      sstore\n      pop\n        /* \"contracts/Timelock.sol\":3984:4001  delete oneDeposit */\n      tag_188\n      tag_153\n      jump\t// in\n    tag_188:\n      swap2\n      pop\n        /* \"contracts/Timelock.sol\":4062:4072  _depositId */\n      dup3\n        /* \"contracts/Timelock.sol\":4042:4073  ClaimedDepositEvent(_depositId) */\n      0xe452cdb9bed412d2a2730f7b94259ee6508bae240cff3cf9fda5ef24c034f022\n      mload(0x40)\n      mload(0x40)\n      dup1\n      swap2\n      sub\n      swap1\n      log2\n        /* \"contracts/Timelock.sol\":3172:4080  {... */\n      pop\n      pop\n        /* \"contracts/Timelock.sol\":3118:4080  function claim(bytes32 _depositId) external onlyOwner {... */\n      pop\n      jump\t// out\n        /* \"contracts/Timelock.sol\":495:540  uint256 public constant GRACE_PERIOD = 432000 */\n    tag_86:\n        /* \"contracts/Timelock.sol\":534:540  432000 */\n      0x069780\n        /* \"contracts/Timelock.sol\":495:540  uint256 public constant GRACE_PERIOD = 432000 */\n      dup2\n      jump\t// out\n        /* \"contracts/Timelock.sol\":10237:10898  function cancel(bytes32 _txId) external onlyOwner {... */\n    tag_91:\n        /* \"contracts/Timelock.sol\":4139:4144  owner */\n      0x00\n      dup1\n      sload\n      swap1\n      0x0100\n      exp\n      swap1\n      div\n      0xffffffffffffffffffffffffffffffffffffffff\n      and\n        /* \"contracts/Timelock.sol\":4125:4144  msg.sender == owner */\n      0xffffffffffffffffffffffffffffffffffffffff\n      and\n        /* \"contracts/Timelock.sol\":4125:4135  msg.sender */\n      caller\n        /* \"contracts/Timelock.sol\":4125:4144  msg.sender == owner */\n      0xffffffffffffffffffffffffffffffffffffffff\n      and\n      eq\n        /* \"contracts/Timelock.sol\":4117:4185  require(msg.sender == owner, \"Only Owner can execute this function\") */\n      tag_190\n      jumpi\n      mload(0x40)\n      0x08c379a000000000000000000000000000000000000000000000000000000000\n      dup2\n      mstore\n      0x04\n      add\n      tag_191\n      swap1\n      tag_129\n      jump\t// in\n    tag_191:\n      mload(0x40)\n      dup1\n      swap2\n      sub\n      swap1\n      revert\n    tag_190:\n        /* \"contracts/Timelock.sol\":10324:10328  true */\n      0x01\n        /* \"contracts/Timelock.sol\":10305:10328  isQueued(_txId) == true */\n      iszero\n      iszero\n        /* \"contracts/Timelock.sol\":10305:10320  isQueued(_txId) */\n      tag_193\n        /* \"contracts/Timelock.sol\":10314:10319  _txId */\n      dup3\n        /* \"contracts/Timelock.sol\":10305:10313  isQueued */\n      tag_30\n        /* \"contracts/Timelock.sol\":10305:10320  isQueued(_txId) */\n      jump\t// in\n    tag_193:\n        /* \"contracts/Timelock.sol\":10305:10328  isQueued(_txId) == true */\n      iszero\n      iszero\n      eq\n        /* \"contracts/Timelock.sol\":10297:10347  require(isQueued(_txId) == true, \"NotQueuedError\") */\n      tag_194\n      jumpi\n      mload(0x40)\n      0x08c379a000000000000000000000000000000000000000000000000000000000\n      dup2\n      mstore\n      0x04\n      add\n      tag_195\n      swap1\n      tag_196\n      jump\t// in\n    tag_195:\n      mload(0x40)\n      dup1\n      swap2\n      sub\n      swap1\n      revert\n    tag_194:\n        /* \"contracts/Timelock.sol\":10421:10443  Deposit memory deposit */\n      0x00\n        /* \"contracts/Timelock.sol\":10446:10452  queued */\n      0x04\n        /* \"contracts/Timelock.sol\":10446:10459  queued[_txId] */\n      0x00\n        /* \"contracts/Timelock.sol\":10453:10458  _txId */\n      dup4\n        /* \"contracts/Timelock.sol\":10446:10459  queued[_txId] */\n      dup2\n      mstore\n      0x20\n      add\n      swap1\n      dup2\n      mstore\n      0x20\n      add\n      0x00\n      keccak256\n        /* \"contracts/Timelock.sol\":10421:10459  Deposit memory deposit = queued[_txId] */\n      mload(0x40)\n      dup1\n      0xe0\n      add\n      0x40\n      mstore\n      swap1\n      dup2\n      0x00\n      dup3\n      add\n      sload\n      dup2\n      mstore\n      0x20\n      add\n      0x01\n      dup3\n      add\n      dup1\n      sload\n      tag_197\n      swap1\n      tag_121\n      jump\t// in\n    tag_197:\n      dup1\n      0x1f\n      add\n      0x20\n      dup1\n      swap2\n      div\n      mul\n      0x20\n      add\n      mload(0x40)\n      swap1\n      dup2\n      add\n      0x40\n      mstore\n      dup1\n      swap3\n      swap2\n      swap1\n      dup2\n      dup2\n      mstore\n      0x20\n      add\n      dup3\n      dup1\n      sload\n      tag_198\n      swap1\n      tag_121\n      jump\t// in\n    tag_198:\n      dup1\n      iszero\n      tag_199\n      jumpi\n      dup1\n      0x1f\n      lt\n      tag_200\n      jumpi\n      0x0100\n      dup1\n      dup4\n      sload\n      div\n      mul\n      dup4\n      mstore\n      swap2\n      0x20\n      add\n      swap2\n      jump(tag_199)\n    tag_200:\n      dup3\n      add\n      swap2\n      swap1\n      0x00\n      mstore\n      keccak256(0x00, 0x20)\n      swap1\n    tag_201:\n      dup2\n      sload\n      dup2\n      mstore\n      swap1\n      0x01\n      add\n      swap1\n      0x20\n      add\n      dup1\n      dup4\n      gt\n      tag_201\n      jumpi\n      dup3\n      swap1\n      sub\n      0x1f\n      and\n      dup3\n      add\n      swap2\n    tag_199:\n      pop\n      pop\n      pop\n      pop\n      pop\n      dup2\n      mstore\n      0x20\n      add\n      0x02\n      dup3\n      add\n      0x00\n      swap1\n      sload\n      swap1\n      0x0100\n      exp\n      swap1\n      div\n      0xffffffffffffffffffffffffffffffffffffffff\n      and\n      0xffffffffffffffffffffffffffffffffffffffff\n      and\n      0xffffffffffffffffffffffffffffffffffffffff\n      and\n      dup2\n      mstore\n      0x20\n      add\n      0x03\n      dup3\n      add\n      0x00\n      swap1\n      sload\n      swap1\n      0x0100\n      exp\n      swap1\n      div\n      0xffffffffffffffffffffffffffffffffffffffff\n      and\n      0xffffffffffffffffffffffffffffffffffffffff\n      and\n      0xffffffffffffffffffffffffffffffffffffffff\n      and\n      dup2\n      mstore\n      0x20\n      add\n      0x04\n      dup3\n      add\n      sload\n      dup2\n      mstore\n      0x20\n      add\n      0x05\n      dup3\n      add\n      sload\n      dup2\n      mstore\n      0x20\n      add\n      0x06\n      dup3\n      add\n      0x00\n      swap1\n      sload\n      swap1\n      0x0100\n      exp\n      swap1\n      div\n      0xff\n      and\n      iszero\n      iszero\n      iszero\n      iszero\n      dup2\n      mstore\n      pop\n      pop\n      swap1\n      pop\n        /* \"contracts/Timelock.sol\":10472:10485  uint256 index */\n      0x00\n        /* \"contracts/Timelock.sol\":10489:10521  getOneDeposit(deposit.depositId) */\n      tag_202\n        /* \"contracts/Timelock.sol\":10503:10510  deposit */\n      dup3\n        /* \"contracts/Timelock.sol\":10503:10520  deposit.depositId */\n      0x00\n      add\n      mload\n        /* \"contracts/Timelock.sol\":10489:10502  getOneDeposit */\n      tag_95\n        /* \"contracts/Timelock.sol\":10489:10521  getOneDeposit(deposit.depositId) */\n      jump\t// in\n    tag_202:\n        /* \"contracts/Timelock.sol\":10469:10521  (, uint256 index) = getOneDeposit(deposit.depositId) */\n      swap2\n      pop\n      pop\n        /* \"contracts/Timelock.sol\":10531:10572  removeDepositByIndex(deposit.from, index) */\n      tag_203\n        /* \"contracts/Timelock.sol\":10552:10559  deposit */\n      dup3\n        /* \"contracts/Timelock.sol\":10552:10564  deposit.from */\n      0x40\n      add\n      mload\n        /* \"contracts/Timelock.sol\":10566:10571  index */\n      dup3\n        /* \"contracts/Timelock.sol\":10531:10551  removeDepositByIndex */\n      tag_204\n        /* \"contracts/Timelock.sol\":10531:10572  removeDepositByIndex(deposit.from, index) */\n      jump\t// in\n    tag_203:\n        /* \"contracts/Timelock.sol\":10619:10626  bool ok */\n      0x00\n        /* \"contracts/Timelock.sol\":10633:10640  deposit */\n      dup3\n        /* \"contracts/Timelock.sol\":10633:10645  deposit.from */\n      0x40\n      add\n      mload\n        /* \"contracts/Timelock.sol\":10632:10651  (deposit.from).call */\n      0xffffffffffffffffffffffffffffffffffffffff\n      and\n        /* \"contracts/Timelock.sol\":10659:10666  deposit */\n      dup4\n        /* \"contracts/Timelock.sol\":10659:10673  deposit.amount */\n      0x80\n      add\n      mload\n        /* \"contracts/Timelock.sol\":10632:10678  (deposit.from).call{value: deposit.amount}(\"\") */\n      mload(0x40)\n      tag_205\n      swap1\n      tag_206\n      jump\t// in\n    tag_205:\n      0x00\n      mload(0x40)\n      dup1\n      dup4\n      sub\n      dup2\n      dup6\n      dup8\n      gas\n      call\n      swap3\n      pop\n      pop\n      pop\n      returndatasize\n      dup1\n      0x00\n      dup2\n      eq\n      tag_209\n      jumpi\n      mload(0x40)\n      swap2\n      pop\n      and(add(returndatasize, 0x3f), not(0x1f))\n      dup3\n      add\n      0x40\n      mstore\n      returndatasize\n      dup3\n      mstore\n      returndatasize\n      0x00\n      0x20\n      dup5\n      add\n      returndatacopy\n      jump(tag_208)\n    tag_209:\n      0x60\n      swap2\n      pop\n    tag_208:\n      pop\n        /* \"contracts/Timelock.sol\":10618:10678  (bool ok, ) = (deposit.from).call{value: deposit.amount}(\"\") */\n      pop\n      swap1\n      pop\n        /* \"contracts/Timelock.sol\":10696:10698  ok */\n      dup1\n        /* \"contracts/Timelock.sol\":10688:10722  require(ok, \"Reimbursement Error\") */\n      tag_210\n      jumpi\n      mload(0x40)\n      0x08c379a000000000000000000000000000000000000000000000000000000000\n      dup2\n      mstore\n      0x04\n      add\n      tag_211\n      swap1\n      tag_212\n      jump\t// in\n    tag_211:\n      mload(0x40)\n      dup1\n      swap2\n      sub\n      swap1\n      revert\n    tag_210:\n        /* \"contracts/Timelock.sol\":10768:10774  queued */\n      0x04\n        /* \"contracts/Timelock.sol\":10768:10781  queued[_txId] */\n      0x00\n        /* \"contracts/Timelock.sol\":10775:10780  _txId */\n      dup6\n        /* \"contracts/Timelock.sol\":10768:10781  queued[_txId] */\n      dup2\n      mstore\n      0x20\n      add\n      swap1\n      dup2\n      mstore\n      0x20\n      add\n      0x00\n      keccak256\n      0x00\n        /* \"contracts/Timelock.sol\":10761:10781  delete queued[_txId] */\n      dup1\n      dup3\n      add\n      0x00\n      swap1\n      sstore\n      0x01\n      dup3\n      add\n      0x00\n      tag_213\n      swap2\n      swap1\n      tag_214\n      jump\t// in\n    tag_213:\n      0x02\n      dup3\n      add\n      exp(0x0100, 0x00)\n      dup2\n      sload\n      swap1\n      0xffffffffffffffffffffffffffffffffffffffff\n      mul\n      not\n      and\n      swap1\n      sstore\n      0x03\n      dup3\n      add\n      exp(0x0100, 0x00)\n      dup2\n      sload\n      swap1\n      0xffffffffffffffffffffffffffffffffffffffff\n      mul\n      not\n      and\n      swap1\n      sstore\n      0x04\n      dup3\n      add\n      0x00\n      swap1\n      sstore\n      0x05\n      dup3\n      add\n      0x00\n      swap1\n      sstore\n      0x06\n      dup3\n      add\n      exp(0x0100, 0x00)\n      dup2\n      sload\n      swap1\n      0xff\n      mul\n      not\n      and\n      swap1\n      sstore\n      pop\n      pop\n        /* \"contracts/Timelock.sol\":10791:10805  delete deposit */\n      tag_215\n      tag_153\n      jump\t// in\n    tag_215:\n      swap3\n      pop\n        /* \"contracts/Timelock.sol\":10815:10827  delete index */\n      0x00\n      swap2\n      pop\n        /* \"contracts/Timelock.sol\":10885:10890  _txId */\n      dup4\n        /* \"contracts/Timelock.sol\":10869:10891  CanceledTxEvent(_txId) */\n      0x2c7aceded1437f250f60bc94f49680c49933e6c720bca1c2a6bf91f64d4de162\n      mload(0x40)\n      mload(0x40)\n      dup1\n      swap2\n      sub\n      swap1\n      log2\n        /* \"contracts/Timelock.sol\":10287:10898  {... */\n      pop\n      pop\n      pop\n        /* \"contracts/Timelock.sol\":10237:10898  function cancel(bytes32 _txId) external onlyOwner {... */\n      pop\n      jump\t// out\n        /* \"contracts/Timelock.sol\":5257:5595  function getOneDeposit(bytes32 _depositTxId)... */\n    tag_95:\n        /* \"contracts/Timelock.sol\":5347:5369  Deposit memory deposit */\n      tag_216\n      tag_153\n      jump\t// in\n    tag_216:\n        /* \"contracts/Timelock.sol\":5371:5384  uint256 index */\n      0x00\n        /* \"contracts/Timelock.sol\":5405:5414  uint256 i */\n      dup1\n        /* \"contracts/Timelock.sol\":5417:5418  0 */\n      0x00\n        /* \"contracts/Timelock.sol\":5405:5418  uint256 i = 0 */\n      swap1\n      pop\n        /* \"contracts/Timelock.sol\":5400:5589  for (uint256 i = 0; i < deposits[msg.sender].length; i++) {... */\n    tag_218:\n        /* \"contracts/Timelock.sol\":5424:5432  deposits */\n      0x02\n        /* \"contracts/Timelock.sol\":5424:5444  deposits[msg.sender] */\n      0x00\n        /* \"contracts/Timelock.sol\":5433:5443  msg.sender */\n      caller\n        /* \"contracts/Timelock.sol\":5424:5444  deposits[msg.sender] */\n      0xffffffffffffffffffffffffffffffffffffffff\n      and\n      0xffffffffffffffffffffffffffffffffffffffff\n      and\n      dup2\n      mstore\n      0x20\n      add\n      swap1\n      dup2\n      mstore\n      0x20\n      add\n      0x00\n      keccak256\n        /* \"contracts/Timelock.sol\":5424:5451  deposits[msg.sender].length */\n      dup1\n      sload\n      swap1\n      pop\n        /* \"contracts/Timelock.sol\":5420:5421  i */\n      dup2\n        /* \"contracts/Timelock.sol\":5420:5451  i < deposits[msg.sender].length */\n      lt\n        /* \"contracts/Timelock.sol\":5400:5589  for (uint256 i = 0; i < deposits[msg.sender].length; i++) {... */\n      iszero\n      tag_219\n      jumpi\n        /* \"contracts/Timelock.sol\":5513:5525  _depositTxId */\n      dup4\n        /* \"contracts/Timelock.sol\":5476:5484  deposits */\n      0x02\n        /* \"contracts/Timelock.sol\":5476:5496  deposits[msg.sender] */\n      0x00\n        /* \"contracts/Timelock.sol\":5485:5495  msg.sender */\n      caller\n        /* \"contracts/Timelock.sol\":5476:5496  deposits[msg.sender] */\n      0xffffffffffffffffffffffffffffffffffffffff\n      and\n      0xffffffffffffffffffffffffffffffffffffffff\n      and\n      dup2\n      mstore\n      0x20\n      add\n      swap1\n      dup2\n      mstore\n      0x20\n      add\n      0x00\n      keccak256\n        /* \"contracts/Timelock.sol\":5497:5498  i */\n      dup3\n        /* \"contracts/Timelock.sol\":5476:5499  deposits[msg.sender][i] */\n      dup2\n      sload\n      dup2\n      lt\n      tag_221\n      jumpi\n      tag_222\n      tag_185\n      jump\t// in\n    tag_222:\n    tag_221:\n      swap1\n      0x00\n      mstore\n      keccak256(0x00, 0x20)\n      swap1\n      0x07\n      mul\n      add\n        /* \"contracts/Timelock.sol\":5476:5509  deposits[msg.sender][i].depositId */\n      0x00\n      add\n      sload\n        /* \"contracts/Timelock.sol\":5476:5525  deposits[msg.sender][i].depositId == _depositTxId */\n      sub\n        /* \"contracts/Timelock.sol\":5472:5578  if (deposits[msg.sender][i].depositId == _depositTxId)... */\n      tag_224\n      jumpi\n        /* \"contracts/Timelock.sol\":5551:5559  deposits */\n      0x02\n        /* \"contracts/Timelock.sol\":5551:5571  deposits[msg.sender] */\n      0x00\n        /* \"contracts/Timelock.sol\":5560:5570  msg.sender */\n      caller\n        /* \"contracts/Timelock.sol\":5551:5571  deposits[msg.sender] */\n      0xffffffffffffffffffffffffffffffffffffffff\n      and\n      0xffffffffffffffffffffffffffffffffffffffff\n      and\n      dup2\n      mstore\n      0x20\n      add\n      swap1\n      dup2\n      mstore\n      0x20\n      add\n      0x00\n      keccak256\n        /* \"contracts/Timelock.sol\":5572:5573  i */\n      dup2\n        /* \"contracts/Timelock.sol\":5551:5574  deposits[msg.sender][i] */\n      dup2\n      sload\n      dup2\n      lt\n      tag_225\n      jumpi\n      tag_226\n      tag_185\n      jump\t// in\n    tag_226:\n    tag_225:\n      swap1\n      0x00\n      mstore\n      keccak256(0x00, 0x20)\n      swap1\n      0x07\n      mul\n      add\n        /* \"contracts/Timelock.sol\":5576:5577  i */\n      dup2\n        /* \"contracts/Timelock.sol\":5543:5578  return (deposits[msg.sender][i], i) */\n      dup2\n      mload(0x40)\n      dup1\n      0xe0\n      add\n      0x40\n      mstore\n      swap1\n      dup2\n      0x00\n      dup3\n      add\n      sload\n      dup2\n      mstore\n      0x20\n      add\n      0x01\n      dup3\n      add\n      dup1\n      sload\n      tag_228\n      swap1\n      tag_121\n      jump\t// in\n    tag_228:\n      dup1\n      0x1f\n      add\n      0x20\n      dup1\n      swap2\n      div\n      mul\n      0x20\n      add\n      mload(0x40)\n      swap1\n      dup2\n      add\n      0x40\n      mstore\n      dup1\n      swap3\n      swap2\n      swap1\n      dup2\n      dup2\n      mstore\n      0x20\n      add\n      dup3\n      dup1\n      sload\n      tag_229\n      swap1\n      tag_121\n      jump\t// in\n    tag_229:\n      dup1\n      iszero\n      tag_230\n      jumpi\n      dup1\n      0x1f\n      lt\n      tag_231\n      jumpi\n      0x0100\n      dup1\n      dup4\n      sload\n      div\n      mul\n      dup4\n      mstore\n      swap2\n      0x20\n      add\n      swap2\n      jump(tag_230)\n    tag_231:\n      dup3\n      add\n      swap2\n      swap1\n      0x00\n      mstore\n      keccak256(0x00, 0x20)\n      swap1\n    tag_232:\n      dup2\n      sload\n      dup2\n      mstore\n      swap1\n      0x01\n      add\n      swap1\n      0x20\n      add\n      dup1\n      dup4\n      gt\n      tag_232\n      jumpi\n      dup3\n      swap1\n      sub\n      0x1f\n      and\n      dup3\n      add\n      swap2\n    tag_230:\n      pop\n      pop\n      pop\n      pop\n      pop\n      dup2\n      mstore\n      0x20\n      add\n      0x02\n      dup3\n      add\n      0x00\n      swap1\n      sload\n      swap1\n      0x0100\n      exp\n      swap1\n      div\n      0xffffffffffffffffffffffffffffffffffffffff\n      and\n      0xffffffffffffffffffffffffffffffffffffffff\n      and\n      0xffffffffffffffffffffffffffffffffffffffff\n      and\n      dup2\n      mstore\n      0x20\n      add\n      0x03\n      dup3\n      add\n      0x00\n      swap1\n      sload\n      swap1\n      0x0100\n      exp\n      swap1\n      div\n      0xffffffffffffffffffffffffffffffffffffffff\n      and\n      0xffffffffffffffffffffffffffffffffffffffff\n      and\n      0xffffffffffffffffffffffffffffffffffffffff\n      and\n      dup2\n      mstore\n      0x20\n      add\n      0x04\n      dup3\n      add\n      sload\n      dup2\n      mstore\n      0x20\n      add\n      0x05\n      dup3\n      add\n      sload\n      dup2\n      mstore\n      0x20\n      add\n      0x06\n      dup3\n      add\n      0x00\n      swap1\n      sload\n      swap1\n      0x0100\n      exp\n      swap1\n      div\n      0xff\n      and\n      iszero\n      iszero\n      iszero\n      iszero\n      dup2\n      mstore\n      pop\n      pop\n      swap2\n      pop\n      swap3\n      pop\n      swap3\n      pop\n      pop\n      jump(tag_217)\n        /* \"contracts/Timelock.sol\":5472:5578  if (deposits[msg.sender][i].depositId == _depositTxId)... */\n    tag_224:\n        /* \"contracts/Timelock.sol\":5453:5456  i++ */\n      dup1\n      dup1\n      0x01\n      add\n      swap2\n      pop\n      pop\n        /* \"contracts/Timelock.sol\":5400:5589  for (uint256 i = 0; i < deposits[msg.sender].length; i++) {... */\n      jump(tag_218)\n    tag_219:\n      pop\n        /* \"contracts/Timelock.sol\":5257:5595  function getOneDeposit(bytes32 _depositTxId)... */\n    tag_217:\n      swap2\n      pop\n      swap2\n      jump\t// out\n        /* \"contracts/Timelock.sol\":8784:8829  mapping(address => Deposit[]) public deposits */\n    tag_102:\n      mstore(0x20, 0x02)\n      dup2\n      0x00\n      mstore\n      keccak256(0x00, 0x40)\n      dup2\n      dup2\n      sload\n      dup2\n      lt\n      tag_233\n      jumpi\n      0x00\n      dup1\n      revert\n    tag_233:\n      swap1\n      0x00\n      mstore\n      keccak256(0x00, 0x20)\n      swap1\n      0x07\n      mul\n      add\n      0x00\n      swap2\n      pop\n      swap2\n      pop\n      pop\n      dup1\n      0x00\n      add\n      sload\n      swap1\n      dup1\n      0x01\n      add\n      dup1\n      sload\n      tag_235\n      swap1\n      tag_121\n      jump\t// in\n    tag_235:\n      dup1\n      0x1f\n      add\n      0x20\n      dup1\n      swap2\n      div\n      mul\n      0x20\n      add\n      mload(0x40)\n      swap1\n      dup2\n      add\n      0x40\n      mstore\n      dup1\n      swap3\n      swap2\n      swap1\n      dup2\n      dup2\n      mstore\n      0x20\n      add\n      dup3\n      dup1\n      sload\n      tag_236\n      swap1\n      tag_121\n      jump\t// in\n    tag_236:\n      dup1\n      iszero\n      tag_237\n      jumpi\n      dup1\n      0x1f\n      lt\n      tag_238\n      jumpi\n      0x0100\n      dup1\n      dup4\n      sload\n      div\n      mul\n      dup4\n      mstore\n      swap2\n      0x20\n      add\n      swap2\n      jump(tag_237)\n    tag_238:\n      dup3\n      add\n      swap2\n      swap1\n      0x00\n      mstore\n      keccak256(0x00, 0x20)\n      swap1\n    tag_239:\n      dup2\n      sload\n      dup2\n      mstore\n      swap1\n      0x01\n      add\n      swap1\n      0x20\n      add\n      dup1\n      dup4\n      gt\n      tag_239\n      jumpi\n      dup3\n      swap1\n      sub\n      0x1f\n      and\n      dup3\n      add\n      swap2\n    tag_237:\n      pop\n      pop\n      pop\n      pop\n      pop\n      swap1\n      dup1\n      0x02\n      add\n      0x00\n      swap1\n      sload\n      swap1\n      0x0100\n      exp\n      swap1\n      div\n      0xffffffffffffffffffffffffffffffffffffffff\n      and\n      swap1\n      dup1\n      0x03\n      add\n      0x00\n      swap1\n      sload\n      swap1\n      0x0100\n      exp\n      swap1\n      div\n      0xffffffffffffffffffffffffffffffffffffffff\n      and\n      swap1\n      dup1\n      0x04\n      add\n      sload\n      swap1\n      dup1\n      0x05\n      add\n      sload\n      swap1\n      dup1\n      0x06\n      add\n      0x00\n      swap1\n      sload\n      swap1\n      0x0100\n      exp\n      swap1\n      div\n      0xff\n      and\n      swap1\n      pop\n      dup8\n      jump\t// out\n        /* \"contracts/Timelock.sol\":8873:8926  mapping(bytes32 => Deposit) public depositIdToDeposit */\n    tag_107:\n      mstore(0x20, 0x03)\n      dup1\n      0x00\n      mstore\n      keccak256(0x00, 0x40)\n      0x00\n      swap2\n      pop\n      swap1\n      pop\n      dup1\n      0x00\n      add\n      sload\n      swap1\n      dup1\n      0x01\n      add\n      dup1\n      sload\n      tag_240\n      swap1\n      tag_121\n      jump\t// in\n    tag_240:\n      dup1\n      0x1f\n      add\n      0x20\n      dup1\n      swap2\n      div\n      mul\n      0x20\n      add\n      mload(0x40)\n      swap1\n      dup2\n      add\n      0x40\n      mstore\n      dup1\n      swap3\n      swap2\n      swap1\n      dup2\n      dup2\n      mstore\n      0x20\n      add\n      dup3\n      dup1\n      sload\n      tag_241\n      swap1\n      tag_121\n      jump\t// in\n    tag_241:\n      dup1\n      iszero\n      tag_242\n      jumpi\n      dup1\n      0x1f\n      lt\n      tag_243\n      jumpi\n      0x0100\n      dup1\n      dup4\n      sload\n      div\n      mul\n      dup4\n      mstore\n      swap2\n      0x20\n      add\n      swap2\n      jump(tag_242)\n    tag_243:\n      dup3\n      add\n      swap2\n      swap1\n      0x00\n      mstore\n      keccak256(0x00, 0x20)\n      swap1\n    tag_244:\n      dup2\n      sload\n      dup2\n      mstore\n      swap1\n      0x01\n      add\n      swap1\n      0x20\n      add\n      dup1\n      dup4\n      gt\n      tag_244\n      jumpi\n      dup3\n      swap1\n      sub\n      0x1f\n      and\n      dup3\n      add\n      swap2\n    tag_242:\n      pop\n      pop\n      pop\n      pop\n      pop\n      swap1\n      dup1\n      0x02\n      add\n      0x00\n      swap1\n      sload\n      swap1\n      0x0100\n      exp\n      swap1\n      div\n      0xffffffffffffffffffffffffffffffffffffffff\n      and\n      swap1\n      dup1\n      0x03\n      add\n      0x00\n      swap1\n      sload\n      swap1\n      0x0100\n      exp\n      swap1\n      div\n      0xffffffffffffffffffffffffffffffffffffffff\n      and\n      swap1\n      dup1\n      0x04\n      add\n      sload\n      swap1\n      dup1\n      0x05\n      add\n      sload\n      swap1\n      dup1\n      0x06\n      add\n      0x00\n      swap1\n      sload\n      swap1\n      0x0100\n      exp\n      swap1\n      div\n      0xff\n      and\n      swap1\n      pop\n      dup8\n      jump\t// out\n        /* \"contracts/Timelock.sol\":6135:8235  function updateDeposit(... */\n    tag_112:\n        /* \"contracts/Timelock.sol\":6334:6344  _timestamp */\n      dup1\n        /* \"contracts/Timelock.sol\":4355:4381  validTimestamp(_timestamp) */\n      tag_246\n        /* \"contracts/Timelock.sol\":4370:4380  _timestamp */\n      dup2\n        /* \"contracts/Timelock.sol\":4355:4369  validTimestamp */\n      tag_247\n        /* \"contracts/Timelock.sol\":4355:4381  validTimestamp(_timestamp) */\n      jump\t// in\n    tag_246:\n        /* \"contracts/Timelock.sol\":4334:4450  require(... */\n      tag_248\n      jumpi\n      mload(0x40)\n      0x08c379a000000000000000000000000000000000000000000000000000000000\n      dup2\n      mstore\n      0x04\n      add\n      tag_249\n      swap1\n      tag_250\n      jump\t// in\n    tag_249:\n      mload(0x40)\n      dup1\n      swap2\n      sub\n      swap1\n      revert\n    tag_248:\n        /* \"contracts/Timelock.sol\":6357:6379  Deposit memory deposit */\n      0x00\n        /* \"contracts/Timelock.sol\":6381:6394  uint256 index */\n      dup1\n        /* \"contracts/Timelock.sol\":6398:6423  getOneDeposit(_depositId) */\n      tag_252\n        /* \"contracts/Timelock.sol\":6412:6422  _depositId */\n      dup9\n        /* \"contracts/Timelock.sol\":6398:6411  getOneDeposit */\n      tag_95\n        /* \"contracts/Timelock.sol\":6398:6423  getOneDeposit(_depositId) */\n      jump\t// in\n    tag_252:\n        /* \"contracts/Timelock.sol\":6356:6423  (Deposit memory deposit, uint256 index) = getOneDeposit(_depositId) */\n      swap2\n      pop\n      swap2\n      pop\n        /* \"contracts/Timelock.sol\":6433:6450  bytes32 depositId */\n      0x00\n        /* \"contracts/Timelock.sol\":6453:6589  getDepositTxId(... */\n      tag_253\n        /* \"contracts/Timelock.sol\":6481:6493  _description */\n      dup9\n        /* \"contracts/Timelock.sol\":6507:6517  msg.sender */\n      caller\n        /* \"contracts/Timelock.sol\":6531:6534  _to */\n      dup10\n        /* \"contracts/Timelock.sol\":6548:6555  _amount */\n      dup10\n        /* \"contracts/Timelock.sol\":6569:6579  _timestamp */\n      dup10\n        /* \"contracts/Timelock.sol\":6453:6467  getDepositTxId */\n      tag_78\n        /* \"contracts/Timelock.sol\":6453:6589  getDepositTxId(... */\n      jump\t// in\n    tag_253:\n        /* \"contracts/Timelock.sol\":6433:6589  bytes32 depositId = getDepositTxId(... */\n      swap1\n      pop\n        /* \"contracts/Timelock.sol\":6617:6618  0 */\n      0x00\n        /* \"contracts/Timelock.sol\":6607:6614  _amount */\n      dup7\n        /* \"contracts/Timelock.sol\":6607:6618  _amount > 0 */\n      gt\n        /* \"contracts/Timelock.sol\":6599:6637  require(_amount > 0, \"AmountLowError\") */\n      tag_254\n      jumpi\n      mload(0x40)\n      0x08c379a000000000000000000000000000000000000000000000000000000000\n      dup2\n      mstore\n      0x04\n      add\n      tag_255\n      swap1\n      tag_256\n      jump\t// in\n    tag_255:\n      mload(0x40)\n      dup1\n      swap2\n      sub\n      swap1\n      revert\n    tag_254:\n        /* \"contracts/Timelock.sol\":6672:6673  0 */\n      0x00\n        /* \"contracts/Timelock.sol\":6655:6662  deposit */\n      dup4\n        /* \"contracts/Timelock.sol\":6655:6669  deposit.amount */\n      0x80\n      add\n      mload\n        /* \"contracts/Timelock.sol\":6655:6673  deposit.amount > 0 */\n      gt\n        /* \"contracts/Timelock.sol\":6647:6697  require(deposit.amount > 0, \"NoDepositFoundError\") */\n      tag_257\n      jumpi\n      mload(0x40)\n      0x08c379a000000000000000000000000000000000000000000000000000000000\n      dup2\n      mstore\n      0x04\n      add\n      tag_258\n      swap1\n      tag_259\n      jump\t// in\n    tag_258:\n      mload(0x40)\n      dup1\n      swap2\n      sub\n      swap1\n      revert\n    tag_257:\n        /* \"contracts/Timelock.sol\":6722:6729  deposit */\n      dup3\n        /* \"contracts/Timelock.sol\":6722:6736  deposit.amount */\n      0x80\n      add\n      mload\n        /* \"contracts/Timelock.sol\":6712:6719  _amount */\n      dup7\n        /* \"contracts/Timelock.sol\":6712:6736  _amount > deposit.amount */\n      gt\n        /* \"contracts/Timelock.sol\":6708:7252  if (_amount > deposit.amount) {... */\n      iszero\n      tag_260\n      jumpi\n        /* \"contracts/Timelock.sol\":6873:6880  deposit */\n      dup3\n        /* \"contracts/Timelock.sol\":6873:6887  deposit.amount */\n      0x80\n      add\n      mload\n        /* \"contracts/Timelock.sol\":6863:6870  _amount */\n      dup7\n        /* \"contracts/Timelock.sol\":6863:6887  _amount - deposit.amount */\n      tag_261\n      swap2\n      swap1\n      tag_262\n      jump\t// in\n    tag_261:\n        /* \"contracts/Timelock.sol\":6841:6851  msg.sender */\n      caller\n        /* \"contracts/Timelock.sol\":6841:6859  msg.sender.balance */\n      0xffffffffffffffffffffffffffffffffffffffff\n      and\n      balance\n        /* \"contracts/Timelock.sol\":6841:6888  msg.sender.balance > (_amount - deposit.amount) */\n      gt\n        /* \"contracts/Timelock.sol\":6816:6953  require(... */\n      tag_263\n      jumpi\n      mload(0x40)\n      0x08c379a000000000000000000000000000000000000000000000000000000000\n      dup2\n      mstore\n      0x04\n      add\n      tag_264\n      swap1\n      tag_265\n      jump\t// in\n    tag_264:\n      mload(0x40)\n      dup1\n      swap2\n      sub\n      swap1\n      revert\n    tag_263:\n        /* \"contracts/Timelock.sol\":6969:6978  bool sent */\n      0x00\n        /* \"contracts/Timelock.sol\":7000:7004  this */\n      address\n        /* \"contracts/Timelock.sol\":6984:7011  payable(address(this)).call */\n      0xffffffffffffffffffffffffffffffffffffffff\n      and\n        /* \"contracts/Timelock.sol\":7046:7053  deposit */\n      dup5\n        /* \"contracts/Timelock.sol\":7046:7060  deposit.amount */\n      0x80\n      add\n      mload\n        /* \"contracts/Timelock.sol\":7036:7043  _amount */\n      dup9\n        /* \"contracts/Timelock.sol\":7036:7060  _amount - deposit.amount */\n      tag_266\n      swap2\n      swap1\n      tag_262\n      jump\t// in\n    tag_266:\n        /* \"contracts/Timelock.sol\":6984:7078  payable(address(this)).call{... */\n      mload(0x40)\n      tag_267\n      swap1\n      tag_206\n      jump\t// in\n    tag_267:\n      0x00\n      mload(0x40)\n      dup1\n      dup4\n      sub\n      dup2\n      dup6\n      dup8\n      gas\n      call\n      swap3\n      pop\n      pop\n      pop\n      returndatasize\n      dup1\n      0x00\n      dup2\n      eq\n      tag_270\n      jumpi\n      mload(0x40)\n      swap2\n      pop\n      and(add(returndatasize, 0x3f), not(0x1f))\n      dup3\n      add\n      0x40\n      mstore\n      returndatasize\n      dup3\n      mstore\n      returndatasize\n      0x00\n      0x20\n      dup5\n      add\n      returndatacopy\n      jump(tag_269)\n    tag_270:\n      0x60\n      swap2\n      pop\n    tag_269:\n      pop\n        /* \"contracts/Timelock.sol\":6968:7078  (bool sent, ) = payable(address(this)).call{... */\n      pop\n      swap1\n      pop\n        /* \"contracts/Timelock.sol\":7100:7104  sent */\n      dup1\n        /* \"contracts/Timelock.sol\":7092:7129  require(sent, \"Failed to send Ether\") */\n      tag_271\n      jumpi\n      mload(0x40)\n      0x08c379a000000000000000000000000000000000000000000000000000000000\n      dup2\n      mstore\n      0x04\n      add\n      tag_272\n      swap1\n      tag_273\n      jump\t// in\n    tag_272:\n      mload(0x40)\n      dup1\n      swap2\n      sub\n      swap1\n      revert\n    tag_271:\n        /* \"contracts/Timelock.sol\":6738:7140  {... */\n      pop\n        /* \"contracts/Timelock.sol\":6708:7252  if (_amount > deposit.amount) {... */\n      jump(tag_274)\n    tag_260:\n        /* \"contracts/Timelock.sol\":7160:7167  deposit */\n      dup3\n        /* \"contracts/Timelock.sol\":7160:7174  deposit.amount */\n      0x80\n      add\n      mload\n        /* \"contracts/Timelock.sol\":7150:7157  _amount */\n      dup7\n        /* \"contracts/Timelock.sol\":7150:7174  _amount < deposit.amount */\n      lt\n        /* \"contracts/Timelock.sol\":7146:7252  if (_amount < deposit.amount) {... */\n      iszero\n      tag_275\n      jumpi\n        /* \"contracts/Timelock.sol\":7190:7241  reimburseUser(msg.sender, deposit.amount - _amount) */\n      tag_276\n        /* \"contracts/Timelock.sol\":7204:7214  msg.sender */\n      caller\n        /* \"contracts/Timelock.sol\":7233:7240  _amount */\n      dup8\n        /* \"contracts/Timelock.sol\":7216:7223  deposit */\n      dup6\n        /* \"contracts/Timelock.sol\":7216:7230  deposit.amount */\n      0x80\n      add\n      mload\n        /* \"contracts/Timelock.sol\":7216:7240  deposit.amount - _amount */\n      tag_277\n      swap2\n      swap1\n      tag_262\n      jump\t// in\n    tag_277:\n        /* \"contracts/Timelock.sol\":7190:7203  reimburseUser */\n      tag_278\n        /* \"contracts/Timelock.sol\":7190:7241  reimburseUser(msg.sender, deposit.amount - _amount) */\n      jump\t// in\n    tag_276:\n        /* \"contracts/Timelock.sol\":7146:7252  if (_amount < deposit.amount) {... */\n    tag_275:\n        /* \"contracts/Timelock.sol\":6708:7252  if (_amount > deposit.amount) {... */\n    tag_274:\n        /* \"contracts/Timelock.sol\":7292:7520  Deposit(... */\n      mload(0x40)\n      dup1\n      0xe0\n      add\n      0x40\n      mstore\n      dup1\n        /* \"contracts/Timelock.sol\":7313:7379  getDepositTxId(_description, msg.sender, _to, _amount, _timestamp) */\n      tag_279\n        /* \"contracts/Timelock.sol\":7328:7340  _description */\n      dup11\n        /* \"contracts/Timelock.sol\":7342:7352  msg.sender */\n      caller\n        /* \"contracts/Timelock.sol\":7354:7357  _to */\n      dup12\n        /* \"contracts/Timelock.sol\":7359:7366  _amount */\n      dup12\n        /* \"contracts/Timelock.sol\":7368:7378  _timestamp */\n      dup12\n        /* \"contracts/Timelock.sol\":7313:7327  getDepositTxId */\n      tag_78\n        /* \"contracts/Timelock.sol\":7313:7379  getDepositTxId(_description, msg.sender, _to, _amount, _timestamp) */\n      jump\t// in\n    tag_279:\n        /* \"contracts/Timelock.sol\":7292:7520  Deposit(... */\n      dup2\n      mstore\n      0x20\n      add\n        /* \"contracts/Timelock.sol\":7393:7405  _description */\n      dup10\n        /* \"contracts/Timelock.sol\":7292:7520  Deposit(... */\n      dup2\n      mstore\n      0x20\n      add\n        /* \"contracts/Timelock.sol\":7419:7429  msg.sender */\n      caller\n        /* \"contracts/Timelock.sol\":7292:7520  Deposit(... */\n      0xffffffffffffffffffffffffffffffffffffffff\n      and\n      dup2\n      mstore\n      0x20\n      add\n        /* \"contracts/Timelock.sol\":7443:7446  _to */\n      dup9\n        /* \"contracts/Timelock.sol\":7292:7520  Deposit(... */\n      0xffffffffffffffffffffffffffffffffffffffff\n      and\n      dup2\n      mstore\n      0x20\n      add\n        /* \"contracts/Timelock.sol\":7460:7467  _amount */\n      dup8\n        /* \"contracts/Timelock.sol\":7292:7520  Deposit(... */\n      dup2\n      mstore\n      0x20\n      add\n        /* \"contracts/Timelock.sol\":7481:7491  _timestamp */\n      dup7\n        /* \"contracts/Timelock.sol\":7292:7520  Deposit(... */\n      dup2\n      mstore\n      0x20\n      add\n        /* \"contracts/Timelock.sol\":7505:7510  false */\n      0x00\n        /* \"contracts/Timelock.sol\":7292:7520  Deposit(... */\n      iszero\n      iszero\n      dup2\n      mstore\n      pop\n        /* \"contracts/Timelock.sol\":7262:7270  deposits */\n      0x02\n        /* \"contracts/Timelock.sol\":7262:7282  deposits[msg.sender] */\n      0x00\n        /* \"contracts/Timelock.sol\":7271:7281  msg.sender */\n      caller\n        /* \"contracts/Timelock.sol\":7262:7282  deposits[msg.sender] */\n      0xffffffffffffffffffffffffffffffffffffffff\n      and\n      0xffffffffffffffffffffffffffffffffffffffff\n      and\n      dup2\n      mstore\n      0x20\n      add\n      swap1\n      dup2\n      mstore\n      0x20\n      add\n      0x00\n      keccak256\n        /* \"contracts/Timelock.sol\":7283:7288  index */\n      dup4\n        /* \"contracts/Timelock.sol\":7262:7289  deposits[msg.sender][index] */\n      dup2\n      sload\n      dup2\n      lt\n      tag_280\n      jumpi\n      tag_281\n      tag_185\n      jump\t// in\n    tag_281:\n    tag_280:\n      swap1\n      0x00\n      mstore\n      keccak256(0x00, 0x20)\n      swap1\n      0x07\n      mul\n      add\n        /* \"contracts/Timelock.sol\":7262:7520  deposits[msg.sender][index] = Deposit(... */\n      0x00\n      dup3\n      add\n      mload\n      dup2\n      0x00\n      add\n      sstore\n      0x20\n      dup3\n      add\n      mload\n      dup2\n      0x01\n      add\n      swap1\n      dup2\n      tag_283\n      swap2\n      swap1\n      tag_149\n      jump\t// in\n    tag_283:\n      pop\n      0x40\n      dup3\n      add\n      mload\n      dup2\n      0x02\n      add\n      exp(0x0100, 0x00)\n      dup2\n      sload\n      dup2\n      0xffffffffffffffffffffffffffffffffffffffff\n      mul\n      not\n      and\n      swap1\n      dup4\n      0xffffffffffffffffffffffffffffffffffffffff\n      and\n      mul\n      or\n      swap1\n      sstore\n      pop\n      0x60\n      dup3\n      add\n      mload\n      dup2\n      0x03\n      add\n      exp(0x0100, 0x00)\n      dup2\n      sload\n      dup2\n      0xffffffffffffffffffffffffffffffffffffffff\n      mul\n      not\n      and\n      swap1\n      dup4\n      0xffffffffffffffffffffffffffffffffffffffff\n      and\n      mul\n      or\n      swap1\n      sstore\n      pop\n      0x80\n      dup3\n      add\n      mload\n      dup2\n      0x04\n      add\n      sstore\n      0xa0\n      dup3\n      add\n      mload\n      dup2\n      0x05\n      add\n      sstore\n      0xc0\n      dup3\n      add\n      mload\n      dup2\n      0x06\n      add\n      exp(0x0100, 0x00)\n      dup2\n      sload\n      dup2\n      0xff\n      mul\n      not\n      and\n      swap1\n      dup4\n      iszero\n      iszero\n      mul\n      or\n      swap1\n      sstore\n      pop\n      swap1\n      pop\n      pop\n        /* \"contracts/Timelock.sol\":7645:7646  0 */\n      0x00\n        /* \"contracts/Timelock.sol\":7598:7616  depositIdToDeposit */\n      0x03\n        /* \"contracts/Timelock.sol\":7598:7635  depositIdToDeposit[deposit.depositId] */\n      0x00\n        /* \"contracts/Timelock.sol\":7617:7624  deposit */\n      dup6\n        /* \"contracts/Timelock.sol\":7617:7634  deposit.depositId */\n      0x00\n      add\n      mload\n        /* \"contracts/Timelock.sol\":7598:7635  depositIdToDeposit[deposit.depositId] */\n      dup2\n      mstore\n      0x20\n      add\n      swap1\n      dup2\n      mstore\n      0x20\n      add\n      0x00\n      keccak256\n        /* \"contracts/Timelock.sol\":7598:7642  depositIdToDeposit[deposit.depositId].amount */\n      0x04\n      add\n      sload\n        /* \"contracts/Timelock.sol\":7598:7646  depositIdToDeposit[deposit.depositId].amount > 0 */\n      gt\n        /* \"contracts/Timelock.sol\":7577:7715  require(... */\n      tag_284\n      jumpi\n      mload(0x40)\n      0x08c379a000000000000000000000000000000000000000000000000000000000\n      dup2\n      mstore\n      0x04\n      add\n      tag_285\n      swap1\n      tag_286\n      jump\t// in\n    tag_285:\n      mload(0x40)\n      dup1\n      swap2\n      sub\n      swap1\n      revert\n    tag_284:\n        /* \"contracts/Timelock.sol\":7776:7794  depositIdToDeposit */\n      0x03\n        /* \"contracts/Timelock.sol\":7776:7813  depositIdToDeposit[deposit.depositId] */\n      0x00\n        /* \"contracts/Timelock.sol\":7795:7802  deposit */\n      dup5\n        /* \"contracts/Timelock.sol\":7795:7812  deposit.depositId */\n      0x00\n      add\n      mload\n        /* \"contracts/Timelock.sol\":7776:7813  depositIdToDeposit[deposit.depositId] */\n      dup2\n      mstore\n      0x20\n      add\n      swap1\n      dup2\n      mstore\n      0x20\n      add\n      0x00\n      keccak256\n      0x00\n        /* \"contracts/Timelock.sol\":7769:7813  delete depositIdToDeposit[deposit.depositId] */\n      dup1\n      dup3\n      add\n      0x00\n      swap1\n      sstore\n      0x01\n      dup3\n      add\n      0x00\n      tag_287\n      swap2\n      swap1\n      tag_214\n      jump\t// in\n    tag_287:\n      0x02\n      dup3\n      add\n      exp(0x0100, 0x00)\n      dup2\n      sload\n      swap1\n      0xffffffffffffffffffffffffffffffffffffffff\n      mul\n      not\n      and\n      swap1\n      sstore\n      0x03\n      dup3\n      add\n      exp(0x0100, 0x00)\n      dup2\n      sload\n      swap1\n      0xffffffffffffffffffffffffffffffffffffffff\n      mul\n      not\n      and\n      swap1\n      sstore\n      0x04\n      dup3\n      add\n      0x00\n      swap1\n      sstore\n      0x05\n      dup3\n      add\n      0x00\n      swap1\n      sstore\n      0x06\n      dup3\n      add\n      exp(0x0100, 0x00)\n      dup2\n      sload\n      swap1\n      0xff\n      mul\n      not\n      and\n      swap1\n      sstore\n      pop\n      pop\n        /* \"contracts/Timelock.sol\":7901:8072  Deposit(... */\n      mload(0x40)\n      dup1\n      0xe0\n      add\n      0x40\n      mstore\n      dup1\n        /* \"contracts/Timelock.sol\":7922:7931  depositId */\n      dup3\n        /* \"contracts/Timelock.sol\":7901:8072  Deposit(... */\n      dup2\n      mstore\n      0x20\n      add\n        /* \"contracts/Timelock.sol\":7945:7957  _description */\n      dup10\n        /* \"contracts/Timelock.sol\":7901:8072  Deposit(... */\n      dup2\n      mstore\n      0x20\n      add\n        /* \"contracts/Timelock.sol\":7971:7981  msg.sender */\n      caller\n        /* \"contracts/Timelock.sol\":7901:8072  Deposit(... */\n      0xffffffffffffffffffffffffffffffffffffffff\n      and\n      dup2\n      mstore\n      0x20\n      add\n        /* \"contracts/Timelock.sol\":7995:7998  _to */\n      dup9\n        /* \"contracts/Timelock.sol\":7901:8072  Deposit(... */\n      0xffffffffffffffffffffffffffffffffffffffff\n      and\n      dup2\n      mstore\n      0x20\n      add\n        /* \"contracts/Timelock.sol\":8012:8019  _amount */\n      dup8\n        /* \"contracts/Timelock.sol\":7901:8072  Deposit(... */\n      dup2\n      mstore\n      0x20\n      add\n        /* \"contracts/Timelock.sol\":8033:8043  _timestamp */\n      dup7\n        /* \"contracts/Timelock.sol\":7901:8072  Deposit(... */\n      dup2\n      mstore\n      0x20\n      add\n        /* \"contracts/Timelock.sol\":8057:8062  false */\n      0x00\n        /* \"contracts/Timelock.sol\":7901:8072  Deposit(... */\n      iszero\n      iszero\n      dup2\n      mstore\n      pop\n        /* \"contracts/Timelock.sol\":7869:7887  depositIdToDeposit */\n      0x03\n        /* \"contracts/Timelock.sol\":7869:7898  depositIdToDeposit[depositId] */\n      0x00\n        /* \"contracts/Timelock.sol\":7888:7897  depositId */\n      dup4\n        /* \"contracts/Timelock.sol\":7869:7898  depositIdToDeposit[depositId] */\n      dup2\n      mstore\n      0x20\n      add\n      swap1\n      dup2\n      mstore\n      0x20\n      add\n      0x00\n      keccak256\n        /* \"contracts/Timelock.sol\":7869:8072  depositIdToDeposit[depositId] = Deposit(... */\n      0x00\n      dup3\n      add\n      mload\n      dup2\n      0x00\n      add\n      sstore\n      0x20\n      dup3\n      add\n      mload\n      dup2\n      0x01\n      add\n      swap1\n      dup2\n      tag_288\n      swap2\n      swap1\n      tag_149\n      jump\t// in\n    tag_288:\n      pop\n      0x40\n      dup3\n      add\n      mload\n      dup2\n      0x02\n      add\n      exp(0x0100, 0x00)\n      dup2\n      sload\n      dup2\n      0xffffffffffffffffffffffffffffffffffffffff\n      mul\n      not\n      and\n      swap1\n      dup4\n      0xffffffffffffffffffffffffffffffffffffffff\n      and\n      mul\n      or\n      swap1\n      sstore\n      pop\n      0x60\n      dup3\n      add\n      mload\n      dup2\n      0x03\n      add\n      exp(0x0100, 0x00)\n      dup2\n      sload\n      dup2\n      0xffffffffffffffffffffffffffffffffffffffff\n      mul\n      not\n      and\n      swap1\n      dup4\n      0xffffffffffffffffffffffffffffffffffffffff\n      and\n      mul\n      or\n      swap1\n      sstore\n      pop\n      0x80\n      dup3\n      add\n      mload\n      dup2\n      0x04\n      add\n      sstore\n      0xa0\n      dup3\n      add\n      mload\n      dup2\n      0x05\n      add\n      sstore\n      0xc0\n      dup3\n      add\n      mload\n      dup2\n      0x06\n      add\n      exp(0x0100, 0x00)\n      dup2\n      sload\n      dup2\n      0xff\n      mul\n      not\n      and\n      swap1\n      dup4\n      iszero\n      iszero\n      mul\n      or\n      swap1\n      sstore\n      pop\n      swap1\n      pop\n      pop\n        /* \"contracts/Timelock.sol\":8170:8173  _to */\n      dup7\n        /* \"contracts/Timelock.sol\":8087:8228  UpdatedDepositEvent(... */\n      0xffffffffffffffffffffffffffffffffffffffff\n      and\n        /* \"contracts/Timelock.sol\":8146:8156  msg.sender */\n      caller\n        /* \"contracts/Timelock.sol\":8087:8228  UpdatedDepositEvent(... */\n      0xffffffffffffffffffffffffffffffffffffffff\n      and\n      0x80500dd3135b317a9964a886fc89087f9464cfbb755449e146ace57a1e0cf4\n        /* \"contracts/Timelock.sol\":8120:8132  _description */\n      dup11\n        /* \"contracts/Timelock.sol\":8187:8194  _amount */\n      dup10\n        /* \"contracts/Timelock.sol\":8208:8218  _timestamp */\n      dup10\n        /* \"contracts/Timelock.sol\":8087:8228  UpdatedDepositEvent(... */\n      mload(0x40)\n      tag_289\n      swap4\n      swap3\n      swap2\n      swap1\n      tag_290\n      jump\t// in\n    tag_289:\n      mload(0x40)\n      dup1\n      swap2\n      sub\n      swap1\n      log3\n        /* \"contracts/Timelock.sol\":6346:8235  {... */\n      pop\n      pop\n      pop\n        /* \"contracts/Timelock.sol\":6135:8235  function updateDeposit(... */\n      pop\n      pop\n      pop\n      pop\n      pop\n      pop\n      jump\t// out\n        /* \"contracts/Timelock.sol\":1715:3112  function execute(... */\n    tag_115:\n        /* \"contracts/Timelock.sol\":1858:1870  bytes memory */\n      0x60\n        /* \"contracts/Timelock.sol\":4139:4144  owner */\n      0x00\n      dup1\n      sload\n      swap1\n      0x0100\n      exp\n      swap1\n      div\n      0xffffffffffffffffffffffffffffffffffffffff\n      and\n        /* \"contracts/Timelock.sol\":4125:4144  msg.sender == owner */\n      0xffffffffffffffffffffffffffffffffffffffff\n      and\n        /* \"contracts/Timelock.sol\":4125:4135  msg.sender */\n      caller\n        /* \"contracts/Timelock.sol\":4125:4144  msg.sender == owner */\n      0xffffffffffffffffffffffffffffffffffffffff\n      and\n      eq\n        /* \"contracts/Timelock.sol\":4117:4185  require(msg.sender == owner, \"Only Owner can execute this function\") */\n      tag_292\n      jumpi\n      mload(0x40)\n      0x08c379a000000000000000000000000000000000000000000000000000000000\n      dup2\n      mstore\n      0x04\n      add\n      tag_293\n      swap1\n      tag_129\n      jump\t// in\n    tag_293:\n      mload(0x40)\n      dup1\n      swap2\n      sub\n      swap1\n      revert\n    tag_292:\n        /* \"contracts/Timelock.sol\":1882:1894  bytes32 txId */\n      0x00\n        /* \"contracts/Timelock.sol\":1897:1932  getTxId(_target, _depositId, _func) */\n      tag_295\n        /* \"contracts/Timelock.sol\":1905:1912  _target */\n      dup7\n        /* \"contracts/Timelock.sol\":1914:1924  _depositId */\n      dup7\n        /* \"contracts/Timelock.sol\":1926:1931  _func */\n      dup7\n      dup7\n        /* \"contracts/Timelock.sol\":1897:1904  getTxId */\n      tag_62\n        /* \"contracts/Timelock.sol\":1897:1932  getTxId(_target, _depositId, _func) */\n      jump\t// in\n    tag_295:\n        /* \"contracts/Timelock.sol\":1882:1932  bytes32 txId = getTxId(_target, _depositId, _func) */\n      swap1\n      pop\n        /* \"contracts/Timelock.sol\":1942:1964  Deposit memory deposit */\n      0x00\n        /* \"contracts/Timelock.sol\":1967:1973  queued */\n      0x04\n        /* \"contracts/Timelock.sol\":1967:1979  queued[txId] */\n      0x00\n        /* \"contracts/Timelock.sol\":1974:1978  txId */\n      dup4\n        /* \"contracts/Timelock.sol\":1967:1979  queued[txId] */\n      dup2\n      mstore\n      0x20\n      add\n      swap1\n      dup2\n      mstore\n      0x20\n      add\n      0x00\n      keccak256\n        /* \"contracts/Timelock.sol\":1942:1979  Deposit memory deposit = queued[txId] */\n      mload(0x40)\n      dup1\n      0xe0\n      add\n      0x40\n      mstore\n      swap1\n      dup2\n      0x00\n      dup3\n      add\n      sload\n      dup2\n      mstore\n      0x20\n      add\n      0x01\n      dup3\n      add\n      dup1\n      sload\n      tag_296\n      swap1\n      tag_121\n      jump\t// in\n    tag_296:\n      dup1\n      0x1f\n      add\n      0x20\n      dup1\n      swap2\n      div\n      mul\n      0x20\n      add\n      mload(0x40)\n      swap1\n      dup2\n      add\n      0x40\n      mstore\n      dup1\n      swap3\n      swap2\n      swap1\n      dup2\n      dup2\n      mstore\n      0x20\n      add\n      dup3\n      dup1\n      sload\n      tag_297\n      swap1\n      tag_121\n      jump\t// in\n    tag_297:\n      dup1\n      iszero\n      tag_298\n      jumpi\n      dup1\n      0x1f\n      lt\n      tag_299\n      jumpi\n      0x0100\n      dup1\n      dup4\n      sload\n      div\n      mul\n      dup4\n      mstore\n      swap2\n      0x20\n      add\n      swap2\n      jump(tag_298)\n    tag_299:\n      dup3\n      add\n      swap2\n      swap1\n      0x00\n      mstore\n      keccak256(0x00, 0x20)\n      swap1\n    tag_300:\n      dup2\n      sload\n      dup2\n      mstore\n      swap1\n      0x01\n      add\n      swap1\n      0x20\n      add\n      dup1\n      dup4\n      gt\n      tag_300\n      jumpi\n      dup3\n      swap1\n      sub\n      0x1f\n      and\n      dup3\n      add\n      swap2\n    tag_298:\n      pop\n      pop\n      pop\n      pop\n      pop\n      dup2\n      mstore\n      0x20\n      add\n      0x02\n      dup3\n      add\n      0x00\n      swap1\n      sload\n      swap1\n      0x0100\n      exp\n      swap1\n      div\n      0xffffffffffffffffffffffffffffffffffffffff\n      and\n      0xffffffffffffffffffffffffffffffffffffffff\n      and\n      0xffffffffffffffffffffffffffffffffffffffff\n      and\n      dup2\n      mstore\n      0x20\n      add\n      0x03\n      dup3\n      add\n      0x00\n      swap1\n      sload\n      swap1\n      0x0100\n      exp\n      swap1\n      div\n      0xffffffffffffffffffffffffffffffffffffffff\n      and\n      0xffffffffffffffffffffffffffffffffffffffff\n      and\n      0xffffffffffffffffffffffffffffffffffffffff\n      and\n      dup2\n      mstore\n      0x20\n      add\n      0x04\n      dup3\n      add\n      sload\n      dup2\n      mstore\n      0x20\n      add\n      0x05\n      dup3\n      add\n      sload\n      dup2\n      mstore\n      0x20\n      add\n      0x06\n      dup3\n      add\n      0x00\n      swap1\n      sload\n      swap1\n      0x0100\n      exp\n      swap1\n      div\n      0xff\n      and\n      iszero\n      iszero\n      iszero\n      iszero\n      dup2\n      mstore\n      pop\n      pop\n      swap1\n      pop\n        /* \"contracts/Timelock.sol\":2064:2065  0 */\n      0x00\n        /* \"contracts/Timelock.sol\":2042:2048  queued */\n      0x04\n        /* \"contracts/Timelock.sol\":2042:2054  queued[txId] */\n      0x00\n        /* \"contracts/Timelock.sol\":2049:2053  txId */\n      dup5\n        /* \"contracts/Timelock.sol\":2042:2054  queued[txId] */\n      dup2\n      mstore\n      0x20\n      add\n      swap1\n      dup2\n      mstore\n      0x20\n      add\n      0x00\n      keccak256\n        /* \"contracts/Timelock.sol\":2042:2061  queued[txId].amount */\n      0x04\n      add\n      sload\n        /* \"contracts/Timelock.sol\":2042:2065  queued[txId].amount > 0 */\n      gt\n        /* \"contracts/Timelock.sol\":2034:2084  require(queued[txId].amount > 0, \"NotQueuedError\") */\n      tag_301\n      jumpi\n      mload(0x40)\n      0x08c379a000000000000000000000000000000000000000000000000000000000\n      dup2\n      mstore\n      0x04\n      add\n      tag_302\n      swap1\n      tag_196\n      jump\t// in\n    tag_302:\n      mload(0x40)\n      dup1\n      swap2\n      sub\n      swap1\n      revert\n    tag_301:\n        /* \"contracts/Timelock.sol\":2196:2211  block.timestamp */\n      timestamp\n        /* \"contracts/Timelock.sol\":2171:2177  queued */\n      0x04\n        /* \"contracts/Timelock.sol\":2171:2183  queued[txId] */\n      0x00\n        /* \"contracts/Timelock.sol\":2178:2182  txId */\n      dup5\n        /* \"contracts/Timelock.sol\":2171:2183  queued[txId] */\n      dup2\n      mstore\n      0x20\n      add\n      swap1\n      dup2\n      mstore\n      0x20\n      add\n      0x00\n      keccak256\n        /* \"contracts/Timelock.sol\":2171:2193  queued[txId].timestamp */\n      0x05\n      add\n      sload\n        /* \"contracts/Timelock.sol\":2171:2211  queued[txId].timestamp < block.timestamp */\n      lt\n        /* \"contracts/Timelock.sol\":2150:2260  require(... */\n      tag_303\n      jumpi\n      mload(0x40)\n      0x08c379a000000000000000000000000000000000000000000000000000000000\n      dup2\n      mstore\n      0x04\n      add\n      tag_304\n      swap1\n      tag_305\n      jump\t// in\n    tag_304:\n      mload(0x40)\n      dup1\n      swap2\n      sub\n      swap1\n      revert\n    tag_303:\n        /* \"contracts/Timelock.sol\":534:540  432000 */\n      0x069780\n        /* \"contracts/Timelock.sol\":2365:2371  queued */\n      0x04\n        /* \"contracts/Timelock.sol\":2365:2377  queued[txId] */\n      0x00\n        /* \"contracts/Timelock.sol\":2372:2376  txId */\n      dup5\n        /* \"contracts/Timelock.sol\":2365:2377  queued[txId] */\n      dup2\n      mstore\n      0x20\n      add\n      swap1\n      dup2\n      mstore\n      0x20\n      add\n      0x00\n      keccak256\n        /* \"contracts/Timelock.sol\":2365:2387  queued[txId].timestamp */\n      0x05\n      add\n      sload\n        /* \"contracts/Timelock.sol\":2365:2402  queued[txId].timestamp + GRACE_PERIOD */\n      tag_306\n      swap2\n      swap1\n      tag_142\n      jump\t// in\n    tag_306:\n        /* \"contracts/Timelock.sol\":2347:2362  block.timestamp */\n      timestamp\n        /* \"contracts/Timelock.sol\":2347:2402  block.timestamp < queued[txId].timestamp + GRACE_PERIOD */\n      lt\n        /* \"contracts/Timelock.sol\":2326:2449  require(... */\n      tag_307\n      jumpi\n      mload(0x40)\n      0x08c379a000000000000000000000000000000000000000000000000000000000\n      dup2\n      mstore\n      0x04\n      add\n      tag_308\n      swap1\n      tag_309\n      jump\t// in\n    tag_308:\n      mload(0x40)\n      dup1\n      swap2\n      sub\n      swap1\n      revert\n    tag_307:\n        /* \"contracts/Timelock.sol\":2484:2501  bytes memory data */\n      0x60\n        /* \"contracts/Timelock.sol\":2558:2563  _func */\n      dup6\n      dup6\n        /* \"contracts/Timelock.sol\":2542:2565  keccak256(bytes(_func)) */\n      mload(0x40)\n      tag_310\n      swap3\n      swap2\n      swap1\n      tag_311\n      jump\t// in\n    tag_310:\n      mload(0x40)\n      dup1\n      swap2\n      sub\n      swap1\n      keccak256\n        /* \"contracts/Timelock.sol\":2568:2572  txId */\n      dup4\n        /* \"contracts/Timelock.sol\":2518:2573  abi.encodePacked(bytes4(keccak256(bytes(_func))), txId) */\n      add(0x20, mload(0x40))\n      tag_312\n      swap3\n      swap2\n      swap1\n      tag_313\n      jump\t// in\n    tag_312:\n      mload(0x40)\n      0x20\n      dup2\n      dup4\n      sub\n      sub\n      dup2\n      mstore\n      swap1\n      0x40\n      mstore\n        /* \"contracts/Timelock.sol\":2511:2573  data = abi.encodePacked(bytes4(keccak256(bytes(_func))), txId) */\n      swap1\n      pop\n        /* \"contracts/Timelock.sol\":2608:2615  bool ok */\n      0x00\n        /* \"contracts/Timelock.sol\":2617:2633  bytes memory res */\n      dup1\n        /* \"contracts/Timelock.sol\":2638:2645  deposit */\n      dup4\n        /* \"contracts/Timelock.sol\":2638:2648  deposit.to */\n      0x60\n      add\n      mload\n        /* \"contracts/Timelock.sol\":2637:2654  (deposit.to).call */\n      0xffffffffffffffffffffffffffffffffffffffff\n      and\n        /* \"contracts/Timelock.sol\":2662:2669  deposit */\n      dup5\n        /* \"contracts/Timelock.sol\":2662:2676  deposit.amount */\n      0x80\n      add\n      mload\n        /* \"contracts/Timelock.sol\":2691:2695  data */\n      dup5\n        /* \"contracts/Timelock.sol\":2637:2705  (deposit.to).call{value: deposit.amount}(... */\n      mload(0x40)\n      tag_314\n      swap2\n      swap1\n      tag_315\n      jump\t// in\n    tag_314:\n      0x00\n      mload(0x40)\n      dup1\n      dup4\n      sub\n      dup2\n      dup6\n      dup8\n      gas\n      call\n      swap3\n      pop\n      pop\n      pop\n      returndatasize\n      dup1\n      0x00\n      dup2\n      eq\n      tag_318\n      jumpi\n      mload(0x40)\n      swap2\n      pop\n      and(add(returndatasize, 0x3f), not(0x1f))\n      dup3\n      add\n      0x40\n      mstore\n      returndatasize\n      dup3\n      mstore\n      returndatasize\n      0x00\n      0x20\n      dup5\n      add\n      returndatacopy\n      jump(tag_317)\n    tag_318:\n      0x60\n      swap2\n      pop\n    tag_317:\n      pop\n        /* \"contracts/Timelock.sol\":2607:2705  (bool ok, bytes memory res) = (deposit.to).call{value: deposit.amount}(... */\n      swap2\n      pop\n      swap2\n      pop\n        /* \"contracts/Timelock.sol\":2723:2725  ok */\n      dup2\n        /* \"contracts/Timelock.sol\":2715:2743  require(ok, \"TxFailedError\") */\n      tag_319\n      jumpi\n      mload(0x40)\n      0x08c379a000000000000000000000000000000000000000000000000000000000\n      dup2\n      mstore\n      0x04\n      add\n      tag_320\n      swap1\n      tag_321\n      jump\t// in\n    tag_320:\n      mload(0x40)\n      dup1\n      swap2\n      sub\n      swap1\n      revert\n    tag_319:\n        /* \"contracts/Timelock.sol\":2852:2859  deposit */\n      dup4\n        /* \"contracts/Timelock.sol\":2852:2862  deposit.to */\n      0x60\n      add\n      mload\n        /* \"contracts/Timelock.sol\":2784:2931  ExecutedTxEvent(... */\n      0xffffffffffffffffffffffffffffffffffffffff\n      and\n        /* \"contracts/Timelock.sol\":2831:2838  _target */\n      dup11\n        /* \"contracts/Timelock.sol\":2784:2931  ExecutedTxEvent(... */\n      0xffffffffffffffffffffffffffffffffffffffff\n      and\n        /* \"contracts/Timelock.sol\":2813:2817  txId */\n      dup7\n        /* \"contracts/Timelock.sol\":2784:2931  ExecutedTxEvent(... */\n      0xa7d0a908e9a681226c49f8746dd888d9324c460437a92654e38a466d23f217a8\n        /* \"contracts/Timelock.sol\":2876:2883  deposit */\n      dup8\n        /* \"contracts/Timelock.sol\":2876:2890  deposit.amount */\n      0x80\n      add\n      mload\n        /* \"contracts/Timelock.sol\":2904:2911  deposit */\n      dup9\n        /* \"contracts/Timelock.sol\":2904:2921  deposit.timestamp */\n      0xa0\n      add\n      mload\n        /* \"contracts/Timelock.sol\":2784:2931  ExecutedTxEvent(... */\n      mload(0x40)\n      tag_322\n      swap3\n      swap2\n      swap1\n      tag_323\n      jump\t// in\n    tag_322:\n      mload(0x40)\n      dup1\n      swap2\n      sub\n      swap1\n      log4\n        /* \"contracts/Timelock.sol\":2978:2984  queued */\n      0x04\n        /* \"contracts/Timelock.sol\":2978:2990  queued[txId] */\n      0x00\n        /* \"contracts/Timelock.sol\":2985:2989  txId */\n      dup7\n        /* \"contracts/Timelock.sol\":2978:2990  queued[txId] */\n      dup2\n      mstore\n      0x20\n      add\n      swap1\n      dup2\n      mstore\n      0x20\n      add\n      0x00\n      keccak256\n      0x00\n        /* \"contracts/Timelock.sol\":2971:2990  delete queued[txId] */\n      dup1\n      dup3\n      add\n      0x00\n      swap1\n      sstore\n      0x01\n      dup3\n      add\n      0x00\n      tag_324\n      swap2\n      swap1\n      tag_214\n      jump\t// in\n    tag_324:\n      0x02\n      dup3\n      add\n      exp(0x0100, 0x00)\n      dup2\n      sload\n      swap1\n      0xffffffffffffffffffffffffffffffffffffffff\n      mul\n      not\n      and\n      swap1\n      sstore\n      0x03\n      dup3\n      add\n      exp(0x0100, 0x00)\n      dup2\n      sload\n      swap1\n      0xffffffffffffffffffffffffffffffffffffffff\n      mul\n      not\n      and\n      swap1\n      sstore\n      0x04\n      dup3\n      add\n      0x00\n      swap1\n      sstore\n      0x05\n      dup3\n      add\n      0x00\n      swap1\n      sstore\n      0x06\n      dup3\n      add\n      exp(0x0100, 0x00)\n      dup2\n      sload\n      swap1\n      0xff\n      mul\n      not\n      and\n      swap1\n      sstore\n      pop\n      pop\n        /* \"contracts/Timelock.sol\":3000:3014  delete deposit */\n      tag_325\n      tag_153\n      jump\t// in\n    tag_325:\n      swap4\n      pop\n        /* \"contracts/Timelock.sol\":3024:3035  delete data */\n      0x60\n      swap3\n      pop\n        /* \"contracts/Timelock.sol\":3102:3105  res */\n      dup1\n        /* \"contracts/Timelock.sol\":3095:3105  return res */\n      swap6\n      pop\n      pop\n      pop\n      pop\n      pop\n      pop\n        /* \"contracts/Timelock.sol\":1715:3112  function execute(... */\n      swap5\n      swap4\n      pop\n      pop\n      pop\n      pop\n      jump\t// out\n        /* \"contracts/Timelock.sol\":8241:8535  function removeDepositByIndex(address _depositor, uint256 _index) internal {... */\n    tag_204:\n        /* \"contracts/Timelock.sol\":8340:8348  deposits */\n      0x02\n        /* \"contracts/Timelock.sol\":8340:8360  deposits[_depositor] */\n      0x00\n        /* \"contracts/Timelock.sol\":8349:8359  _depositor */\n      dup4\n        /* \"contracts/Timelock.sol\":8340:8360  deposits[_depositor] */\n      0xffffffffffffffffffffffffffffffffffffffff\n      and\n      0xffffffffffffffffffffffffffffffffffffffff\n      and\n      dup2\n      mstore\n      0x20\n      add\n      swap1\n      dup2\n      mstore\n      0x20\n      add\n      0x00\n      keccak256\n        /* \"contracts/Timelock.sol\":8340:8367  deposits[_depositor].length */\n      dup1\n      sload\n      swap1\n      pop\n        /* \"contracts/Timelock.sol\":8330:8336  _index */\n      dup2\n        /* \"contracts/Timelock.sol\":8330:8367  _index >= deposits[_depositor].length */\n      lt\n        /* \"contracts/Timelock.sol\":8326:8376  if (_index >= deposits[_depositor].length) return; */\n      iszero\n        /* \"contracts/Timelock.sol\":8369:8376  return; */\n      tag_326\n        /* \"contracts/Timelock.sol\":8326:8376  if (_index >= deposits[_depositor].length) return; */\n      jumpi\n        /* \"contracts/Timelock.sol\":8417:8425  deposits */\n      0x02\n        /* \"contracts/Timelock.sol\":8417:8437  deposits[_depositor] */\n      0x00\n        /* \"contracts/Timelock.sol\":8426:8436  _depositor */\n      dup4\n        /* \"contracts/Timelock.sol\":8417:8437  deposits[_depositor] */\n      0xffffffffffffffffffffffffffffffffffffffff\n      and\n      0xffffffffffffffffffffffffffffffffffffffff\n      and\n      dup2\n      mstore\n      0x20\n      add\n      swap1\n      dup2\n      mstore\n      0x20\n      add\n      0x00\n      keccak256\n        /* \"contracts/Timelock.sol\":8481:8482  1 */\n      0x01\n        /* \"contracts/Timelock.sol\":8451:8459  deposits */\n      0x02\n        /* \"contracts/Timelock.sol\":8451:8471  deposits[_depositor] */\n      0x00\n        /* \"contracts/Timelock.sol\":8460:8470  _depositor */\n      dup6\n        /* \"contracts/Timelock.sol\":8451:8471  deposits[_depositor] */\n      0xffffffffffffffffffffffffffffffffffffffff\n      and\n      0xffffffffffffffffffffffffffffffffffffffff\n      and\n      dup2\n      mstore\n      0x20\n      add\n      swap1\n      dup2\n      mstore\n      0x20\n      add\n      0x00\n      keccak256\n        /* \"contracts/Timelock.sol\":8451:8478  deposits[_depositor].length */\n      dup1\n      sload\n      swap1\n      pop\n        /* \"contracts/Timelock.sol\":8451:8482  deposits[_depositor].length - 1 */\n      tag_328\n      swap2\n      swap1\n      tag_262\n      jump\t// in\n    tag_328:\n        /* \"contracts/Timelock.sol\":8417:8492  deposits[_depositor][... */\n      dup2\n      sload\n      dup2\n      lt\n      tag_329\n      jumpi\n      tag_330\n      tag_185\n      jump\t// in\n    tag_330:\n    tag_329:\n      swap1\n      0x00\n      mstore\n      keccak256(0x00, 0x20)\n      swap1\n      0x07\n      mul\n      add\n        /* \"contracts/Timelock.sol\":8386:8394  deposits */\n      0x02\n        /* \"contracts/Timelock.sol\":8386:8406  deposits[_depositor] */\n      0x00\n        /* \"contracts/Timelock.sol\":8395:8405  _depositor */\n      dup5\n        /* \"contracts/Timelock.sol\":8386:8406  deposits[_depositor] */\n      0xffffffffffffffffffffffffffffffffffffffff\n      and\n      0xffffffffffffffffffffffffffffffffffffffff\n      and\n      dup2\n      mstore\n      0x20\n      add\n      swap1\n      dup2\n      mstore\n      0x20\n      add\n      0x00\n      keccak256\n        /* \"contracts/Timelock.sol\":8407:8413  _index */\n      dup3\n        /* \"contracts/Timelock.sol\":8386:8414  deposits[_depositor][_index] */\n      dup2\n      sload\n      dup2\n      lt\n      tag_332\n      jumpi\n      tag_333\n      tag_185\n      jump\t// in\n    tag_333:\n    tag_332:\n      swap1\n      0x00\n      mstore\n      keccak256(0x00, 0x20)\n      swap1\n      0x07\n      mul\n      add\n        /* \"contracts/Timelock.sol\":8386:8492  deposits[_depositor][_index] = deposits[_depositor][... */\n      0x00\n      dup3\n      add\n      sload\n      dup2\n      0x00\n      add\n      sstore\n      0x01\n      dup3\n      add\n      dup2\n      0x01\n      add\n      swap1\n      dup2\n      tag_335\n      swap2\n      swap1\n      tag_336\n      jump\t// in\n    tag_335:\n      pop\n      0x02\n      dup3\n      add\n      0x00\n      swap1\n      sload\n      swap1\n      0x0100\n      exp\n      swap1\n      div\n      0xffffffffffffffffffffffffffffffffffffffff\n      and\n      dup2\n      0x02\n      add\n      exp(0x0100, 0x00)\n      dup2\n      sload\n      dup2\n      0xffffffffffffffffffffffffffffffffffffffff\n      mul\n      not\n      and\n      swap1\n      dup4\n      0xffffffffffffffffffffffffffffffffffffffff\n      and\n      mul\n      or\n      swap1\n      sstore\n      pop\n      0x03\n      dup3\n      add\n      0x00\n      swap1\n      sload\n      swap1\n      0x0100\n      exp\n      swap1\n      div\n      0xffffffffffffffffffffffffffffffffffffffff\n      and\n      dup2\n      0x03\n      add\n      exp(0x0100, 0x00)\n      dup2\n      sload\n      dup2\n      0xffffffffffffffffffffffffffffffffffffffff\n      mul\n      not\n      and\n      swap1\n      dup4\n      0xffffffffffffffffffffffffffffffffffffffff\n      and\n      mul\n      or\n      swap1\n      sstore\n      pop\n      0x04\n      dup3\n      add\n      sload\n      dup2\n      0x04\n      add\n      sstore\n      0x05\n      dup3\n      add\n      sload\n      dup2\n      0x05\n      add\n      sstore\n      0x06\n      dup3\n      add\n      0x00\n      swap1\n      sload\n      swap1\n      0x0100\n      exp\n      swap1\n      div\n      0xff\n      and\n      dup2\n      0x06\n      add\n      exp(0x0100, 0x00)\n      dup2\n      sload\n      dup2\n      0xff\n      mul\n      not\n      and\n      swap1\n      dup4\n      iszero\n      iszero\n      mul\n      or\n      swap1\n      sstore\n      pop\n      swap1\n      pop\n      pop\n        /* \"contracts/Timelock.sol\":8502:8510  deposits */\n      0x02\n        /* \"contracts/Timelock.sol\":8502:8522  deposits[_depositor] */\n      0x00\n        /* \"contracts/Timelock.sol\":8511:8521  _depositor */\n      dup4\n        /* \"contracts/Timelock.sol\":8502:8522  deposits[_depositor] */\n      0xffffffffffffffffffffffffffffffffffffffff\n      and\n      0xffffffffffffffffffffffffffffffffffffffff\n      and\n      dup2\n      mstore\n      0x20\n      add\n      swap1\n      dup2\n      mstore\n      0x20\n      add\n      0x00\n      keccak256\n        /* \"contracts/Timelock.sol\":8502:8528  deposits[_depositor].pop() */\n      dup1\n      sload\n      dup1\n      tag_337\n      jumpi\n      tag_338\n      tag_339\n      jump\t// in\n    tag_338:\n    tag_337:\n      0x01\n      swap1\n      sub\n      dup2\n      dup2\n      swap1\n      0x00\n      mstore\n      keccak256(0x00, 0x20)\n      swap1\n      0x07\n      mul\n      add\n      0x00\n      dup1\n      dup3\n      add\n      0x00\n      swap1\n      sstore\n      0x01\n      dup3\n      add\n      0x00\n      tag_341\n      swap2\n      swap1\n      tag_214\n      jump\t// in\n    tag_341:\n      0x02\n      dup3\n      add\n      exp(0x0100, 0x00)\n      dup2\n      sload\n      swap1\n      0xffffffffffffffffffffffffffffffffffffffff\n      mul\n      not\n      and\n      swap1\n      sstore\n      0x03\n      dup3\n      add\n      exp(0x0100, 0x00)\n      dup2\n      sload\n      swap1\n      0xffffffffffffffffffffffffffffffffffffffff\n      mul\n      not\n      and\n      swap1\n      sstore\n      0x04\n      dup3\n      add\n      0x00\n      swap1\n      sstore\n      0x05\n      dup3\n      add\n      0x00\n      swap1\n      sstore\n      0x06\n      dup3\n      add\n      exp(0x0100, 0x00)\n      dup2\n      sload\n      swap1\n      0xff\n      mul\n      not\n      and\n      swap1\n      sstore\n      pop\n      pop\n      swap1\n      sstore\n        /* \"contracts/Timelock.sol\":8241:8535  function removeDepositByIndex(address _depositor, uint256 _index) internal {... */\n    tag_326:\n      pop\n      pop\n      jump\t// out\n        /* \"contracts/Timelock.sol\":5012:5139  function validTimestamp(uint256 _timestamp) internal view returns (bool) {... */\n    tag_247:\n        /* \"contracts/Timelock.sol\":5079:5083  bool */\n      0x00\n        /* \"contracts/Timelock.sol\":5122:5132  _timestamp */\n      dup2\n        /* \"contracts/Timelock.sol\":5103:5118  block.timestamp */\n      timestamp\n        /* \"contracts/Timelock.sol\":5102:5132  (block.timestamp) < _timestamp */\n      lt\n        /* \"contracts/Timelock.sol\":5095:5132  return (block.timestamp) < _timestamp */\n      swap1\n      pop\n        /* \"contracts/Timelock.sol\":5012:5139  function validTimestamp(uint256 _timestamp) internal view returns (bool) {... */\n      swap2\n      swap1\n      pop\n      jump\t// out\n        /* \"contracts/Timelock.sol\":5946:6129  function reimburseUser(address _user, uint256 _amount) internal {... */\n    tag_278:\n        /* \"contracts/Timelock.sol\":6021:6030  bool sent */\n      0x00\n        /* \"contracts/Timelock.sol\":6044:6049  _user */\n      dup3\n        /* \"contracts/Timelock.sol\":6036:6055  payable(_user).call */\n      0xffffffffffffffffffffffffffffffffffffffff\n      and\n        /* \"contracts/Timelock.sol\":6063:6070  _amount */\n      dup3\n        /* \"contracts/Timelock.sol\":6036:6075  payable(_user).call{value: _amount}(\"\") */\n      mload(0x40)\n      tag_344\n      swap1\n      tag_206\n      jump\t// in\n    tag_344:\n      0x00\n      mload(0x40)\n      dup1\n      dup4\n      sub\n      dup2\n      dup6\n      dup8\n      gas\n      call\n      swap3\n      pop\n      pop\n      pop\n      returndatasize\n      dup1\n      0x00\n      dup2\n      eq\n      tag_347\n      jumpi\n      mload(0x40)\n      swap2\n      pop\n      and(add(returndatasize, 0x3f), not(0x1f))\n      dup3\n      add\n      0x40\n      mstore\n      returndatasize\n      dup3\n      mstore\n      returndatasize\n      0x00\n      0x20\n      dup5\n      add\n      returndatacopy\n      jump(tag_346)\n    tag_347:\n      0x60\n      swap2\n      pop\n    tag_346:\n      pop\n        /* \"contracts/Timelock.sol\":6020:6075  (bool sent, ) = payable(_user).call{value: _amount}(\"\") */\n      pop\n      swap1\n      pop\n        /* \"contracts/Timelock.sol\":6093:6097  sent */\n      dup1\n        /* \"contracts/Timelock.sol\":6085:6122  require(sent, \"Failed to send Ether\") */\n      tag_348\n      jumpi\n      mload(0x40)\n      0x08c379a000000000000000000000000000000000000000000000000000000000\n      dup2\n      mstore\n      0x04\n      add\n      tag_349\n      swap1\n      tag_273\n      jump\t// in\n    tag_349:\n      mload(0x40)\n      dup1\n      swap2\n      sub\n      swap1\n      revert\n    tag_348:\n        /* \"contracts/Timelock.sol\":6010:6129  {... */\n      pop\n        /* \"contracts/Timelock.sol\":5946:6129  function reimburseUser(address _user, uint256 _amount) internal {... */\n      pop\n      pop\n      jump\t// out\n    tag_153:\n      mload(0x40)\n      dup1\n      0xe0\n      add\n      0x40\n      mstore\n      dup1\n      0x00\n      dup1\n      not\n      and\n      dup2\n      mstore\n      0x20\n      add\n      0x60\n      dup2\n      mstore\n      0x20\n      add\n      and(0xffffffffffffffffffffffffffffffffffffffff, 0x00)\n      dup2\n      mstore\n      0x20\n      add\n      and(0xffffffffffffffffffffffffffffffffffffffff, 0x00)\n      dup2\n      mstore\n      0x20\n      add\n      0x00\n      dup2\n      mstore\n      0x20\n      add\n      0x00\n      dup2\n      mstore\n      0x20\n      add\n      iszero(iszero(0x00))\n      dup2\n      mstore\n      pop\n      swap1\n      jump\t// out\n    tag_214:\n      pop\n      dup1\n      sload\n      tag_350\n      swap1\n      tag_121\n      jump\t// in\n    tag_350:\n      0x00\n      dup3\n      sstore\n      dup1\n      0x1f\n      lt\n      tag_352\n      jumpi\n      pop\n      jump(tag_351)\n    tag_352:\n      0x1f\n      add\n      0x20\n      swap1\n      div\n      swap1\n      0x00\n      mstore\n      keccak256(0x00, 0x20)\n      swap1\n      dup2\n      add\n      swap1\n      tag_353\n      swap2\n      swap1\n      tag_354\n      jump\t// in\n    tag_353:\n    tag_351:\n      pop\n      jump\t// out\n    tag_354:\n    tag_355:\n      dup1\n      dup3\n      gt\n      iszero\n      tag_356\n      jumpi\n      0x00\n      dup2\n      0x00\n      swap1\n      sstore\n      pop\n      0x01\n      add\n      jump(tag_355)\n    tag_356:\n      pop\n      swap1\n      jump\t// out\n        /* \"#utility.yul\":7:82   */\n    tag_357:\n        /* \"#utility.yul\":40:46   */\n      0x00\n        /* \"#utility.yul\":73:75   */\n      0x40\n        /* \"#utility.yul\":67:76   */\n      mload\n        /* \"#utility.yul\":57:76   */\n      swap1\n      pop\n        /* \"#utility.yul\":7:82   */\n      swap1\n      jump\t// out\n        /* \"#utility.yul\":88:205   */\n    tag_358:\n        /* \"#utility.yul\":197:198   */\n      0x00\n        /* \"#utility.yul\":194:195   */\n      dup1\n        /* \"#utility.yul\":187:199   */\n      revert\n        /* \"#utility.yul\":211:328   */\n    tag_359:\n        /* \"#utility.yul\":320:321   */\n      0x00\n        /* \"#utility.yul\":317:318   */\n      dup1\n        /* \"#utility.yul\":310:322   */\n      revert\n        /* \"#utility.yul\":334:411   */\n    tag_360:\n        /* \"#utility.yul\":371:378   */\n      0x00\n        /* \"#utility.yul\":400:405   */\n      dup2\n        /* \"#utility.yul\":389:405   */\n      swap1\n      pop\n        /* \"#utility.yul\":334:411   */\n      swap2\n      swap1\n      pop\n      jump\t// out\n        /* \"#utility.yul\":417:539   */\n    tag_361:\n        /* \"#utility.yul\":490:514   */\n      tag_474\n        /* \"#utility.yul\":508:513   */\n      dup2\n        /* \"#utility.yul\":490:514   */\n      tag_360\n      jump\t// in\n    tag_474:\n        /* \"#utility.yul\":483:488   */\n      dup2\n        /* \"#utility.yul\":480:515   */\n      eq\n        /* \"#utility.yul\":470:533   */\n      tag_475\n      jumpi\n        /* \"#utility.yul\":529:530   */\n      0x00\n        /* \"#utility.yul\":526:527   */\n      dup1\n        /* \"#utility.yul\":519:531   */\n      revert\n        /* \"#utility.yul\":470:533   */\n    tag_475:\n        /* \"#utility.yul\":417:539   */\n      pop\n      jump\t// out\n        /* \"#utility.yul\":545:684   */\n    tag_362:\n        /* \"#utility.yul\":591:596   */\n      0x00\n        /* \"#utility.yul\":629:635   */\n      dup2\n        /* \"#utility.yul\":616:636   */\n      calldataload\n        /* \"#utility.yul\":607:636   */\n      swap1\n      pop\n        /* \"#utility.yul\":645:678   */\n      tag_477\n        /* \"#utility.yul\":672:677   */\n      dup2\n        /* \"#utility.yul\":645:678   */\n      tag_361\n      jump\t// in\n    tag_477:\n        /* \"#utility.yul\":545:684   */\n      swap3\n      swap2\n      pop\n      pop\n      jump\t// out\n        /* \"#utility.yul\":690:1019   */\n    tag_29:\n        /* \"#utility.yul\":749:755   */\n      0x00\n        /* \"#utility.yul\":798:800   */\n      0x20\n        /* \"#utility.yul\":786:795   */\n      dup3\n        /* \"#utility.yul\":777:784   */\n      dup5\n        /* \"#utility.yul\":773:796   */\n      sub\n        /* \"#utility.yul\":769:801   */\n      slt\n        /* \"#utility.yul\":766:885   */\n      iszero\n      tag_479\n      jumpi\n        /* \"#utility.yul\":804:883   */\n      tag_480\n      tag_358\n      jump\t// in\n    tag_480:\n        /* \"#utility.yul\":766:885   */\n    tag_479:\n        /* \"#utility.yul\":924:925   */\n      0x00\n        /* \"#utility.yul\":949:1002   */\n      tag_481\n        /* \"#utility.yul\":994:1001   */\n      dup5\n        /* \"#utility.yul\":985:991   */\n      dup3\n        /* \"#utility.yul\":974:983   */\n      dup6\n        /* \"#utility.yul\":970:992   */\n      add\n        /* \"#utility.yul\":949:1002   */\n      tag_362\n      jump\t// in\n    tag_481:\n        /* \"#utility.yul\":939:1002   */\n      swap2\n      pop\n        /* \"#utility.yul\":895:1012   */\n      pop\n        /* \"#utility.yul\":690:1019   */\n      swap3\n      swap2\n      pop\n      pop\n      jump\t// out\n        /* \"#utility.yul\":1025:1115   */\n    tag_363:\n        /* \"#utility.yul\":1059:1066   */\n      0x00\n        /* \"#utility.yul\":1102:1107   */\n      dup2\n        /* \"#utility.yul\":1095:1108   */\n      iszero\n        /* \"#utility.yul\":1088:1109   */\n      iszero\n        /* \"#utility.yul\":1077:1109   */\n      swap1\n      pop\n        /* \"#utility.yul\":1025:1115   */\n      swap2\n      swap1\n      pop\n      jump\t// out\n        /* \"#utility.yul\":1121:1230   */\n    tag_364:\n        /* \"#utility.yul\":1202:1223   */\n      tag_484\n        /* \"#utility.yul\":1217:1222   */\n      dup2\n        /* \"#utility.yul\":1202:1223   */\n      tag_363\n      jump\t// in\n    tag_484:\n        /* \"#utility.yul\":1197:1200   */\n      dup3\n        /* \"#utility.yul\":1190:1224   */\n      mstore\n        /* \"#utility.yul\":1121:1230   */\n      pop\n      pop\n      jump\t// out\n        /* \"#utility.yul\":1236:1446   */\n    tag_32:\n        /* \"#utility.yul\":1323:1327   */\n      0x00\n        /* \"#utility.yul\":1361:1363   */\n      0x20\n        /* \"#utility.yul\":1350:1359   */\n      dup3\n        /* \"#utility.yul\":1346:1364   */\n      add\n        /* \"#utility.yul\":1338:1364   */\n      swap1\n      pop\n        /* \"#utility.yul\":1374:1439   */\n      tag_486\n        /* \"#utility.yul\":1436:1437   */\n      0x00\n        /* \"#utility.yul\":1425:1434   */\n      dup4\n        /* \"#utility.yul\":1421:1438   */\n      add\n        /* \"#utility.yul\":1412:1418   */\n      dup5\n        /* \"#utility.yul\":1374:1439   */\n      tag_364\n      jump\t// in\n    tag_486:\n        /* \"#utility.yul\":1236:1446   */\n      swap3\n      swap2\n      pop\n      pop\n      jump\t// out\n        /* \"#utility.yul\":1452:1570   */\n    tag_365:\n        /* \"#utility.yul\":1539:1563   */\n      tag_488\n        /* \"#utility.yul\":1557:1562   */\n      dup2\n        /* \"#utility.yul\":1539:1563   */\n      tag_360\n      jump\t// in\n    tag_488:\n        /* \"#utility.yul\":1534:1537   */\n      dup3\n        /* \"#utility.yul\":1527:1564   */\n      mstore\n        /* \"#utility.yul\":1452:1570   */\n      pop\n      pop\n      jump\t// out\n        /* \"#utility.yul\":1576:1675   */\n    tag_366:\n        /* \"#utility.yul\":1628:1634   */\n      0x00\n        /* \"#utility.yul\":1662:1667   */\n      dup2\n        /* \"#utility.yul\":1656:1668   */\n      mload\n        /* \"#utility.yul\":1646:1668   */\n      swap1\n      pop\n        /* \"#utility.yul\":1576:1675   */\n      swap2\n      swap1\n      pop\n      jump\t// out\n        /* \"#utility.yul\":1681:1850   */\n    tag_367:\n        /* \"#utility.yul\":1765:1776   */\n      0x00\n        /* \"#utility.yul\":1799:1805   */\n      dup3\n        /* \"#utility.yul\":1794:1797   */\n      dup3\n        /* \"#utility.yul\":1787:1806   */\n      mstore\n        /* \"#utility.yul\":1839:1843   */\n      0x20\n        /* \"#utility.yul\":1834:1837   */\n      dup3\n        /* \"#utility.yul\":1830:1844   */\n      add\n        /* \"#utility.yul\":1815:1844   */\n      swap1\n      pop\n        /* \"#utility.yul\":1681:1850   */\n      swap3\n      swap2\n      pop\n      pop\n      jump\t// out\n        /* \"#utility.yul\":1856:1995   */\n    tag_368:\n        /* \"#utility.yul\":1945:1951   */\n      dup3\n        /* \"#utility.yul\":1940:1943   */\n      dup2\n        /* \"#utility.yul\":1935:1938   */\n      dup4\n        /* \"#utility.yul\":1929:1952   */\n      mcopy\n        /* \"#utility.yul\":1986:1987   */\n      0x00\n        /* \"#utility.yul\":1977:1983   */\n      dup4\n        /* \"#utility.yul\":1972:1975   */\n      dup4\n        /* \"#utility.yul\":1968:1984   */\n      add\n        /* \"#utility.yul\":1961:1988   */\n      mstore\n        /* \"#utility.yul\":1856:1995   */\n      pop\n      pop\n      pop\n      jump\t// out\n        /* \"#utility.yul\":2001:2103   */\n    tag_369:\n        /* \"#utility.yul\":2042:2048   */\n      0x00\n        /* \"#utility.yul\":2093:2095   */\n      0x1f\n        /* \"#utility.yul\":2089:2096   */\n      not\n        /* \"#utility.yul\":2084:2086   */\n      0x1f\n        /* \"#utility.yul\":2077:2082   */\n      dup4\n        /* \"#utility.yul\":2073:2087   */\n      add\n        /* \"#utility.yul\":2069:2097   */\n      and\n        /* \"#utility.yul\":2059:2097   */\n      swap1\n      pop\n        /* \"#utility.yul\":2001:2103   */\n      swap2\n      swap1\n      pop\n      jump\t// out\n        /* \"#utility.yul\":2109:2486   */\n    tag_370:\n        /* \"#utility.yul\":2197:2200   */\n      0x00\n        /* \"#utility.yul\":2225:2264   */\n      tag_494\n        /* \"#utility.yul\":2258:2263   */\n      dup3\n        /* \"#utility.yul\":2225:2264   */\n      tag_366\n      jump\t// in\n    tag_494:\n        /* \"#utility.yul\":2280:2351   */\n      tag_495\n        /* \"#utility.yul\":2344:2350   */\n      dup2\n        /* \"#utility.yul\":2339:2342   */\n      dup6\n        /* \"#utility.yul\":2280:2351   */\n      tag_367\n      jump\t// in\n    tag_495:\n        /* \"#utility.yul\":2273:2351   */\n      swap4\n      pop\n        /* \"#utility.yul\":2360:2425   */\n      tag_496\n        /* \"#utility.yul\":2418:2424   */\n      dup2\n        /* \"#utility.yul\":2413:2416   */\n      dup6\n        /* \"#utility.yul\":2406:2410   */\n      0x20\n        /* \"#utility.yul\":2399:2404   */\n      dup7\n        /* \"#utility.yul\":2395:2411   */\n      add\n        /* \"#utility.yul\":2360:2425   */\n      tag_368\n      jump\t// in\n    tag_496:\n        /* \"#utility.yul\":2450:2479   */\n      tag_497\n        /* \"#utility.yul\":2472:2478   */\n      dup2\n        /* \"#utility.yul\":2450:2479   */\n      tag_369\n      jump\t// in\n    tag_497:\n        /* \"#utility.yul\":2445:2448   */\n      dup5\n        /* \"#utility.yul\":2441:2480   */\n      add\n        /* \"#utility.yul\":2434:2480   */\n      swap2\n      pop\n        /* \"#utility.yul\":2201:2486   */\n      pop\n        /* \"#utility.yul\":2109:2486   */\n      swap3\n      swap2\n      pop\n      pop\n      jump\t// out\n        /* \"#utility.yul\":2492:2618   */\n    tag_371:\n        /* \"#utility.yul\":2529:2536   */\n      0x00\n        /* \"#utility.yul\":2569:2611   */\n      0xffffffffffffffffffffffffffffffffffffffff\n        /* \"#utility.yul\":2562:2567   */\n      dup3\n        /* \"#utility.yul\":2558:2612   */\n      and\n        /* \"#utility.yul\":2547:2612   */\n      swap1\n      pop\n        /* \"#utility.yul\":2492:2618   */\n      swap2\n      swap1\n      pop\n      jump\t// out\n        /* \"#utility.yul\":2624:2720   */\n    tag_372:\n        /* \"#utility.yul\":2661:2668   */\n      0x00\n        /* \"#utility.yul\":2690:2714   */\n      tag_500\n        /* \"#utility.yul\":2708:2713   */\n      dup3\n        /* \"#utility.yul\":2690:2714   */\n      tag_371\n      jump\t// in\n    tag_500:\n        /* \"#utility.yul\":2679:2714   */\n      swap1\n      pop\n        /* \"#utility.yul\":2624:2720   */\n      swap2\n      swap1\n      pop\n      jump\t// out\n        /* \"#utility.yul\":2726:2844   */\n    tag_373:\n        /* \"#utility.yul\":2813:2837   */\n      tag_502\n        /* \"#utility.yul\":2831:2836   */\n      dup2\n        /* \"#utility.yul\":2813:2837   */\n      tag_372\n      jump\t// in\n    tag_502:\n        /* \"#utility.yul\":2808:2811   */\n      dup3\n        /* \"#utility.yul\":2801:2838   */\n      mstore\n        /* \"#utility.yul\":2726:2844   */\n      pop\n      pop\n      jump\t// out\n        /* \"#utility.yul\":2850:2927   */\n    tag_374:\n        /* \"#utility.yul\":2887:2894   */\n      0x00\n        /* \"#utility.yul\":2916:2921   */\n      dup2\n        /* \"#utility.yul\":2905:2921   */\n      swap1\n      pop\n        /* \"#utility.yul\":2850:2927   */\n      swap2\n      swap1\n      pop\n      jump\t// out\n        /* \"#utility.yul\":2933:3051   */\n    tag_375:\n        /* \"#utility.yul\":3020:3044   */\n      tag_505\n        /* \"#utility.yul\":3038:3043   */\n      dup2\n        /* \"#utility.yul\":3020:3044   */\n      tag_374\n      jump\t// in\n    tag_505:\n        /* \"#utility.yul\":3015:3018   */\n      dup3\n        /* \"#utility.yul\":3008:3045   */\n      mstore\n        /* \"#utility.yul\":2933:3051   */\n      pop\n      pop\n      jump\t// out\n        /* \"#utility.yul\":3057:4022   */\n    tag_38:\n        /* \"#utility.yul\":3332:3336   */\n      0x00\n        /* \"#utility.yul\":3370:3373   */\n      0xe0\n        /* \"#utility.yul\":3359:3368   */\n      dup3\n        /* \"#utility.yul\":3355:3374   */\n      add\n        /* \"#utility.yul\":3347:3374   */\n      swap1\n      pop\n        /* \"#utility.yul\":3384:3455   */\n      tag_507\n        /* \"#utility.yul\":3452:3453   */\n      0x00\n        /* \"#utility.yul\":3441:3450   */\n      dup4\n        /* \"#utility.yul\":3437:3454   */\n      add\n        /* \"#utility.yul\":3428:3434   */\n      dup11\n        /* \"#utility.yul\":3384:3455   */\n      tag_365\n      jump\t// in\n    tag_507:\n        /* \"#utility.yul\":3502:3511   */\n      dup2\n        /* \"#utility.yul\":3496:3500   */\n      dup2\n        /* \"#utility.yul\":3492:3512   */\n      sub\n        /* \"#utility.yul\":3487:3489   */\n      0x20\n        /* \"#utility.yul\":3476:3485   */\n      dup4\n        /* \"#utility.yul\":3472:3490   */\n      add\n        /* \"#utility.yul\":3465:3513   */\n      mstore\n        /* \"#utility.yul\":3530:3608   */\n      tag_508\n        /* \"#utility.yul\":3603:3607   */\n      dup2\n        /* \"#utility.yul\":3594:3600   */\n      dup10\n        /* \"#utility.yul\":3530:3608   */\n      tag_370\n      jump\t// in\n    tag_508:\n        /* \"#utility.yul\":3522:3608   */\n      swap1\n      pop\n        /* \"#utility.yul\":3618:3690   */\n      tag_509\n        /* \"#utility.yul\":3686:3688   */\n      0x40\n        /* \"#utility.yul\":3675:3684   */\n      dup4\n        /* \"#utility.yul\":3671:3689   */\n      add\n        /* \"#utility.yul\":3662:3668   */\n      dup9\n        /* \"#utility.yul\":3618:3690   */\n      tag_373\n      jump\t// in\n    tag_509:\n        /* \"#utility.yul\":3700:3772   */\n      tag_510\n        /* \"#utility.yul\":3768:3770   */\n      0x60\n        /* \"#utility.yul\":3757:3766   */\n      dup4\n        /* \"#utility.yul\":3753:3771   */\n      add\n        /* \"#utility.yul\":3744:3750   */\n      dup8\n        /* \"#utility.yul\":3700:3772   */\n      tag_373\n      jump\t// in\n    tag_510:\n        /* \"#utility.yul\":3782:3855   */\n      tag_511\n        /* \"#utility.yul\":3850:3853   */\n      0x80\n        /* \"#utility.yul\":3839:3848   */\n      dup4\n        /* \"#utility.yul\":3835:3854   */\n      add\n        /* \"#utility.yul\":3826:3832   */\n      dup7\n        /* \"#utility.yul\":3782:3855   */\n      tag_375\n      jump\t// in\n    tag_511:\n        /* \"#utility.yul\":3865:3938   */\n      tag_512\n        /* \"#utility.yul\":3933:3936   */\n      0xa0\n        /* \"#utility.yul\":3922:3931   */\n      dup4\n        /* \"#utility.yul\":3918:3937   */\n      add\n        /* \"#utility.yul\":3909:3915   */\n      dup6\n        /* \"#utility.yul\":3865:3938   */\n      tag_375\n      jump\t// in\n    tag_512:\n        /* \"#utility.yul\":3948:4015   */\n      tag_513\n        /* \"#utility.yul\":4010:4013   */\n      0xc0\n        /* \"#utility.yul\":3999:4008   */\n      dup4\n        /* \"#utility.yul\":3995:4014   */\n      add\n        /* \"#utility.yul\":3986:3992   */\n      dup5\n        /* \"#utility.yul\":3948:4015   */\n      tag_364\n      jump\t// in\n    tag_513:\n        /* \"#utility.yul\":3057:4022   */\n      swap9\n      swap8\n      pop\n      pop\n      pop\n      pop\n      pop\n      pop\n      pop\n      pop\n      jump\t// out\n        /* \"#utility.yul\":4028:4250   */\n    tag_43:\n        /* \"#utility.yul\":4121:4125   */\n      0x00\n        /* \"#utility.yul\":4159:4161   */\n      0x20\n        /* \"#utility.yul\":4148:4157   */\n      dup3\n        /* \"#utility.yul\":4144:4162   */\n      add\n        /* \"#utility.yul\":4136:4162   */\n      swap1\n      pop\n        /* \"#utility.yul\":4172:4243   */\n      tag_515\n        /* \"#utility.yul\":4240:4241   */\n      0x00\n        /* \"#utility.yul\":4229:4238   */\n      dup4\n        /* \"#utility.yul\":4225:4242   */\n      add\n        /* \"#utility.yul\":4216:4222   */\n      dup5\n        /* \"#utility.yul\":4172:4243   */\n      tag_375\n      jump\t// in\n    tag_515:\n        /* \"#utility.yul\":4028:4250   */\n      swap3\n      swap2\n      pop\n      pop\n      jump\t// out\n        /* \"#utility.yul\":4256:4378   */\n    tag_376:\n        /* \"#utility.yul\":4329:4353   */\n      tag_517\n        /* \"#utility.yul\":4347:4352   */\n      dup2\n        /* \"#utility.yul\":4329:4353   */\n      tag_372\n      jump\t// in\n    tag_517:\n        /* \"#utility.yul\":4322:4327   */\n      dup2\n        /* \"#utility.yul\":4319:4354   */\n      eq\n        /* \"#utility.yul\":4309:4372   */\n      tag_518\n      jumpi\n        /* \"#utility.yul\":4368:4369   */\n      0x00\n        /* \"#utility.yul\":4365:4366   */\n      dup1\n        /* \"#utility.yul\":4358:4370   */\n      revert\n        /* \"#utility.yul\":4309:4372   */\n    tag_518:\n        /* \"#utility.yul\":4256:4378   */\n      pop\n      jump\t// out\n        /* \"#utility.yul\":4384:4523   */\n    tag_377:\n        /* \"#utility.yul\":4430:4435   */\n      0x00\n        /* \"#utility.yul\":4468:4474   */\n      dup2\n        /* \"#utility.yul\":4455:4475   */\n      calldataload\n        /* \"#utility.yul\":4446:4475   */\n      swap1\n      pop\n        /* \"#utility.yul\":4484:4517   */\n      tag_520\n        /* \"#utility.yul\":4511:4516   */\n      dup2\n        /* \"#utility.yul\":4484:4517   */\n      tag_376\n      jump\t// in\n    tag_520:\n        /* \"#utility.yul\":4384:4523   */\n      swap3\n      swap2\n      pop\n      pop\n      jump\t// out\n        /* \"#utility.yul\":4529:4646   */\n    tag_378:\n        /* \"#utility.yul\":4638:4639   */\n      0x00\n        /* \"#utility.yul\":4635:4636   */\n      dup1\n        /* \"#utility.yul\":4628:4640   */\n      revert\n        /* \"#utility.yul\":4652:4769   */\n    tag_379:\n        /* \"#utility.yul\":4761:4762   */\n      0x00\n        /* \"#utility.yul\":4758:4759   */\n      dup1\n        /* \"#utility.yul\":4751:4763   */\n      revert\n        /* \"#utility.yul\":4775:4892   */\n    tag_380:\n        /* \"#utility.yul\":4884:4885   */\n      0x00\n        /* \"#utility.yul\":4881:4882   */\n      dup1\n        /* \"#utility.yul\":4874:4886   */\n      revert\n        /* \"#utility.yul\":4912:5465   */\n    tag_381:\n        /* \"#utility.yul\":4970:4978   */\n      0x00\n        /* \"#utility.yul\":4980:4986   */\n      dup1\n        /* \"#utility.yul\":5030:5033   */\n      dup4\n        /* \"#utility.yul\":5023:5027   */\n      0x1f\n        /* \"#utility.yul\":5015:5021   */\n      dup5\n        /* \"#utility.yul\":5011:5028   */\n      add\n        /* \"#utility.yul\":5007:5034   */\n      slt\n        /* \"#utility.yul\":4997:5119   */\n      tag_525\n      jumpi\n        /* \"#utility.yul\":5038:5117   */\n      tag_526\n      tag_378\n      jump\t// in\n    tag_526:\n        /* \"#utility.yul\":4997:5119   */\n    tag_525:\n        /* \"#utility.yul\":5151:5157   */\n      dup3\n        /* \"#utility.yul\":5138:5158   */\n      calldataload\n        /* \"#utility.yul\":5128:5158   */\n      swap1\n      pop\n        /* \"#utility.yul\":5181:5199   */\n      0xffffffffffffffff\n        /* \"#utility.yul\":5173:5179   */\n      dup2\n        /* \"#utility.yul\":5170:5200   */\n      gt\n        /* \"#utility.yul\":5167:5284   */\n      iszero\n      tag_527\n      jumpi\n        /* \"#utility.yul\":5203:5282   */\n      tag_528\n      tag_379\n      jump\t// in\n    tag_528:\n        /* \"#utility.yul\":5167:5284   */\n    tag_527:\n        /* \"#utility.yul\":5317:5321   */\n      0x20\n        /* \"#utility.yul\":5309:5315   */\n      dup4\n        /* \"#utility.yul\":5305:5322   */\n      add\n        /* \"#utility.yul\":5293:5322   */\n      swap2\n      pop\n        /* \"#utility.yul\":5371:5374   */\n      dup4\n        /* \"#utility.yul\":5363:5367   */\n      0x01\n        /* \"#utility.yul\":5355:5361   */\n      dup3\n        /* \"#utility.yul\":5351:5368   */\n      mul\n        /* \"#utility.yul\":5341:5349   */\n      dup4\n        /* \"#utility.yul\":5337:5369   */\n      add\n        /* \"#utility.yul\":5334:5375   */\n      gt\n        /* \"#utility.yul\":5331:5459   */\n      iszero\n      tag_529\n      jumpi\n        /* \"#utility.yul\":5378:5457   */\n      tag_530\n      tag_380\n      jump\t// in\n    tag_530:\n        /* \"#utility.yul\":5331:5459   */\n    tag_529:\n        /* \"#utility.yul\":4912:5465   */\n      swap3\n      pop\n      swap3\n      swap1\n      pop\n      jump\t// out\n        /* \"#utility.yul\":5471:6290   */\n    tag_47:\n        /* \"#utility.yul\":5560:5566   */\n      0x00\n        /* \"#utility.yul\":5568:5574   */\n      dup1\n        /* \"#utility.yul\":5576:5582   */\n      0x00\n        /* \"#utility.yul\":5584:5590   */\n      dup1\n        /* \"#utility.yul\":5633:5635   */\n      0x60\n        /* \"#utility.yul\":5621:5630   */\n      dup6\n        /* \"#utility.yul\":5612:5619   */\n      dup8\n        /* \"#utility.yul\":5608:5631   */\n      sub\n        /* \"#utility.yul\":5604:5636   */\n      slt\n        /* \"#utility.yul\":5601:5720   */\n      iszero\n      tag_532\n      jumpi\n        /* \"#utility.yul\":5639:5718   */\n      tag_533\n      tag_358\n      jump\t// in\n    tag_533:\n        /* \"#utility.yul\":5601:5720   */\n    tag_532:\n        /* \"#utility.yul\":5759:5760   */\n      0x00\n        /* \"#utility.yul\":5784:5837   */\n      tag_534\n        /* \"#utility.yul\":5829:5836   */\n      dup8\n        /* \"#utility.yul\":5820:5826   */\n      dup3\n        /* \"#utility.yul\":5809:5818   */\n      dup9\n        /* \"#utility.yul\":5805:5827   */\n      add\n        /* \"#utility.yul\":5784:5837   */\n      tag_377\n      jump\t// in\n    tag_534:\n        /* \"#utility.yul\":5774:5837   */\n      swap5\n      pop\n        /* \"#utility.yul\":5730:5847   */\n      pop\n        /* \"#utility.yul\":5886:5888   */\n      0x20\n        /* \"#utility.yul\":5912:5965   */\n      tag_535\n        /* \"#utility.yul\":5957:5964   */\n      dup8\n        /* \"#utility.yul\":5948:5954   */\n      dup3\n        /* \"#utility.yul\":5937:5946   */\n      dup9\n        /* \"#utility.yul\":5933:5955   */\n      add\n        /* \"#utility.yul\":5912:5965   */\n      tag_362\n      jump\t// in\n    tag_535:\n        /* \"#utility.yul\":5902:5965   */\n      swap4\n      pop\n        /* \"#utility.yul\":5857:5975   */\n      pop\n        /* \"#utility.yul\":6042:6044   */\n      0x40\n        /* \"#utility.yul\":6031:6040   */\n      dup6\n        /* \"#utility.yul\":6027:6045   */\n      add\n        /* \"#utility.yul\":6014:6046   */\n      calldataload\n        /* \"#utility.yul\":6073:6091   */\n      0xffffffffffffffff\n        /* \"#utility.yul\":6065:6071   */\n      dup2\n        /* \"#utility.yul\":6062:6092   */\n      gt\n        /* \"#utility.yul\":6059:6176   */\n      iszero\n      tag_536\n      jumpi\n        /* \"#utility.yul\":6095:6174   */\n      tag_537\n      tag_359\n      jump\t// in\n    tag_537:\n        /* \"#utility.yul\":6059:6176   */\n    tag_536:\n        /* \"#utility.yul\":6208:6273   */\n      tag_538\n        /* \"#utility.yul\":6265:6272   */\n      dup8\n        /* \"#utility.yul\":6256:6262   */\n      dup3\n        /* \"#utility.yul\":6245:6254   */\n      dup9\n        /* \"#utility.yul\":6241:6263   */\n      add\n        /* \"#utility.yul\":6208:6273   */\n      tag_381\n      jump\t// in\n    tag_538:\n        /* \"#utility.yul\":6190:6273   */\n      swap3\n      pop\n      swap3\n      pop\n        /* \"#utility.yul\":5985:6283   */\n      pop\n        /* \"#utility.yul\":5471:6290   */\n      swap3\n      swap6\n      swap2\n      swap5\n      pop\n      swap3\n      pop\n      jump\t// out\n        /* \"#utility.yul\":6296:6434   */\n    tag_382:\n        /* \"#utility.yul\":6387:6393   */\n      0x00\n        /* \"#utility.yul\":6421:6426   */\n      dup2\n        /* \"#utility.yul\":6415:6427   */\n      mload\n        /* \"#utility.yul\":6405:6427   */\n      swap1\n      pop\n        /* \"#utility.yul\":6296:6434   */\n      swap2\n      swap1\n      pop\n      jump\t// out\n        /* \"#utility.yul\":6440:6648   */\n    tag_383:\n        /* \"#utility.yul\":6563:6574   */\n      0x00\n        /* \"#utility.yul\":6597:6603   */\n      dup3\n        /* \"#utility.yul\":6592:6595   */\n      dup3\n        /* \"#utility.yul\":6585:6604   */\n      mstore\n        /* \"#utility.yul\":6637:6641   */\n      0x20\n        /* \"#utility.yul\":6632:6635   */\n      dup3\n        /* \"#utility.yul\":6628:6642   */\n      add\n        /* \"#utility.yul\":6613:6642   */\n      swap1\n      pop\n        /* \"#utility.yul\":6440:6648   */\n      swap3\n      swap2\n      pop\n      pop\n      jump\t// out\n        /* \"#utility.yul\":6654:6810   */\n    tag_384:\n        /* \"#utility.yul\":6745:6749   */\n      0x00\n        /* \"#utility.yul\":6768:6771   */\n      dup2\n        /* \"#utility.yul\":6760:6771   */\n      swap1\n      pop\n        /* \"#utility.yul\":6798:6802   */\n      0x20\n        /* \"#utility.yul\":6793:6796   */\n      dup3\n        /* \"#utility.yul\":6789:6803   */\n      add\n        /* \"#utility.yul\":6781:6803   */\n      swap1\n      pop\n        /* \"#utility.yul\":6654:6810   */\n      swap2\n      swap1\n      pop\n      jump\t// out\n        /* \"#utility.yul\":6816:6924   */\n    tag_385:\n        /* \"#utility.yul\":6893:6917   */\n      tag_543\n        /* \"#utility.yul\":6911:6916   */\n      dup2\n        /* \"#utility.yul\":6893:6917   */\n      tag_360\n      jump\t// in\n    tag_543:\n        /* \"#utility.yul\":6888:6891   */\n      dup3\n        /* \"#utility.yul\":6881:6918   */\n      mstore\n        /* \"#utility.yul\":6816:6924   */\n      pop\n      pop\n      jump\t// out\n        /* \"#utility.yul\":6930:7089   */\n    tag_386:\n        /* \"#utility.yul\":7004:7015   */\n      0x00\n        /* \"#utility.yul\":7038:7044   */\n      dup3\n        /* \"#utility.yul\":7033:7036   */\n      dup3\n        /* \"#utility.yul\":7026:7045   */\n      mstore\n        /* \"#utility.yul\":7078:7082   */\n      0x20\n        /* \"#utility.yul\":7073:7076   */\n      dup3\n        /* \"#utility.yul\":7069:7083   */\n      add\n        /* \"#utility.yul\":7054:7083   */\n      swap1\n      pop\n        /* \"#utility.yul\":6930:7089   */\n      swap3\n      swap2\n      pop\n      pop\n      jump\t// out\n        /* \"#utility.yul\":7095:7452   */\n    tag_387:\n        /* \"#utility.yul\":7173:7176   */\n      0x00\n        /* \"#utility.yul\":7201:7240   */\n      tag_546\n        /* \"#utility.yul\":7234:7239   */\n      dup3\n        /* \"#utility.yul\":7201:7240   */\n      tag_366\n      jump\t// in\n    tag_546:\n        /* \"#utility.yul\":7256:7317   */\n      tag_547\n        /* \"#utility.yul\":7310:7316   */\n      dup2\n        /* \"#utility.yul\":7305:7308   */\n      dup6\n        /* \"#utility.yul\":7256:7317   */\n      tag_386\n      jump\t// in\n    tag_547:\n        /* \"#utility.yul\":7249:7317   */\n      swap4\n      pop\n        /* \"#utility.yul\":7326:7391   */\n      tag_548\n        /* \"#utility.yul\":7384:7390   */\n      dup2\n        /* \"#utility.yul\":7379:7382   */\n      dup6\n        /* \"#utility.yul\":7372:7376   */\n      0x20\n        /* \"#utility.yul\":7365:7370   */\n      dup7\n        /* \"#utility.yul\":7361:7377   */\n      add\n        /* \"#utility.yul\":7326:7391   */\n      tag_368\n      jump\t// in\n    tag_548:\n        /* \"#utility.yul\":7416:7445   */\n      tag_549\n        /* \"#utility.yul\":7438:7444   */\n      dup2\n        /* \"#utility.yul\":7416:7445   */\n      tag_369\n      jump\t// in\n    tag_549:\n        /* \"#utility.yul\":7411:7414   */\n      dup5\n        /* \"#utility.yul\":7407:7446   */\n      add\n        /* \"#utility.yul\":7400:7446   */\n      swap2\n      pop\n        /* \"#utility.yul\":7177:7452   */\n      pop\n        /* \"#utility.yul\":7095:7452   */\n      swap3\n      swap2\n      pop\n      pop\n      jump\t// out\n        /* \"#utility.yul\":7458:7566   */\n    tag_388:\n        /* \"#utility.yul\":7535:7559   */\n      tag_551\n        /* \"#utility.yul\":7553:7558   */\n      dup2\n        /* \"#utility.yul\":7535:7559   */\n      tag_372\n      jump\t// in\n    tag_551:\n        /* \"#utility.yul\":7530:7533   */\n      dup3\n        /* \"#utility.yul\":7523:7560   */\n      mstore\n        /* \"#utility.yul\":7458:7566   */\n      pop\n      pop\n      jump\t// out\n        /* \"#utility.yul\":7572:7680   */\n    tag_389:\n        /* \"#utility.yul\":7649:7673   */\n      tag_553\n        /* \"#utility.yul\":7667:7672   */\n      dup2\n        /* \"#utility.yul\":7649:7673   */\n      tag_374\n      jump\t// in\n    tag_553:\n        /* \"#utility.yul\":7644:7647   */\n      dup3\n        /* \"#utility.yul\":7637:7674   */\n      mstore\n        /* \"#utility.yul\":7572:7680   */\n      pop\n      pop\n      jump\t// out\n        /* \"#utility.yul\":7686:7785   */\n    tag_390:\n        /* \"#utility.yul\":7757:7778   */\n      tag_555\n        /* \"#utility.yul\":7772:7777   */\n      dup2\n        /* \"#utility.yul\":7757:7778   */\n      tag_363\n      jump\t// in\n    tag_555:\n        /* \"#utility.yul\":7752:7755   */\n      dup3\n        /* \"#utility.yul\":7745:7779   */\n      mstore\n        /* \"#utility.yul\":7686:7785   */\n      pop\n      pop\n      jump\t// out\n        /* \"#utility.yul\":7849:9327   */\n    tag_391:\n        /* \"#utility.yul\":7956:7959   */\n      0x00\n        /* \"#utility.yul\":7992:7996   */\n      0xe0\n        /* \"#utility.yul\":7987:7990   */\n      dup4\n        /* \"#utility.yul\":7983:7997   */\n      add\n        /* \"#utility.yul\":8084:8088   */\n      0x00\n        /* \"#utility.yul\":8077:8082   */\n      dup4\n        /* \"#utility.yul\":8073:8089   */\n      add\n        /* \"#utility.yul\":8067:8090   */\n      mload\n        /* \"#utility.yul\":8103:8166   */\n      tag_557\n        /* \"#utility.yul\":8160:8164   */\n      0x00\n        /* \"#utility.yul\":8155:8158   */\n      dup7\n        /* \"#utility.yul\":8151:8165   */\n      add\n        /* \"#utility.yul\":8137:8149   */\n      dup3\n        /* \"#utility.yul\":8103:8166   */\n      tag_385\n      jump\t// in\n    tag_557:\n        /* \"#utility.yul\":8007:8176   */\n      pop\n        /* \"#utility.yul\":8265:8269   */\n      0x20\n        /* \"#utility.yul\":8258:8263   */\n      dup4\n        /* \"#utility.yul\":8254:8270   */\n      add\n        /* \"#utility.yul\":8248:8271   */\n      mload\n        /* \"#utility.yul\":8318:8321   */\n      dup5\n        /* \"#utility.yul\":8312:8316   */\n      dup3\n        /* \"#utility.yul\":8308:8322   */\n      sub\n        /* \"#utility.yul\":8301:8305   */\n      0x20\n        /* \"#utility.yul\":8296:8299   */\n      dup7\n        /* \"#utility.yul\":8292:8306   */\n      add\n        /* \"#utility.yul\":8285:8323   */\n      mstore\n        /* \"#utility.yul\":8344:8417   */\n      tag_558\n        /* \"#utility.yul\":8412:8416   */\n      dup3\n        /* \"#utility.yul\":8398:8410   */\n      dup3\n        /* \"#utility.yul\":8344:8417   */\n      tag_387\n      jump\t// in\n    tag_558:\n        /* \"#utility.yul\":8336:8417   */\n      swap2\n      pop\n        /* \"#utility.yul\":8186:8428   */\n      pop\n        /* \"#utility.yul\":8510:8514   */\n      0x40\n        /* \"#utility.yul\":8503:8508   */\n      dup4\n        /* \"#utility.yul\":8499:8515   */\n      add\n        /* \"#utility.yul\":8493:8516   */\n      mload\n        /* \"#utility.yul\":8529:8592   */\n      tag_559\n        /* \"#utility.yul\":8586:8590   */\n      0x40\n        /* \"#utility.yul\":8581:8584   */\n      dup7\n        /* \"#utility.yul\":8577:8591   */\n      add\n        /* \"#utility.yul\":8563:8575   */\n      dup3\n        /* \"#utility.yul\":8529:8592   */\n      tag_388\n      jump\t// in\n    tag_559:\n        /* \"#utility.yul\":8438:8602   */\n      pop\n        /* \"#utility.yul\":8682:8686   */\n      0x60\n        /* \"#utility.yul\":8675:8680   */\n      dup4\n        /* \"#utility.yul\":8671:8687   */\n      add\n        /* \"#utility.yul\":8665:8688   */\n      mload\n        /* \"#utility.yul\":8701:8764   */\n      tag_560\n        /* \"#utility.yul\":8758:8762   */\n      0x60\n        /* \"#utility.yul\":8753:8756   */\n      dup7\n        /* \"#utility.yul\":8749:8763   */\n      add\n        /* \"#utility.yul\":8735:8747   */\n      dup3\n        /* \"#utility.yul\":8701:8764   */\n      tag_388\n      jump\t// in\n    tag_560:\n        /* \"#utility.yul\":8612:8774   */\n      pop\n        /* \"#utility.yul\":8858:8862   */\n      0x80\n        /* \"#utility.yul\":8851:8856   */\n      dup4\n        /* \"#utility.yul\":8847:8863   */\n      add\n        /* \"#utility.yul\":8841:8864   */\n      mload\n        /* \"#utility.yul\":8877:8940   */\n      tag_561\n        /* \"#utility.yul\":8934:8938   */\n      0x80\n        /* \"#utility.yul\":8929:8932   */\n      dup7\n        /* \"#utility.yul\":8925:8939   */\n      add\n        /* \"#utility.yul\":8911:8923   */\n      dup3\n        /* \"#utility.yul\":8877:8940   */\n      tag_389\n      jump\t// in\n    tag_561:\n        /* \"#utility.yul\":8784:8950   */\n      pop\n        /* \"#utility.yul\":9037:9041   */\n      0xa0\n        /* \"#utility.yul\":9030:9035   */\n      dup4\n        /* \"#utility.yul\":9026:9042   */\n      add\n        /* \"#utility.yul\":9020:9043   */\n      mload\n        /* \"#utility.yul\":9056:9119   */\n      tag_562\n        /* \"#utility.yul\":9113:9117   */\n      0xa0\n        /* \"#utility.yul\":9108:9111   */\n      dup7\n        /* \"#utility.yul\":9104:9118   */\n      add\n        /* \"#utility.yul\":9090:9102   */\n      dup3\n        /* \"#utility.yul\":9056:9119   */\n      tag_389\n      jump\t// in\n    tag_562:\n        /* \"#utility.yul\":8960:9129   */\n      pop\n        /* \"#utility.yul\":9214:9218   */\n      0xc0\n        /* \"#utility.yul\":9207:9212   */\n      dup4\n        /* \"#utility.yul\":9203:9219   */\n      add\n        /* \"#utility.yul\":9197:9220   */\n      mload\n        /* \"#utility.yul\":9233:9290   */\n      tag_563\n        /* \"#utility.yul\":9284:9288   */\n      0xc0\n        /* \"#utility.yul\":9279:9282   */\n      dup7\n        /* \"#utility.yul\":9275:9289   */\n      add\n        /* \"#utility.yul\":9261:9273   */\n      dup3\n        /* \"#utility.yul\":9233:9290   */\n      tag_390\n      jump\t// in\n    tag_563:\n        /* \"#utility.yul\":9139:9300   */\n      pop\n        /* \"#utility.yul\":9317:9321   */\n      dup1\n        /* \"#utility.yul\":9310:9321   */\n      swap2\n      pop\n        /* \"#utility.yul\":7961:9327   */\n      pop\n        /* \"#utility.yul\":7849:9327   */\n      swap3\n      swap2\n      pop\n      pop\n      jump\t// out\n        /* \"#utility.yul\":9333:9585   */\n    tag_392:\n        /* \"#utility.yul\":9450:9460   */\n      0x00\n        /* \"#utility.yul\":9485:9579   */\n      tag_565\n        /* \"#utility.yul\":9575:9578   */\n      dup4\n        /* \"#utility.yul\":9567:9573   */\n      dup4\n        /* \"#utility.yul\":9485:9579   */\n      tag_391\n      jump\t// in\n    tag_565:\n        /* \"#utility.yul\":9471:9579   */\n      swap1\n      pop\n        /* \"#utility.yul\":9333:9585   */\n      swap3\n      swap2\n      pop\n      pop\n      jump\t// out\n        /* \"#utility.yul\":9591:9728   */\n    tag_393:\n        /* \"#utility.yul\":9685:9689   */\n      0x00\n        /* \"#utility.yul\":9717:9721   */\n      0x20\n        /* \"#utility.yul\":9712:9715   */\n      dup3\n        /* \"#utility.yul\":9708:9722   */\n      add\n        /* \"#utility.yul\":9700:9722   */\n      swap1\n      pop\n        /* \"#utility.yul\":9591:9728   */\n      swap2\n      swap1\n      pop\n      jump\t// out\n        /* \"#utility.yul\":9796:10899   */\n    tag_394:\n        /* \"#utility.yul\":9963:9966   */\n      0x00\n        /* \"#utility.yul\":9992:10070   */\n      tag_568\n        /* \"#utility.yul\":10064:10069   */\n      dup3\n        /* \"#utility.yul\":9992:10070   */\n      tag_382\n      jump\t// in\n    tag_568:\n        /* \"#utility.yul\":10086:10196   */\n      tag_569\n        /* \"#utility.yul\":10189:10195   */\n      dup2\n        /* \"#utility.yul\":10184:10187   */\n      dup6\n        /* \"#utility.yul\":10086:10196   */\n      tag_383\n      jump\t// in\n    tag_569:\n        /* \"#utility.yul\":10079:10196   */\n      swap4\n      pop\n        /* \"#utility.yul\":10222:10225   */\n      dup4\n        /* \"#utility.yul\":10267:10271   */\n      0x20\n        /* \"#utility.yul\":10259:10265   */\n      dup3\n        /* \"#utility.yul\":10255:10272   */\n      mul\n        /* \"#utility.yul\":10250:10253   */\n      dup6\n        /* \"#utility.yul\":10246:10273   */\n      add\n        /* \"#utility.yul\":10297:10377   */\n      tag_570\n        /* \"#utility.yul\":10371:10376   */\n      dup6\n        /* \"#utility.yul\":10297:10377   */\n      tag_384\n      jump\t// in\n    tag_570:\n        /* \"#utility.yul\":10400:10407   */\n      dup1\n        /* \"#utility.yul\":10431:10432   */\n      0x00\n        /* \"#utility.yul\":10416:10854   */\n    tag_571:\n        /* \"#utility.yul\":10441:10447   */\n      dup6\n        /* \"#utility.yul\":10438:10439   */\n      dup2\n        /* \"#utility.yul\":10435:10448   */\n      lt\n        /* \"#utility.yul\":10416:10854   */\n      iszero\n      tag_573\n      jumpi\n        /* \"#utility.yul\":10512:10521   */\n      dup5\n        /* \"#utility.yul\":10506:10510   */\n      dup5\n        /* \"#utility.yul\":10502:10522   */\n      sub\n        /* \"#utility.yul\":10497:10500   */\n      dup10\n        /* \"#utility.yul\":10490:10523   */\n      mstore\n        /* \"#utility.yul\":10563:10569   */\n      dup2\n        /* \"#utility.yul\":10557:10570   */\n      mload\n        /* \"#utility.yul\":10591:10703   */\n      tag_574\n        /* \"#utility.yul\":10698:10702   */\n      dup6\n        /* \"#utility.yul\":10683:10696   */\n      dup3\n        /* \"#utility.yul\":10591:10703   */\n      tag_392\n      jump\t// in\n    tag_574:\n        /* \"#utility.yul\":10583:10703   */\n      swap5\n      pop\n        /* \"#utility.yul\":10726:10810   */\n      tag_575\n        /* \"#utility.yul\":10803:10809   */\n      dup4\n        /* \"#utility.yul\":10726:10810   */\n      tag_393\n      jump\t// in\n    tag_575:\n        /* \"#utility.yul\":10716:10810   */\n      swap3\n      pop\n        /* \"#utility.yul\":10839:10843   */\n      0x20\n        /* \"#utility.yul\":10834:10837   */\n      dup11\n        /* \"#utility.yul\":10830:10844   */\n      add\n        /* \"#utility.yul\":10823:10844   */\n      swap10\n      pop\n        /* \"#utility.yul\":10476:10854   */\n      pop\n        /* \"#utility.yul\":10463:10464   */\n      0x01\n        /* \"#utility.yul\":10460:10461   */\n      dup2\n        /* \"#utility.yul\":10456:10465   */\n      add\n        /* \"#utility.yul\":10451:10465   */\n      swap1\n      pop\n        /* \"#utility.yul\":10416:10854   */\n      jump(tag_571)\n    tag_573:\n        /* \"#utility.yul\":10420:10434   */\n      pop\n        /* \"#utility.yul\":10870:10874   */\n      dup3\n        /* \"#utility.yul\":10863:10874   */\n      swap8\n      pop\n        /* \"#utility.yul\":10890:10893   */\n      dup8\n        /* \"#utility.yul\":10883:10893   */\n      swap6\n      pop\n        /* \"#utility.yul\":9968:10899   */\n      pop\n      pop\n      pop\n      pop\n      pop\n        /* \"#utility.yul\":9796:10899   */\n      swap3\n      swap2\n      pop\n      pop\n      jump\t// out\n        /* \"#utility.yul\":10905:11374   */\n    tag_53:\n        /* \"#utility.yul\":11096:11100   */\n      0x00\n        /* \"#utility.yul\":11134:11136   */\n      0x20\n        /* \"#utility.yul\":11123:11132   */\n      dup3\n        /* \"#utility.yul\":11119:11137   */\n      add\n        /* \"#utility.yul\":11111:11137   */\n      swap1\n      pop\n        /* \"#utility.yul\":11183:11192   */\n      dup2\n        /* \"#utility.yul\":11177:11181   */\n      dup2\n        /* \"#utility.yul\":11173:11193   */\n      sub\n        /* \"#utility.yul\":11169:11170   */\n      0x00\n        /* \"#utility.yul\":11158:11167   */\n      dup4\n        /* \"#utility.yul\":11154:11171   */\n      add\n        /* \"#utility.yul\":11147:11194   */\n      mstore\n        /* \"#utility.yul\":11211:11367   */\n      tag_577\n        /* \"#utility.yul\":11362:11366   */\n      dup2\n        /* \"#utility.yul\":11353:11359   */\n      dup5\n        /* \"#utility.yul\":11211:11367   */\n      tag_394\n      jump\t// in\n    tag_577:\n        /* \"#utility.yul\":11203:11367   */\n      swap1\n      pop\n        /* \"#utility.yul\":10905:11374   */\n      swap3\n      swap2\n      pop\n      pop\n      jump\t// out\n        /* \"#utility.yul\":11380:11693   */\n    tag_58:\n        /* \"#utility.yul\":11493:11497   */\n      0x00\n        /* \"#utility.yul\":11531:11533   */\n      0x20\n        /* \"#utility.yul\":11520:11529   */\n      dup3\n        /* \"#utility.yul\":11516:11534   */\n      add\n        /* \"#utility.yul\":11508:11534   */\n      swap1\n      pop\n        /* \"#utility.yul\":11580:11589   */\n      dup2\n        /* \"#utility.yul\":11574:11578   */\n      dup2\n        /* \"#utility.yul\":11570:11590   */\n      sub\n        /* \"#utility.yul\":11566:11567   */\n      0x00\n        /* \"#utility.yul\":11555:11564   */\n      dup4\n        /* \"#utility.yul\":11551:11568   */\n      add\n        /* \"#utility.yul\":11544:11591   */\n      mstore\n        /* \"#utility.yul\":11608:11686   */\n      tag_579\n        /* \"#utility.yul\":11681:11685   */\n      dup2\n        /* \"#utility.yul\":11672:11678   */\n      dup5\n        /* \"#utility.yul\":11608:11686   */\n      tag_370\n      jump\t// in\n    tag_579:\n        /* \"#utility.yul\":11600:11686   */\n      swap1\n      pop\n        /* \"#utility.yul\":11380:11693   */\n      swap3\n      swap2\n      pop\n      pop\n      jump\t// out\n        /* \"#utility.yul\":11699:11921   */\n    tag_64:\n        /* \"#utility.yul\":11792:11796   */\n      0x00\n        /* \"#utility.yul\":11830:11832   */\n      0x20\n        /* \"#utility.yul\":11819:11828   */\n      dup3\n        /* \"#utility.yul\":11815:11833   */\n      add\n        /* \"#utility.yul\":11807:11833   */\n      swap1\n      pop\n        /* \"#utility.yul\":11843:11914   */\n      tag_581\n        /* \"#utility.yul\":11911:11912   */\n      0x00\n        /* \"#utility.yul\":11900:11909   */\n      dup4\n        /* \"#utility.yul\":11896:11913   */\n      add\n        /* \"#utility.yul\":11887:11893   */\n      dup5\n        /* \"#utility.yul\":11843:11914   */\n      tag_365\n      jump\t// in\n    tag_581:\n        /* \"#utility.yul\":11699:11921   */\n      swap3\n      swap2\n      pop\n      pop\n      jump\t// out\n        /* \"#utility.yul\":11927:12149   */\n    tag_69:\n        /* \"#utility.yul\":12020:12024   */\n      0x00\n        /* \"#utility.yul\":12058:12060   */\n      0x20\n        /* \"#utility.yul\":12047:12056   */\n      dup3\n        /* \"#utility.yul\":12043:12061   */\n      add\n        /* \"#utility.yul\":12035:12061   */\n      swap1\n      pop\n        /* \"#utility.yul\":12071:12142   */\n      tag_583\n        /* \"#utility.yul\":12139:12140   */\n      0x00\n        /* \"#utility.yul\":12128:12137   */\n      dup4\n        /* \"#utility.yul\":12124:12141   */\n      add\n        /* \"#utility.yul\":12115:12121   */\n      dup5\n        /* \"#utility.yul\":12071:12142   */\n      tag_373\n      jump\t// in\n    tag_583:\n        /* \"#utility.yul\":11927:12149   */\n      swap3\n      swap2\n      pop\n      pop\n      jump\t// out\n        /* \"#utility.yul\":12155:12272   */\n    tag_395:\n        /* \"#utility.yul\":12264:12265   */\n      0x00\n        /* \"#utility.yul\":12261:12262   */\n      dup1\n        /* \"#utility.yul\":12254:12266   */\n      revert\n        /* \"#utility.yul\":12278:12458   */\n    tag_396:\n        /* \"#utility.yul\":12326:12403   */\n      0x4e487b7100000000000000000000000000000000000000000000000000000000\n        /* \"#utility.yul\":12323:12324   */\n      0x00\n        /* \"#utility.yul\":12316:12404   */\n      mstore\n        /* \"#utility.yul\":12423:12427   */\n      0x41\n        /* \"#utility.yul\":12420:12421   */\n      0x04\n        /* \"#utility.yul\":12413:12428   */\n      mstore\n        /* \"#utility.yul\":12447:12451   */\n      0x24\n        /* \"#utility.yul\":12444:12445   */\n      0x00\n        /* \"#utility.yul\":12437:12452   */\n      revert\n        /* \"#utility.yul\":12464:12745   */\n    tag_397:\n        /* \"#utility.yul\":12547:12574   */\n      tag_587\n        /* \"#utility.yul\":12569:12573   */\n      dup3\n        /* \"#utility.yul\":12547:12574   */\n      tag_369\n      jump\t// in\n    tag_587:\n        /* \"#utility.yul\":12539:12545   */\n      dup2\n        /* \"#utility.yul\":12535:12575   */\n      add\n        /* \"#utility.yul\":12677:12683   */\n      dup2\n        /* \"#utility.yul\":12665:12675   */\n      dup2\n        /* \"#utility.yul\":12662:12684   */\n      lt\n        /* \"#utility.yul\":12641:12659   */\n      0xffffffffffffffff\n        /* \"#utility.yul\":12629:12639   */\n      dup3\n        /* \"#utility.yul\":12626:12660   */\n      gt\n        /* \"#utility.yul\":12623:12685   */\n      or\n        /* \"#utility.yul\":12620:12708   */\n      iszero\n      tag_588\n      jumpi\n        /* \"#utility.yul\":12688:12706   */\n      tag_589\n      tag_396\n      jump\t// in\n    tag_589:\n        /* \"#utility.yul\":12620:12708   */\n    tag_588:\n        /* \"#utility.yul\":12728:12738   */\n      dup1\n        /* \"#utility.yul\":12724:12726   */\n      0x40\n        /* \"#utility.yul\":12717:12739   */\n      mstore\n        /* \"#utility.yul\":12507:12745   */\n      pop\n        /* \"#utility.yul\":12464:12745   */\n      pop\n      pop\n      jump\t// out\n        /* \"#utility.yul\":12751:12880   */\n    tag_398:\n        /* \"#utility.yul\":12785:12791   */\n      0x00\n        /* \"#utility.yul\":12812:12832   */\n      tag_591\n      tag_357\n      jump\t// in\n    tag_591:\n        /* \"#utility.yul\":12802:12832   */\n      swap1\n      pop\n        /* \"#utility.yul\":12841:12874   */\n      tag_592\n        /* \"#utility.yul\":12869:12873   */\n      dup3\n        /* \"#utility.yul\":12861:12867   */\n      dup3\n        /* \"#utility.yul\":12841:12874   */\n      tag_397\n      jump\t// in\n    tag_592:\n        /* \"#utility.yul\":12751:12880   */\n      swap2\n      swap1\n      pop\n      jump\t// out\n        /* \"#utility.yul\":12886:13194   */\n    tag_399:\n        /* \"#utility.yul\":12948:12952   */\n      0x00\n        /* \"#utility.yul\":13038:13056   */\n      0xffffffffffffffff\n        /* \"#utility.yul\":13030:13036   */\n      dup3\n        /* \"#utility.yul\":13027:13057   */\n      gt\n        /* \"#utility.yul\":13024:13080   */\n      iszero\n      tag_594\n      jumpi\n        /* \"#utility.yul\":13060:13078   */\n      tag_595\n      tag_396\n      jump\t// in\n    tag_595:\n        /* \"#utility.yul\":13024:13080   */\n    tag_594:\n        /* \"#utility.yul\":13098:13127   */\n      tag_596\n        /* \"#utility.yul\":13120:13126   */\n      dup3\n        /* \"#utility.yul\":13098:13127   */\n      tag_369\n      jump\t// in\n    tag_596:\n        /* \"#utility.yul\":13090:13127   */\n      swap1\n      pop\n        /* \"#utility.yul\":13182:13186   */\n      0x20\n        /* \"#utility.yul\":13176:13180   */\n      dup2\n        /* \"#utility.yul\":13172:13187   */\n      add\n        /* \"#utility.yul\":13164:13187   */\n      swap1\n      pop\n        /* \"#utility.yul\":12886:13194   */\n      swap2\n      swap1\n      pop\n      jump\t// out\n        /* \"#utility.yul\":13200:13348   */\n    tag_400:\n        /* \"#utility.yul\":13298:13304   */\n      dup3\n        /* \"#utility.yul\":13293:13296   */\n      dup2\n        /* \"#utility.yul\":13288:13291   */\n      dup4\n        /* \"#utility.yul\":13275:13305   */\n      calldatacopy\n        /* \"#utility.yul\":13339:13340   */\n      0x00\n        /* \"#utility.yul\":13330:13336   */\n      dup4\n        /* \"#utility.yul\":13325:13328   */\n      dup4\n        /* \"#utility.yul\":13321:13337   */\n      add\n        /* \"#utility.yul\":13314:13341   */\n      mstore\n        /* \"#utility.yul\":13200:13348   */\n      pop\n      pop\n      pop\n      jump\t// out\n        /* \"#utility.yul\":13354:13779   */\n    tag_401:\n        /* \"#utility.yul\":13432:13437   */\n      0x00\n        /* \"#utility.yul\":13457:13523   */\n      tag_599\n        /* \"#utility.yul\":13473:13522   */\n      tag_600\n        /* \"#utility.yul\":13515:13521   */\n      dup5\n        /* \"#utility.yul\":13473:13522   */\n      tag_399\n      jump\t// in\n    tag_600:\n        /* \"#utility.yul\":13457:13523   */\n      tag_398\n      jump\t// in\n    tag_599:\n        /* \"#utility.yul\":13448:13523   */\n      swap1\n      pop\n        /* \"#utility.yul\":13546:13552   */\n      dup3\n        /* \"#utility.yul\":13539:13544   */\n      dup2\n        /* \"#utility.yul\":13532:13553   */\n      mstore\n        /* \"#utility.yul\":13584:13588   */\n      0x20\n        /* \"#utility.yul\":13577:13582   */\n      dup2\n        /* \"#utility.yul\":13573:13589   */\n      add\n        /* \"#utility.yul\":13622:13625   */\n      dup5\n        /* \"#utility.yul\":13613:13619   */\n      dup5\n        /* \"#utility.yul\":13608:13611   */\n      dup5\n        /* \"#utility.yul\":13604:13620   */\n      add\n        /* \"#utility.yul\":13601:13626   */\n      gt\n        /* \"#utility.yul\":13598:13710   */\n      iszero\n      tag_601\n      jumpi\n        /* \"#utility.yul\":13629:13708   */\n      tag_602\n      tag_395\n      jump\t// in\n    tag_602:\n        /* \"#utility.yul\":13598:13710   */\n    tag_601:\n        /* \"#utility.yul\":13719:13773   */\n      tag_603\n        /* \"#utility.yul\":13766:13772   */\n      dup5\n        /* \"#utility.yul\":13761:13764   */\n      dup3\n        /* \"#utility.yul\":13756:13759   */\n      dup6\n        /* \"#utility.yul\":13719:13773   */\n      tag_400\n      jump\t// in\n    tag_603:\n        /* \"#utility.yul\":13438:13779   */\n      pop\n        /* \"#utility.yul\":13354:13779   */\n      swap4\n      swap3\n      pop\n      pop\n      pop\n      jump\t// out\n        /* \"#utility.yul\":13799:14139   */\n    tag_402:\n        /* \"#utility.yul\":13855:13860   */\n      0x00\n        /* \"#utility.yul\":13904:13907   */\n      dup3\n        /* \"#utility.yul\":13897:13901   */\n      0x1f\n        /* \"#utility.yul\":13889:13895   */\n      dup4\n        /* \"#utility.yul\":13885:13902   */\n      add\n        /* \"#utility.yul\":13881:13908   */\n      slt\n        /* \"#utility.yul\":13871:13993   */\n      tag_605\n      jumpi\n        /* \"#utility.yul\":13912:13991   */\n      tag_606\n      tag_378\n      jump\t// in\n    tag_606:\n        /* \"#utility.yul\":13871:13993   */\n    tag_605:\n        /* \"#utility.yul\":14029:14035   */\n      dup2\n        /* \"#utility.yul\":14016:14036   */\n      calldataload\n        /* \"#utility.yul\":14054:14133   */\n      tag_607\n        /* \"#utility.yul\":14129:14132   */\n      dup5\n        /* \"#utility.yul\":14121:14127   */\n      dup3\n        /* \"#utility.yul\":14114:14118   */\n      0x20\n        /* \"#utility.yul\":14106:14112   */\n      dup7\n        /* \"#utility.yul\":14102:14119   */\n      add\n        /* \"#utility.yul\":14054:14133   */\n      tag_401\n      jump\t// in\n    tag_607:\n        /* \"#utility.yul\":14045:14133   */\n      swap2\n      pop\n        /* \"#utility.yul\":13861:14139   */\n      pop\n        /* \"#utility.yul\":13799:14139   */\n      swap3\n      swap2\n      pop\n      pop\n      jump\t// out\n        /* \"#utility.yul\":14145:14267   */\n    tag_403:\n        /* \"#utility.yul\":14218:14242   */\n      tag_609\n        /* \"#utility.yul\":14236:14241   */\n      dup2\n        /* \"#utility.yul\":14218:14242   */\n      tag_374\n      jump\t// in\n    tag_609:\n        /* \"#utility.yul\":14211:14216   */\n      dup2\n        /* \"#utility.yul\":14208:14243   */\n      eq\n        /* \"#utility.yul\":14198:14261   */\n      tag_610\n      jumpi\n        /* \"#utility.yul\":14257:14258   */\n      0x00\n        /* \"#utility.yul\":14254:14255   */\n      dup1\n        /* \"#utility.yul\":14247:14259   */\n      revert\n        /* \"#utility.yul\":14198:14261   */\n    tag_610:\n        /* \"#utility.yul\":14145:14267   */\n      pop\n      jump\t// out\n        /* \"#utility.yul\":14273:14412   */\n    tag_404:\n        /* \"#utility.yul\":14319:14324   */\n      0x00\n        /* \"#utility.yul\":14357:14363   */\n      dup2\n        /* \"#utility.yul\":14344:14364   */\n      calldataload\n        /* \"#utility.yul\":14335:14364   */\n      swap1\n      pop\n        /* \"#utility.yul\":14373:14406   */\n      tag_612\n        /* \"#utility.yul\":14400:14405   */\n      dup2\n        /* \"#utility.yul\":14373:14406   */\n      tag_403\n      jump\t// in\n    tag_612:\n        /* \"#utility.yul\":14273:14412   */\n      swap3\n      swap2\n      pop\n      pop\n      jump\t// out\n        /* \"#utility.yul\":14418:15509   */\n    tag_77:\n        /* \"#utility.yul\":14523:14529   */\n      0x00\n        /* \"#utility.yul\":14531:14537   */\n      dup1\n        /* \"#utility.yul\":14539:14545   */\n      0x00\n        /* \"#utility.yul\":14547:14553   */\n      dup1\n        /* \"#utility.yul\":14555:14561   */\n      0x00\n        /* \"#utility.yul\":14604:14607   */\n      0xa0\n        /* \"#utility.yul\":14592:14601   */\n      dup7\n        /* \"#utility.yul\":14583:14590   */\n      dup9\n        /* \"#utility.yul\":14579:14602   */\n      sub\n        /* \"#utility.yul\":14575:14608   */\n      slt\n        /* \"#utility.yul\":14572:14692   */\n      iszero\n      tag_614\n      jumpi\n        /* \"#utility.yul\":14611:14690   */\n      tag_615\n      tag_358\n      jump\t// in\n    tag_615:\n        /* \"#utility.yul\":14572:14692   */\n    tag_614:\n        /* \"#utility.yul\":14759:14760   */\n      0x00\n        /* \"#utility.yul\":14748:14757   */\n      dup7\n        /* \"#utility.yul\":14744:14761   */\n      add\n        /* \"#utility.yul\":14731:14762   */\n      calldataload\n        /* \"#utility.yul\":14789:14807   */\n      0xffffffffffffffff\n        /* \"#utility.yul\":14781:14787   */\n      dup2\n        /* \"#utility.yul\":14778:14808   */\n      gt\n        /* \"#utility.yul\":14775:14892   */\n      iszero\n      tag_616\n      jumpi\n        /* \"#utility.yul\":14811:14890   */\n      tag_617\n      tag_359\n      jump\t// in\n    tag_617:\n        /* \"#utility.yul\":14775:14892   */\n    tag_616:\n        /* \"#utility.yul\":14916:14979   */\n      tag_618\n        /* \"#utility.yul\":14971:14978   */\n      dup9\n        /* \"#utility.yul\":14962:14968   */\n      dup3\n        /* \"#utility.yul\":14951:14960   */\n      dup10\n        /* \"#utility.yul\":14947:14969   */\n      add\n        /* \"#utility.yul\":14916:14979   */\n      tag_402\n      jump\t// in\n    tag_618:\n        /* \"#utility.yul\":14906:14979   */\n      swap6\n      pop\n        /* \"#utility.yul\":14702:14989   */\n      pop\n        /* \"#utility.yul\":15028:15030   */\n      0x20\n        /* \"#utility.yul\":15054:15107   */\n      tag_619\n        /* \"#utility.yul\":15099:15106   */\n      dup9\n        /* \"#utility.yul\":15090:15096   */\n      dup3\n        /* \"#utility.yul\":15079:15088   */\n      dup10\n        /* \"#utility.yul\":15075:15097   */\n      add\n        /* \"#utility.yul\":15054:15107   */\n      tag_377\n      jump\t// in\n    tag_619:\n        /* \"#utility.yul\":15044:15107   */\n      swap5\n      pop\n        /* \"#utility.yul\":14999:15117   */\n      pop\n        /* \"#utility.yul\":15156:15158   */\n      0x40\n        /* \"#utility.yul\":15182:15235   */\n      tag_620\n        /* \"#utility.yul\":15227:15234   */\n      dup9\n        /* \"#utility.yul\":15218:15224   */\n      dup3\n        /* \"#utility.yul\":15207:15216   */\n      dup10\n        /* \"#utility.yul\":15203:15225   */\n      add\n        /* \"#utility.yul\":15182:15235   */\n      tag_377\n      jump\t// in\n    tag_620:\n        /* \"#utility.yul\":15172:15235   */\n      swap4\n      pop\n        /* \"#utility.yul\":15127:15245   */\n      pop\n        /* \"#utility.yul\":15284:15286   */\n      0x60\n        /* \"#utility.yul\":15310:15363   */\n      tag_621\n        /* \"#utility.yul\":15355:15362   */\n      dup9\n        /* \"#utility.yul\":15346:15352   */\n      dup3\n        /* \"#utility.yul\":15335:15344   */\n      dup10\n        /* \"#utility.yul\":15331:15353   */\n      add\n        /* \"#utility.yul\":15310:15363   */\n      tag_404\n      jump\t// in\n    tag_621:\n        /* \"#utility.yul\":15300:15363   */\n      swap3\n      pop\n        /* \"#utility.yul\":15255:15373   */\n      pop\n        /* \"#utility.yul\":15412:15415   */\n      0x80\n        /* \"#utility.yul\":15439:15492   */\n      tag_622\n        /* \"#utility.yul\":15484:15491   */\n      dup9\n        /* \"#utility.yul\":15475:15481   */\n      dup3\n        /* \"#utility.yul\":15464:15473   */\n      dup10\n        /* \"#utility.yul\":15460:15482   */\n      add\n        /* \"#utility.yul\":15439:15492   */\n      tag_404\n      jump\t// in\n    tag_622:\n        /* \"#utility.yul\":15429:15492   */\n      swap2\n      pop\n        /* \"#utility.yul\":15383:15502   */\n      pop\n        /* \"#utility.yul\":14418:15509   */\n      swap3\n      swap6\n      pop\n      swap3\n      swap6\n      swap1\n      swap4\n      pop\n      jump\t// out\n        /* \"#utility.yul\":15573:17061   */\n    tag_405:\n        /* \"#utility.yul\":15690:15693   */\n      0x00\n        /* \"#utility.yul\":15726:15730   */\n      0xe0\n        /* \"#utility.yul\":15721:15724   */\n      dup4\n        /* \"#utility.yul\":15717:15731   */\n      add\n        /* \"#utility.yul\":15818:15822   */\n      0x00\n        /* \"#utility.yul\":15811:15816   */\n      dup4\n        /* \"#utility.yul\":15807:15823   */\n      add\n        /* \"#utility.yul\":15801:15824   */\n      mload\n        /* \"#utility.yul\":15837:15900   */\n      tag_624\n        /* \"#utility.yul\":15894:15898   */\n      0x00\n        /* \"#utility.yul\":15889:15892   */\n      dup7\n        /* \"#utility.yul\":15885:15899   */\n      add\n        /* \"#utility.yul\":15871:15883   */\n      dup3\n        /* \"#utility.yul\":15837:15900   */\n      tag_385\n      jump\t// in\n    tag_624:\n        /* \"#utility.yul\":15741:15910   */\n      pop\n        /* \"#utility.yul\":15999:16003   */\n      0x20\n        /* \"#utility.yul\":15992:15997   */\n      dup4\n        /* \"#utility.yul\":15988:16004   */\n      add\n        /* \"#utility.yul\":15982:16005   */\n      mload\n        /* \"#utility.yul\":16052:16055   */\n      dup5\n        /* \"#utility.yul\":16046:16050   */\n      dup3\n        /* \"#utility.yul\":16042:16056   */\n      sub\n        /* \"#utility.yul\":16035:16039   */\n      0x20\n        /* \"#utility.yul\":16030:16033   */\n      dup7\n        /* \"#utility.yul\":16026:16040   */\n      add\n        /* \"#utility.yul\":16019:16057   */\n      mstore\n        /* \"#utility.yul\":16078:16151   */\n      tag_625\n        /* \"#utility.yul\":16146:16150   */\n      dup3\n        /* \"#utility.yul\":16132:16144   */\n      dup3\n        /* \"#utility.yul\":16078:16151   */\n      tag_387\n      jump\t// in\n    tag_625:\n        /* \"#utility.yul\":16070:16151   */\n      swap2\n      pop\n        /* \"#utility.yul\":15920:16162   */\n      pop\n        /* \"#utility.yul\":16244:16248   */\n      0x40\n        /* \"#utility.yul\":16237:16242   */\n      dup4\n        /* \"#utility.yul\":16233:16249   */\n      add\n        /* \"#utility.yul\":16227:16250   */\n      mload\n        /* \"#utility.yul\":16263:16326   */\n      tag_626\n        /* \"#utility.yul\":16320:16324   */\n      0x40\n        /* \"#utility.yul\":16315:16318   */\n      dup7\n        /* \"#utility.yul\":16311:16325   */\n      add\n        /* \"#utility.yul\":16297:16309   */\n      dup3\n        /* \"#utility.yul\":16263:16326   */\n      tag_388\n      jump\t// in\n    tag_626:\n        /* \"#utility.yul\":16172:16336   */\n      pop\n        /* \"#utility.yul\":16416:16420   */\n      0x60\n        /* \"#utility.yul\":16409:16414   */\n      dup4\n        /* \"#utility.yul\":16405:16421   */\n      add\n        /* \"#utility.yul\":16399:16422   */\n      mload\n        /* \"#utility.yul\":16435:16498   */\n      tag_627\n        /* \"#utility.yul\":16492:16496   */\n      0x60\n        /* \"#utility.yul\":16487:16490   */\n      dup7\n        /* \"#utility.yul\":16483:16497   */\n      add\n        /* \"#utility.yul\":16469:16481   */\n      dup3\n        /* \"#utility.yul\":16435:16498   */\n      tag_388\n      jump\t// in\n    tag_627:\n        /* \"#utility.yul\":16346:16508   */\n      pop\n        /* \"#utility.yul\":16592:16596   */\n      0x80\n        /* \"#utility.yul\":16585:16590   */\n      dup4\n        /* \"#utility.yul\":16581:16597   */\n      add\n        /* \"#utility.yul\":16575:16598   */\n      mload\n        /* \"#utility.yul\":16611:16674   */\n      tag_628\n        /* \"#utility.yul\":16668:16672   */\n      0x80\n        /* \"#utility.yul\":16663:16666   */\n      dup7\n        /* \"#utility.yul\":16659:16673   */\n      add\n        /* \"#utility.yul\":16645:16657   */\n      dup3\n        /* \"#utility.yul\":16611:16674   */\n      tag_389\n      jump\t// in\n    tag_628:\n        /* \"#utility.yul\":16518:16684   */\n      pop\n        /* \"#utility.yul\":16771:16775   */\n      0xa0\n        /* \"#utility.yul\":16764:16769   */\n      dup4\n        /* \"#utility.yul\":16760:16776   */\n      add\n        /* \"#utility.yul\":16754:16777   */\n      mload\n        /* \"#utility.yul\":16790:16853   */\n      tag_629\n        /* \"#utility.yul\":16847:16851   */\n      0xa0\n        /* \"#utility.yul\":16842:16845   */\n      dup7\n        /* \"#utility.yul\":16838:16852   */\n      add\n        /* \"#utility.yul\":16824:16836   */\n      dup3\n        /* \"#utility.yul\":16790:16853   */\n      tag_389\n      jump\t// in\n    tag_629:\n        /* \"#utility.yul\":16694:16863   */\n      pop\n        /* \"#utility.yul\":16948:16952   */\n      0xc0\n        /* \"#utility.yul\":16941:16946   */\n      dup4\n        /* \"#utility.yul\":16937:16953   */\n      add\n        /* \"#utility.yul\":16931:16954   */\n      mload\n        /* \"#utility.yul\":16967:17024   */\n      tag_630\n        /* \"#utility.yul\":17018:17022   */\n      0xc0\n        /* \"#utility.yul\":17013:17016   */\n      dup7\n        /* \"#utility.yul\":17009:17023   */\n      add\n        /* \"#utility.yul\":16995:17007   */\n      dup3\n        /* \"#utility.yul\":16967:17024   */\n      tag_390\n      jump\t// in\n    tag_630:\n        /* \"#utility.yul\":16873:17034   */\n      pop\n        /* \"#utility.yul\":17051:17055   */\n      dup1\n        /* \"#utility.yul\":17044:17055   */\n      swap2\n      pop\n        /* \"#utility.yul\":15695:17061   */\n      pop\n        /* \"#utility.yul\":15573:17061   */\n      swap3\n      swap2\n      pop\n      pop\n      jump\t// out\n        /* \"#utility.yul\":17067:17546   */\n    tag_97:\n        /* \"#utility.yul\":17236:17240   */\n      0x00\n        /* \"#utility.yul\":17274:17276   */\n      0x40\n        /* \"#utility.yul\":17263:17272   */\n      dup3\n        /* \"#utility.yul\":17259:17277   */\n      add\n        /* \"#utility.yul\":17251:17277   */\n      swap1\n      pop\n        /* \"#utility.yul\":17323:17332   */\n      dup2\n        /* \"#utility.yul\":17317:17321   */\n      dup2\n        /* \"#utility.yul\":17313:17333   */\n      sub\n        /* \"#utility.yul\":17309:17310   */\n      0x00\n        /* \"#utility.yul\":17298:17307   */\n      dup4\n        /* \"#utility.yul\":17294:17311   */\n      add\n        /* \"#utility.yul\":17287:17334   */\n      mstore\n        /* \"#utility.yul\":17351:17457   */\n      tag_632\n        /* \"#utility.yul\":17452:17456   */\n      dup2\n        /* \"#utility.yul\":17443:17449   */\n      dup6\n        /* \"#utility.yul\":17351:17457   */\n      tag_405\n      jump\t// in\n    tag_632:\n        /* \"#utility.yul\":17343:17457   */\n      swap1\n      pop\n        /* \"#utility.yul\":17467:17539   */\n      tag_633\n        /* \"#utility.yul\":17535:17537   */\n      0x20\n        /* \"#utility.yul\":17524:17533   */\n      dup4\n        /* \"#utility.yul\":17520:17538   */\n      add\n        /* \"#utility.yul\":17511:17517   */\n      dup5\n        /* \"#utility.yul\":17467:17539   */\n      tag_375\n      jump\t// in\n    tag_633:\n        /* \"#utility.yul\":17067:17546   */\n      swap4\n      swap3\n      pop\n      pop\n      pop\n      jump\t// out\n        /* \"#utility.yul\":17552:18026   */\n    tag_101:\n        /* \"#utility.yul\":17620:17626   */\n      0x00\n        /* \"#utility.yul\":17628:17634   */\n      dup1\n        /* \"#utility.yul\":17677:17679   */\n      0x40\n        /* \"#utility.yul\":17665:17674   */\n      dup4\n        /* \"#utility.yul\":17656:17663   */\n      dup6\n        /* \"#utility.yul\":17652:17675   */\n      sub\n        /* \"#utility.yul\":17648:17680   */\n      slt\n        /* \"#utility.yul\":17645:17764   */\n      iszero\n      tag_635\n      jumpi\n        /* \"#utility.yul\":17683:17762   */\n      tag_636\n      tag_358\n      jump\t// in\n    tag_636:\n        /* \"#utility.yul\":17645:17764   */\n    tag_635:\n        /* \"#utility.yul\":17803:17804   */\n      0x00\n        /* \"#utility.yul\":17828:17881   */\n      tag_637\n        /* \"#utility.yul\":17873:17880   */\n      dup6\n        /* \"#utility.yul\":17864:17870   */\n      dup3\n        /* \"#utility.yul\":17853:17862   */\n      dup7\n        /* \"#utility.yul\":17849:17871   */\n      add\n        /* \"#utility.yul\":17828:17881   */\n      tag_377\n      jump\t// in\n    tag_637:\n        /* \"#utility.yul\":17818:17881   */\n      swap3\n      pop\n        /* \"#utility.yul\":17774:17891   */\n      pop\n        /* \"#utility.yul\":17930:17932   */\n      0x20\n        /* \"#utility.yul\":17956:18009   */\n      tag_638\n        /* \"#utility.yul\":18001:18008   */\n      dup6\n        /* \"#utility.yul\":17992:17998   */\n      dup3\n        /* \"#utility.yul\":17981:17990   */\n      dup7\n        /* \"#utility.yul\":17977:17999   */\n      add\n        /* \"#utility.yul\":17956:18009   */\n      tag_404\n      jump\t// in\n    tag_638:\n        /* \"#utility.yul\":17946:18009   */\n      swap2\n      pop\n        /* \"#utility.yul\":17901:18019   */\n      pop\n        /* \"#utility.yul\":17552:18026   */\n      swap3\n      pop\n      swap3\n      swap1\n      pop\n      jump\t// out\n        /* \"#utility.yul\":18032:19123   */\n    tag_111:\n        /* \"#utility.yul\":18137:18143   */\n      0x00\n        /* \"#utility.yul\":18145:18151   */\n      dup1\n        /* \"#utility.yul\":18153:18159   */\n      0x00\n        /* \"#utility.yul\":18161:18167   */\n      dup1\n        /* \"#utility.yul\":18169:18175   */\n      0x00\n        /* \"#utility.yul\":18218:18221   */\n      0xa0\n        /* \"#utility.yul\":18206:18215   */\n      dup7\n        /* \"#utility.yul\":18197:18204   */\n      dup9\n        /* \"#utility.yul\":18193:18216   */\n      sub\n        /* \"#utility.yul\":18189:18222   */\n      slt\n        /* \"#utility.yul\":18186:18306   */\n      iszero\n      tag_640\n      jumpi\n        /* \"#utility.yul\":18225:18304   */\n      tag_641\n      tag_358\n      jump\t// in\n    tag_641:\n        /* \"#utility.yul\":18186:18306   */\n    tag_640:\n        /* \"#utility.yul\":18345:18346   */\n      0x00\n        /* \"#utility.yul\":18370:18423   */\n      tag_642\n        /* \"#utility.yul\":18415:18422   */\n      dup9\n        /* \"#utility.yul\":18406:18412   */\n      dup3\n        /* \"#utility.yul\":18395:18404   */\n      dup10\n        /* \"#utility.yul\":18391:18413   */\n      add\n        /* \"#utility.yul\":18370:18423   */\n      tag_362\n      jump\t// in\n    tag_642:\n        /* \"#utility.yul\":18360:18423   */\n      swap6\n      pop\n        /* \"#utility.yul\":18316:18433   */\n      pop\n        /* \"#utility.yul\":18500:18502   */\n      0x20\n        /* \"#utility.yul\":18489:18498   */\n      dup7\n        /* \"#utility.yul\":18485:18503   */\n      add\n        /* \"#utility.yul\":18472:18504   */\n      calldataload\n        /* \"#utility.yul\":18531:18549   */\n      0xffffffffffffffff\n        /* \"#utility.yul\":18523:18529   */\n      dup2\n        /* \"#utility.yul\":18520:18550   */\n      gt\n        /* \"#utility.yul\":18517:18634   */\n      iszero\n      tag_643\n      jumpi\n        /* \"#utility.yul\":18553:18632   */\n      tag_644\n      tag_359\n      jump\t// in\n    tag_644:\n        /* \"#utility.yul\":18517:18634   */\n    tag_643:\n        /* \"#utility.yul\":18658:18721   */\n      tag_645\n        /* \"#utility.yul\":18713:18720   */\n      dup9\n        /* \"#utility.yul\":18704:18710   */\n      dup3\n        /* \"#utility.yul\":18693:18702   */\n      dup10\n        /* \"#utility.yul\":18689:18711   */\n      add\n        /* \"#utility.yul\":18658:18721   */\n      tag_402\n      jump\t// in\n    tag_645:\n        /* \"#utility.yul\":18648:18721   */\n      swap5\n      pop\n        /* \"#utility.yul\":18443:18731   */\n      pop\n        /* \"#utility.yul\":18770:18772   */\n      0x40\n        /* \"#utility.yul\":18796:18849   */\n      tag_646\n        /* \"#utility.yul\":18841:18848   */\n      dup9\n        /* \"#utility.yul\":18832:18838   */\n      dup3\n        /* \"#utility.yul\":18821:18830   */\n      dup10\n        /* \"#utility.yul\":18817:18839   */\n      add\n        /* \"#utility.yul\":18796:18849   */\n      tag_377\n      jump\t// in\n    tag_646:\n        /* \"#utility.yul\":18786:18849   */\n      swap4\n      pop\n        /* \"#utility.yul\":18741:18859   */\n      pop\n        /* \"#utility.yul\":18898:18900   */\n      0x60\n        /* \"#utility.yul\":18924:18977   */\n      tag_647\n        /* \"#utility.yul\":18969:18976   */\n      dup9\n        /* \"#utility.yul\":18960:18966   */\n      dup3\n        /* \"#utility.yul\":18949:18958   */\n      dup10\n        /* \"#utility.yul\":18945:18967   */\n      add\n        /* \"#utility.yul\":18924:18977   */\n      tag_404\n      jump\t// in\n    tag_647:\n        /* \"#utility.yul\":18914:18977   */\n      swap3\n      pop\n        /* \"#utility.yul\":18869:18987   */\n      pop\n        /* \"#utility.yul\":19026:19029   */\n      0x80\n        /* \"#utility.yul\":19053:19106   */\n      tag_648\n        /* \"#utility.yul\":19098:19105   */\n      dup9\n        /* \"#utility.yul\":19089:19095   */\n      dup3\n        /* \"#utility.yul\":19078:19087   */\n      dup10\n        /* \"#utility.yul\":19074:19096   */\n      add\n        /* \"#utility.yul\":19053:19106   */\n      tag_404\n      jump\t// in\n    tag_648:\n        /* \"#utility.yul\":19043:19106   */\n      swap2\n      pop\n        /* \"#utility.yul\":18997:19116   */\n      pop\n        /* \"#utility.yul\":18032:19123   */\n      swap3\n      swap6\n      pop\n      swap3\n      swap6\n      swap1\n      swap4\n      pop\n      jump\t// out\n        /* \"#utility.yul\":19129:19227   */\n    tag_406:\n        /* \"#utility.yul\":19180:19186   */\n      0x00\n        /* \"#utility.yul\":19214:19219   */\n      dup2\n        /* \"#utility.yul\":19208:19220   */\n      mload\n        /* \"#utility.yul\":19198:19220   */\n      swap1\n      pop\n        /* \"#utility.yul\":19129:19227   */\n      swap2\n      swap1\n      pop\n      jump\t// out\n        /* \"#utility.yul\":19233:19401   */\n    tag_407:\n        /* \"#utility.yul\":19316:19327   */\n      0x00\n        /* \"#utility.yul\":19350:19356   */\n      dup3\n        /* \"#utility.yul\":19345:19348   */\n      dup3\n        /* \"#utility.yul\":19338:19357   */\n      mstore\n        /* \"#utility.yul\":19390:19394   */\n      0x20\n        /* \"#utility.yul\":19385:19388   */\n      dup3\n        /* \"#utility.yul\":19381:19395   */\n      add\n        /* \"#utility.yul\":19366:19395   */\n      swap1\n      pop\n        /* \"#utility.yul\":19233:19401   */\n      swap3\n      swap2\n      pop\n      pop\n      jump\t// out\n        /* \"#utility.yul\":19407:19780   */\n    tag_408:\n        /* \"#utility.yul\":19493:19496   */\n      0x00\n        /* \"#utility.yul\":19521:19559   */\n      tag_652\n        /* \"#utility.yul\":19553:19558   */\n      dup3\n        /* \"#utility.yul\":19521:19559   */\n      tag_406\n      jump\t// in\n    tag_652:\n        /* \"#utility.yul\":19575:19645   */\n      tag_653\n        /* \"#utility.yul\":19638:19644   */\n      dup2\n        /* \"#utility.yul\":19633:19636   */\n      dup6\n        /* \"#utility.yul\":19575:19645   */\n      tag_407\n      jump\t// in\n    tag_653:\n        /* \"#utility.yul\":19568:19645   */\n      swap4\n      pop\n        /* \"#utility.yul\":19654:19719   */\n      tag_654\n        /* \"#utility.yul\":19712:19718   */\n      dup2\n        /* \"#utility.yul\":19707:19710   */\n      dup6\n        /* \"#utility.yul\":19700:19704   */\n      0x20\n        /* \"#utility.yul\":19693:19698   */\n      dup7\n        /* \"#utility.yul\":19689:19705   */\n      add\n        /* \"#utility.yul\":19654:19719   */\n      tag_368\n      jump\t// in\n    tag_654:\n        /* \"#utility.yul\":19744:19773   */\n      tag_655\n        /* \"#utility.yul\":19766:19772   */\n      dup2\n        /* \"#utility.yul\":19744:19773   */\n      tag_369\n      jump\t// in\n    tag_655:\n        /* \"#utility.yul\":19739:19742   */\n      dup5\n        /* \"#utility.yul\":19735:19774   */\n      add\n        /* \"#utility.yul\":19728:19774   */\n      swap2\n      pop\n        /* \"#utility.yul\":19497:19780   */\n      pop\n        /* \"#utility.yul\":19407:19780   */\n      swap3\n      swap2\n      pop\n      pop\n      jump\t// out\n        /* \"#utility.yul\":19786:20095   */\n    tag_117:\n        /* \"#utility.yul\":19897:19901   */\n      0x00\n        /* \"#utility.yul\":19935:19937   */\n      0x20\n        /* \"#utility.yul\":19924:19933   */\n      dup3\n        /* \"#utility.yul\":19920:19938   */\n      add\n        /* \"#utility.yul\":19912:19938   */\n      swap1\n      pop\n        /* \"#utility.yul\":19984:19993   */\n      dup2\n        /* \"#utility.yul\":19978:19982   */\n      dup2\n        /* \"#utility.yul\":19974:19994   */\n      sub\n        /* \"#utility.yul\":19970:19971   */\n      0x00\n        /* \"#utility.yul\":19959:19968   */\n      dup4\n        /* \"#utility.yul\":19955:19972   */\n      add\n        /* \"#utility.yul\":19948:19995   */\n      mstore\n        /* \"#utility.yul\":20012:20088   */\n      tag_657\n        /* \"#utility.yul\":20083:20087   */\n      dup2\n        /* \"#utility.yul\":20074:20080   */\n      dup5\n        /* \"#utility.yul\":20012:20088   */\n      tag_408\n      jump\t// in\n    tag_657:\n        /* \"#utility.yul\":20004:20088   */\n      swap1\n      pop\n        /* \"#utility.yul\":19786:20095   */\n      swap3\n      swap2\n      pop\n      pop\n      jump\t// out\n        /* \"#utility.yul\":20101:20281   */\n    tag_409:\n        /* \"#utility.yul\":20149:20226   */\n      0x4e487b7100000000000000000000000000000000000000000000000000000000\n        /* \"#utility.yul\":20146:20147   */\n      0x00\n        /* \"#utility.yul\":20139:20227   */\n      mstore\n        /* \"#utility.yul\":20246:20250   */\n      0x22\n        /* \"#utility.yul\":20243:20244   */\n      0x04\n        /* \"#utility.yul\":20236:20251   */\n      mstore\n        /* \"#utility.yul\":20270:20274   */\n      0x24\n        /* \"#utility.yul\":20267:20268   */\n      0x00\n        /* \"#utility.yul\":20260:20275   */\n      revert\n        /* \"#utility.yul\":20287:20607   */\n    tag_121:\n        /* \"#utility.yul\":20331:20337   */\n      0x00\n        /* \"#utility.yul\":20368:20369   */\n      0x02\n        /* \"#utility.yul\":20362:20366   */\n      dup3\n        /* \"#utility.yul\":20358:20370   */\n      div\n        /* \"#utility.yul\":20348:20370   */\n      swap1\n      pop\n        /* \"#utility.yul\":20415:20416   */\n      0x01\n        /* \"#utility.yul\":20409:20413   */\n      dup3\n        /* \"#utility.yul\":20405:20417   */\n      and\n        /* \"#utility.yul\":20436:20454   */\n      dup1\n        /* \"#utility.yul\":20426:20507   */\n      tag_660\n      jumpi\n        /* \"#utility.yul\":20492:20496   */\n      0x7f\n        /* \"#utility.yul\":20484:20490   */\n      dup3\n        /* \"#utility.yul\":20480:20497   */\n      and\n        /* \"#utility.yul\":20470:20497   */\n      swap2\n      pop\n        /* \"#utility.yul\":20426:20507   */\n    tag_660:\n        /* \"#utility.yul\":20554:20556   */\n      0x20\n        /* \"#utility.yul\":20546:20552   */\n      dup3\n        /* \"#utility.yul\":20543:20557   */\n      lt\n        /* \"#utility.yul\":20523:20541   */\n      dup2\n        /* \"#utility.yul\":20520:20558   */\n      sub\n        /* \"#utility.yul\":20517:20601   */\n      tag_661\n      jumpi\n        /* \"#utility.yul\":20573:20591   */\n      tag_662\n      tag_409\n      jump\t// in\n    tag_662:\n        /* \"#utility.yul\":20517:20601   */\n    tag_661:\n        /* \"#utility.yul\":20338:20607   */\n      pop\n        /* \"#utility.yul\":20287:20607   */\n      swap2\n      swap1\n      pop\n      jump\t// out\n        /* \"#utility.yul\":20613:20836   */\n    tag_410:\n        /* \"#utility.yul\":20753:20787   */\n      0x4f6e6c79204f776e65722063616e206578656375746520746869732066756e63\n        /* \"#utility.yul\":20749:20750   */\n      0x00\n        /* \"#utility.yul\":20741:20747   */\n      dup3\n        /* \"#utility.yul\":20737:20751   */\n      add\n        /* \"#utility.yul\":20730:20788   */\n      mstore\n        /* \"#utility.yul\":20822:20828   */\n      0x74696f6e00000000000000000000000000000000000000000000000000000000\n        /* \"#utility.yul\":20817:20819   */\n      0x20\n        /* \"#utility.yul\":20809:20815   */\n      dup3\n        /* \"#utility.yul\":20805:20820   */\n      add\n        /* \"#utility.yul\":20798:20829   */\n      mstore\n        /* \"#utility.yul\":20613:20836   */\n      pop\n      jump\t// out\n        /* \"#utility.yul\":20842:21208   */\n    tag_411:\n        /* \"#utility.yul\":20984:20987   */\n      0x00\n        /* \"#utility.yul\":21005:21072   */\n      tag_665\n        /* \"#utility.yul\":21069:21071   */\n      0x24\n        /* \"#utility.yul\":21064:21067   */\n      dup4\n        /* \"#utility.yul\":21005:21072   */\n      tag_367\n      jump\t// in\n    tag_665:\n        /* \"#utility.yul\":20998:21072   */\n      swap2\n      pop\n        /* \"#utility.yul\":21081:21174   */\n      tag_666\n        /* \"#utility.yul\":21170:21173   */\n      dup3\n        /* \"#utility.yul\":21081:21174   */\n      tag_410\n      jump\t// in\n    tag_666:\n        /* \"#utility.yul\":21199:21201   */\n      0x40\n        /* \"#utility.yul\":21194:21197   */\n      dup3\n        /* \"#utility.yul\":21190:21202   */\n      add\n        /* \"#utility.yul\":21183:21202   */\n      swap1\n      pop\n        /* \"#utility.yul\":20842:21208   */\n      swap2\n      swap1\n      pop\n      jump\t// out\n        /* \"#utility.yul\":21214:21633   */\n    tag_129:\n        /* \"#utility.yul\":21380:21384   */\n      0x00\n        /* \"#utility.yul\":21418:21420   */\n      0x20\n        /* \"#utility.yul\":21407:21416   */\n      dup3\n        /* \"#utility.yul\":21403:21421   */\n      add\n        /* \"#utility.yul\":21395:21421   */\n      swap1\n      pop\n        /* \"#utility.yul\":21467:21476   */\n      dup2\n        /* \"#utility.yul\":21461:21465   */\n      dup2\n        /* \"#utility.yul\":21457:21477   */\n      sub\n        /* \"#utility.yul\":21453:21454   */\n      0x00\n        /* \"#utility.yul\":21442:21451   */\n      dup4\n        /* \"#utility.yul\":21438:21455   */\n      add\n        /* \"#utility.yul\":21431:21478   */\n      mstore\n        /* \"#utility.yul\":21495:21626   */\n      tag_668\n        /* \"#utility.yul\":21621:21625   */\n      dup2\n        /* \"#utility.yul\":21495:21626   */\n      tag_411\n      jump\t// in\n    tag_668:\n        /* \"#utility.yul\":21487:21626   */\n      swap1\n      pop\n        /* \"#utility.yul\":21214:21633   */\n      swap2\n      swap1\n      pop\n      jump\t// out\n        /* \"#utility.yul\":21639:21807   */\n    tag_412:\n        /* \"#utility.yul\":21779:21799   */\n      0x416c72656164795175657565644572726f720000000000000000000000000000\n        /* \"#utility.yul\":21775:21776   */\n      0x00\n        /* \"#utility.yul\":21767:21773   */\n      dup3\n        /* \"#utility.yul\":21763:21777   */\n      add\n        /* \"#utility.yul\":21756:21800   */\n      mstore\n        /* \"#utility.yul\":21639:21807   */\n      pop\n      jump\t// out\n        /* \"#utility.yul\":21813:22179   */\n    tag_413:\n        /* \"#utility.yul\":21955:21958   */\n      0x00\n        /* \"#utility.yul\":21976:22043   */\n      tag_671\n        /* \"#utility.yul\":22040:22042   */\n      0x12\n        /* \"#utility.yul\":22035:22038   */\n      dup4\n        /* \"#utility.yul\":21976:22043   */\n      tag_367\n      jump\t// in\n    tag_671:\n        /* \"#utility.yul\":21969:22043   */\n      swap2\n      pop\n        /* \"#utility.yul\":22052:22145   */\n      tag_672\n        /* \"#utility.yul\":22141:22144   */\n      dup3\n        /* \"#utility.yul\":22052:22145   */\n      tag_412\n      jump\t// in\n    tag_672:\n        /* \"#utility.yul\":22170:22172   */\n      0x20\n        /* \"#utility.yul\":22165:22168   */\n      dup3\n        /* \"#utility.yul\":22161:22173   */\n      add\n        /* \"#utility.yul\":22154:22173   */\n      swap1\n      pop\n        /* \"#utility.yul\":21813:22179   */\n      swap2\n      swap1\n      pop\n      jump\t// out\n        /* \"#utility.yul\":22185:22604   */\n    tag_140:\n        /* \"#utility.yul\":22351:22355   */\n      0x00\n        /* \"#utility.yul\":22389:22391   */\n      0x20\n        /* \"#utility.yul\":22378:22387   */\n      dup3\n        /* \"#utility.yul\":22374:22392   */\n      add\n        /* \"#utility.yul\":22366:22392   */\n      swap1\n      pop\n        /* \"#utility.yul\":22438:22447   */\n      dup2\n        /* \"#utility.yul\":22432:22436   */\n      dup2\n        /* \"#utility.yul\":22428:22448   */\n      sub\n        /* \"#utility.yul\":22424:22425   */\n      0x00\n        /* \"#utility.yul\":22413:22422   */\n      dup4\n        /* \"#utility.yul\":22409:22426   */\n      add\n        /* \"#utility.yul\":22402:22449   */\n      mstore\n        /* \"#utility.yul\":22466:22597   */\n      tag_674\n        /* \"#utility.yul\":22592:22596   */\n      dup2\n        /* \"#utility.yul\":22466:22597   */\n      tag_413\n      jump\t// in\n    tag_674:\n        /* \"#utility.yul\":22458:22597   */\n      swap1\n      pop\n        /* \"#utility.yul\":22185:22604   */\n      swap2\n      swap1\n      pop\n      jump\t// out\n        /* \"#utility.yul\":22610:22790   */\n    tag_414:\n        /* \"#utility.yul\":22658:22735   */\n      0x4e487b7100000000000000000000000000000000000000000000000000000000\n        /* \"#utility.yul\":22655:22656   */\n      0x00\n        /* \"#utility.yul\":22648:22736   */\n      mstore\n        /* \"#utility.yul\":22755:22759   */\n      0x11\n        /* \"#utility.yul\":22752:22753   */\n      0x04\n        /* \"#utility.yul\":22745:22760   */\n      mstore\n        /* \"#utility.yul\":22779:22783   */\n      0x24\n        /* \"#utility.yul\":22776:22777   */\n      0x00\n        /* \"#utility.yul\":22769:22784   */\n      revert\n        /* \"#utility.yul\":22796:22987   */\n    tag_142:\n        /* \"#utility.yul\":22836:22839   */\n      0x00\n        /* \"#utility.yul\":22855:22875   */\n      tag_677\n        /* \"#utility.yul\":22873:22874   */\n      dup3\n        /* \"#utility.yul\":22855:22875   */\n      tag_374\n      jump\t// in\n    tag_677:\n        /* \"#utility.yul\":22850:22875   */\n      swap2\n      pop\n        /* \"#utility.yul\":22889:22909   */\n      tag_678\n        /* \"#utility.yul\":22907:22908   */\n      dup4\n        /* \"#utility.yul\":22889:22909   */\n      tag_374\n      jump\t// in\n    tag_678:\n        /* \"#utility.yul\":22884:22909   */\n      swap3\n      pop\n        /* \"#utility.yul\":22932:22933   */\n      dup3\n        /* \"#utility.yul\":22929:22930   */\n      dup3\n        /* \"#utility.yul\":22925:22934   */\n      add\n        /* \"#utility.yul\":22918:22934   */\n      swap1\n      pop\n        /* \"#utility.yul\":22953:22956   */\n      dup1\n        /* \"#utility.yul\":22950:22951   */\n      dup3\n        /* \"#utility.yul\":22947:22957   */\n      gt\n        /* \"#utility.yul\":22944:22980   */\n      iszero\n      tag_679\n      jumpi\n        /* \"#utility.yul\":22960:22978   */\n      tag_680\n      tag_414\n      jump\t// in\n    tag_680:\n        /* \"#utility.yul\":22944:22980   */\n    tag_679:\n        /* \"#utility.yul\":22796:22987   */\n      swap3\n      swap2\n      pop\n      pop\n      jump\t// out\n        /* \"#utility.yul\":22993:23167   */\n    tag_415:\n        /* \"#utility.yul\":23133:23159   */\n      0x54696d657374616d704e6f74496e52616e67654572726f720000000000000000\n        /* \"#utility.yul\":23129:23130   */\n      0x00\n        /* \"#utility.yul\":23121:23127   */\n      dup3\n        /* \"#utility.yul\":23117:23131   */\n      add\n        /* \"#utility.yul\":23110:23160   */\n      mstore\n        /* \"#utility.yul\":22993:23167   */\n      pop\n      jump\t// out\n        /* \"#utility.yul\":23173:23539   */\n    tag_416:\n        /* \"#utility.yul\":23315:23318   */\n      0x00\n        /* \"#utility.yul\":23336:23403   */\n      tag_683\n        /* \"#utility.yul\":23400:23402   */\n      0x18\n        /* \"#utility.yul\":23395:23398   */\n      dup4\n        /* \"#utility.yul\":23336:23403   */\n      tag_367\n      jump\t// in\n    tag_683:\n        /* \"#utility.yul\":23329:23403   */\n      swap2\n      pop\n        /* \"#utility.yul\":23412:23505   */\n      tag_684\n        /* \"#utility.yul\":23501:23504   */\n      dup3\n        /* \"#utility.yul\":23412:23505   */\n      tag_415\n      jump\t// in\n    tag_684:\n        /* \"#utility.yul\":23530:23532   */\n      0x20\n        /* \"#utility.yul\":23525:23528   */\n      dup3\n        /* \"#utility.yul\":23521:23533   */\n      add\n        /* \"#utility.yul\":23514:23533   */\n      swap1\n      pop\n        /* \"#utility.yul\":23173:23539   */\n      swap2\n      swap1\n      pop\n      jump\t// out\n        /* \"#utility.yul\":23545:23964   */\n    tag_147:\n        /* \"#utility.yul\":23711:23715   */\n      0x00\n        /* \"#utility.yul\":23749:23751   */\n      0x20\n        /* \"#utility.yul\":23738:23747   */\n      dup3\n        /* \"#utility.yul\":23734:23752   */\n      add\n        /* \"#utility.yul\":23726:23752   */\n      swap1\n      pop\n        /* \"#utility.yul\":23798:23807   */\n      dup2\n        /* \"#utility.yul\":23792:23796   */\n      dup2\n        /* \"#utility.yul\":23788:23808   */\n      sub\n        /* \"#utility.yul\":23784:23785   */\n      0x00\n        /* \"#utility.yul\":23773:23782   */\n      dup4\n        /* \"#utility.yul\":23769:23786   */\n      add\n        /* \"#utility.yul\":23762:23809   */\n      mstore\n        /* \"#utility.yul\":23826:23957   */\n      tag_686\n        /* \"#utility.yul\":23952:23956   */\n      dup2\n        /* \"#utility.yul\":23826:23957   */\n      tag_416\n      jump\t// in\n    tag_686:\n        /* \"#utility.yul\":23818:23957   */\n      swap1\n      pop\n        /* \"#utility.yul\":23545:23964   */\n      swap2\n      swap1\n      pop\n      jump\t// out\n        /* \"#utility.yul\":23970:24111   */\n    tag_417:\n        /* \"#utility.yul\":24019:24023   */\n      0x00\n        /* \"#utility.yul\":24042:24045   */\n      dup2\n        /* \"#utility.yul\":24034:24045   */\n      swap1\n      pop\n        /* \"#utility.yul\":24065:24068   */\n      dup2\n        /* \"#utility.yul\":24062:24063   */\n      0x00\n        /* \"#utility.yul\":24055:24069   */\n      mstore\n        /* \"#utility.yul\":24099:24103   */\n      0x20\n        /* \"#utility.yul\":24096:24097   */\n      0x00\n        /* \"#utility.yul\":24086:24104   */\n      keccak256\n        /* \"#utility.yul\":24078:24104   */\n      swap1\n      pop\n        /* \"#utility.yul\":23970:24111   */\n      swap2\n      swap1\n      pop\n      jump\t// out\n        /* \"#utility.yul\":24117:24210   */\n    tag_418:\n        /* \"#utility.yul\":24154:24160   */\n      0x00\n        /* \"#utility.yul\":24201:24203   */\n      0x20\n        /* \"#utility.yul\":24196:24198   */\n      0x1f\n        /* \"#utility.yul\":24189:24194   */\n      dup4\n        /* \"#utility.yul\":24185:24199   */\n      add\n        /* \"#utility.yul\":24181:24204   */\n      div\n        /* \"#utility.yul\":24171:24204   */\n      swap1\n      pop\n        /* \"#utility.yul\":24117:24210   */\n      swap2\n      swap1\n      pop\n      jump\t// out\n        /* \"#utility.yul\":24216:24323   */\n    tag_419:\n        /* \"#utility.yul\":24260:24268   */\n      0x00\n        /* \"#utility.yul\":24310:24315   */\n      dup3\n        /* \"#utility.yul\":24304:24308   */\n      dup3\n        /* \"#utility.yul\":24300:24316   */\n      shl\n        /* \"#utility.yul\":24279:24316   */\n      swap1\n      pop\n        /* \"#utility.yul\":24216:24323   */\n      swap3\n      swap2\n      pop\n      pop\n      jump\t// out\n        /* \"#utility.yul\":24329:24722   */\n    tag_420:\n        /* \"#utility.yul\":24398:24404   */\n      0x00\n        /* \"#utility.yul\":24448:24449   */\n      0x08\n        /* \"#utility.yul\":24436:24446   */\n      dup4\n        /* \"#utility.yul\":24432:24450   */\n      mul\n        /* \"#utility.yul\":24471:24568   */\n      tag_691\n        /* \"#utility.yul\":24501:24567   */\n      0xffffffffffffffffffffffffffffffffffffffffffffffffffffffffffffffff\n        /* \"#utility.yul\":24490:24499   */\n      dup3\n        /* \"#utility.yul\":24471:24568   */\n      tag_419\n      jump\t// in\n    tag_691:\n        /* \"#utility.yul\":24589:24628   */\n      tag_692\n        /* \"#utility.yul\":24619:24627   */\n      dup7\n        /* \"#utility.yul\":24608:24617   */\n      dup4\n        /* \"#utility.yul\":24589:24628   */\n      tag_419\n      jump\t// in\n    tag_692:\n        /* \"#utility.yul\":24577:24628   */\n      swap6\n      pop\n        /* \"#utility.yul\":24661:24665   */\n      dup1\n        /* \"#utility.yul\":24657:24666   */\n      not\n        /* \"#utility.yul\":24650:24655   */\n      dup5\n        /* \"#utility.yul\":24646:24667   */\n      and\n        /* \"#utility.yul\":24637:24667   */\n      swap4\n      pop\n        /* \"#utility.yul\":24710:24714   */\n      dup1\n        /* \"#utility.yul\":24700:24708   */\n      dup7\n        /* \"#utility.yul\":24696:24715   */\n      and\n        /* \"#utility.yul\":24689:24694   */\n      dup5\n        /* \"#utility.yul\":24686:24716   */\n      or\n        /* \"#utility.yul\":24676:24716   */\n      swap3\n      pop\n        /* \"#utility.yul\":24405:24722   */\n      pop\n      pop\n        /* \"#utility.yul\":24329:24722   */\n      swap4\n      swap3\n      pop\n      pop\n      pop\n      jump\t// out\n        /* \"#utility.yul\":24728:24788   */\n    tag_421:\n        /* \"#utility.yul\":24756:24759   */\n      0x00\n        /* \"#utility.yul\":24777:24782   */\n      dup2\n        /* \"#utility.yul\":24770:24782   */\n      swap1\n      pop\n        /* \"#utility.yul\":24728:24788   */\n      swap2\n      swap1\n      pop\n      jump\t// out\n        /* \"#utility.yul\":24794:24936   */\n    tag_422:\n        /* \"#utility.yul\":24844:24853   */\n      0x00\n        /* \"#utility.yul\":24877:24930   */\n      tag_695\n        /* \"#utility.yul\":24895:24929   */\n      tag_696\n        /* \"#utility.yul\":24904:24928   */\n      tag_697\n        /* \"#utility.yul\":24922:24927   */\n      dup5\n        /* \"#utility.yul\":24904:24928   */\n      tag_374\n      jump\t// in\n    tag_697:\n        /* \"#utility.yul\":24895:24929   */\n      tag_421\n      jump\t// in\n    tag_696:\n        /* \"#utility.yul\":24877:24930   */\n      tag_374\n      jump\t// in\n    tag_695:\n        /* \"#utility.yul\":24864:24930   */\n      swap1\n      pop\n        /* \"#utility.yul\":24794:24936   */\n      swap2\n      swap1\n      pop\n      jump\t// out\n        /* \"#utility.yul\":24942:25017   */\n    tag_423:\n        /* \"#utility.yul\":24985:24988   */\n      0x00\n        /* \"#utility.yul\":25006:25011   */\n      dup2\n        /* \"#utility.yul\":24999:25011   */\n      swap1\n      pop\n        /* \"#utility.yul\":24942:25017   */\n      swap2\n      swap1\n      pop\n      jump\t// out\n        /* \"#utility.yul\":25023:25292   */\n    tag_424:\n        /* \"#utility.yul\":25133:25172   */\n      tag_700\n        /* \"#utility.yul\":25164:25171   */\n      dup4\n        /* \"#utility.yul\":25133:25172   */\n      tag_422\n      jump\t// in\n    tag_700:\n        /* \"#utility.yul\":25194:25285   */\n      tag_701\n        /* \"#utility.yul\":25243:25284   */\n      tag_702\n        /* \"#utility.yul\":25267:25283   */\n      dup3\n        /* \"#utility.yul\":25243:25284   */\n      tag_423\n      jump\t// in\n    tag_702:\n        /* \"#utility.yul\":25235:25241   */\n      dup5\n        /* \"#utility.yul\":25228:25232   */\n      dup5\n        /* \"#utility.yul\":25222:25233   */\n      sload\n        /* \"#utility.yul\":25194:25285   */\n      tag_420\n      jump\t// in\n    tag_701:\n        /* \"#utility.yul\":25188:25192   */\n      dup3\n        /* \"#utility.yul\":25181:25286   */\n      sstore\n        /* \"#utility.yul\":25099:25292   */\n      pop\n        /* \"#utility.yul\":25023:25292   */\n      pop\n      pop\n      pop\n      jump\t// out\n        /* \"#utility.yul\":25298:25371   */\n    tag_425:\n        /* \"#utility.yul\":25343:25346   */\n      0x00\n        /* \"#utility.yul\":25298:25371   */\n      swap1\n      jump\t// out\n        /* \"#utility.yul\":25377:25566   */\n    tag_426:\n        /* \"#utility.yul\":25454:25486   */\n      tag_705\n      tag_425\n      jump\t// in\n    tag_705:\n        /* \"#utility.yul\":25495:25560   */\n      tag_706\n        /* \"#utility.yul\":25553:25559   */\n      dup2\n        /* \"#utility.yul\":25545:25551   */\n      dup5\n        /* \"#utility.yul\":25539:25543   */\n      dup5\n        /* \"#utility.yul\":25495:25560   */\n      tag_424\n      jump\t// in\n    tag_706:\n        /* \"#utility.yul\":25430:25566   */\n      pop\n        /* \"#utility.yul\":25377:25566   */\n      pop\n      pop\n      jump\t// out\n        /* \"#utility.yul\":25572:25758   */\n    tag_427:\n        /* \"#utility.yul\":25632:25752   */\n    tag_708:\n        /* \"#utility.yul\":25649:25652   */\n      dup2\n        /* \"#utility.yul\":25642:25647   */\n      dup2\n        /* \"#utility.yul\":25639:25653   */\n      lt\n        /* \"#utility.yul\":25632:25752   */\n      iszero\n      tag_710\n      jumpi\n        /* \"#utility.yul\":25703:25742   */\n      tag_711\n        /* \"#utility.yul\":25740:25741   */\n      0x00\n        /* \"#utility.yul\":25733:25738   */\n      dup3\n        /* \"#utility.yul\":25703:25742   */\n      tag_426\n      jump\t// in\n    tag_711:\n        /* \"#utility.yul\":25676:25677   */\n      0x01\n        /* \"#utility.yul\":25669:25674   */\n      dup2\n        /* \"#utility.yul\":25665:25678   */\n      add\n        /* \"#utility.yul\":25656:25678   */\n      swap1\n      pop\n        /* \"#utility.yul\":25632:25752   */\n      jump(tag_708)\n    tag_710:\n        /* \"#utility.yul\":25572:25758   */\n      pop\n      pop\n      jump\t// out\n        /* \"#utility.yul\":25764:26307   */\n    tag_428:\n        /* \"#utility.yul\":25865:25867   */\n      0x1f\n        /* \"#utility.yul\":25860:25863   */\n      dup3\n        /* \"#utility.yul\":25857:25868   */\n      gt\n        /* \"#utility.yul\":25854:26300   */\n      iszero\n      tag_713\n      jumpi\n        /* \"#utility.yul\":25899:25937   */\n      tag_714\n        /* \"#utility.yul\":25931:25936   */\n      dup2\n        /* \"#utility.yul\":25899:25937   */\n      tag_417\n      jump\t// in\n    tag_714:\n        /* \"#utility.yul\":25983:26012   */\n      tag_715\n        /* \"#utility.yul\":26001:26011   */\n      dup5\n        /* \"#utility.yul\":25983:26012   */\n      tag_418\n      jump\t// in\n    tag_715:\n        /* \"#utility.yul\":25973:25981   */\n      dup2\n        /* \"#utility.yul\":25969:26013   */\n      add\n        /* \"#utility.yul\":26166:26168   */\n      0x20\n        /* \"#utility.yul\":26154:26164   */\n      dup6\n        /* \"#utility.yul\":26151:26169   */\n      lt\n        /* \"#utility.yul\":26148:26197   */\n      iszero\n      tag_716\n      jumpi\n        /* \"#utility.yul\":26187:26195   */\n      dup2\n        /* \"#utility.yul\":26172:26195   */\n      swap1\n      pop\n        /* \"#utility.yul\":26148:26197   */\n    tag_716:\n        /* \"#utility.yul\":26210:26290   */\n      tag_717\n        /* \"#utility.yul\":26266:26288   */\n      tag_718\n        /* \"#utility.yul\":26284:26287   */\n      dup6\n        /* \"#utility.yul\":26266:26288   */\n      tag_418\n      jump\t// in\n    tag_718:\n        /* \"#utility.yul\":26256:26264   */\n      dup4\n        /* \"#utility.yul\":26252:26289   */\n      add\n        /* \"#utility.yul\":26239:26250   */\n      dup3\n        /* \"#utility.yul\":26210:26290   */\n      tag_427\n      jump\t// in\n    tag_717:\n        /* \"#utility.yul\":25869:26300   */\n      pop\n      pop\n        /* \"#utility.yul\":25854:26300   */\n    tag_713:\n        /* \"#utility.yul\":25764:26307   */\n      pop\n      pop\n      pop\n      jump\t// out\n        /* \"#utility.yul\":26313:26430   */\n    tag_429:\n        /* \"#utility.yul\":26367:26375   */\n      0x00\n        /* \"#utility.yul\":26417:26422   */\n      dup3\n        /* \"#utility.yul\":26411:26415   */\n      dup3\n        /* \"#utility.yul\":26407:26423   */\n      shr\n        /* \"#utility.yul\":26386:26423   */\n      swap1\n      pop\n        /* \"#utility.yul\":26313:26430   */\n      swap3\n      swap2\n      pop\n      pop\n      jump\t// out\n        /* \"#utility.yul\":26436:26605   */\n    tag_430:\n        /* \"#utility.yul\":26480:26486   */\n      0x00\n        /* \"#utility.yul\":26513:26564   */\n      tag_721\n        /* \"#utility.yul\":26561:26562   */\n      0x00\n        /* \"#utility.yul\":26557:26563   */\n      not\n        /* \"#utility.yul\":26549:26554   */\n      dup5\n        /* \"#utility.yul\":26546:26547   */\n      0x08\n        /* \"#utility.yul\":26542:26555   */\n      mul\n        /* \"#utility.yul\":26513:26564   */\n      tag_429\n      jump\t// in\n    tag_721:\n        /* \"#utility.yul\":26509:26565   */\n      not\n        /* \"#utility.yul\":26594:26598   */\n      dup1\n        /* \"#utility.yul\":26588:26592   */\n      dup4\n        /* \"#utility.yul\":26584:26599   */\n      and\n        /* \"#utility.yul\":26574:26599   */\n      swap2\n      pop\n        /* \"#utility.yul\":26487:26605   */\n      pop\n        /* \"#utility.yul\":26436:26605   */\n      swap3\n      swap2\n      pop\n      pop\n      jump\t// out\n        /* \"#utility.yul\":26610:26905   */\n    tag_431:\n        /* \"#utility.yul\":26686:26690   */\n      0x00\n        /* \"#utility.yul\":26832:26861   */\n      tag_723\n        /* \"#utility.yul\":26857:26860   */\n      dup4\n        /* \"#utility.yul\":26851:26855   */\n      dup4\n        /* \"#utility.yul\":26832:26861   */\n      tag_430\n      jump\t// in\n    tag_723:\n        /* \"#utility.yul\":26824:26861   */\n      swap2\n      pop\n        /* \"#utility.yul\":26894:26897   */\n      dup3\n        /* \"#utility.yul\":26891:26892   */\n      0x02\n        /* \"#utility.yul\":26887:26898   */\n      mul\n        /* \"#utility.yul\":26881:26885   */\n      dup3\n        /* \"#utility.yul\":26878:26899   */\n      or\n        /* \"#utility.yul\":26870:26899   */\n      swap1\n      pop\n        /* \"#utility.yul\":26610:26905   */\n      swap3\n      swap2\n      pop\n      pop\n      jump\t// out\n        /* \"#utility.yul\":26910:28305   */\n    tag_149:\n        /* \"#utility.yul\":27027:27064   */\n      tag_725\n        /* \"#utility.yul\":27060:27063   */\n      dup3\n        /* \"#utility.yul\":27027:27064   */\n      tag_366\n      jump\t// in\n    tag_725:\n        /* \"#utility.yul\":27129:27147   */\n      0xffffffffffffffff\n        /* \"#utility.yul\":27121:27127   */\n      dup2\n        /* \"#utility.yul\":27118:27148   */\n      gt\n        /* \"#utility.yul\":27115:27171   */\n      iszero\n      tag_726\n      jumpi\n        /* \"#utility.yul\":27151:27169   */\n      tag_727\n      tag_396\n      jump\t// in\n    tag_727:\n        /* \"#utility.yul\":27115:27171   */\n    tag_726:\n        /* \"#utility.yul\":27195:27233   */\n      tag_728\n        /* \"#utility.yul\":27227:27231   */\n      dup3\n        /* \"#utility.yul\":27221:27232   */\n      sload\n        /* \"#utility.yul\":27195:27233   */\n      tag_121\n      jump\t// in\n    tag_728:\n        /* \"#utility.yul\":27280:27347   */\n      tag_729\n        /* \"#utility.yul\":27340:27346   */\n      dup3\n        /* \"#utility.yul\":27332:27338   */\n      dup3\n        /* \"#utility.yul\":27326:27330   */\n      dup6\n        /* \"#utility.yul\":27280:27347   */\n      tag_428\n      jump\t// in\n    tag_729:\n        /* \"#utility.yul\":27374:27375   */\n      0x00\n        /* \"#utility.yul\":27398:27402   */\n      0x20\n        /* \"#utility.yul\":27385:27402   */\n      swap1\n      pop\n        /* \"#utility.yul\":27430:27432   */\n      0x1f\n        /* \"#utility.yul\":27422:27428   */\n      dup4\n        /* \"#utility.yul\":27419:27433   */\n      gt\n        /* \"#utility.yul\":27447:27448   */\n      0x01\n        /* \"#utility.yul\":27442:28060   */\n      dup2\n      eq\n      tag_731\n      jumpi\n        /* \"#utility.yul\":28104:28105   */\n      0x00\n        /* \"#utility.yul\":28121:28127   */\n      dup5\n        /* \"#utility.yul\":28118:28195   */\n      iszero\n      tag_732\n      jumpi\n        /* \"#utility.yul\":28170:28179   */\n      dup3\n        /* \"#utility.yul\":28165:28168   */\n      dup8\n        /* \"#utility.yul\":28161:28180   */\n      add\n        /* \"#utility.yul\":28155:28181   */\n      mload\n        /* \"#utility.yul\":28146:28181   */\n      swap1\n      pop\n        /* \"#utility.yul\":28118:28195   */\n    tag_732:\n        /* \"#utility.yul\":28221:28288   */\n      tag_733\n        /* \"#utility.yul\":28281:28287   */\n      dup6\n        /* \"#utility.yul\":28274:28279   */\n      dup3\n        /* \"#utility.yul\":28221:28288   */\n      tag_431\n      jump\t// in\n    tag_733:\n        /* \"#utility.yul\":28215:28219   */\n      dup7\n        /* \"#utility.yul\":28208:28289   */\n      sstore\n        /* \"#utility.yul\":28077:28299   */\n      pop\n        /* \"#utility.yul\":27412:28299   */\n      jump(tag_730)\n        /* \"#utility.yul\":27442:28060   */\n    tag_731:\n        /* \"#utility.yul\":27494:27498   */\n      0x1f\n        /* \"#utility.yul\":27490:27499   */\n      not\n        /* \"#utility.yul\":27482:27488   */\n      dup5\n        /* \"#utility.yul\":27478:27500   */\n      and\n        /* \"#utility.yul\":27528:27565   */\n      tag_734\n        /* \"#utility.yul\":27560:27564   */\n      dup7\n        /* \"#utility.yul\":27528:27565   */\n      tag_417\n      jump\t// in\n    tag_734:\n        /* \"#utility.yul\":27587:27588   */\n      0x00\n        /* \"#utility.yul\":27601:27809   */\n    tag_735:\n        /* \"#utility.yul\":27615:27622   */\n      dup3\n        /* \"#utility.yul\":27612:27613   */\n      dup2\n        /* \"#utility.yul\":27609:27623   */\n      lt\n        /* \"#utility.yul\":27601:27809   */\n      iszero\n      tag_737\n      jumpi\n        /* \"#utility.yul\":27694:27703   */\n      dup5\n        /* \"#utility.yul\":27689:27692   */\n      dup10\n        /* \"#utility.yul\":27685:27704   */\n      add\n        /* \"#utility.yul\":27679:27705   */\n      mload\n        /* \"#utility.yul\":27671:27677   */\n      dup3\n        /* \"#utility.yul\":27664:27706   */\n      sstore\n        /* \"#utility.yul\":27745:27746   */\n      0x01\n        /* \"#utility.yul\":27737:27743   */\n      dup3\n        /* \"#utility.yul\":27733:27747   */\n      add\n        /* \"#utility.yul\":27723:27747   */\n      swap2\n      pop\n        /* \"#utility.yul\":27792:27794   */\n      0x20\n        /* \"#utility.yul\":27781:27790   */\n      dup6\n        /* \"#utility.yul\":27777:27795   */\n      add\n        /* \"#utility.yul\":27764:27795   */\n      swap5\n      pop\n        /* \"#utility.yul\":27638:27642   */\n      0x20\n        /* \"#utility.yul\":27635:27636   */\n      dup2\n        /* \"#utility.yul\":27631:27643   */\n      add\n        /* \"#utility.yul\":27626:27643   */\n      swap1\n      pop\n        /* \"#utility.yul\":27601:27809   */\n      jump(tag_735)\n    tag_737:\n        /* \"#utility.yul\":27837:27843   */\n      dup7\n        /* \"#utility.yul\":27828:27835   */\n      dup4\n        /* \"#utility.yul\":27825:27844   */\n      lt\n        /* \"#utility.yul\":27822:28001   */\n      iszero\n      tag_738\n      jumpi\n        /* \"#utility.yul\":27895:27904   */\n      dup5\n        /* \"#utility.yul\":27890:27893   */\n      dup10\n        /* \"#utility.yul\":27886:27905   */\n      add\n        /* \"#utility.yul\":27880:27906   */\n      mload\n        /* \"#utility.yul\":27938:27986   */\n      tag_739\n        /* \"#utility.yul\":27980:27984   */\n      0x1f\n        /* \"#utility.yul\":27972:27978   */\n      dup10\n        /* \"#utility.yul\":27968:27985   */\n      and\n        /* \"#utility.yul\":27957:27966   */\n      dup3\n        /* \"#utility.yul\":27938:27986   */\n      tag_430\n      jump\t// in\n    tag_739:\n        /* \"#utility.yul\":27930:27936   */\n      dup4\n        /* \"#utility.yul\":27923:27987   */\n      sstore\n        /* \"#utility.yul\":27845:28001   */\n      pop\n        /* \"#utility.yul\":27822:28001   */\n    tag_738:\n        /* \"#utility.yul\":28047:28048   */\n      0x01\n        /* \"#utility.yul\":28043:28044   */\n      0x02\n        /* \"#utility.yul\":28035:28041   */\n      dup9\n        /* \"#utility.yul\":28031:28045   */\n      mul\n        /* \"#utility.yul\":28027:28049   */\n      add\n        /* \"#utility.yul\":28021:28025   */\n      dup9\n        /* \"#utility.yul\":28014:28050   */\n      sstore\n        /* \"#utility.yul\":27449:28060   */\n      pop\n      pop\n      pop\n        /* \"#utility.yul\":27412:28299   */\n    tag_730:\n      pop\n        /* \"#utility.yul\":27002:28305   */\n      pop\n      pop\n      pop\n        /* \"#utility.yul\":26910:28305   */\n      pop\n      pop\n      jump\t// out\n        /* \"#utility.yul\":28335:28652   */\n    tag_432:\n        /* \"#utility.yul\":28433:28436   */\n      0x00\n        /* \"#utility.yul\":28454:28525   */\n      tag_741\n        /* \"#utility.yul\":28518:28524   */\n      dup4\n        /* \"#utility.yul\":28513:28516   */\n      dup6\n        /* \"#utility.yul\":28454:28525   */\n      tag_367\n      jump\t// in\n    tag_741:\n        /* \"#utility.yul\":28447:28525   */\n      swap4\n      pop\n        /* \"#utility.yul\":28535:28591   */\n      tag_742\n        /* \"#utility.yul\":28584:28590   */\n      dup4\n        /* \"#utility.yul\":28579:28582   */\n      dup6\n        /* \"#utility.yul\":28572:28577   */\n      dup5\n        /* \"#utility.yul\":28535:28591   */\n      tag_400\n      jump\t// in\n    tag_742:\n        /* \"#utility.yul\":28616:28645   */\n      tag_743\n        /* \"#utility.yul\":28638:28644   */\n      dup4\n        /* \"#utility.yul\":28616:28645   */\n      tag_369\n      jump\t// in\n    tag_743:\n        /* \"#utility.yul\":28611:28614   */\n      dup5\n        /* \"#utility.yul\":28607:28646   */\n      add\n        /* \"#utility.yul\":28600:28646   */\n      swap1\n      pop\n        /* \"#utility.yul\":28335:28652   */\n      swap4\n      swap3\n      pop\n      pop\n      pop\n      jump\t// out\n        /* \"#utility.yul\":28658:29211   */\n    tag_151:\n        /* \"#utility.yul\":28837:28841   */\n      0x00\n        /* \"#utility.yul\":28875:28877   */\n      0x60\n        /* \"#utility.yul\":28864:28873   */\n      dup3\n        /* \"#utility.yul\":28860:28878   */\n      add\n        /* \"#utility.yul\":28852:28878   */\n      swap1\n      pop\n        /* \"#utility.yul\":28888:28959   */\n      tag_745\n        /* \"#utility.yul\":28956:28957   */\n      0x00\n        /* \"#utility.yul\":28945:28954   */\n      dup4\n        /* \"#utility.yul\":28941:28958   */\n      add\n        /* \"#utility.yul\":28932:28938   */\n      dup8\n        /* \"#utility.yul\":28888:28959   */\n      tag_375\n      jump\t// in\n    tag_745:\n        /* \"#utility.yul\":29006:29015   */\n      dup2\n        /* \"#utility.yul\":29000:29004   */\n      dup2\n        /* \"#utility.yul\":28996:29016   */\n      sub\n        /* \"#utility.yul\":28991:28993   */\n      0x20\n        /* \"#utility.yul\":28980:28989   */\n      dup4\n        /* \"#utility.yul\":28976:28994   */\n      add\n        /* \"#utility.yul\":28969:29017   */\n      mstore\n        /* \"#utility.yul\":29034:29122   */\n      tag_746\n        /* \"#utility.yul\":29117:29121   */\n      dup2\n        /* \"#utility.yul\":29108:29114   */\n      dup6\n        /* \"#utility.yul\":29100:29106   */\n      dup8\n        /* \"#utility.yul\":29034:29122   */\n      tag_432\n      jump\t// in\n    tag_746:\n        /* \"#utility.yul\":29026:29122   */\n      swap1\n      pop\n        /* \"#utility.yul\":29132:29204   */\n      tag_747\n        /* \"#utility.yul\":29200:29202   */\n      0x40\n        /* \"#utility.yul\":29189:29198   */\n      dup4\n        /* \"#utility.yul\":29185:29203   */\n      add\n        /* \"#utility.yul\":29176:29182   */\n      dup5\n        /* \"#utility.yul\":29132:29204   */\n      tag_375\n      jump\t// in\n    tag_747:\n        /* \"#utility.yul\":28658:29211   */\n      swap6\n      swap5\n      pop\n      pop\n      pop\n      pop\n      pop\n      jump\t// out\n        /* \"#utility.yul\":29217:29770   */\n    tag_170:\n        /* \"#utility.yul\":29396:29400   */\n      0x00\n        /* \"#utility.yul\":29434:29436   */\n      0x60\n        /* \"#utility.yul\":29423:29432   */\n      dup3\n        /* \"#utility.yul\":29419:29437   */\n      add\n        /* \"#utility.yul\":29411:29437   */\n      swap1\n      pop\n        /* \"#utility.yul\":29447:29518   */\n      tag_749\n        /* \"#utility.yul\":29515:29516   */\n      0x00\n        /* \"#utility.yul\":29504:29513   */\n      dup4\n        /* \"#utility.yul\":29500:29517   */\n      add\n        /* \"#utility.yul\":29491:29497   */\n      dup8\n        /* \"#utility.yul\":29447:29518   */\n      tag_373\n      jump\t// in\n    tag_749:\n        /* \"#utility.yul\":29528:29600   */\n      tag_750\n        /* \"#utility.yul\":29596:29598   */\n      0x20\n        /* \"#utility.yul\":29585:29594   */\n      dup4\n        /* \"#utility.yul\":29581:29599   */\n      add\n        /* \"#utility.yul\":29572:29578   */\n      dup7\n        /* \"#utility.yul\":29528:29600   */\n      tag_365\n      jump\t// in\n    tag_750:\n        /* \"#utility.yul\":29647:29656   */\n      dup2\n        /* \"#utility.yul\":29641:29645   */\n      dup2\n        /* \"#utility.yul\":29637:29657   */\n      sub\n        /* \"#utility.yul\":29632:29634   */\n      0x40\n        /* \"#utility.yul\":29621:29630   */\n      dup4\n        /* \"#utility.yul\":29617:29635   */\n      add\n        /* \"#utility.yul\":29610:29658   */\n      mstore\n        /* \"#utility.yul\":29675:29763   */\n      tag_751\n        /* \"#utility.yul\":29758:29762   */\n      dup2\n        /* \"#utility.yul\":29749:29755   */\n      dup5\n        /* \"#utility.yul\":29741:29747   */\n      dup7\n        /* \"#utility.yul\":29675:29763   */\n      tag_432\n      jump\t// in\n    tag_751:\n        /* \"#utility.yul\":29667:29763   */\n      swap1\n      pop\n        /* \"#utility.yul\":29217:29770   */\n      swap6\n      swap5\n      pop\n      pop\n      pop\n      pop\n      pop\n      jump\t// out\n        /* \"#utility.yul\":29776:30531   */\n    tag_173:\n        /* \"#utility.yul\":30001:30005   */\n      0x00\n        /* \"#utility.yul\":30039:30042   */\n      0xa0\n        /* \"#utility.yul\":30028:30037   */\n      dup3\n        /* \"#utility.yul\":30024:30043   */\n      add\n        /* \"#utility.yul\":30016:30043   */\n      swap1\n      pop\n        /* \"#utility.yul\":30089:30098   */\n      dup2\n        /* \"#utility.yul\":30083:30087   */\n      dup2\n        /* \"#utility.yul\":30079:30099   */\n      sub\n        /* \"#utility.yul\":30075:30076   */\n      0x00\n        /* \"#utility.yul\":30064:30073   */\n      dup4\n        /* \"#utility.yul\":30060:30077   */\n      add\n        /* \"#utility.yul\":30053:30100   */\n      mstore\n        /* \"#utility.yul\":30117:30195   */\n      tag_753\n        /* \"#utility.yul\":30190:30194   */\n      dup2\n        /* \"#utility.yul\":30181:30187   */\n      dup9\n        /* \"#utility.yul\":30117:30195   */\n      tag_370\n      jump\t// in\n    tag_753:\n        /* \"#utility.yul\":30109:30195   */\n      swap1\n      pop\n        /* \"#utility.yul\":30205:30277   */\n      tag_754\n        /* \"#utility.yul\":30273:30275   */\n      0x20\n        /* \"#utility.yul\":30262:30271   */\n      dup4\n        /* \"#utility.yul\":30258:30276   */\n      add\n        /* \"#utility.yul\":30249:30255   */\n      dup8\n        /* \"#utility.yul\":30205:30277   */\n      tag_373\n      jump\t// in\n    tag_754:\n        /* \"#utility.yul\":30287:30359   */\n      tag_755\n        /* \"#utility.yul\":30355:30357   */\n      0x40\n        /* \"#utility.yul\":30344:30353   */\n      dup4\n        /* \"#utility.yul\":30340:30358   */\n      add\n        /* \"#utility.yul\":30331:30337   */\n      dup7\n        /* \"#utility.yul\":30287:30359   */\n      tag_373\n      jump\t// in\n    tag_755:\n        /* \"#utility.yul\":30369:30441   */\n      tag_756\n        /* \"#utility.yul\":30437:30439   */\n      0x60\n        /* \"#utility.yul\":30426:30435   */\n      dup4\n        /* \"#utility.yul\":30422:30440   */\n      add\n        /* \"#utility.yul\":30413:30419   */\n      dup6\n        /* \"#utility.yul\":30369:30441   */\n      tag_375\n      jump\t// in\n    tag_756:\n        /* \"#utility.yul\":30451:30524   */\n      tag_757\n        /* \"#utility.yul\":30519:30522   */\n      0x80\n        /* \"#utility.yul\":30508:30517   */\n      dup4\n        /* \"#utility.yul\":30504:30523   */\n      add\n        /* \"#utility.yul\":30495:30501   */\n      dup5\n        /* \"#utility.yul\":30451:30524   */\n      tag_375\n      jump\t// in\n    tag_757:\n        /* \"#utility.yul\":29776:30531   */\n      swap7\n      swap6\n      pop\n      pop\n      pop\n      pop\n      pop\n      pop\n      jump\t// out\n        /* \"#utility.yul\":30537:30761   */\n    tag_433:\n        /* \"#utility.yul\":30677:30711   */\n      0x54686973206465706f73697420686173206265656e20636c61696d656420616c\n        /* \"#utility.yul\":30673:30674   */\n      0x00\n        /* \"#utility.yul\":30665:30671   */\n      dup3\n        /* \"#utility.yul\":30661:30675   */\n      add\n        /* \"#utility.yul\":30654:30712   */\n      mstore\n        /* \"#utility.yul\":30746:30753   */\n      0x7265616479000000000000000000000000000000000000000000000000000000\n        /* \"#utility.yul\":30741:30743   */\n      0x20\n        /* \"#utility.yul\":30733:30739   */\n      dup3\n        /* \"#utility.yul\":30729:30744   */\n      add\n        /* \"#utility.yul\":30722:30754   */\n      mstore\n        /* \"#utility.yul\":30537:30761   */\n      pop\n      jump\t// out\n        /* \"#utility.yul\":30767:31133   */\n    tag_434:\n        /* \"#utility.yul\":30909:30912   */\n      0x00\n        /* \"#utility.yul\":30930:30997   */\n      tag_760\n        /* \"#utility.yul\":30994:30996   */\n      0x25\n        /* \"#utility.yul\":30989:30992   */\n      dup4\n        /* \"#utility.yul\":30930:30997   */\n      tag_367\n      jump\t// in\n    tag_760:\n        /* \"#utility.yul\":30923:30997   */\n      swap2\n      pop\n        /* \"#utility.yul\":31006:31099   */\n      tag_761\n        /* \"#utility.yul\":31095:31098   */\n      dup3\n        /* \"#utility.yul\":31006:31099   */\n      tag_433\n      jump\t// in\n    tag_761:\n        /* \"#utility.yul\":31124:31126   */\n      0x40\n        /* \"#utility.yul\":31119:31122   */\n      dup3\n        /* \"#utility.yul\":31115:31127   */\n      add\n        /* \"#utility.yul\":31108:31127   */\n      swap1\n      pop\n        /* \"#utility.yul\":30767:31133   */\n      swap2\n      swap1\n      pop\n      jump\t// out\n        /* \"#utility.yul\":31139:31558   */\n    tag_182:\n        /* \"#utility.yul\":31305:31309   */\n      0x00\n        /* \"#utility.yul\":31343:31345   */\n      0x20\n        /* \"#utility.yul\":31332:31341   */\n      dup3\n        /* \"#utility.yul\":31328:31346   */\n      add\n        /* \"#utility.yul\":31320:31346   */\n      swap1\n      pop\n        /* \"#utility.yul\":31392:31401   */\n      dup2\n        /* \"#utility.yul\":31386:31390   */\n      dup2\n        /* \"#utility.yul\":31382:31402   */\n      sub\n        /* \"#utility.yul\":31378:31379   */\n      0x00\n        /* \"#utility.yul\":31367:31376   */\n      dup4\n        /* \"#utility.yul\":31363:31380   */\n      add\n        /* \"#utility.yul\":31356:31403   */\n      mstore\n        /* \"#utility.yul\":31420:31551   */\n      tag_763\n        /* \"#utility.yul\":31546:31550   */\n      dup2\n        /* \"#utility.yul\":31420:31551   */\n      tag_434\n      jump\t// in\n    tag_763:\n        /* \"#utility.yul\":31412:31551   */\n      swap1\n      pop\n        /* \"#utility.yul\":31139:31558   */\n      swap2\n      swap1\n      pop\n      jump\t// out\n        /* \"#utility.yul\":31564:31744   */\n    tag_185:\n        /* \"#utility.yul\":31612:31689   */\n      0x4e487b7100000000000000000000000000000000000000000000000000000000\n        /* \"#utility.yul\":31609:31610   */\n      0x00\n        /* \"#utility.yul\":31602:31690   */\n      mstore\n        /* \"#utility.yul\":31709:31713   */\n      0x32\n        /* \"#utility.yul\":31706:31707   */\n      0x04\n        /* \"#utility.yul\":31699:31714   */\n      mstore\n        /* \"#utility.yul\":31733:31737   */\n      0x24\n        /* \"#utility.yul\":31730:31731   */\n      0x00\n        /* \"#utility.yul\":31723:31738   */\n      revert\n        /* \"#utility.yul\":31750:31914   */\n    tag_435:\n        /* \"#utility.yul\":31890:31906   */\n      0x4e6f745175657565644572726f72000000000000000000000000000000000000\n        /* \"#utility.yul\":31886:31887   */\n      0x00\n        /* \"#utility.yul\":31878:31884   */\n      dup3\n        /* \"#utility.yul\":31874:31888   */\n      add\n        /* \"#utility.yul\":31867:31907   */\n      mstore\n        /* \"#utility.yul\":31750:31914   */\n      pop\n      jump\t// out\n        /* \"#utility.yul\":31920:32286   */\n    tag_436:\n        /* \"#utility.yul\":32062:32065   */\n      0x00\n        /* \"#utility.yul\":32083:32150   */\n      tag_767\n        /* \"#utility.yul\":32147:32149   */\n      0x0e\n        /* \"#utility.yul\":32142:32145   */\n      dup4\n        /* \"#utility.yul\":32083:32150   */\n      tag_367\n      jump\t// in\n    tag_767:\n        /* \"#utility.yul\":32076:32150   */\n      swap2\n      pop\n        /* \"#utility.yul\":32159:32252   */\n      tag_768\n        /* \"#utility.yul\":32248:32251   */\n      dup3\n        /* \"#utility.yul\":32159:32252   */\n      tag_435\n      jump\t// in\n    tag_768:\n        /* \"#utility.yul\":32277:32279   */\n      0x20\n        /* \"#utility.yul\":32272:32275   */\n      dup3\n        /* \"#utility.yul\":32268:32280   */\n      add\n        /* \"#utility.yul\":32261:32280   */\n      swap1\n      pop\n        /* \"#utility.yul\":31920:32286   */\n      swap2\n      swap1\n      pop\n      jump\t// out\n        /* \"#utility.yul\":32292:32711   */\n    tag_196:\n        /* \"#utility.yul\":32458:32462   */\n      0x00\n        /* \"#utility.yul\":32496:32498   */\n      0x20\n        /* \"#utility.yul\":32485:32494   */\n      dup3\n        /* \"#utility.yul\":32481:32499   */\n      add\n        /* \"#utility.yul\":32473:32499   */\n      swap1\n      pop\n        /* \"#utility.yul\":32545:32554   */\n      dup2\n        /* \"#utility.yul\":32539:32543   */\n      dup2\n        /* \"#utility.yul\":32535:32555   */\n      sub\n        /* \"#utility.yul\":32531:32532   */\n      0x00\n        /* \"#utility.yul\":32520:32529   */\n      dup4\n        /* \"#utility.yul\":32516:32533   */\n      add\n        /* \"#utility.yul\":32509:32556   */\n      mstore\n        /* \"#utility.yul\":32573:32704   */\n      tag_770\n        /* \"#utility.yul\":32699:32703   */\n      dup2\n        /* \"#utility.yul\":32573:32704   */\n      tag_436\n      jump\t// in\n    tag_770:\n        /* \"#utility.yul\":32565:32704   */\n      swap1\n      pop\n        /* \"#utility.yul\":32292:32711   */\n      swap2\n      swap1\n      pop\n      jump\t// out\n        /* \"#utility.yul\":32717:32864   */\n    tag_437:\n        /* \"#utility.yul\":32818:32829   */\n      0x00\n        /* \"#utility.yul\":32855:32858   */\n      dup2\n        /* \"#utility.yul\":32840:32858   */\n      swap1\n      pop\n        /* \"#utility.yul\":32717:32864   */\n      swap3\n      swap2\n      pop\n      pop\n      jump\t// out\n        /* \"#utility.yul\":32870:32984   */\n    tag_438:\n      pop\n      jump\t// out\n        /* \"#utility.yul\":32990:33388   */\n    tag_439:\n        /* \"#utility.yul\":33149:33152   */\n      0x00\n        /* \"#utility.yul\":33170:33253   */\n      tag_774\n        /* \"#utility.yul\":33251:33252   */\n      0x00\n        /* \"#utility.yul\":33246:33249   */\n      dup4\n        /* \"#utility.yul\":33170:33253   */\n      tag_437\n      jump\t// in\n    tag_774:\n        /* \"#utility.yul\":33163:33253   */\n      swap2\n      pop\n        /* \"#utility.yul\":33262:33355   */\n      tag_775\n        /* \"#utility.yul\":33351:33354   */\n      dup3\n        /* \"#utility.yul\":33262:33355   */\n      tag_438\n      jump\t// in\n    tag_775:\n        /* \"#utility.yul\":33380:33381   */\n      0x00\n        /* \"#utility.yul\":33375:33378   */\n      dup3\n        /* \"#utility.yul\":33371:33382   */\n      add\n        /* \"#utility.yul\":33364:33382   */\n      swap1\n      pop\n        /* \"#utility.yul\":32990:33388   */\n      swap2\n      swap1\n      pop\n      jump\t// out\n        /* \"#utility.yul\":33394:33773   */\n    tag_206:\n        /* \"#utility.yul\":33578:33581   */\n      0x00\n        /* \"#utility.yul\":33600:33747   */\n      tag_777\n        /* \"#utility.yul\":33743:33746   */\n      dup3\n        /* \"#utility.yul\":33600:33747   */\n      tag_439\n      jump\t// in\n    tag_777:\n        /* \"#utility.yul\":33593:33747   */\n      swap2\n      pop\n        /* \"#utility.yul\":33764:33767   */\n      dup2\n        /* \"#utility.yul\":33757:33767   */\n      swap1\n      pop\n        /* \"#utility.yul\":33394:33773   */\n      swap2\n      swap1\n      pop\n      jump\t// out\n        /* \"#utility.yul\":33779:33948   */\n    tag_440:\n        /* \"#utility.yul\":33919:33940   */\n      0x5265696d62757273656d656e74204572726f7200000000000000000000000000\n        /* \"#utility.yul\":33915:33916   */\n      0x00\n        /* \"#utility.yul\":33907:33913   */\n      dup3\n        /* \"#utility.yul\":33903:33917   */\n      add\n        /* \"#utility.yul\":33896:33941   */\n      mstore\n        /* \"#utility.yul\":33779:33948   */\n      pop\n      jump\t// out\n        /* \"#utility.yul\":33954:34320   */\n    tag_441:\n        /* \"#utility.yul\":34096:34099   */\n      0x00\n        /* \"#utility.yul\":34117:34184   */\n      tag_780\n        /* \"#utility.yul\":34181:34183   */\n      0x13\n        /* \"#utility.yul\":34176:34179   */\n      dup4\n        /* \"#utility.yul\":34117:34184   */\n      tag_367\n      jump\t// in\n    tag_780:\n        /* \"#utility.yul\":34110:34184   */\n      swap2\n      pop\n        /* \"#utility.yul\":34193:34286   */\n      tag_781\n        /* \"#utility.yul\":34282:34285   */\n      dup3\n        /* \"#utility.yul\":34193:34286   */\n      tag_440\n      jump\t// in\n    tag_781:\n        /* \"#utility.yul\":34311:34313   */\n      0x20\n        /* \"#utility.yul\":34306:34309   */\n      dup3\n        /* \"#utility.yul\":34302:34314   */\n      add\n        /* \"#utility.yul\":34295:34314   */\n      swap1\n      pop\n        /* \"#utility.yul\":33954:34320   */\n      swap2\n      swap1\n      pop\n      jump\t// out\n        /* \"#utility.yul\":34326:34745   */\n    tag_212:\n        /* \"#utility.yul\":34492:34496   */\n      0x00\n        /* \"#utility.yul\":34530:34532   */\n      0x20\n        /* \"#utility.yul\":34519:34528   */\n      dup3\n        /* \"#utility.yul\":34515:34533   */\n      add\n        /* \"#utility.yul\":34507:34533   */\n      swap1\n      pop\n        /* \"#utility.yul\":34579:34588   */\n      dup2\n        /* \"#utility.yul\":34573:34577   */\n      dup2\n        /* \"#utility.yul\":34569:34589   */\n      sub\n        /* \"#utility.yul\":34565:34566   */\n      0x00\n        /* \"#utility.yul\":34554:34563   */\n      dup4\n        /* \"#utility.yul\":34550:34567   */\n      add\n        /* \"#utility.yul\":34543:34590   */\n      mstore\n        /* \"#utility.yul\":34607:34738   */\n      tag_783\n        /* \"#utility.yul\":34733:34737   */\n      dup2\n        /* \"#utility.yul\":34607:34738   */\n      tag_441\n      jump\t// in\n    tag_783:\n        /* \"#utility.yul\":34599:34738   */\n      swap1\n      pop\n        /* \"#utility.yul\":34326:34745   */\n      swap2\n      swap1\n      pop\n      jump\t// out\n        /* \"#utility.yul\":34751:34981   */\n    tag_442:\n        /* \"#utility.yul\":34891:34925   */\n      0x5468652074696d656c6f636b20706572696f642068617320746f20626520696e\n        /* \"#utility.yul\":34887:34888   */\n      0x00\n        /* \"#utility.yul\":34879:34885   */\n      dup3\n        /* \"#utility.yul\":34875:34889   */\n      add\n        /* \"#utility.yul\":34868:34926   */\n      mstore\n        /* \"#utility.yul\":34960:34973   */\n      0x2074686520667574757265000000000000000000000000000000000000000000\n        /* \"#utility.yul\":34955:34957   */\n      0x20\n        /* \"#utility.yul\":34947:34953   */\n      dup3\n        /* \"#utility.yul\":34943:34958   */\n      add\n        /* \"#utility.yul\":34936:34974   */\n      mstore\n        /* \"#utility.yul\":34751:34981   */\n      pop\n      jump\t// out\n        /* \"#utility.yul\":34987:35353   */\n    tag_443:\n        /* \"#utility.yul\":35129:35132   */\n      0x00\n        /* \"#utility.yul\":35150:35217   */\n      tag_786\n        /* \"#utility.yul\":35214:35216   */\n      0x2b\n        /* \"#utility.yul\":35209:35212   */\n      dup4\n        /* \"#utility.yul\":35150:35217   */\n      tag_367\n      jump\t// in\n    tag_786:\n        /* \"#utility.yul\":35143:35217   */\n      swap2\n      pop\n        /* \"#utility.yul\":35226:35319   */\n      tag_787\n        /* \"#utility.yul\":35315:35318   */\n      dup3\n        /* \"#utility.yul\":35226:35319   */\n      tag_442\n      jump\t// in\n    tag_787:\n        /* \"#utility.yul\":35344:35346   */\n      0x40\n        /* \"#utility.yul\":35339:35342   */\n      dup3\n        /* \"#utility.yul\":35335:35347   */\n      add\n        /* \"#utility.yul\":35328:35347   */\n      swap1\n      pop\n        /* \"#utility.yul\":34987:35353   */\n      swap2\n      swap1\n      pop\n      jump\t// out\n        /* \"#utility.yul\":35359:35778   */\n    tag_250:\n        /* \"#utility.yul\":35525:35529   */\n      0x00\n        /* \"#utility.yul\":35563:35565   */\n      0x20\n        /* \"#utility.yul\":35552:35561   */\n      dup3\n        /* \"#utility.yul\":35548:35566   */\n      add\n        /* \"#utility.yul\":35540:35566   */\n      swap1\n      pop\n        /* \"#utility.yul\":35612:35621   */\n      dup2\n        /* \"#utility.yul\":35606:35610   */\n      dup2\n        /* \"#utility.yul\":35602:35622   */\n      sub\n        /* \"#utility.yul\":35598:35599   */\n      0x00\n        /* \"#utility.yul\":35587:35596   */\n      dup4\n        /* \"#utility.yul\":35583:35600   */\n      add\n        /* \"#utility.yul\":35576:35623   */\n      mstore\n        /* \"#utility.yul\":35640:35771   */\n      tag_789\n        /* \"#utility.yul\":35766:35770   */\n      dup2\n        /* \"#utility.yul\":35640:35771   */\n      tag_443\n      jump\t// in\n    tag_789:\n        /* \"#utility.yul\":35632:35771   */\n      swap1\n      pop\n        /* \"#utility.yul\":35359:35778   */\n      swap2\n      swap1\n      pop\n      jump\t// out\n        /* \"#utility.yul\":35784:35948   */\n    tag_444:\n        /* \"#utility.yul\":35924:35940   */\n      0x416d6f756e744c6f774572726f72000000000000000000000000000000000000\n        /* \"#utility.yul\":35920:35921   */\n      0x00\n        /* \"#utility.yul\":35912:35918   */\n      dup3\n        /* \"#utility.yul\":35908:35922   */\n      add\n        /* \"#utility.yul\":35901:35941   */\n      mstore\n        /* \"#utility.yul\":35784:35948   */\n      pop\n      jump\t// out\n        /* \"#utility.yul\":35954:36320   */\n    tag_445:\n        /* \"#utility.yul\":36096:36099   */\n      0x00\n        /* \"#utility.yul\":36117:36184   */\n      tag_792\n        /* \"#utility.yul\":36181:36183   */\n      0x0e\n        /* \"#utility.yul\":36176:36179   */\n      dup4\n        /* \"#utility.yul\":36117:36184   */\n      tag_367\n      jump\t// in\n    tag_792:\n        /* \"#utility.yul\":36110:36184   */\n      swap2\n      pop\n        /* \"#utility.yul\":36193:36286   */\n      tag_793\n        /* \"#utility.yul\":36282:36285   */\n      dup3\n        /* \"#utility.yul\":36193:36286   */\n      tag_444\n      jump\t// in\n    tag_793:\n        /* \"#utility.yul\":36311:36313   */\n      0x20\n        /* \"#utility.yul\":36306:36309   */\n      dup3\n        /* \"#utility.yul\":36302:36314   */\n      add\n        /* \"#utility.yul\":36295:36314   */\n      swap1\n      pop\n        /* \"#utility.yul\":35954:36320   */\n      swap2\n      swap1\n      pop\n      jump\t// out\n        /* \"#utility.yul\":36326:36745   */\n    tag_256:\n        /* \"#utility.yul\":36492:36496   */\n      0x00\n        /* \"#utility.yul\":36530:36532   */\n      0x20\n        /* \"#utility.yul\":36519:36528   */\n      dup3\n        /* \"#utility.yul\":36515:36533   */\n      add\n        /* \"#utility.yul\":36507:36533   */\n      swap1\n      pop\n        /* \"#utility.yul\":36579:36588   */\n      dup2\n        /* \"#utility.yul\":36573:36577   */\n      dup2\n        /* \"#utility.yul\":36569:36589   */\n      sub\n        /* \"#utility.yul\":36565:36566   */\n      0x00\n        /* \"#utility.yul\":36554:36563   */\n      dup4\n        /* \"#utility.yul\":36550:36567   */\n      add\n        /* \"#utility.yul\":36543:36590   */\n      mstore\n        /* \"#utility.yul\":36607:36738   */\n      tag_795\n        /* \"#utility.yul\":36733:36737   */\n      dup2\n        /* \"#utility.yul\":36607:36738   */\n      tag_445\n      jump\t// in\n    tag_795:\n        /* \"#utility.yul\":36599:36738   */\n      swap1\n      pop\n        /* \"#utility.yul\":36326:36745   */\n      swap2\n      swap1\n      pop\n      jump\t// out\n        /* \"#utility.yul\":36751:36920   */\n    tag_446:\n        /* \"#utility.yul\":36891:36912   */\n      0x4e6f4465706f736974466f756e644572726f7200000000000000000000000000\n        /* \"#utility.yul\":36887:36888   */\n      0x00\n        /* \"#utility.yul\":36879:36885   */\n      dup3\n        /* \"#utility.yul\":36875:36889   */\n      add\n        /* \"#utility.yul\":36868:36913   */\n      mstore\n        /* \"#utility.yul\":36751:36920   */\n      pop\n      jump\t// out\n        /* \"#utility.yul\":36926:37292   */\n    tag_447:\n        /* \"#utility.yul\":37068:37071   */\n      0x00\n        /* \"#utility.yul\":37089:37156   */\n      tag_798\n        /* \"#utility.yul\":37153:37155   */\n      0x13\n        /* \"#utility.yul\":37148:37151   */\n      dup4\n        /* \"#utility.yul\":37089:37156   */\n      tag_367\n      jump\t// in\n    tag_798:\n        /* \"#utility.yul\":37082:37156   */\n      swap2\n      pop\n        /* \"#utility.yul\":37165:37258   */\n      tag_799\n        /* \"#utility.yul\":37254:37257   */\n      dup3\n        /* \"#utility.yul\":37165:37258   */\n      tag_446\n      jump\t// in\n    tag_799:\n        /* \"#utility.yul\":37283:37285   */\n      0x20\n        /* \"#utility.yul\":37278:37281   */\n      dup3\n        /* \"#utility.yul\":37274:37286   */\n      add\n        /* \"#utility.yul\":37267:37286   */\n      swap1\n      pop\n        /* \"#utility.yul\":36926:37292   */\n      swap2\n      swap1\n      pop\n      jump\t// out\n        /* \"#utility.yul\":37298:37717   */\n    tag_259:\n        /* \"#utility.yul\":37464:37468   */\n      0x00\n        /* \"#utility.yul\":37502:37504   */\n      0x20\n        /* \"#utility.yul\":37491:37500   */\n      dup3\n        /* \"#utility.yul\":37487:37505   */\n      add\n        /* \"#utility.yul\":37479:37505   */\n      swap1\n      pop\n        /* \"#utility.yul\":37551:37560   */\n      dup2\n        /* \"#utility.yul\":37545:37549   */\n      dup2\n        /* \"#utility.yul\":37541:37561   */\n      sub\n        /* \"#utility.yul\":37537:37538   */\n      0x00\n        /* \"#utility.yul\":37526:37535   */\n      dup4\n        /* \"#utility.yul\":37522:37539   */\n      add\n        /* \"#utility.yul\":37515:37562   */\n      mstore\n        /* \"#utility.yul\":37579:37710   */\n      tag_801\n        /* \"#utility.yul\":37705:37709   */\n      dup2\n        /* \"#utility.yul\":37579:37710   */\n      tag_447\n      jump\t// in\n    tag_801:\n        /* \"#utility.yul\":37571:37710   */\n      swap1\n      pop\n        /* \"#utility.yul\":37298:37717   */\n      swap2\n      swap1\n      pop\n      jump\t// out\n        /* \"#utility.yul\":37723:37917   */\n    tag_262:\n        /* \"#utility.yul\":37763:37767   */\n      0x00\n        /* \"#utility.yul\":37783:37803   */\n      tag_803\n        /* \"#utility.yul\":37801:37802   */\n      dup3\n        /* \"#utility.yul\":37783:37803   */\n      tag_374\n      jump\t// in\n    tag_803:\n        /* \"#utility.yul\":37778:37803   */\n      swap2\n      pop\n        /* \"#utility.yul\":37817:37837   */\n      tag_804\n        /* \"#utility.yul\":37835:37836   */\n      dup4\n        /* \"#utility.yul\":37817:37837   */\n      tag_374\n      jump\t// in\n    tag_804:\n        /* \"#utility.yul\":37812:37837   */\n      swap3\n      pop\n        /* \"#utility.yul\":37861:37862   */\n      dup3\n        /* \"#utility.yul\":37858:37859   */\n      dup3\n        /* \"#utility.yul\":37854:37863   */\n      sub\n        /* \"#utility.yul\":37846:37863   */\n      swap1\n      pop\n        /* \"#utility.yul\":37885:37886   */\n      dup2\n        /* \"#utility.yul\":37879:37883   */\n      dup2\n        /* \"#utility.yul\":37876:37887   */\n      gt\n        /* \"#utility.yul\":37873:37910   */\n      iszero\n      tag_805\n      jumpi\n        /* \"#utility.yul\":37890:37908   */\n      tag_806\n      tag_414\n      jump\t// in\n    tag_806:\n        /* \"#utility.yul\":37873:37910   */\n    tag_805:\n        /* \"#utility.yul\":37723:37917   */\n      swap3\n      swap2\n      pop\n      pop\n      jump\t// out\n        /* \"#utility.yul\":37923:38104   */\n    tag_448:\n        /* \"#utility.yul\":38063:38096   */\n      0x42616c616e6365206c6f772e20546f70757020796f7572206163636f756e7400\n        /* \"#utility.yul\":38059:38060   */\n      0x00\n        /* \"#utility.yul\":38051:38057   */\n      dup3\n        /* \"#utility.yul\":38047:38061   */\n      add\n        /* \"#utility.yul\":38040:38097   */\n      mstore\n        /* \"#utility.yul\":37923:38104   */\n      pop\n      jump\t// out\n        /* \"#utility.yul\":38110:38476   */\n    tag_449:\n        /* \"#utility.yul\":38252:38255   */\n      0x00\n        /* \"#utility.yul\":38273:38340   */\n      tag_809\n        /* \"#utility.yul\":38337:38339   */\n      0x1f\n        /* \"#utility.yul\":38332:38335   */\n      dup4\n        /* \"#utility.yul\":38273:38340   */\n      tag_367\n      jump\t// in\n    tag_809:\n        /* \"#utility.yul\":38266:38340   */\n      swap2\n      pop\n        /* \"#utility.yul\":38349:38442   */\n      tag_810\n        /* \"#utility.yul\":38438:38441   */\n      dup3\n        /* \"#utility.yul\":38349:38442   */\n      tag_448\n      jump\t// in\n    tag_810:\n        /* \"#utility.yul\":38467:38469   */\n      0x20\n        /* \"#utility.yul\":38462:38465   */\n      dup3\n        /* \"#utility.yul\":38458:38470   */\n      add\n        /* \"#utility.yul\":38451:38470   */\n      swap1\n      pop\n        /* \"#utility.yul\":38110:38476   */\n      swap2\n      swap1\n      pop\n      jump\t// out\n        /* \"#utility.yul\":38482:38901   */\n    tag_265:\n        /* \"#utility.yul\":38648:38652   */\n      0x00\n        /* \"#utility.yul\":38686:38688   */\n      0x20\n        /* \"#utility.yul\":38675:38684   */\n      dup3\n        /* \"#utility.yul\":38671:38689   */\n      add\n        /* \"#utility.yul\":38663:38689   */\n      swap1\n      pop\n        /* \"#utility.yul\":38735:38744   */\n      dup2\n        /* \"#utility.yul\":38729:38733   */\n      dup2\n        /* \"#utility.yul\":38725:38745   */\n      sub\n        /* \"#utility.yul\":38721:38722   */\n      0x00\n        /* \"#utility.yul\":38710:38719   */\n      dup4\n        /* \"#utility.yul\":38706:38723   */\n      add\n        /* \"#utility.yul\":38699:38746   */\n      mstore\n        /* \"#utility.yul\":38763:38894   */\n      tag_812\n        /* \"#utility.yul\":38889:38893   */\n      dup2\n        /* \"#utility.yul\":38763:38894   */\n      tag_449\n      jump\t// in\n    tag_812:\n        /* \"#utility.yul\":38755:38894   */\n      swap1\n      pop\n        /* \"#utility.yul\":38482:38901   */\n      swap2\n      swap1\n      pop\n      jump\t// out\n        /* \"#utility.yul\":38907:39077   */\n    tag_450:\n        /* \"#utility.yul\":39047:39069   */\n      0x4661696c656420746f2073656e64204574686572000000000000000000000000\n        /* \"#utility.yul\":39043:39044   */\n      0x00\n        /* \"#utility.yul\":39035:39041   */\n      dup3\n        /* \"#utility.yul\":39031:39045   */\n      add\n        /* \"#utility.yul\":39024:39070   */\n      mstore\n        /* \"#utility.yul\":38907:39077   */\n      pop\n      jump\t// out\n        /* \"#utility.yul\":39083:39449   */\n    tag_451:\n        /* \"#utility.yul\":39225:39228   */\n      0x00\n        /* \"#utility.yul\":39246:39313   */\n      tag_815\n        /* \"#utility.yul\":39310:39312   */\n      0x14\n        /* \"#utility.yul\":39305:39308   */\n      dup4\n        /* \"#utility.yul\":39246:39313   */\n      tag_367\n      jump\t// in\n    tag_815:\n        /* \"#utility.yul\":39239:39313   */\n      swap2\n      pop\n        /* \"#utility.yul\":39322:39415   */\n      tag_816\n        /* \"#utility.yul\":39411:39414   */\n      dup3\n        /* \"#utility.yul\":39322:39415   */\n      tag_450\n      jump\t// in\n    tag_816:\n        /* \"#utility.yul\":39440:39442   */\n      0x20\n        /* \"#utility.yul\":39435:39438   */\n      dup3\n        /* \"#utility.yul\":39431:39443   */\n      add\n        /* \"#utility.yul\":39424:39443   */\n      swap1\n      pop\n        /* \"#utility.yul\":39083:39449   */\n      swap2\n      swap1\n      pop\n      jump\t// out\n        /* \"#utility.yul\":39455:39874   */\n    tag_273:\n        /* \"#utility.yul\":39621:39625   */\n      0x00\n        /* \"#utility.yul\":39659:39661   */\n      0x20\n        /* \"#utility.yul\":39648:39657   */\n      dup3\n        /* \"#utility.yul\":39644:39662   */\n      add\n        /* \"#utility.yul\":39636:39662   */\n      swap1\n      pop\n        /* \"#utility.yul\":39708:39717   */\n      dup2\n        /* \"#utility.yul\":39702:39706   */\n      dup2\n        /* \"#utility.yul\":39698:39718   */\n      sub\n        /* \"#utility.yul\":39694:39695   */\n      0x00\n        /* \"#utility.yul\":39683:39692   */\n      dup4\n        /* \"#utility.yul\":39679:39696   */\n      add\n        /* \"#utility.yul\":39672:39719   */\n      mstore\n        /* \"#utility.yul\":39736:39867   */\n      tag_818\n        /* \"#utility.yul\":39862:39866   */\n      dup2\n        /* \"#utility.yul\":39736:39867   */\n      tag_451\n      jump\t// in\n    tag_818:\n        /* \"#utility.yul\":39728:39867   */\n      swap1\n      pop\n        /* \"#utility.yul\":39455:39874   */\n      swap2\n      swap1\n      pop\n      jump\t// out\n        /* \"#utility.yul\":39880:40110   */\n    tag_452:\n        /* \"#utility.yul\":40020:40054   */\n      0x5468657265206973206e6f206465706f736974206173736f6369617465642077\n        /* \"#utility.yul\":40016:40017   */\n      0x00\n        /* \"#utility.yul\":40008:40014   */\n      dup3\n        /* \"#utility.yul\":40004:40018   */\n      add\n        /* \"#utility.yul\":39997:40055   */\n      mstore\n        /* \"#utility.yul\":40089:40102   */\n      0x6974682074686973206964000000000000000000000000000000000000000000\n        /* \"#utility.yul\":40084:40086   */\n      0x20\n        /* \"#utility.yul\":40076:40082   */\n      dup3\n        /* \"#utility.yul\":40072:40087   */\n      add\n        /* \"#utility.yul\":40065:40103   */\n      mstore\n        /* \"#utility.yul\":39880:40110   */\n      pop\n      jump\t// out\n        /* \"#utility.yul\":40116:40482   */\n    tag_453:\n        /* \"#utility.yul\":40258:40261   */\n      0x00\n        /* \"#utility.yul\":40279:40346   */\n      tag_821\n        /* \"#utility.yul\":40343:40345   */\n      0x2b\n        /* \"#utility.yul\":40338:40341   */\n      dup4\n        /* \"#utility.yul\":40279:40346   */\n      tag_367\n      jump\t// in\n    tag_821:\n        /* \"#utility.yul\":40272:40346   */\n      swap2\n      pop\n        /* \"#utility.yul\":40355:40448   */\n      tag_822\n        /* \"#utility.yul\":40444:40447   */\n      dup3\n        /* \"#utility.yul\":40355:40448   */\n      tag_452\n      jump\t// in\n    tag_822:\n        /* \"#utility.yul\":40473:40475   */\n      0x40\n        /* \"#utility.yul\":40468:40471   */\n      dup3\n        /* \"#utility.yul\":40464:40476   */\n      add\n        /* \"#utility.yul\":40457:40476   */\n      swap1\n      pop\n        /* \"#utility.yul\":40116:40482   */\n      swap2\n      swap1\n      pop\n      jump\t// out\n        /* \"#utility.yul\":40488:40907   */\n    tag_286:\n        /* \"#utility.yul\":40654:40658   */\n      0x00\n        /* \"#utility.yul\":40692:40694   */\n      0x20\n        /* \"#utility.yul\":40681:40690   */\n      dup3\n        /* \"#utility.yul\":40677:40695   */\n      add\n        /* \"#utility.yul\":40669:40695   */\n      swap1\n      pop\n        /* \"#utility.yul\":40741:40750   */\n      dup2\n        /* \"#utility.yul\":40735:40739   */\n      dup2\n        /* \"#utility.yul\":40731:40751   */\n      sub\n        /* \"#utility.yul\":40727:40728   */\n      0x00\n        /* \"#utility.yul\":40716:40725   */\n      dup4\n        /* \"#utility.yul\":40712:40729   */\n      add\n        /* \"#utility.yul\":40705:40752   */\n      mstore\n        /* \"#utility.yul\":40769:40900   */\n      tag_824\n        /* \"#utility.yul\":40895:40899   */\n      dup2\n        /* \"#utility.yul\":40769:40900   */\n      tag_453\n      jump\t// in\n    tag_824:\n        /* \"#utility.yul\":40761:40900   */\n      swap1\n      pop\n        /* \"#utility.yul\":40488:40907   */\n      swap2\n      swap1\n      pop\n      jump\t// out\n        /* \"#utility.yul\":40913:41446   */\n    tag_290:\n        /* \"#utility.yul\":41082:41086   */\n      0x00\n        /* \"#utility.yul\":41120:41122   */\n      0x60\n        /* \"#utility.yul\":41109:41118   */\n      dup3\n        /* \"#utility.yul\":41105:41123   */\n      add\n        /* \"#utility.yul\":41097:41123   */\n      swap1\n      pop\n        /* \"#utility.yul\":41169:41178   */\n      dup2\n        /* \"#utility.yul\":41163:41167   */\n      dup2\n        /* \"#utility.yul\":41159:41179   */\n      sub\n        /* \"#utility.yul\":41155:41156   */\n      0x00\n        /* \"#utility.yul\":41144:41153   */\n      dup4\n        /* \"#utility.yul\":41140:41157   */\n      add\n        /* \"#utility.yul\":41133:41180   */\n      mstore\n        /* \"#utility.yul\":41197:41275   */\n      tag_826\n        /* \"#utility.yul\":41270:41274   */\n      dup2\n        /* \"#utility.yul\":41261:41267   */\n      dup7\n        /* \"#utility.yul\":41197:41275   */\n      tag_370\n      jump\t// in\n    tag_826:\n        /* \"#utility.yul\":41189:41275   */\n      swap1\n      pop\n        /* \"#utility.yul\":41285:41357   */\n      tag_827\n        /* \"#utility.yul\":41353:41355   */\n      0x20\n        /* \"#utility.yul\":41342:41351   */\n      dup4\n        /* \"#utility.yul\":41338:41356   */\n      add\n        /* \"#utility.yul\":41329:41335   */\n      dup6\n        /* \"#utility.yul\":41285:41357   */\n      tag_375\n      jump\t// in\n    tag_827:\n        /* \"#utility.yul\":41367:41439   */\n      tag_828\n        /* \"#utility.yul\":41435:41437   */\n      0x40\n        /* \"#utility.yul\":41424:41433   */\n      dup4\n        /* \"#utility.yul\":41420:41438   */\n      add\n        /* \"#utility.yul\":41411:41417   */\n      dup5\n        /* \"#utility.yul\":41367:41439   */\n      tag_375\n      jump\t// in\n    tag_828:\n        /* \"#utility.yul\":40913:41446   */\n      swap5\n      swap4\n      pop\n      pop\n      pop\n      pop\n      jump\t// out\n        /* \"#utility.yul\":41452:41625   */\n    tag_454:\n        /* \"#utility.yul\":41592:41617   */\n      0x54696d657374616d704e6f745061737365644572726f72000000000000000000\n        /* \"#utility.yul\":41588:41589   */\n      0x00\n        /* \"#utility.yul\":41580:41586   */\n      dup3\n        /* \"#utility.yul\":41576:41590   */\n      add\n        /* \"#utility.yul\":41569:41618   */\n      mstore\n        /* \"#utility.yul\":41452:41625   */\n      pop\n      jump\t// out\n        /* \"#utility.yul\":41631:41997   */\n    tag_455:\n        /* \"#utility.yul\":41773:41776   */\n      0x00\n        /* \"#utility.yul\":41794:41861   */\n      tag_831\n        /* \"#utility.yul\":41858:41860   */\n      0x17\n        /* \"#utility.yul\":41853:41856   */\n      dup4\n        /* \"#utility.yul\":41794:41861   */\n      tag_367\n      jump\t// in\n    tag_831:\n        /* \"#utility.yul\":41787:41861   */\n      swap2\n      pop\n        /* \"#utility.yul\":41870:41963   */\n      tag_832\n        /* \"#utility.yul\":41959:41962   */\n      dup3\n        /* \"#utility.yul\":41870:41963   */\n      tag_454\n      jump\t// in\n    tag_832:\n        /* \"#utility.yul\":41988:41990   */\n      0x20\n        /* \"#utility.yul\":41983:41986   */\n      dup3\n        /* \"#utility.yul\":41979:41991   */\n      add\n        /* \"#utility.yul\":41972:41991   */\n      swap1\n      pop\n        /* \"#utility.yul\":41631:41997   */\n      swap2\n      swap1\n      pop\n      jump\t// out\n        /* \"#utility.yul\":42003:42422   */\n    tag_305:\n        /* \"#utility.yul\":42169:42173   */\n      0x00\n        /* \"#utility.yul\":42207:42209   */\n      0x20\n        /* \"#utility.yul\":42196:42205   */\n      dup3\n        /* \"#utility.yul\":42192:42210   */\n      add\n        /* \"#utility.yul\":42184:42210   */\n      swap1\n      pop\n        /* \"#utility.yul\":42256:42265   */\n      dup2\n        /* \"#utility.yul\":42250:42254   */\n      dup2\n        /* \"#utility.yul\":42246:42266   */\n      sub\n        /* \"#utility.yul\":42242:42243   */\n      0x00\n        /* \"#utility.yul\":42231:42240   */\n      dup4\n        /* \"#utility.yul\":42227:42244   */\n      add\n        /* \"#utility.yul\":42220:42267   */\n      mstore\n        /* \"#utility.yul\":42284:42415   */\n      tag_834\n        /* \"#utility.yul\":42410:42414   */\n      dup2\n        /* \"#utility.yul\":42284:42415   */\n      tag_455\n      jump\t// in\n    tag_834:\n        /* \"#utility.yul\":42276:42415   */\n      swap1\n      pop\n        /* \"#utility.yul\":42003:42422   */\n      swap2\n      swap1\n      pop\n      jump\t// out\n        /* \"#utility.yul\":42428:42599   */\n    tag_456:\n        /* \"#utility.yul\":42568:42591   */\n      0x54696d657374616d70457870697265644572726f720000000000000000000000\n        /* \"#utility.yul\":42564:42565   */\n      0x00\n        /* \"#utility.yul\":42556:42562   */\n      dup3\n        /* \"#utility.yul\":42552:42566   */\n      add\n        /* \"#utility.yul\":42545:42592   */\n      mstore\n        /* \"#utility.yul\":42428:42599   */\n      pop\n      jump\t// out\n        /* \"#utility.yul\":42605:42971   */\n    tag_457:\n        /* \"#utility.yul\":42747:42750   */\n      0x00\n        /* \"#utility.yul\":42768:42835   */\n      tag_837\n        /* \"#utility.yul\":42832:42834   */\n      0x15\n        /* \"#utility.yul\":42827:42830   */\n      dup4\n        /* \"#utility.yul\":42768:42835   */\n      tag_367\n      jump\t// in\n    tag_837:\n        /* \"#utility.yul\":42761:42835   */\n      swap2\n      pop\n        /* \"#utility.yul\":42844:42937   */\n      tag_838\n        /* \"#utility.yul\":42933:42936   */\n      dup3\n        /* \"#utility.yul\":42844:42937   */\n      tag_456\n      jump\t// in\n    tag_838:\n        /* \"#utility.yul\":42962:42964   */\n      0x20\n        /* \"#utility.yul\":42957:42960   */\n      dup3\n        /* \"#utility.yul\":42953:42965   */\n      add\n        /* \"#utility.yul\":42946:42965   */\n      swap1\n      pop\n        /* \"#utility.yul\":42605:42971   */\n      swap2\n      swap1\n      pop\n      jump\t// out\n        /* \"#utility.yul\":42977:43396   */\n    tag_309:\n        /* \"#utility.yul\":43143:43147   */\n      0x00\n        /* \"#utility.yul\":43181:43183   */\n      0x20\n        /* \"#utility.yul\":43170:43179   */\n      dup3\n        /* \"#utility.yul\":43166:43184   */\n      add\n        /* \"#utility.yul\":43158:43184   */\n      swap1\n      pop\n        /* \"#utility.yul\":43230:43239   */\n      dup2\n        /* \"#utility.yul\":43224:43228   */\n      dup2\n        /* \"#utility.yul\":43220:43240   */\n      sub\n        /* \"#utility.yul\":43216:43217   */\n      0x00\n        /* \"#utility.yul\":43205:43214   */\n      dup4\n        /* \"#utility.yul\":43201:43218   */\n      add\n        /* \"#utility.yul\":43194:43241   */\n      mstore\n        /* \"#utility.yul\":43258:43389   */\n      tag_840\n        /* \"#utility.yul\":43384:43388   */\n      dup2\n        /* \"#utility.yul\":43258:43389   */\n      tag_457\n      jump\t// in\n    tag_840:\n        /* \"#utility.yul\":43250:43389   */\n      swap1\n      pop\n        /* \"#utility.yul\":42977:43396   */\n      swap2\n      swap1\n      pop\n      jump\t// out\n        /* \"#utility.yul\":43424:43751   */\n    tag_458:\n        /* \"#utility.yul\":43538:43541   */\n      0x00\n        /* \"#utility.yul\":43559:43647   */\n      tag_842\n        /* \"#utility.yul\":43640:43646   */\n      dup4\n        /* \"#utility.yul\":43635:43638   */\n      dup6\n        /* \"#utility.yul\":43559:43647   */\n      tag_437\n      jump\t// in\n    tag_842:\n        /* \"#utility.yul\":43552:43647   */\n      swap4\n      pop\n        /* \"#utility.yul\":43657:43713   */\n      tag_843\n        /* \"#utility.yul\":43706:43712   */\n      dup4\n        /* \"#utility.yul\":43701:43704   */\n      dup6\n        /* \"#utility.yul\":43694:43699   */\n      dup5\n        /* \"#utility.yul\":43657:43713   */\n      tag_400\n      jump\t// in\n    tag_843:\n        /* \"#utility.yul\":43738:43744   */\n      dup3\n        /* \"#utility.yul\":43733:43736   */\n      dup5\n        /* \"#utility.yul\":43729:43745   */\n      add\n        /* \"#utility.yul\":43722:43745   */\n      swap1\n      pop\n        /* \"#utility.yul\":43424:43751   */\n      swap4\n      swap3\n      pop\n      pop\n      pop\n      jump\t// out\n        /* \"#utility.yul\":43757:44048   */\n    tag_311:\n        /* \"#utility.yul\":43897:43900   */\n      0x00\n        /* \"#utility.yul\":43919:44022   */\n      tag_845\n        /* \"#utility.yul\":44018:44021   */\n      dup3\n        /* \"#utility.yul\":44009:44015   */\n      dup5\n        /* \"#utility.yul\":44001:44007   */\n      dup7\n        /* \"#utility.yul\":43919:44022   */\n      tag_458\n      jump\t// in\n    tag_845:\n        /* \"#utility.yul\":43912:44022   */\n      swap2\n      pop\n        /* \"#utility.yul\":44039:44042   */\n      dup2\n        /* \"#utility.yul\":44032:44042   */\n      swap1\n      pop\n        /* \"#utility.yul\":43757:44048   */\n      swap4\n      swap3\n      pop\n      pop\n      pop\n      jump\t// out\n        /* \"#utility.yul\":44054:44203   */\n    tag_459:\n        /* \"#utility.yul\":44090:44097   */\n      0x00\n        /* \"#utility.yul\":44130:44196   */\n      0xffffffff00000000000000000000000000000000000000000000000000000000\n        /* \"#utility.yul\":44123:44128   */\n      dup3\n        /* \"#utility.yul\":44119:44197   */\n      and\n        /* \"#utility.yul\":44108:44197   */\n      swap1\n      pop\n        /* \"#utility.yul\":44054:44203   */\n      swap2\n      swap1\n      pop\n      jump\t// out\n        /* \"#utility.yul\":44209:44287   */\n    tag_460:\n        /* \"#utility.yul\":44247:44254   */\n      0x00\n        /* \"#utility.yul\":44276:44281   */\n      dup2\n        /* \"#utility.yul\":44265:44281   */\n      swap1\n      pop\n        /* \"#utility.yul\":44209:44287   */\n      swap2\n      swap1\n      pop\n      jump\t// out\n        /* \"#utility.yul\":44293:44446   */\n    tag_461:\n        /* \"#utility.yul\":44396:44439   */\n      tag_849\n        /* \"#utility.yul\":44415:44438   */\n      tag_850\n        /* \"#utility.yul\":44432:44437   */\n      dup3\n        /* \"#utility.yul\":44415:44438   */\n      tag_459\n      jump\t// in\n    tag_850:\n        /* \"#utility.yul\":44396:44439   */\n      tag_460\n      jump\t// in\n    tag_849:\n        /* \"#utility.yul\":44391:44394   */\n      dup3\n        /* \"#utility.yul\":44384:44440   */\n      mstore\n        /* \"#utility.yul\":44293:44446   */\n      pop\n      pop\n      jump\t// out\n        /* \"#utility.yul\":44452:44531   */\n    tag_462:\n        /* \"#utility.yul\":44491:44498   */\n      0x00\n        /* \"#utility.yul\":44520:44525   */\n      dup2\n        /* \"#utility.yul\":44509:44525   */\n      swap1\n      pop\n        /* \"#utility.yul\":44452:44531   */\n      swap2\n      swap1\n      pop\n      jump\t// out\n        /* \"#utility.yul\":44537:44694   */\n    tag_463:\n        /* \"#utility.yul\":44642:44687   */\n      tag_853\n        /* \"#utility.yul\":44662:44686   */\n      tag_854\n        /* \"#utility.yul\":44680:44685   */\n      dup3\n        /* \"#utility.yul\":44662:44686   */\n      tag_360\n      jump\t// in\n    tag_854:\n        /* \"#utility.yul\":44642:44687   */\n      tag_462\n      jump\t// in\n    tag_853:\n        /* \"#utility.yul\":44637:44640   */\n      dup3\n        /* \"#utility.yul\":44630:44688   */\n      mstore\n        /* \"#utility.yul\":44537:44694   */\n      pop\n      pop\n      jump\t// out\n        /* \"#utility.yul\":44700:45092   */\n    tag_313:\n        /* \"#utility.yul\":44838:44841   */\n      0x00\n        /* \"#utility.yul\":44853:44926   */\n      tag_856\n        /* \"#utility.yul\":44922:44925   */\n      dup3\n        /* \"#utility.yul\":44913:44919   */\n      dup6\n        /* \"#utility.yul\":44853:44926   */\n      tag_461\n      jump\t// in\n    tag_856:\n        /* \"#utility.yul\":44951:44952   */\n      0x04\n        /* \"#utility.yul\":44946:44949   */\n      dup3\n        /* \"#utility.yul\":44942:44953   */\n      add\n        /* \"#utility.yul\":44935:44953   */\n      swap2\n      pop\n        /* \"#utility.yul\":44963:45038   */\n      tag_857\n        /* \"#utility.yul\":45034:45037   */\n      dup3\n        /* \"#utility.yul\":45025:45031   */\n      dup5\n        /* \"#utility.yul\":44963:45038   */\n      tag_463\n      jump\t// in\n    tag_857:\n        /* \"#utility.yul\":45063:45065   */\n      0x20\n        /* \"#utility.yul\":45058:45061   */\n      dup3\n        /* \"#utility.yul\":45054:45066   */\n      add\n        /* \"#utility.yul\":45047:45066   */\n      swap2\n      pop\n        /* \"#utility.yul\":45083:45086   */\n      dup2\n        /* \"#utility.yul\":45076:45086   */\n      swap1\n      pop\n        /* \"#utility.yul\":44700:45092   */\n      swap4\n      swap3\n      pop\n      pop\n      pop\n      jump\t// out\n        /* \"#utility.yul\":45098:45484   */\n    tag_464:\n        /* \"#utility.yul\":45202:45205   */\n      0x00\n        /* \"#utility.yul\":45230:45268   */\n      tag_859\n        /* \"#utility.yul\":45262:45267   */\n      dup3\n        /* \"#utility.yul\":45230:45268   */\n      tag_406\n      jump\t// in\n    tag_859:\n        /* \"#utility.yul\":45284:45372   */\n      tag_860\n        /* \"#utility.yul\":45365:45371   */\n      dup2\n        /* \"#utility.yul\":45360:45363   */\n      dup6\n        /* \"#utility.yul\":45284:45372   */\n      tag_437\n      jump\t// in\n    tag_860:\n        /* \"#utility.yul\":45277:45372   */\n      swap4\n      pop\n        /* \"#utility.yul\":45381:45446   */\n      tag_861\n        /* \"#utility.yul\":45439:45445   */\n      dup2\n        /* \"#utility.yul\":45434:45437   */\n      dup6\n        /* \"#utility.yul\":45427:45431   */\n      0x20\n        /* \"#utility.yul\":45420:45425   */\n      dup7\n        /* \"#utility.yul\":45416:45432   */\n      add\n        /* \"#utility.yul\":45381:45446   */\n      tag_368\n      jump\t// in\n    tag_861:\n        /* \"#utility.yul\":45471:45477   */\n      dup1\n        /* \"#utility.yul\":45466:45469   */\n      dup5\n        /* \"#utility.yul\":45462:45478   */\n      add\n        /* \"#utility.yul\":45455:45478   */\n      swap2\n      pop\n        /* \"#utility.yul\":45206:45484   */\n      pop\n        /* \"#utility.yul\":45098:45484   */\n      swap3\n      swap2\n      pop\n      pop\n      jump\t// out\n        /* \"#utility.yul\":45490:45761   */\n    tag_315:\n        /* \"#utility.yul\":45620:45623   */\n      0x00\n        /* \"#utility.yul\":45642:45735   */\n      tag_863\n        /* \"#utility.yul\":45731:45734   */\n      dup3\n        /* \"#utility.yul\":45722:45728   */\n      dup5\n        /* \"#utility.yul\":45642:45735   */\n      tag_464\n      jump\t// in\n    tag_863:\n        /* \"#utility.yul\":45635:45735   */\n      swap2\n      pop\n        /* \"#utility.yul\":45752:45755   */\n      dup2\n        /* \"#utility.yul\":45745:45755   */\n      swap1\n      pop\n        /* \"#utility.yul\":45490:45761   */\n      swap3\n      swap2\n      pop\n      pop\n      jump\t// out\n        /* \"#utility.yul\":45767:45930   */\n    tag_465:\n        /* \"#utility.yul\":45907:45922   */\n      0x54784661696c65644572726f7200000000000000000000000000000000000000\n        /* \"#utility.yul\":45903:45904   */\n      0x00\n        /* \"#utility.yul\":45895:45901   */\n      dup3\n        /* \"#utility.yul\":45891:45905   */\n      add\n        /* \"#utility.yul\":45884:45923   */\n      mstore\n        /* \"#utility.yul\":45767:45930   */\n      pop\n      jump\t// out\n        /* \"#utility.yul\":45936:46302   */\n    tag_466:\n        /* \"#utility.yul\":46078:46081   */\n      0x00\n        /* \"#utility.yul\":46099:46166   */\n      tag_866\n        /* \"#utility.yul\":46163:46165   */\n      0x0d\n        /* \"#utility.yul\":46158:46161   */\n      dup4\n        /* \"#utility.yul\":46099:46166   */\n      tag_367\n      jump\t// in\n    tag_866:\n        /* \"#utility.yul\":46092:46166   */\n      swap2\n      pop\n        /* \"#utility.yul\":46175:46268   */\n      tag_867\n        /* \"#utility.yul\":46264:46267   */\n      dup3\n        /* \"#utility.yul\":46175:46268   */\n      tag_465\n      jump\t// in\n    tag_867:\n        /* \"#utility.yul\":46293:46295   */\n      0x20\n        /* \"#utility.yul\":46288:46291   */\n      dup3\n        /* \"#utility.yul\":46284:46296   */\n      add\n        /* \"#utility.yul\":46277:46296   */\n      swap1\n      pop\n        /* \"#utility.yul\":45936:46302   */\n      swap2\n      swap1\n      pop\n      jump\t// out\n        /* \"#utility.yul\":46308:46727   */\n    tag_321:\n        /* \"#utility.yul\":46474:46478   */\n      0x00\n        /* \"#utility.yul\":46512:46514   */\n      0x20\n        /* \"#utility.yul\":46501:46510   */\n      dup3\n        /* \"#utility.yul\":46497:46515   */\n      add\n        /* \"#utility.yul\":46489:46515   */\n      swap1\n      pop\n        /* \"#utility.yul\":46561:46570   */\n      dup2\n        /* \"#utility.yul\":46555:46559   */\n      dup2\n        /* \"#utility.yul\":46551:46571   */\n      sub\n        /* \"#utility.yul\":46547:46548   */\n      0x00\n        /* \"#utility.yul\":46536:46545   */\n      dup4\n        /* \"#utility.yul\":46532:46549   */\n      add\n        /* \"#utility.yul\":46525:46572   */\n      mstore\n        /* \"#utility.yul\":46589:46720   */\n      tag_869\n        /* \"#utility.yul\":46715:46719   */\n      dup2\n        /* \"#utility.yul\":46589:46720   */\n      tag_466\n      jump\t// in\n    tag_869:\n        /* \"#utility.yul\":46581:46720   */\n      swap1\n      pop\n        /* \"#utility.yul\":46308:46727   */\n      swap2\n      swap1\n      pop\n      jump\t// out\n        /* \"#utility.yul\":46733:47065   */\n    tag_323:\n        /* \"#utility.yul\":46854:46858   */\n      0x00\n        /* \"#utility.yul\":46892:46894   */\n      0x40\n        /* \"#utility.yul\":46881:46890   */\n      dup3\n        /* \"#utility.yul\":46877:46895   */\n      add\n        /* \"#utility.yul\":46869:46895   */\n      swap1\n      pop\n        /* \"#utility.yul\":46905:46976   */\n      tag_871\n        /* \"#utility.yul\":46973:46974   */\n      0x00\n        /* \"#utility.yul\":46962:46971   */\n      dup4\n        /* \"#utility.yul\":46958:46975   */\n      add\n        /* \"#utility.yul\":46949:46955   */\n      dup6\n        /* \"#utility.yul\":46905:46976   */\n      tag_375\n      jump\t// in\n    tag_871:\n        /* \"#utility.yul\":46986:47058   */\n      tag_872\n        /* \"#utility.yul\":47054:47056   */\n      0x20\n        /* \"#utility.yul\":47043:47052   */\n      dup4\n        /* \"#utility.yul\":47039:47057   */\n      add\n        /* \"#utility.yul\":47030:47036   */\n      dup5\n        /* \"#utility.yul\":46986:47058   */\n      tag_375\n      jump\t// in\n    tag_872:\n        /* \"#utility.yul\":46733:47065   */\n      swap4\n      swap3\n      pop\n      pop\n      pop\n      jump\t// out\n        /* \"#utility.yul\":47071:47220   */\n    tag_467:\n        /* \"#utility.yul\":47120:47126   */\n      0x00\n        /* \"#utility.yul\":47154:47159   */\n      dup2\n        /* \"#utility.yul\":47148:47160   */\n      sload\n        /* \"#utility.yul\":47138:47160   */\n      swap1\n      pop\n        /* \"#utility.yul\":47180:47213   */\n      tag_874\n        /* \"#utility.yul\":47206:47212   */\n      dup2\n        /* \"#utility.yul\":47180:47213   */\n      tag_121\n      jump\t// in\n    tag_874:\n        /* \"#utility.yul\":47170:47213   */\n      swap1\n      pop\n        /* \"#utility.yul\":47071:47220   */\n      swap2\n      swap1\n      pop\n      jump\t// out\n        /* \"#utility.yul\":47226:48677   */\n    tag_336:\n        /* \"#utility.yul\":47337:47340   */\n      dup2\n        /* \"#utility.yul\":47331:47335   */\n      dup2\n        /* \"#utility.yul\":47328:47341   */\n      sub\n        /* \"#utility.yul\":47325:47351   */\n      tag_876\n      jumpi\n        /* \"#utility.yul\":47344:47349   */\n      pop\n      pop\n      jump(tag_875)\n        /* \"#utility.yul\":47325:47351   */\n    tag_876:\n        /* \"#utility.yul\":47375:47409   */\n      tag_877\n        /* \"#utility.yul\":47405:47408   */\n      dup3\n        /* \"#utility.yul\":47375:47409   */\n      tag_467\n      jump\t// in\n    tag_877:\n        /* \"#utility.yul\":47474:47492   */\n      0xffffffffffffffff\n        /* \"#utility.yul\":47466:47472   */\n      dup2\n        /* \"#utility.yul\":47463:47493   */\n      gt\n        /* \"#utility.yul\":47460:47516   */\n      iszero\n      tag_878\n      jumpi\n        /* \"#utility.yul\":47496:47514   */\n      tag_879\n      tag_396\n      jump\t// in\n    tag_879:\n        /* \"#utility.yul\":47460:47516   */\n    tag_878:\n        /* \"#utility.yul\":47540:47578   */\n      tag_880\n        /* \"#utility.yul\":47572:47576   */\n      dup3\n        /* \"#utility.yul\":47566:47577   */\n      sload\n        /* \"#utility.yul\":47540:47578   */\n      tag_121\n      jump\t// in\n    tag_880:\n        /* \"#utility.yul\":47625:47692   */\n      tag_881\n        /* \"#utility.yul\":47685:47691   */\n      dup3\n        /* \"#utility.yul\":47677:47683   */\n      dup3\n        /* \"#utility.yul\":47671:47675   */\n      dup6\n        /* \"#utility.yul\":47625:47692   */\n      tag_428\n      jump\t// in\n    tag_881:\n        /* \"#utility.yul\":47719:47720   */\n      0x00\n        /* \"#utility.yul\":47748:47750   */\n      0x1f\n        /* \"#utility.yul\":47740:47746   */\n      dup4\n        /* \"#utility.yul\":47737:47751   */\n      gt\n        /* \"#utility.yul\":47765:47766   */\n      0x01\n        /* \"#utility.yul\":47760:48432   */\n      dup2\n      eq\n      tag_883\n      jumpi\n        /* \"#utility.yul\":48476:48477   */\n      0x00\n        /* \"#utility.yul\":48493:48499   */\n      dup5\n        /* \"#utility.yul\":48490:48567   */\n      iszero\n      tag_884\n      jumpi\n        /* \"#utility.yul\":48542:48551   */\n      dup3\n        /* \"#utility.yul\":48537:48540   */\n      dup8\n        /* \"#utility.yul\":48533:48552   */\n      add\n        /* \"#utility.yul\":48527:48553   */\n      sload\n        /* \"#utility.yul\":48518:48553   */\n      swap1\n      pop\n        /* \"#utility.yul\":48490:48567   */\n    tag_884:\n        /* \"#utility.yul\":48593:48660   */\n      tag_885\n        /* \"#utility.yul\":48653:48659   */\n      dup6\n        /* \"#utility.yul\":48646:48651   */\n      dup3\n        /* \"#utility.yul\":48593:48660   */\n      tag_431\n      jump\t// in\n    tag_885:\n        /* \"#utility.yul\":48587:48591   */\n      dup7\n        /* \"#utility.yul\":48580:48661   */\n      sstore\n        /* \"#utility.yul\":48449:48671   */\n      pop\n        /* \"#utility.yul\":47730:48671   */\n      jump(tag_882)\n        /* \"#utility.yul\":47760:48432   */\n    tag_883:\n        /* \"#utility.yul\":47812:47816   */\n      0x1f\n        /* \"#utility.yul\":47808:47817   */\n      not\n        /* \"#utility.yul\":47800:47806   */\n      dup5\n        /* \"#utility.yul\":47796:47818   */\n      and\n        /* \"#utility.yul\":47838:47874   */\n      tag_886\n        /* \"#utility.yul\":47870:47873   */\n      dup8\n        /* \"#utility.yul\":47838:47874   */\n      tag_417\n      jump\t// in\n    tag_886:\n        /* \"#utility.yul\":47831:47874   */\n      swap7\n      pop\n        /* \"#utility.yul\":47901:47938   */\n      tag_887\n        /* \"#utility.yul\":47933:47937   */\n      dup7\n        /* \"#utility.yul\":47901:47938   */\n      tag_417\n      jump\t// in\n    tag_887:\n        /* \"#utility.yul\":47960:47961   */\n      0x00\n        /* \"#utility.yul\":47974:48181   */\n    tag_888:\n        /* \"#utility.yul\":47988:47995   */\n      dup3\n        /* \"#utility.yul\":47985:47986   */\n      dup2\n        /* \"#utility.yul\":47982:47996   */\n      lt\n        /* \"#utility.yul\":47974:48181   */\n      iszero\n      tag_890\n      jumpi\n        /* \"#utility.yul\":48067:48076   */\n      dup5\n        /* \"#utility.yul\":48062:48065   */\n      dup10\n        /* \"#utility.yul\":48058:48077   */\n      add\n        /* \"#utility.yul\":48052:48078   */\n      sload\n        /* \"#utility.yul\":48044:48050   */\n      dup3\n        /* \"#utility.yul\":48037:48079   */\n      sstore\n        /* \"#utility.yul\":48118:48119   */\n      0x01\n        /* \"#utility.yul\":48110:48116   */\n      dup3\n        /* \"#utility.yul\":48106:48120   */\n      add\n        /* \"#utility.yul\":48096:48120   */\n      swap2\n      pop\n        /* \"#utility.yul\":48165:48166   */\n      0x01\n        /* \"#utility.yul\":48154:48163   */\n      dup6\n        /* \"#utility.yul\":48150:48167   */\n      add\n        /* \"#utility.yul\":48137:48167   */\n      swap5\n      pop\n        /* \"#utility.yul\":48011:48015   */\n      0x20\n        /* \"#utility.yul\":48008:48009   */\n      dup2\n        /* \"#utility.yul\":48004:48016   */\n      add\n        /* \"#utility.yul\":47999:48016   */\n      swap1\n      pop\n        /* \"#utility.yul\":47974:48181   */\n      jump(tag_888)\n    tag_890:\n        /* \"#utility.yul\":48209:48215   */\n      dup7\n        /* \"#utility.yul\":48200:48207   */\n      dup4\n        /* \"#utility.yul\":48197:48216   */\n      lt\n        /* \"#utility.yul\":48194:48373   */\n      iszero\n      tag_891\n      jumpi\n        /* \"#utility.yul\":48267:48276   */\n      dup5\n        /* \"#utility.yul\":48262:48265   */\n      dup10\n        /* \"#utility.yul\":48258:48277   */\n      add\n        /* \"#utility.yul\":48252:48278   */\n      sload\n        /* \"#utility.yul\":48310:48358   */\n      tag_892\n        /* \"#utility.yul\":48352:48356   */\n      0x1f\n        /* \"#utility.yul\":48344:48350   */\n      dup10\n        /* \"#utility.yul\":48340:48357   */\n      and\n        /* \"#utility.yul\":48329:48338   */\n      dup3\n        /* \"#utility.yul\":48310:48358   */\n      tag_430\n      jump\t// in\n    tag_892:\n        /* \"#utility.yul\":48302:48308   */\n      dup4\n        /* \"#utility.yul\":48295:48359   */\n      sstore\n        /* \"#utility.yul\":48217:48373   */\n      pop\n        /* \"#utility.yul\":48194:48373   */\n    tag_891:\n        /* \"#utility.yul\":48419:48420   */\n      0x01\n        /* \"#utility.yul\":48415:48416   */\n      0x02\n        /* \"#utility.yul\":48407:48413   */\n      dup9\n        /* \"#utility.yul\":48403:48417   */\n      mul\n        /* \"#utility.yul\":48399:48421   */\n      add\n        /* \"#utility.yul\":48393:48397   */\n      dup9\n        /* \"#utility.yul\":48386:48422   */\n      sstore\n        /* \"#utility.yul\":47767:48432   */\n      pop\n      pop\n      pop\n        /* \"#utility.yul\":47730:48671   */\n    tag_882:\n      pop\n        /* \"#utility.yul\":47315:48677   */\n      pop\n      pop\n      pop\n        /* \"#utility.yul\":47226:48677   */\n      pop\n      pop\n    tag_875:\n      jump\t// out\n        /* \"#utility.yul\":48683:48863   */\n    tag_339:\n        /* \"#utility.yul\":48731:48808   */\n      0x4e487b7100000000000000000000000000000000000000000000000000000000\n        /* \"#utility.yul\":48728:48729   */\n      0x00\n        /* \"#utility.yul\":48721:48809   */\n      mstore\n        /* \"#utility.yul\":48828:48832   */\n      0x31\n        /* \"#utility.yul\":48825:48826   */\n      0x04\n        /* \"#utility.yul\":48818:48833   */\n      mstore\n        /* \"#utility.yul\":48852:48856   */\n      0x24\n        /* \"#utility.yul\":48849:48850   */\n      0x00\n        /* \"#utility.yul\":48842:48857   */\n      revert\n\n    auxdata: 0xa26469706673582212201d6983c6a7ab0059a683452dd097b8f7c1327d272de263dd1e10d3300e3f217464736f6c634300081a0033\n}\n",
				"bytecode": {
					"linkReferences": {},
					"object": "608060405234801561000f575f80fd5b506040516147b33803806147b38339818101604052810190610031919061022e565b81600190816100409190610495565b50805f806101000a81548173ffffffffffffffffffffffffffffffffffffffff021916908373ffffffffffffffffffffffffffffffffffffffff1602179055505050610564565b5f604051905090565b5f80fd5b5f80fd5b5f80fd5b5f80fd5b5f601f19601f8301169050919050565b7f4e487b71000000000000000000000000000000000000000000000000000000005f52604160045260245ffd5b6100e6826100a0565b810181811067ffffffffffffffff82111715610105576101046100b0565b5b80604052505050565b5f610117610087565b905061012382826100dd565b919050565b5f67ffffffffffffffff821115610142576101416100b0565b5b61014b826100a0565b9050602081019050919050565b8281835e5f83830152505050565b5f61017861017384610128565b61010e565b9050828152602081018484840111156101945761019361009c565b5b61019f848285610158565b509392505050565b5f82601f8301126101bb576101ba610098565b5b81516101cb848260208601610166565b91505092915050565b5f73ffffffffffffffffffffffffffffffffffffffff82169050919050565b5f6101fd826101d4565b9050919050565b61020d816101f3565b8114610217575f80fd5b50565b5f8151905061022881610204565b92915050565b5f806040838503121561024457610243610090565b5b5f83015167ffffffffffffffff81111561026157610260610094565b5b61026d858286016101a7565b925050602061027e8582860161021a565b9150509250929050565b5f81519050919050565b7f4e487b71000000000000000000000000000000000000000000000000000000005f52602260045260245ffd5b5f60028204905060018216806102d657607f821691505b6020821081036102e9576102e8610292565b5b50919050565b5f819050815f5260205f209050919050565b5f6020601f8301049050919050565b5f82821b905092915050565b5f6008830261034b7fffffffffffffffffffffffffffffffffffffffffffffffffffffffffffffffff82610310565b6103558683610310565b95508019841693508086168417925050509392505050565b5f819050919050565b5f819050919050565b5f61039961039461038f8461036d565b610376565b61036d565b9050919050565b5f819050919050565b6103b28361037f565b6103c66103be826103a0565b84845461031c565b825550505050565b5f90565b6103da6103ce565b6103e58184846103a9565b505050565b5b81811015610408576103fd5f826103d2565b6001810190506103eb565b5050565b601f82111561044d5761041e816102ef565b61042784610301565b81016020851015610436578190505b61044a61044285610301565b8301826103ea565b50505b505050565b5f82821c905092915050565b5f61046d5f1984600802610452565b1980831691505092915050565b5f610485838361045e565b9150826002028217905092915050565b61049e82610288565b67ffffffffffffffff8111156104b7576104b66100b0565b5b6104c182546102bf565b6104cc82828561040c565b5f60209050601f8311600181146104fd575f84156104eb578287015190505b6104f5858261047a565b86555061055c565b601f19841661050b866102ef565b5f5b828110156105325784890151825560018201915060208501945060208101905061050d565b8683101561054f578489015161054b601f89168261045e565b8355505b6001600288020188555050505b505050505050565b614242806105715f395ff3fe60806040526004361061010c575f3560e01c8063baf61ac311610094578063d283238b11610063578063d283238b14610381578063d6d68177146103be578063e62e7f0414610400578063fb580b7614610442578063ff1529e71461045e57610113565b8063baf61ac3146102cb578063bd66528a14610307578063c1a287e21461032f578063c4d252f51461035957610113565b80636b149d87116100db5780636b149d87146101e75780637284e4161461021157806385d3ca091461023b5780638da5cb5b146102775780639f81aed7146102a157610113565b80630dc051f814610117578063228250c9146101535780634125ff90146101955780634f4ac9a4146101bf57610113565b3661011357005b5f80fd5b348015610122575f80fd5b5061013d60048036038101906101389190612afa565b61048e565b60405161014a9190612b3f565b60405180910390f35b34801561015e575f80fd5b5061017960048036038101906101749190612afa565b610504565b60405161018c9796959493929190612c2e565b60405180910390f35b3480156101a0575f80fd5b506101a9610612565b6040516101b69190612ca2565b60405180910390f35b3480156101ca575f80fd5b506101e560048036038101906101e09190612d46565b610619565b005b3480156101f2575f80fd5b506101fb610a81565b6040516102089190612f8f565b60405180910390f35b34801561021c575f80fd5b50610225610c89565b6040516102329190612faf565b60405180910390f35b348015610246575f80fd5b50610261600480360381019061025c9190612d46565b610d15565b60405161026e9190612fcf565b60405180910390f35b348015610282575f80fd5b5061028b610d4d565b6040516102989190612fe8565b60405180910390f35b3480156102ac575f80fd5b506102b5610d70565b6040516102c29190612ca2565b60405180910390f35b3480156102d6575f80fd5b506102f160048036038101906102ec9190613153565b610d75565b6040516102fe9190612fcf565b60405180910390f35b348015610312575f80fd5b5061032d60048036038101906103289190612afa565b610db0565b005b34801561033a575f80fd5b506103436110e2565b6040516103509190612ca2565b60405180910390f35b348015610364575f80fd5b5061037f600480360381019061037a9190612afa565b6110e9565b005b34801561038c575f80fd5b506103a760048036038101906103a29190612afa565b6114f9565b6040516103b592919061327f565b60405180910390f35b3480156103c9575f80fd5b506103e460048036038101906103df91906132ad565b6117ac565b6040516103f79796959493929190612c2e565b60405180910390f35b34801561040b575f80fd5b5061042660048036038101906104219190612afa565b6118d4565b6040516104399796959493929190612c2e565b60405180910390f35b61045c600480360381019061045791906132eb565b6119e2565b005b61047860048036038101906104739190612d46565b612089565b60405161048591906133d0565b60405180910390f35b5f8073ffffffffffffffffffffffffffffffffffffffff1660045f8481526020019081526020015f206003015f9054906101000a900473ffffffffffffffffffffffffffffffffffffffff1673ffffffffffffffffffffffffffffffffffffffff16146104fe57600190506104ff565b5b919050565b6004602052805f5260405f205f91509050805f0154908060010180546105299061341d565b80601f01602080910402602001604051908101604052809291908181526020018280546105559061341d565b80156105a05780601f10610577576101008083540402835291602001916105a0565b820191905f5260205f20905b81548152906001019060200180831161058357829003601f168201915b505050505090806002015f9054906101000a900473ffffffffffffffffffffffffffffffffffffffff1690806003015f9054906101000a900473ffffffffffffffffffffffffffffffffffffffff1690806004015490806005015490806006015f9054906101000a900460ff16905087565b6202a30081565b5f8054906101000a900473ffffffffffffffffffffffffffffffffffffffff1673ffffffffffffffffffffffffffffffffffffffff163373ffffffffffffffffffffffffffffffffffffffff16146106a6576040517f08c379a000000000000000000000000000000000000000000000000000000000815260040161069d906134bd565b60405180910390fd5b5f60035f8581526020019081526020015f206040518060e00160405290815f82015481526020016001820180546106dc9061341d565b80601f01602080910402602001604051908101604052809291908181526020018280546107089061341d565b80156107535780601f1061072a57610100808354040283529160200191610753565b820191905f5260205f20905b81548152906001019060200180831161073657829003601f168201915b50505050508152602001600282015f9054906101000a900473ffffffffffffffffffffffffffffffffffffffff1673ffffffffffffffffffffffffffffffffffffffff1673ffffffffffffffffffffffffffffffffffffffff168152602001600382015f9054906101000a900473ffffffffffffffffffffffffffffffffffffffff1673ffffffffffffffffffffffffffffffffffffffff1673ffffffffffffffffffffffffffffffffffffffff1681526020016004820154815260200160058201548152602001600682015f9054906101000a900460ff16151515158152505090505f61084386868686610d15565b90505f15156108518261048e565b151514610893576040517f08c379a000000000000000000000000000000000000000000000000000000000815260040161088a90613525565b60405180910390fd5b600a426108a09190613570565b8260a001511180156108c357506202a300426108bc9190613570565b8260a00151105b610902576040517f08c379a00000000000000000000000000000000000000000000000000000000081526004016108f9906135ed565b60405180910390fd5b8160045f8381526020019081526020015f205f820151815f0155602082015181600101908161093191906137a8565b506040820151816002015f6101000a81548173ffffffffffffffffffffffffffffffffffffffff021916908373ffffffffffffffffffffffffffffffffffffffff1602179055506060820151816003015f6101000a81548173ffffffffffffffffffffffffffffffffffffffff021916908373ffffffffffffffffffffffffffffffffffffffff1602179055506080820151816004015560a0820151816005015560c0820151816006015f6101000a81548160ff021916908315150217905550905050816060015173ffffffffffffffffffffffffffffffffffffffff168673ffffffffffffffffffffffffffffffffffffffff16827f4762453ff07afa9b0dc3d8842a3bb2c3bada1fec4956fc404dbcc3c7ee45457e856080015188888860a00151604051610a6494939291906138a3565b60405180910390a4610a746129f6565b91505f9050505050505050565b606060025f3373ffffffffffffffffffffffffffffffffffffffff1673ffffffffffffffffffffffffffffffffffffffff1681526020019081526020015f20805480602002602001604051908101604052809291908181526020015f905b82821015610c80578382905f5260205f2090600702016040518060e00160405290815f8201548152602001600182018054610b199061341d565b80601f0160208091040260200160405190810160405280929190818152602001828054610b459061341d565b8015610b905780601f10610b6757610100808354040283529160200191610b90565b820191905f5260205f20905b815481529060010190602001808311610b7357829003601f168201915b50505050508152602001600282015f9054906101000a900473ffffffffffffffffffffffffffffffffffffffff1673ffffffffffffffffffffffffffffffffffffffff1673ffffffffffffffffffffffffffffffffffffffff168152602001600382015f9054906101000a900473ffffffffffffffffffffffffffffffffffffffff1673ffffffffffffffffffffffffffffffffffffffff1673ffffffffffffffffffffffffffffffffffffffff1681526020016004820154815260200160058201548152602001600682015f9054906101000a900460ff16151515158152505081526020019060010190610adf565b50505050905090565b60018054610c969061341d565b80601f0160208091040260200160405190810160405280929190818152602001828054610cc29061341d565b8015610d0d5780601f10610ce457610100808354040283529160200191610d0d565b820191905f5260205f20905b815481529060010190602001808311610cf057829003601f168201915b505050505081565b5f84848484604051602001610d2d94939291906138e1565b604051602081830303815290604052805190602001209050949350505050565b5f8054906101000a900473ffffffffffffffffffffffffffffffffffffffff1681565b600a81565b5f8585858585604051602001610d8f95949392919061391f565b60405160208183030381529060405280519060200120905095945050505050565b5f8054906101000a900473ffffffffffffffffffffffffffffffffffffffff1673ffffffffffffffffffffffffffffffffffffffff163373ffffffffffffffffffffffffffffffffffffffff1614610e3d576040517f08c379a0000000000000000000000000000000000000000000000000000000008152600401610e34906134bd565b60405180910390fd5b5f80610e48836114f9565b915091505f15158260c001511515148015610e8657505f151560035f8581526020019081526020015f206006015f9054906101000a900460ff161515145b610ec5576040517f08c379a0000000000000000000000000000000000000000000000000000000008152600401610ebc906139e7565b60405180910390fd5b6040518060e0016040528084815260200183602001518152602001836040015173ffffffffffffffffffffffffffffffffffffffff168152602001836060015173ffffffffffffffffffffffffffffffffffffffff168152602001836080015181526020018360a0015181526020016001151581525060025f846040015173ffffffffffffffffffffffffffffffffffffffff1673ffffffffffffffffffffffffffffffffffffffff1681526020019081526020015f208281548110610f8e57610f8d613a05565b5b905f5260205f2090600702015f820151815f01556020820151816001019081610fb791906137a8565b506040820151816002015f6101000a81548173ffffffffffffffffffffffffffffffffffffffff021916908373ffffffffffffffffffffffffffffffffffffffff1602179055506060820151816003015f6101000a81548173ffffffffffffffffffffffffffffffffffffffff021916908373ffffffffffffffffffffffffffffffffffffffff1602179055506080820151816004015560a0820151816005015560c0820151816006015f6101000a81548160ff021916908315150217905550905050600160035f8581526020019081526020015f206006015f6101000a81548160ff0219169083151502179055506110ae6129f6565b9150827fe452cdb9bed412d2a2730f7b94259ee6508bae240cff3cf9fda5ef24c034f02260405160405180910390a2505050565b6206978081565b5f8054906101000a900473ffffffffffffffffffffffffffffffffffffffff1673ffffffffffffffffffffffffffffffffffffffff163373ffffffffffffffffffffffffffffffffffffffff1614611176576040517f08c379a000000000000000000000000000000000000000000000000000000000815260040161116d906134bd565b60405180910390fd5b600115156111838261048e565b1515146111c5576040517f08c379a00000000000000000000000000000000000000000000000000000000081526004016111bc90613a7c565b60405180910390fd5b5f60045f8381526020019081526020015f206040518060e00160405290815f82015481526020016001820180546111fb9061341d565b80601f01602080910402602001604051908101604052809291908181526020018280546112279061341d565b80156112725780601f1061124957610100808354040283529160200191611272565b820191905f5260205f20905b81548152906001019060200180831161125557829003601f168201915b50505050508152602001600282015f9054906101000a900473ffffffffffffffffffffffffffffffffffffffff1673ffffffffffffffffffffffffffffffffffffffff1673ffffffffffffffffffffffffffffffffffffffff168152602001600382015f9054906101000a900473ffffffffffffffffffffffffffffffffffffffff1673ffffffffffffffffffffffffffffffffffffffff1673ffffffffffffffffffffffffffffffffffffffff1681526020016004820154815260200160058201548152602001600682015f9054906101000a900460ff16151515158152505090505f611362825f01516114f9565b9150506113738260400151826125e0565b5f826040015173ffffffffffffffffffffffffffffffffffffffff1683608001516040516113a090613ac7565b5f6040518083038185875af1925050503d805f81146113da576040519150601f19603f3d011682016040523d82523d5f602084013e6113df565b606091505b5050905080611423576040517f08c379a000000000000000000000000000000000000000000000000000000000815260040161141a90613b25565b60405180910390fd5b60045f8581526020019081526020015f205f8082015f9055600182015f61144a9190612a5e565b600282015f6101000a81549073ffffffffffffffffffffffffffffffffffffffff0219169055600382015f6101000a81549073ffffffffffffffffffffffffffffffffffffffff0219169055600482015f9055600582015f9055600682015f6101000a81549060ff021916905550506114c16129f6565b92505f9150837f2c7aceded1437f250f60bc94f49680c49933e6c720bca1c2a6bf91f64d4de16260405160405180910390a250505050565b6115016129f6565b5f805f90505b60025f3373ffffffffffffffffffffffffffffffffffffffff1673ffffffffffffffffffffffffffffffffffffffff1681526020019081526020015f20805490508110156117a5578360025f3373ffffffffffffffffffffffffffffffffffffffff1673ffffffffffffffffffffffffffffffffffffffff1681526020019081526020015f20828154811061159f5761159e613a05565b5b905f5260205f2090600702015f0154036117985760025f3373ffffffffffffffffffffffffffffffffffffffff1673ffffffffffffffffffffffffffffffffffffffff1681526020019081526020015f20818154811061160257611601613a05565b5b905f5260205f20906007020181816040518060e00160405290815f82015481526020016001820180546116349061341d565b80601f01602080910402602001604051908101604052809291908181526020018280546116609061341d565b80156116ab5780601f10611682576101008083540402835291602001916116ab565b820191905f5260205f20905b81548152906001019060200180831161168e57829003601f168201915b50505050508152602001600282015f9054906101000a900473ffffffffffffffffffffffffffffffffffffffff1673ffffffffffffffffffffffffffffffffffffffff1673ffffffffffffffffffffffffffffffffffffffff168152602001600382015f9054906101000a900473ffffffffffffffffffffffffffffffffffffffff1673ffffffffffffffffffffffffffffffffffffffff1673ffffffffffffffffffffffffffffffffffffffff1681526020016004820154815260200160058201548152602001600682015f9054906101000a900460ff161515151581525050915092509250506117a7565b8080600101915050611507565b505b915091565b6002602052815f5260405f2081815481106117c5575f80fd5b905f5260205f2090600702015f9150915050805f0154908060010180546117eb9061341d565b80601f01602080910402602001604051908101604052809291908181526020018280546118179061341d565b80156118625780601f1061183957610100808354040283529160200191611862565b820191905f5260205f20905b81548152906001019060200180831161184557829003601f168201915b505050505090806002015f9054906101000a900473ffffffffffffffffffffffffffffffffffffffff1690806003015f9054906101000a900473ffffffffffffffffffffffffffffffffffffffff1690806004015490806005015490806006015f9054906101000a900460ff16905087565b6003602052805f5260405f205f91509050805f0154908060010180546118f99061341d565b80601f01602080910402602001604051908101604052809291908181526020018280546119259061341d565b80156119705780601f1061194757610100808354040283529160200191611970565b820191905f5260205f20905b81548152906001019060200180831161195357829003601f168201915b505050505090806002015f9054906101000a900473ffffffffffffffffffffffffffffffffffffffff1690806003015f9054906101000a900473ffffffffffffffffffffffffffffffffffffffff1690806004015490806005015490806006015f9054906101000a900460ff16905087565b806119ec8161293e565b611a2b576040517f08c379a0000000000000000000000000000000000000000000000000000000008152600401611a2290613bb3565b60405180910390fd5b5f80611a36886114f9565b915091505f611a488833898989610d75565b90505f8611611a8c576040517f08c379a0000000000000000000000000000000000000000000000000000000008152600401611a8390613c1b565b60405180910390fd5b5f836080015111611ad2576040517f08c379a0000000000000000000000000000000000000000000000000000000008152600401611ac990613c83565b60405180910390fd5b8260800151861115611c0357826080015186611aee9190613ca1565b3373ffffffffffffffffffffffffffffffffffffffff163111611b46576040517f08c379a0000000000000000000000000000000000000000000000000000000008152600401611b3d90613d1e565b60405180910390fd5b5f3073ffffffffffffffffffffffffffffffffffffffff16846080015188611b6e9190613ca1565b604051611b7a90613ac7565b5f6040518083038185875af1925050503d805f8114611bb4576040519150601f19603f3d011682016040523d82523d5f602084013e611bb9565b606091505b5050905080611bfd576040517f08c379a0000000000000000000000000000000000000000000000000000000008152600401611bf490613d86565b60405180910390fd5b50611c2a565b8260800151861015611c2957611c2833878560800151611c239190613ca1565b612949565b5b5b6040518060e00160405280611c428a338b8b8b610d75565b81526020018981526020013373ffffffffffffffffffffffffffffffffffffffff1681526020018873ffffffffffffffffffffffffffffffffffffffff1681526020018781526020018681526020015f151581525060025f3373ffffffffffffffffffffffffffffffffffffffff1673ffffffffffffffffffffffffffffffffffffffff1681526020019081526020015f208381548110611ce657611ce5613a05565b5b905f5260205f2090600702015f820151815f01556020820151816001019081611d0f91906137a8565b506040820151816002015f6101000a81548173ffffffffffffffffffffffffffffffffffffffff021916908373ffffffffffffffffffffffffffffffffffffffff1602179055506060820151816003015f6101000a81548173ffffffffffffffffffffffffffffffffffffffff021916908373ffffffffffffffffffffffffffffffffffffffff1602179055506080820151816004015560a0820151816005015560c0820151816006015f6101000a81548160ff0219169083151502179055509050505f60035f855f015181526020019081526020015f206004015411611e2b576040517f08c379a0000000000000000000000000000000000000000000000000000000008152600401611e2290613e14565b60405180910390fd5b60035f845f015181526020019081526020015f205f8082015f9055600182015f611e559190612a5e565b600282015f6101000a81549073ffffffffffffffffffffffffffffffffffffffff0219169055600382015f6101000a81549073ffffffffffffffffffffffffffffffffffffffff0219169055600482015f9055600582015f9055600682015f6101000a81549060ff021916905550506040518060e001604052808281526020018981526020013373ffffffffffffffffffffffffffffffffffffffff1681526020018873ffffffffffffffffffffffffffffffffffffffff1681526020018781526020018681526020015f151581525060035f8381526020019081526020015f205f820151815f01556020820151816001019081611f5391906137a8565b506040820151816002015f6101000a81548173ffffffffffffffffffffffffffffffffffffffff021916908373ffffffffffffffffffffffffffffffffffffffff1602179055506060820151816003015f6101000a81548173ffffffffffffffffffffffffffffffffffffffff021916908373ffffffffffffffffffffffffffffffffffffffff1602179055506080820151816004015560a0820151816005015560c0820151816006015f6101000a81548160ff0219169083151502179055509050508673ffffffffffffffffffffffffffffffffffffffff163373ffffffffffffffffffffffffffffffffffffffff167e80500dd3135b317a9964a886fc89087f9464cfbb755449e146ace57a1e0cf48a898960405161207693929190613e32565b60405180910390a3505050505050505050565b60605f8054906101000a900473ffffffffffffffffffffffffffffffffffffffff1673ffffffffffffffffffffffffffffffffffffffff163373ffffffffffffffffffffffffffffffffffffffff1614612118576040517f08c379a000000000000000000000000000000000000000000000000000000000815260040161210f906134bd565b60405180910390fd5b5f61212586868686610d15565b90505f60045f8381526020019081526020015f206040518060e00160405290815f820154815260200160018201805461215d9061341d565b80601f01602080910402602001604051908101604052809291908181526020018280546121899061341d565b80156121d45780601f106121ab576101008083540402835291602001916121d4565b820191905f5260205f20905b8154815290600101906020018083116121b757829003601f168201915b50505050508152602001600282015f9054906101000a900473ffffffffffffffffffffffffffffffffffffffff1673ffffffffffffffffffffffffffffffffffffffff1673ffffffffffffffffffffffffffffffffffffffff168152602001600382015f9054906101000a900473ffffffffffffffffffffffffffffffffffffffff1673ffffffffffffffffffffffffffffffffffffffff1673ffffffffffffffffffffffffffffffffffffffff1681526020016004820154815260200160058201548152602001600682015f9054906101000a900460ff16151515158152505090505f60045f8481526020019081526020015f20600401541161230d576040517f08c379a000000000000000000000000000000000000000000000000000000000815260040161230490613a7c565b60405180910390fd5b4260045f8481526020019081526020015f206005015410612363576040517f08c379a000000000000000000000000000000000000000000000000000000000815260040161235a90613eb8565b60405180910390fd5b6206978060045f8481526020019081526020015f20600501546123869190613570565b42106123c7576040517f08c379a00000000000000000000000000000000000000000000000000000000081526004016123be90613f20565b60405180910390fd5b606085856040516123d9929190613f62565b6040518091039020836040516020016123f3929190613fe5565b60405160208183030381529060405290505f80836060015173ffffffffffffffffffffffffffffffffffffffff168460800151846040516124349190614040565b5f6040518083038185875af1925050503d805f811461246e576040519150601f19603f3d011682016040523d82523d5f602084013e612473565b606091505b5091509150816124b8576040517f08c379a00000000000000000000000000000000000000000000000000000000081526004016124af906140a0565b60405180910390fd5b836060015173ffffffffffffffffffffffffffffffffffffffff168a73ffffffffffffffffffffffffffffffffffffffff16867fa7d0a908e9a681226c49f8746dd888d9324c460437a92654e38a466d23f217a887608001518860a001516040516125249291906140be565b60405180910390a460045f8681526020019081526020015f205f8082015f9055600182015f6125539190612a5e565b600282015f6101000a81549073ffffffffffffffffffffffffffffffffffffffff0219169055600382015f6101000a81549073ffffffffffffffffffffffffffffffffffffffff0219169055600482015f9055600582015f9055600682015f6101000a81549060ff021916905550506125ca6129f6565b9350606092508095505050505050949350505050565b60025f8373ffffffffffffffffffffffffffffffffffffffff1673ffffffffffffffffffffffffffffffffffffffff1681526020019081526020015f208054905081101561293a5760025f8373ffffffffffffffffffffffffffffffffffffffff1673ffffffffffffffffffffffffffffffffffffffff1681526020019081526020015f20600160025f8573ffffffffffffffffffffffffffffffffffffffff1673ffffffffffffffffffffffffffffffffffffffff1681526020019081526020015f20805490506126b29190613ca1565b815481106126c3576126c2613a05565b5b905f5260205f20906007020160025f8473ffffffffffffffffffffffffffffffffffffffff1673ffffffffffffffffffffffffffffffffffffffff1681526020019081526020015f20828154811061271e5761271d613a05565b5b905f5260205f2090600702015f820154815f01556001820181600101908161274691906140fa565b50600282015f9054906101000a900473ffffffffffffffffffffffffffffffffffffffff16816002015f6101000a81548173ffffffffffffffffffffffffffffffffffffffff021916908373ffffffffffffffffffffffffffffffffffffffff160217905550600382015f9054906101000a900473ffffffffffffffffffffffffffffffffffffffff16816003015f6101000a81548173ffffffffffffffffffffffffffffffffffffffff021916908373ffffffffffffffffffffffffffffffffffffffff1602179055506004820154816004015560058201548160050155600682015f9054906101000a900460ff16816006015f6101000a81548160ff02191690831515021790555090505060025f8373ffffffffffffffffffffffffffffffffffffffff1673ffffffffffffffffffffffffffffffffffffffff1681526020019081526020015f208054806128a05761289f6141df565b5b600190038181905f5260205f2090600702015f8082015f9055600182015f6128c89190612a5e565b600282015f6101000a81549073ffffffffffffffffffffffffffffffffffffffff0219169055600382015f6101000a81549073ffffffffffffffffffffffffffffffffffffffff0219169055600482015f9055600582015f9055600682015f6101000a81549060ff0219169055505090555b5050565b5f8142109050919050565b5f8273ffffffffffffffffffffffffffffffffffffffff168260405161296e90613ac7565b5f6040518083038185875af1925050503d805f81146129a8576040519150601f19603f3d011682016040523d82523d5f602084013e6129ad565b606091505b50509050806129f1576040517f08c379a00000000000000000000000000000000000000000000000000000000081526004016129e890613d86565b60405180910390fd5b505050565b6040518060e001604052805f8019168152602001606081526020015f73ffffffffffffffffffffffffffffffffffffffff1681526020015f73ffffffffffffffffffffffffffffffffffffffff1681526020015f81526020015f81526020015f151581525090565b508054612a6a9061341d565b5f825580601f10612a7b5750612a98565b601f0160209004905f5260205f2090810190612a979190612a9b565b5b50565b5b80821115612ab2575f815f905550600101612a9c565b5090565b5f604051905090565b5f80fd5b5f80fd5b5f819050919050565b612ad981612ac7565b8114612ae3575f80fd5b50565b5f81359050612af481612ad0565b92915050565b5f60208284031215612b0f57612b0e612abf565b5b5f612b1c84828501612ae6565b91505092915050565b5f8115159050919050565b612b3981612b25565b82525050565b5f602082019050612b525f830184612b30565b92915050565b612b6181612ac7565b82525050565b5f81519050919050565b5f82825260208201905092915050565b8281835e5f83830152505050565b5f601f19601f8301169050919050565b5f612ba982612b67565b612bb38185612b71565b9350612bc3818560208601612b81565b612bcc81612b8f565b840191505092915050565b5f73ffffffffffffffffffffffffffffffffffffffff82169050919050565b5f612c0082612bd7565b9050919050565b612c1081612bf6565b82525050565b5f819050919050565b612c2881612c16565b82525050565b5f60e082019050612c415f83018a612b58565b8181036020830152612c538189612b9f565b9050612c626040830188612c07565b612c6f6060830187612c07565b612c7c6080830186612c1f565b612c8960a0830185612c1f565b612c9660c0830184612b30565b98975050505050505050565b5f602082019050612cb55f830184612c1f565b92915050565b612cc481612bf6565b8114612cce575f80fd5b50565b5f81359050612cdf81612cbb565b92915050565b5f80fd5b5f80fd5b5f80fd5b5f8083601f840112612d0657612d05612ce5565b5b8235905067ffffffffffffffff811115612d2357612d22612ce9565b5b602083019150836001820283011115612d3f57612d3e612ced565b5b9250929050565b5f805f8060608587031215612d5e57612d5d612abf565b5b5f612d6b87828801612cd1565b9450506020612d7c87828801612ae6565b935050604085013567ffffffffffffffff811115612d9d57612d9c612ac3565b5b612da987828801612cf1565b925092505092959194509250565b5f81519050919050565b5f82825260208201905092915050565b5f819050602082019050919050565b612de981612ac7565b82525050565b5f82825260208201905092915050565b5f612e0982612b67565b612e138185612def565b9350612e23818560208601612b81565b612e2c81612b8f565b840191505092915050565b612e4081612bf6565b82525050565b612e4f81612c16565b82525050565b612e5e81612b25565b82525050565b5f60e083015f830151612e795f860182612de0565b5060208301518482036020860152612e918282612dff565b9150506040830151612ea66040860182612e37565b506060830151612eb96060860182612e37565b506080830151612ecc6080860182612e46565b5060a0830151612edf60a0860182612e46565b5060c0830151612ef260c0860182612e55565b508091505092915050565b5f612f088383612e64565b905092915050565b5f602082019050919050565b5f612f2682612db7565b612f308185612dc1565b935083602082028501612f4285612dd1565b805f5b85811015612f7d5784840389528151612f5e8582612efd565b9450612f6983612f10565b925060208a01995050600181019050612f45565b50829750879550505050505092915050565b5f6020820190508181035f830152612fa78184612f1c565b905092915050565b5f6020820190508181035f830152612fc78184612b9f565b905092915050565b5f602082019050612fe25f830184612b58565b92915050565b5f602082019050612ffb5f830184612c07565b92915050565b5f80fd5b7f4e487b71000000000000000000000000000000000000000000000000000000005f52604160045260245ffd5b61303b82612b8f565b810181811067ffffffffffffffff8211171561305a57613059613005565b5b80604052505050565b5f61306c612ab6565b90506130788282613032565b919050565b5f67ffffffffffffffff82111561309757613096613005565b5b6130a082612b8f565b9050602081019050919050565b828183375f83830152505050565b5f6130cd6130c88461307d565b613063565b9050828152602081018484840111156130e9576130e8613001565b5b6130f48482856130ad565b509392505050565b5f82601f8301126131105761310f612ce5565b5b81356131208482602086016130bb565b91505092915050565b61313281612c16565b811461313c575f80fd5b50565b5f8135905061314d81613129565b92915050565b5f805f805f60a0868803121561316c5761316b612abf565b5b5f86013567ffffffffffffffff81111561318957613188612ac3565b5b613195888289016130fc565b95505060206131a688828901612cd1565b94505060406131b788828901612cd1565b93505060606131c88882890161313f565b92505060806131d98882890161313f565b9150509295509295909350565b5f60e083015f8301516131fb5f860182612de0565b50602083015184820360208601526132138282612dff565b91505060408301516132286040860182612e37565b50606083015161323b6060860182612e37565b50608083015161324e6080860182612e46565b5060a083015161326160a0860182612e46565b5060c083015161327460c0860182612e55565b508091505092915050565b5f6040820190508181035f83015261329781856131e6565b90506132a66020830184612c1f565b9392505050565b5f80604083850312156132c3576132c2612abf565b5b5f6132d085828601612cd1565b92505060206132e18582860161313f565b9150509250929050565b5f805f805f60a0868803121561330457613303612abf565b5b5f61331188828901612ae6565b955050602086013567ffffffffffffffff81111561333257613331612ac3565b5b61333e888289016130fc565b945050604061334f88828901612cd1565b93505060606133608882890161313f565b92505060806133718882890161313f565b9150509295509295909350565b5f81519050919050565b5f82825260208201905092915050565b5f6133a28261337e565b6133ac8185613388565b93506133bc818560208601612b81565b6133c581612b8f565b840191505092915050565b5f6020820190508181035f8301526133e88184613398565b905092915050565b7f4e487b71000000000000000000000000000000000000000000000000000000005f52602260045260245ffd5b5f600282049050600182168061343457607f821691505b602082108103613447576134466133f0565b5b50919050565b7f4f6e6c79204f776e65722063616e206578656375746520746869732066756e635f8201527f74696f6e00000000000000000000000000000000000000000000000000000000602082015250565b5f6134a7602483612b71565b91506134b28261344d565b604082019050919050565b5f6020820190508181035f8301526134d48161349b565b9050919050565b7f416c72656164795175657565644572726f7200000000000000000000000000005f82015250565b5f61350f601283612b71565b915061351a826134db565b602082019050919050565b5f6020820190508181035f83015261353c81613503565b9050919050565b7f4e487b71000000000000000000000000000000000000000000000000000000005f52601160045260245ffd5b5f61357a82612c16565b915061358583612c16565b925082820190508082111561359d5761359c613543565b5b92915050565b7f54696d657374616d704e6f74496e52616e67654572726f7200000000000000005f82015250565b5f6135d7601883612b71565b91506135e2826135a3565b602082019050919050565b5f6020820190508181035f830152613604816135cb565b9050919050565b5f819050815f5260205f209050919050565b5f6020601f8301049050919050565b5f82821b905092915050565b5f600883026136677fffffffffffffffffffffffffffffffffffffffffffffffffffffffffffffffff8261362c565b613671868361362c565b95508019841693508086168417925050509392505050565b5f819050919050565b5f6136ac6136a76136a284612c16565b613689565b612c16565b9050919050565b5f819050919050565b6136c583613692565b6136d96136d1826136b3565b848454613638565b825550505050565b5f90565b6136ed6136e1565b6136f88184846136bc565b505050565b5b8181101561371b576137105f826136e5565b6001810190506136fe565b5050565b601f821115613760576137318161360b565b61373a8461361d565b81016020851015613749578190505b61375d6137558561361d565b8301826136fd565b50505b505050565b5f82821c905092915050565b5f6137805f1984600802613765565b1980831691505092915050565b5f6137988383613771565b9150826002028217905092915050565b6137b182612b67565b67ffffffffffffffff8111156137ca576137c9613005565b5b6137d4825461341d565b6137df82828561371f565b5f60209050601f831160018114613810575f84156137fe578287015190505b613808858261378d565b86555061386f565b601f19841661381e8661360b565b5f5b8281101561384557848901518255600182019150602085019450602081019050613820565b86831015613862578489015161385e601f891682613771565b8355505b6001600288020188555050505b505050505050565b5f6138828385612b71565b935061388f8385846130ad565b61389883612b8f565b840190509392505050565b5f6060820190506138b65f830187612c1f565b81810360208301526138c9818587613877565b90506138d86040830184612c1f565b95945050505050565b5f6060820190506138f45f830187612c07565b6139016020830186612b58565b8181036040830152613914818486613877565b905095945050505050565b5f60a0820190508181035f8301526139378188612b9f565b90506139466020830187612c07565b6139536040830186612c07565b6139606060830185612c1f565b61396d6080830184612c1f565b9695505050505050565b7f54686973206465706f73697420686173206265656e20636c61696d656420616c5f8201527f7265616479000000000000000000000000000000000000000000000000000000602082015250565b5f6139d1602583612b71565b91506139dc82613977565b604082019050919050565b5f6020820190508181035f8301526139fe816139c5565b9050919050565b7f4e487b71000000000000000000000000000000000000000000000000000000005f52603260045260245ffd5b7f4e6f745175657565644572726f720000000000000000000000000000000000005f82015250565b5f613a66600e83612b71565b9150613a7182613a32565b602082019050919050565b5f6020820190508181035f830152613a9381613a5a565b9050919050565b5f81905092915050565b50565b5f613ab25f83613a9a565b9150613abd82613aa4565b5f82019050919050565b5f613ad182613aa7565b9150819050919050565b7f5265696d62757273656d656e74204572726f72000000000000000000000000005f82015250565b5f613b0f601383612b71565b9150613b1a82613adb565b602082019050919050565b5f6020820190508181035f830152613b3c81613b03565b9050919050565b7f5468652074696d656c6f636b20706572696f642068617320746f20626520696e5f8201527f2074686520667574757265000000000000000000000000000000000000000000602082015250565b5f613b9d602b83612b71565b9150613ba882613b43565b604082019050919050565b5f6020820190508181035f830152613bca81613b91565b9050919050565b7f416d6f756e744c6f774572726f720000000000000000000000000000000000005f82015250565b5f613c05600e83612b71565b9150613c1082613bd1565b602082019050919050565b5f6020820190508181035f830152613c3281613bf9565b9050919050565b7f4e6f4465706f736974466f756e644572726f72000000000000000000000000005f82015250565b5f613c6d601383612b71565b9150613c7882613c39565b602082019050919050565b5f6020820190508181035f830152613c9a81613c61565b9050919050565b5f613cab82612c16565b9150613cb683612c16565b9250828203905081811115613cce57613ccd613543565b5b92915050565b7f42616c616e6365206c6f772e20546f70757020796f7572206163636f756e74005f82015250565b5f613d08601f83612b71565b9150613d1382613cd4565b602082019050919050565b5f6020820190508181035f830152613d3581613cfc565b9050919050565b7f4661696c656420746f2073656e642045746865720000000000000000000000005f82015250565b5f613d70601483612b71565b9150613d7b82613d3c565b602082019050919050565b5f6020820190508181035f830152613d9d81613d64565b9050919050565b7f5468657265206973206e6f206465706f736974206173736f63696174656420775f8201527f6974682074686973206964000000000000000000000000000000000000000000602082015250565b5f613dfe602b83612b71565b9150613e0982613da4565b604082019050919050565b5f6020820190508181035f830152613e2b81613df2565b9050919050565b5f6060820190508181035f830152613e4a8186612b9f565b9050613e596020830185612c1f565b613e666040830184612c1f565b949350505050565b7f54696d657374616d704e6f745061737365644572726f720000000000000000005f82015250565b5f613ea2601783612b71565b9150613ead82613e6e565b602082019050919050565b5f6020820190508181035f830152613ecf81613e96565b9050919050565b7f54696d657374616d70457870697265644572726f7200000000000000000000005f82015250565b5f613f0a601583612b71565b9150613f1582613ed6565b602082019050919050565b5f6020820190508181035f830152613f3781613efe565b9050919050565b5f613f498385613a9a565b9350613f568385846130ad565b82840190509392505050565b5f613f6e828486613f3e565b91508190509392505050565b5f7fffffffff0000000000000000000000000000000000000000000000000000000082169050919050565b5f819050919050565b613fbf613fba82613f7a565b613fa5565b82525050565b5f819050919050565b613fdf613fda82612ac7565b613fc5565b82525050565b5f613ff08285613fae565b6004820191506140008284613fce565b6020820191508190509392505050565b5f61401a8261337e565b6140248185613a9a565b9350614034818560208601612b81565b80840191505092915050565b5f61404b8284614010565b915081905092915050565b7f54784661696c65644572726f72000000000000000000000000000000000000005f82015250565b5f61408a600d83612b71565b915061409582614056565b602082019050919050565b5f6020820190508181035f8301526140b78161407e565b9050919050565b5f6040820190506140d15f830185612c1f565b6140de6020830184612c1f565b9392505050565b5f815490506140f38161341d565b9050919050565b8181036141085750506141dd565b614111826140e5565b67ffffffffffffffff81111561412a57614129613005565b5b614134825461341d565b61413f82828561371f565b5f601f83116001811461416c575f841561415a578287015490505b614164858261378d565b8655506141d6565b601f19841661417a8761360b565b96506141858661360b565b5f5b828110156141ac57848901548255600182019150600185019450602081019050614187565b868310156141c957848901546141c5601f891682613771565b8355505b6001600288020188555050505b5050505050505b565b7f4e487b71000000000000000000000000000000000000000000000000000000005f52603160045260245ffdfea26469706673582212201d6983c6a7ab0059a683452dd097b8f7c1327d272de263dd1e10d3300e3f217464736f6c634300081a0033",
					"opcodes": "PUSH1 0x80 PUSH1 0x40 MSTORE CALLVALUE DUP1 ISZERO PUSH2 0xF JUMPI PUSH0 DUP1 REVERT JUMPDEST POP PUSH1 0x40 MLOAD PUSH2 0x47B3 CODESIZE SUB DUP1 PUSH2 0x47B3 DUP4 CODECOPY DUP2 DUP2 ADD PUSH1 0x40 MSTORE DUP2 ADD SWAP1 PUSH2 0x31 SWAP2 SWAP1 PUSH2 0x22E JUMP JUMPDEST DUP2 PUSH1 0x1 SWAP1 DUP2 PUSH2 0x40 SWAP2 SWAP1 PUSH2 0x495 JUMP JUMPDEST POP DUP1 PUSH0 DUP1 PUSH2 0x100 EXP DUP2 SLOAD DUP2 PUSH20 0xFFFFFFFFFFFFFFFFFFFFFFFFFFFFFFFFFFFFFFFF MUL NOT AND SWAP1 DUP4 PUSH20 0xFFFFFFFFFFFFFFFFFFFFFFFFFFFFFFFFFFFFFFFF AND MUL OR SWAP1 SSTORE POP POP POP PUSH2 0x564 JUMP JUMPDEST PUSH0 PUSH1 0x40 MLOAD SWAP1 POP SWAP1 JUMP JUMPDEST PUSH0 DUP1 REVERT JUMPDEST PUSH0 DUP1 REVERT JUMPDEST PUSH0 DUP1 REVERT JUMPDEST PUSH0 DUP1 REVERT JUMPDEST PUSH0 PUSH1 0x1F NOT PUSH1 0x1F DUP4 ADD AND SWAP1 POP SWAP2 SWAP1 POP JUMP JUMPDEST PUSH32 0x4E487B7100000000000000000000000000000000000000000000000000000000 PUSH0 MSTORE PUSH1 0x41 PUSH1 0x4 MSTORE PUSH1 0x24 PUSH0 REVERT JUMPDEST PUSH2 0xE6 DUP3 PUSH2 0xA0 JUMP JUMPDEST DUP2 ADD DUP2 DUP2 LT PUSH8 0xFFFFFFFFFFFFFFFF DUP3 GT OR ISZERO PUSH2 0x105 JUMPI PUSH2 0x104 PUSH2 0xB0 JUMP JUMPDEST JUMPDEST DUP1 PUSH1 0x40 MSTORE POP POP POP JUMP JUMPDEST PUSH0 PUSH2 0x117 PUSH2 0x87 JUMP JUMPDEST SWAP1 POP PUSH2 0x123 DUP3 DUP3 PUSH2 0xDD JUMP JUMPDEST SWAP2 SWAP1 POP JUMP JUMPDEST PUSH0 PUSH8 0xFFFFFFFFFFFFFFFF DUP3 GT ISZERO PUSH2 0x142 JUMPI PUSH2 0x141 PUSH2 0xB0 JUMP JUMPDEST JUMPDEST PUSH2 0x14B DUP3 PUSH2 0xA0 JUMP JUMPDEST SWAP1 POP PUSH1 0x20 DUP2 ADD SWAP1 POP SWAP2 SWAP1 POP JUMP JUMPDEST DUP3 DUP2 DUP4 MCOPY PUSH0 DUP4 DUP4 ADD MSTORE POP POP POP JUMP JUMPDEST PUSH0 PUSH2 0x178 PUSH2 0x173 DUP5 PUSH2 0x128 JUMP JUMPDEST PUSH2 0x10E JUMP JUMPDEST SWAP1 POP DUP3 DUP2 MSTORE PUSH1 0x20 DUP2 ADD DUP5 DUP5 DUP5 ADD GT ISZERO PUSH2 0x194 JUMPI PUSH2 0x193 PUSH2 0x9C JUMP JUMPDEST JUMPDEST PUSH2 0x19F DUP5 DUP3 DUP6 PUSH2 0x158 JUMP JUMPDEST POP SWAP4 SWAP3 POP POP POP JUMP JUMPDEST PUSH0 DUP3 PUSH1 0x1F DUP4 ADD SLT PUSH2 0x1BB JUMPI PUSH2 0x1BA PUSH2 0x98 JUMP JUMPDEST JUMPDEST DUP2 MLOAD PUSH2 0x1CB DUP5 DUP3 PUSH1 0x20 DUP7 ADD PUSH2 0x166 JUMP JUMPDEST SWAP2 POP POP SWAP3 SWAP2 POP POP JUMP JUMPDEST PUSH0 PUSH20 0xFFFFFFFFFFFFFFFFFFFFFFFFFFFFFFFFFFFFFFFF DUP3 AND SWAP1 POP SWAP2 SWAP1 POP JUMP JUMPDEST PUSH0 PUSH2 0x1FD DUP3 PUSH2 0x1D4 JUMP JUMPDEST SWAP1 POP SWAP2 SWAP1 POP JUMP JUMPDEST PUSH2 0x20D DUP2 PUSH2 0x1F3 JUMP JUMPDEST DUP2 EQ PUSH2 0x217 JUMPI PUSH0 DUP1 REVERT JUMPDEST POP JUMP JUMPDEST PUSH0 DUP2 MLOAD SWAP1 POP PUSH2 0x228 DUP2 PUSH2 0x204 JUMP JUMPDEST SWAP3 SWAP2 POP POP JUMP JUMPDEST PUSH0 DUP1 PUSH1 0x40 DUP4 DUP6 SUB SLT ISZERO PUSH2 0x244 JUMPI PUSH2 0x243 PUSH2 0x90 JUMP JUMPDEST JUMPDEST PUSH0 DUP4 ADD MLOAD PUSH8 0xFFFFFFFFFFFFFFFF DUP2 GT ISZERO PUSH2 0x261 JUMPI PUSH2 0x260 PUSH2 0x94 JUMP JUMPDEST JUMPDEST PUSH2 0x26D DUP6 DUP3 DUP7 ADD PUSH2 0x1A7 JUMP JUMPDEST SWAP3 POP POP PUSH1 0x20 PUSH2 0x27E DUP6 DUP3 DUP7 ADD PUSH2 0x21A JUMP JUMPDEST SWAP2 POP POP SWAP3 POP SWAP3 SWAP1 POP JUMP JUMPDEST PUSH0 DUP2 MLOAD SWAP1 POP SWAP2 SWAP1 POP JUMP JUMPDEST PUSH32 0x4E487B7100000000000000000000000000000000000000000000000000000000 PUSH0 MSTORE PUSH1 0x22 PUSH1 0x4 MSTORE PUSH1 0x24 PUSH0 REVERT JUMPDEST PUSH0 PUSH1 0x2 DUP3 DIV SWAP1 POP PUSH1 0x1 DUP3 AND DUP1 PUSH2 0x2D6 JUMPI PUSH1 0x7F DUP3 AND SWAP2 POP JUMPDEST PUSH1 0x20 DUP3 LT DUP2 SUB PUSH2 0x2E9 JUMPI PUSH2 0x2E8 PUSH2 0x292 JUMP JUMPDEST JUMPDEST POP SWAP2 SWAP1 POP JUMP JUMPDEST PUSH0 DUP2 SWAP1 POP DUP2 PUSH0 MSTORE PUSH1 0x20 PUSH0 KECCAK256 SWAP1 POP SWAP2 SWAP1 POP JUMP JUMPDEST PUSH0 PUSH1 0x20 PUSH1 0x1F DUP4 ADD DIV SWAP1 POP SWAP2 SWAP1 POP JUMP JUMPDEST PUSH0 DUP3 DUP3 SHL SWAP1 POP SWAP3 SWAP2 POP POP JUMP JUMPDEST PUSH0 PUSH1 0x8 DUP4 MUL PUSH2 0x34B PUSH32 0xFFFFFFFFFFFFFFFFFFFFFFFFFFFFFFFFFFFFFFFFFFFFFFFFFFFFFFFFFFFFFFFF DUP3 PUSH2 0x310 JUMP JUMPDEST PUSH2 0x355 DUP7 DUP4 PUSH2 0x310 JUMP JUMPDEST SWAP6 POP DUP1 NOT DUP5 AND SWAP4 POP DUP1 DUP7 AND DUP5 OR SWAP3 POP POP POP SWAP4 SWAP3 POP POP POP JUMP JUMPDEST PUSH0 DUP2 SWAP1 POP SWAP2 SWAP1 POP JUMP JUMPDEST PUSH0 DUP2 SWAP1 POP SWAP2 SWAP1 POP JUMP JUMPDEST PUSH0 PUSH2 0x399 PUSH2 0x394 PUSH2 0x38F DUP5 PUSH2 0x36D JUMP JUMPDEST PUSH2 0x376 JUMP JUMPDEST PUSH2 0x36D JUMP JUMPDEST SWAP1 POP SWAP2 SWAP1 POP JUMP JUMPDEST PUSH0 DUP2 SWAP1 POP SWAP2 SWAP1 POP JUMP JUMPDEST PUSH2 0x3B2 DUP4 PUSH2 0x37F JUMP JUMPDEST PUSH2 0x3C6 PUSH2 0x3BE DUP3 PUSH2 0x3A0 JUMP JUMPDEST DUP5 DUP5 SLOAD PUSH2 0x31C JUMP JUMPDEST DUP3 SSTORE POP POP POP POP JUMP JUMPDEST PUSH0 SWAP1 JUMP JUMPDEST PUSH2 0x3DA PUSH2 0x3CE JUMP JUMPDEST PUSH2 0x3E5 DUP2 DUP5 DUP5 PUSH2 0x3A9 JUMP JUMPDEST POP POP POP JUMP JUMPDEST JUMPDEST DUP2 DUP2 LT ISZERO PUSH2 0x408 JUMPI PUSH2 0x3FD PUSH0 DUP3 PUSH2 0x3D2 JUMP JUMPDEST PUSH1 0x1 DUP2 ADD SWAP1 POP PUSH2 0x3EB JUMP JUMPDEST POP POP JUMP JUMPDEST PUSH1 0x1F DUP3 GT ISZERO PUSH2 0x44D JUMPI PUSH2 0x41E DUP2 PUSH2 0x2EF JUMP JUMPDEST PUSH2 0x427 DUP5 PUSH2 0x301 JUMP JUMPDEST DUP2 ADD PUSH1 0x20 DUP6 LT ISZERO PUSH2 0x436 JUMPI DUP2 SWAP1 POP JUMPDEST PUSH2 0x44A PUSH2 0x442 DUP6 PUSH2 0x301 JUMP JUMPDEST DUP4 ADD DUP3 PUSH2 0x3EA JUMP JUMPDEST POP POP JUMPDEST POP POP POP JUMP JUMPDEST PUSH0 DUP3 DUP3 SHR SWAP1 POP SWAP3 SWAP2 POP POP JUMP JUMPDEST PUSH0 PUSH2 0x46D PUSH0 NOT DUP5 PUSH1 0x8 MUL PUSH2 0x452 JUMP JUMPDEST NOT DUP1 DUP4 AND SWAP2 POP POP SWAP3 SWAP2 POP POP JUMP JUMPDEST PUSH0 PUSH2 0x485 DUP4 DUP4 PUSH2 0x45E JUMP JUMPDEST SWAP2 POP DUP3 PUSH1 0x2 MUL DUP3 OR SWAP1 POP SWAP3 SWAP2 POP POP JUMP JUMPDEST PUSH2 0x49E DUP3 PUSH2 0x288 JUMP JUMPDEST PUSH8 0xFFFFFFFFFFFFFFFF DUP2 GT ISZERO PUSH2 0x4B7 JUMPI PUSH2 0x4B6 PUSH2 0xB0 JUMP JUMPDEST JUMPDEST PUSH2 0x4C1 DUP3 SLOAD PUSH2 0x2BF JUMP JUMPDEST PUSH2 0x4CC DUP3 DUP3 DUP6 PUSH2 0x40C JUMP JUMPDEST PUSH0 PUSH1 0x20 SWAP1 POP PUSH1 0x1F DUP4 GT PUSH1 0x1 DUP2 EQ PUSH2 0x4FD JUMPI PUSH0 DUP5 ISZERO PUSH2 0x4EB JUMPI DUP3 DUP8 ADD MLOAD SWAP1 POP JUMPDEST PUSH2 0x4F5 DUP6 DUP3 PUSH2 0x47A JUMP JUMPDEST DUP7 SSTORE POP PUSH2 0x55C JUMP JUMPDEST PUSH1 0x1F NOT DUP5 AND PUSH2 0x50B DUP7 PUSH2 0x2EF JUMP JUMPDEST PUSH0 JUMPDEST DUP3 DUP2 LT ISZERO PUSH2 0x532 JUMPI DUP5 DUP10 ADD MLOAD DUP3 SSTORE PUSH1 0x1 DUP3 ADD SWAP2 POP PUSH1 0x20 DUP6 ADD SWAP5 POP PUSH1 0x20 DUP2 ADD SWAP1 POP PUSH2 0x50D JUMP JUMPDEST DUP7 DUP4 LT ISZERO PUSH2 0x54F JUMPI DUP5 DUP10 ADD MLOAD PUSH2 0x54B PUSH1 0x1F DUP10 AND DUP3 PUSH2 0x45E JUMP JUMPDEST DUP4 SSTORE POP JUMPDEST PUSH1 0x1 PUSH1 0x2 DUP9 MUL ADD DUP9 SSTORE POP POP POP JUMPDEST POP POP POP POP POP POP JUMP JUMPDEST PUSH2 0x4242 DUP1 PUSH2 0x571 PUSH0 CODECOPY PUSH0 RETURN INVALID PUSH1 0x80 PUSH1 0x40 MSTORE PUSH1 0x4 CALLDATASIZE LT PUSH2 0x10C JUMPI PUSH0 CALLDATALOAD PUSH1 0xE0 SHR DUP1 PUSH4 0xBAF61AC3 GT PUSH2 0x94 JUMPI DUP1 PUSH4 0xD283238B GT PUSH2 0x63 JUMPI DUP1 PUSH4 0xD283238B EQ PUSH2 0x381 JUMPI DUP1 PUSH4 0xD6D68177 EQ PUSH2 0x3BE JUMPI DUP1 PUSH4 0xE62E7F04 EQ PUSH2 0x400 JUMPI DUP1 PUSH4 0xFB580B76 EQ PUSH2 0x442 JUMPI DUP1 PUSH4 0xFF1529E7 EQ PUSH2 0x45E JUMPI PUSH2 0x113 JUMP JUMPDEST DUP1 PUSH4 0xBAF61AC3 EQ PUSH2 0x2CB JUMPI DUP1 PUSH4 0xBD66528A EQ PUSH2 0x307 JUMPI DUP1 PUSH4 0xC1A287E2 EQ PUSH2 0x32F JUMPI DUP1 PUSH4 0xC4D252F5 EQ PUSH2 0x359 JUMPI PUSH2 0x113 JUMP JUMPDEST DUP1 PUSH4 0x6B149D87 GT PUSH2 0xDB JUMPI DUP1 PUSH4 0x6B149D87 EQ PUSH2 0x1E7 JUMPI DUP1 PUSH4 0x7284E416 EQ PUSH2 0x211 JUMPI DUP1 PUSH4 0x85D3CA09 EQ PUSH2 0x23B JUMPI DUP1 PUSH4 0x8DA5CB5B EQ PUSH2 0x277 JUMPI DUP1 PUSH4 0x9F81AED7 EQ PUSH2 0x2A1 JUMPI PUSH2 0x113 JUMP JUMPDEST DUP1 PUSH4 0xDC051F8 EQ PUSH2 0x117 JUMPI DUP1 PUSH4 0x228250C9 EQ PUSH2 0x153 JUMPI DUP1 PUSH4 0x4125FF90 EQ PUSH2 0x195 JUMPI DUP1 PUSH4 0x4F4AC9A4 EQ PUSH2 0x1BF JUMPI PUSH2 0x113 JUMP JUMPDEST CALLDATASIZE PUSH2 0x113 JUMPI STOP JUMPDEST PUSH0 DUP1 REVERT JUMPDEST CALLVALUE DUP1 ISZERO PUSH2 0x122 JUMPI PUSH0 DUP1 REVERT JUMPDEST POP PUSH2 0x13D PUSH1 0x4 DUP1 CALLDATASIZE SUB DUP2 ADD SWAP1 PUSH2 0x138 SWAP2 SWAP1 PUSH2 0x2AFA JUMP JUMPDEST PUSH2 0x48E JUMP JUMPDEST PUSH1 0x40 MLOAD PUSH2 0x14A SWAP2 SWAP1 PUSH2 0x2B3F JUMP JUMPDEST PUSH1 0x40 MLOAD DUP1 SWAP2 SUB SWAP1 RETURN JUMPDEST CALLVALUE DUP1 ISZERO PUSH2 0x15E JUMPI PUSH0 DUP1 REVERT JUMPDEST POP PUSH2 0x179 PUSH1 0x4 DUP1 CALLDATASIZE SUB DUP2 ADD SWAP1 PUSH2 0x174 SWAP2 SWAP1 PUSH2 0x2AFA JUMP JUMPDEST PUSH2 0x504 JUMP JUMPDEST PUSH1 0x40 MLOAD PUSH2 0x18C SWAP8 SWAP7 SWAP6 SWAP5 SWAP4 SWAP3 SWAP2 SWAP1 PUSH2 0x2C2E JUMP JUMPDEST PUSH1 0x40 MLOAD DUP1 SWAP2 SUB SWAP1 RETURN JUMPDEST CALLVALUE DUP1 ISZERO PUSH2 0x1A0 JUMPI PUSH0 DUP1 REVERT JUMPDEST POP PUSH2 0x1A9 PUSH2 0x612 JUMP JUMPDEST PUSH1 0x40 MLOAD PUSH2 0x1B6 SWAP2 SWAP1 PUSH2 0x2CA2 JUMP JUMPDEST PUSH1 0x40 MLOAD DUP1 SWAP2 SUB SWAP1 RETURN JUMPDEST CALLVALUE DUP1 ISZERO PUSH2 0x1CA JUMPI PUSH0 DUP1 REVERT JUMPDEST POP PUSH2 0x1E5 PUSH1 0x4 DUP1 CALLDATASIZE SUB DUP2 ADD SWAP1 PUSH2 0x1E0 SWAP2 SWAP1 PUSH2 0x2D46 JUMP JUMPDEST PUSH2 0x619 JUMP JUMPDEST STOP JUMPDEST CALLVALUE DUP1 ISZERO PUSH2 0x1F2 JUMPI PUSH0 DUP1 REVERT JUMPDEST POP PUSH2 0x1FB PUSH2 0xA81 JUMP JUMPDEST PUSH1 0x40 MLOAD PUSH2 0x208 SWAP2 SWAP1 PUSH2 0x2F8F JUMP JUMPDEST PUSH1 0x40 MLOAD DUP1 SWAP2 SUB SWAP1 RETURN JUMPDEST CALLVALUE DUP1 ISZERO PUSH2 0x21C JUMPI PUSH0 DUP1 REVERT JUMPDEST POP PUSH2 0x225 PUSH2 0xC89 JUMP JUMPDEST PUSH1 0x40 MLOAD PUSH2 0x232 SWAP2 SWAP1 PUSH2 0x2FAF JUMP JUMPDEST PUSH1 0x40 MLOAD DUP1 SWAP2 SUB SWAP1 RETURN JUMPDEST CALLVALUE DUP1 ISZERO PUSH2 0x246 JUMPI PUSH0 DUP1 REVERT JUMPDEST POP PUSH2 0x261 PUSH1 0x4 DUP1 CALLDATASIZE SUB DUP2 ADD SWAP1 PUSH2 0x25C SWAP2 SWAP1 PUSH2 0x2D46 JUMP JUMPDEST PUSH2 0xD15 JUMP JUMPDEST PUSH1 0x40 MLOAD PUSH2 0x26E SWAP2 SWAP1 PUSH2 0x2FCF JUMP JUMPDEST PUSH1 0x40 MLOAD DUP1 SWAP2 SUB SWAP1 RETURN JUMPDEST CALLVALUE DUP1 ISZERO PUSH2 0x282 JUMPI PUSH0 DUP1 REVERT JUMPDEST POP PUSH2 0x28B PUSH2 0xD4D JUMP JUMPDEST PUSH1 0x40 MLOAD PUSH2 0x298 SWAP2 SWAP1 PUSH2 0x2FE8 JUMP JUMPDEST PUSH1 0x40 MLOAD DUP1 SWAP2 SUB SWAP1 RETURN JUMPDEST CALLVALUE DUP1 ISZERO PUSH2 0x2AC JUMPI PUSH0 DUP1 REVERT JUMPDEST POP PUSH2 0x2B5 PUSH2 0xD70 JUMP JUMPDEST PUSH1 0x40 MLOAD PUSH2 0x2C2 SWAP2 SWAP1 PUSH2 0x2CA2 JUMP JUMPDEST PUSH1 0x40 MLOAD DUP1 SWAP2 SUB SWAP1 RETURN JUMPDEST CALLVALUE DUP1 ISZERO PUSH2 0x2D6 JUMPI PUSH0 DUP1 REVERT JUMPDEST POP PUSH2 0x2F1 PUSH1 0x4 DUP1 CALLDATASIZE SUB DUP2 ADD SWAP1 PUSH2 0x2EC SWAP2 SWAP1 PUSH2 0x3153 JUMP JUMPDEST PUSH2 0xD75 JUMP JUMPDEST PUSH1 0x40 MLOAD PUSH2 0x2FE SWAP2 SWAP1 PUSH2 0x2FCF JUMP JUMPDEST PUSH1 0x40 MLOAD DUP1 SWAP2 SUB SWAP1 RETURN JUMPDEST CALLVALUE DUP1 ISZERO PUSH2 0x312 JUMPI PUSH0 DUP1 REVERT JUMPDEST POP PUSH2 0x32D PUSH1 0x4 DUP1 CALLDATASIZE SUB DUP2 ADD SWAP1 PUSH2 0x328 SWAP2 SWAP1 PUSH2 0x2AFA JUMP JUMPDEST PUSH2 0xDB0 JUMP JUMPDEST STOP JUMPDEST CALLVALUE DUP1 ISZERO PUSH2 0x33A JUMPI PUSH0 DUP1 REVERT JUMPDEST POP PUSH2 0x343 PUSH2 0x10E2 JUMP JUMPDEST PUSH1 0x40 MLOAD PUSH2 0x350 SWAP2 SWAP1 PUSH2 0x2CA2 JUMP JUMPDEST PUSH1 0x40 MLOAD DUP1 SWAP2 SUB SWAP1 RETURN JUMPDEST CALLVALUE DUP1 ISZERO PUSH2 0x364 JUMPI PUSH0 DUP1 REVERT JUMPDEST POP PUSH2 0x37F PUSH1 0x4 DUP1 CALLDATASIZE SUB DUP2 ADD SWAP1 PUSH2 0x37A SWAP2 SWAP1 PUSH2 0x2AFA JUMP JUMPDEST PUSH2 0x10E9 JUMP JUMPDEST STOP JUMPDEST CALLVALUE DUP1 ISZERO PUSH2 0x38C JUMPI PUSH0 DUP1 REVERT JUMPDEST POP PUSH2 0x3A7 PUSH1 0x4 DUP1 CALLDATASIZE SUB DUP2 ADD SWAP1 PUSH2 0x3A2 SWAP2 SWAP1 PUSH2 0x2AFA JUMP JUMPDEST PUSH2 0x14F9 JUMP JUMPDEST PUSH1 0x40 MLOAD PUSH2 0x3B5 SWAP3 SWAP2 SWAP1 PUSH2 0x327F JUMP JUMPDEST PUSH1 0x40 MLOAD DUP1 SWAP2 SUB SWAP1 RETURN JUMPDEST CALLVALUE DUP1 ISZERO PUSH2 0x3C9 JUMPI PUSH0 DUP1 REVERT JUMPDEST POP PUSH2 0x3E4 PUSH1 0x4 DUP1 CALLDATASIZE SUB DUP2 ADD SWAP1 PUSH2 0x3DF SWAP2 SWAP1 PUSH2 0x32AD JUMP JUMPDEST PUSH2 0x17AC JUMP JUMPDEST PUSH1 0x40 MLOAD PUSH2 0x3F7 SWAP8 SWAP7 SWAP6 SWAP5 SWAP4 SWAP3 SWAP2 SWAP1 PUSH2 0x2C2E JUMP JUMPDEST PUSH1 0x40 MLOAD DUP1 SWAP2 SUB SWAP1 RETURN JUMPDEST CALLVALUE DUP1 ISZERO PUSH2 0x40B JUMPI PUSH0 DUP1 REVERT JUMPDEST POP PUSH2 0x426 PUSH1 0x4 DUP1 CALLDATASIZE SUB DUP2 ADD SWAP1 PUSH2 0x421 SWAP2 SWAP1 PUSH2 0x2AFA JUMP JUMPDEST PUSH2 0x18D4 JUMP JUMPDEST PUSH1 0x40 MLOAD PUSH2 0x439 SWAP8 SWAP7 SWAP6 SWAP5 SWAP4 SWAP3 SWAP2 SWAP1 PUSH2 0x2C2E JUMP JUMPDEST PUSH1 0x40 MLOAD DUP1 SWAP2 SUB SWAP1 RETURN JUMPDEST PUSH2 0x45C PUSH1 0x4 DUP1 CALLDATASIZE SUB DUP2 ADD SWAP1 PUSH2 0x457 SWAP2 SWAP1 PUSH2 0x32EB JUMP JUMPDEST PUSH2 0x19E2 JUMP JUMPDEST STOP JUMPDEST PUSH2 0x478 PUSH1 0x4 DUP1 CALLDATASIZE SUB DUP2 ADD SWAP1 PUSH2 0x473 SWAP2 SWAP1 PUSH2 0x2D46 JUMP JUMPDEST PUSH2 0x2089 JUMP JUMPDEST PUSH1 0x40 MLOAD PUSH2 0x485 SWAP2 SWAP1 PUSH2 0x33D0 JUMP JUMPDEST PUSH1 0x40 MLOAD DUP1 SWAP2 SUB SWAP1 RETURN JUMPDEST PUSH0 DUP1 PUSH20 0xFFFFFFFFFFFFFFFFFFFFFFFFFFFFFFFFFFFFFFFF AND PUSH1 0x4 PUSH0 DUP5 DUP2 MSTORE PUSH1 0x20 ADD SWAP1 DUP2 MSTORE PUSH1 0x20 ADD PUSH0 KECCAK256 PUSH1 0x3 ADD PUSH0 SWAP1 SLOAD SWAP1 PUSH2 0x100 EXP SWAP1 DIV PUSH20 0xFFFFFFFFFFFFFFFFFFFFFFFFFFFFFFFFFFFFFFFF AND PUSH20 0xFFFFFFFFFFFFFFFFFFFFFFFFFFFFFFFFFFFFFFFF AND EQ PUSH2 0x4FE JUMPI PUSH1 0x1 SWAP1 POP PUSH2 0x4FF JUMP JUMPDEST JUMPDEST SWAP2 SWAP1 POP JUMP JUMPDEST PUSH1 0x4 PUSH1 0x20 MSTORE DUP1 PUSH0 MSTORE PUSH1 0x40 PUSH0 KECCAK256 PUSH0 SWAP2 POP SWAP1 POP DUP1 PUSH0 ADD SLOAD SWAP1 DUP1 PUSH1 0x1 ADD DUP1 SLOAD PUSH2 0x529 SWAP1 PUSH2 0x341D JUMP JUMPDEST DUP1 PUSH1 0x1F ADD PUSH1 0x20 DUP1 SWAP2 DIV MUL PUSH1 0x20 ADD PUSH1 0x40 MLOAD SWAP1 DUP2 ADD PUSH1 0x40 MSTORE DUP1 SWAP3 SWAP2 SWAP1 DUP2 DUP2 MSTORE PUSH1 0x20 ADD DUP3 DUP1 SLOAD PUSH2 0x555 SWAP1 PUSH2 0x341D JUMP JUMPDEST DUP1 ISZERO PUSH2 0x5A0 JUMPI DUP1 PUSH1 0x1F LT PUSH2 0x577 JUMPI PUSH2 0x100 DUP1 DUP4 SLOAD DIV MUL DUP4 MSTORE SWAP2 PUSH1 0x20 ADD SWAP2 PUSH2 0x5A0 JUMP JUMPDEST DUP3 ADD SWAP2 SWAP1 PUSH0 MSTORE PUSH1 0x20 PUSH0 KECCAK256 SWAP1 JUMPDEST DUP2 SLOAD DUP2 MSTORE SWAP1 PUSH1 0x1 ADD SWAP1 PUSH1 0x20 ADD DUP1 DUP4 GT PUSH2 0x583 JUMPI DUP3 SWAP1 SUB PUSH1 0x1F AND DUP3 ADD SWAP2 JUMPDEST POP POP POP POP POP SWAP1 DUP1 PUSH1 0x2 ADD PUSH0 SWAP1 SLOAD SWAP1 PUSH2 0x100 EXP SWAP1 DIV PUSH20 0xFFFFFFFFFFFFFFFFFFFFFFFFFFFFFFFFFFFFFFFF AND SWAP1 DUP1 PUSH1 0x3 ADD PUSH0 SWAP1 SLOAD SWAP1 PUSH2 0x100 EXP SWAP1 DIV PUSH20 0xFFFFFFFFFFFFFFFFFFFFFFFFFFFFFFFFFFFFFFFF AND SWAP1 DUP1 PUSH1 0x4 ADD SLOAD SWAP1 DUP1 PUSH1 0x5 ADD SLOAD SWAP1 DUP1 PUSH1 0x6 ADD PUSH0 SWAP1 SLOAD SWAP1 PUSH2 0x100 EXP SWAP1 DIV PUSH1 0xFF AND SWAP1 POP DUP8 JUMP JUMPDEST PUSH3 0x2A300 DUP2 JUMP JUMPDEST PUSH0 DUP1 SLOAD SWAP1 PUSH2 0x100 EXP SWAP1 DIV PUSH20 0xFFFFFFFFFFFFFFFFFFFFFFFFFFFFFFFFFFFFFFFF AND PUSH20 0xFFFFFFFFFFFFFFFFFFFFFFFFFFFFFFFFFFFFFFFF AND CALLER PUSH20 0xFFFFFFFFFFFFFFFFFFFFFFFFFFFFFFFFFFFFFFFF AND EQ PUSH2 0x6A6 JUMPI PUSH1 0x40 MLOAD PUSH32 0x8C379A000000000000000000000000000000000000000000000000000000000 DUP2 MSTORE PUSH1 0x4 ADD PUSH2 0x69D SWAP1 PUSH2 0x34BD JUMP JUMPDEST PUSH1 0x40 MLOAD DUP1 SWAP2 SUB SWAP1 REVERT JUMPDEST PUSH0 PUSH1 0x3 PUSH0 DUP6 DUP2 MSTORE PUSH1 0x20 ADD SWAP1 DUP2 MSTORE PUSH1 0x20 ADD PUSH0 KECCAK256 PUSH1 0x40 MLOAD DUP1 PUSH1 0xE0 ADD PUSH1 0x40 MSTORE SWAP1 DUP2 PUSH0 DUP3 ADD SLOAD DUP2 MSTORE PUSH1 0x20 ADD PUSH1 0x1 DUP3 ADD DUP1 SLOAD PUSH2 0x6DC SWAP1 PUSH2 0x341D JUMP JUMPDEST DUP1 PUSH1 0x1F ADD PUSH1 0x20 DUP1 SWAP2 DIV MUL PUSH1 0x20 ADD PUSH1 0x40 MLOAD SWAP1 DUP2 ADD PUSH1 0x40 MSTORE DUP1 SWAP3 SWAP2 SWAP1 DUP2 DUP2 MSTORE PUSH1 0x20 ADD DUP3 DUP1 SLOAD PUSH2 0x708 SWAP1 PUSH2 0x341D JUMP JUMPDEST DUP1 ISZERO PUSH2 0x753 JUMPI DUP1 PUSH1 0x1F LT PUSH2 0x72A JUMPI PUSH2 0x100 DUP1 DUP4 SLOAD DIV MUL DUP4 MSTORE SWAP2 PUSH1 0x20 ADD SWAP2 PUSH2 0x753 JUMP JUMPDEST DUP3 ADD SWAP2 SWAP1 PUSH0 MSTORE PUSH1 0x20 PUSH0 KECCAK256 SWAP1 JUMPDEST DUP2 SLOAD DUP2 MSTORE SWAP1 PUSH1 0x1 ADD SWAP1 PUSH1 0x20 ADD DUP1 DUP4 GT PUSH2 0x736 JUMPI DUP3 SWAP1 SUB PUSH1 0x1F AND DUP3 ADD SWAP2 JUMPDEST POP POP POP POP POP DUP2 MSTORE PUSH1 0x20 ADD PUSH1 0x2 DUP3 ADD PUSH0 SWAP1 SLOAD SWAP1 PUSH2 0x100 EXP SWAP1 DIV PUSH20 0xFFFFFFFFFFFFFFFFFFFFFFFFFFFFFFFFFFFFFFFF AND PUSH20 0xFFFFFFFFFFFFFFFFFFFFFFFFFFFFFFFFFFFFFFFF AND PUSH20 0xFFFFFFFFFFFFFFFFFFFFFFFFFFFFFFFFFFFFFFFF AND DUP2 MSTORE PUSH1 0x20 ADD PUSH1 0x3 DUP3 ADD PUSH0 SWAP1 SLOAD SWAP1 PUSH2 0x100 EXP SWAP1 DIV PUSH20 0xFFFFFFFFFFFFFFFFFFFFFFFFFFFFFFFFFFFFFFFF AND PUSH20 0xFFFFFFFFFFFFFFFFFFFFFFFFFFFFFFFFFFFFFFFF AND PUSH20 0xFFFFFFFFFFFFFFFFFFFFFFFFFFFFFFFFFFFFFFFF AND DUP2 MSTORE PUSH1 0x20 ADD PUSH1 0x4 DUP3 ADD SLOAD DUP2 MSTORE PUSH1 0x20 ADD PUSH1 0x5 DUP3 ADD SLOAD DUP2 MSTORE PUSH1 0x20 ADD PUSH1 0x6 DUP3 ADD PUSH0 SWAP1 SLOAD SWAP1 PUSH2 0x100 EXP SWAP1 DIV PUSH1 0xFF AND ISZERO ISZERO ISZERO ISZERO DUP2 MSTORE POP POP SWAP1 POP PUSH0 PUSH2 0x843 DUP7 DUP7 DUP7 DUP7 PUSH2 0xD15 JUMP JUMPDEST SWAP1 POP PUSH0 ISZERO ISZERO PUSH2 0x851 DUP3 PUSH2 0x48E JUMP JUMPDEST ISZERO ISZERO EQ PUSH2 0x893 JUMPI PUSH1 0x40 MLOAD PUSH32 0x8C379A000000000000000000000000000000000000000000000000000000000 DUP2 MSTORE PUSH1 0x4 ADD PUSH2 0x88A SWAP1 PUSH2 0x3525 JUMP JUMPDEST PUSH1 0x40 MLOAD DUP1 SWAP2 SUB SWAP1 REVERT JUMPDEST PUSH1 0xA TIMESTAMP PUSH2 0x8A0 SWAP2 SWAP1 PUSH2 0x3570 JUMP JUMPDEST DUP3 PUSH1 0xA0 ADD MLOAD GT DUP1 ISZERO PUSH2 0x8C3 JUMPI POP PUSH3 0x2A300 TIMESTAMP PUSH2 0x8BC SWAP2 SWAP1 PUSH2 0x3570 JUMP JUMPDEST DUP3 PUSH1 0xA0 ADD MLOAD LT JUMPDEST PUSH2 0x902 JUMPI PUSH1 0x40 MLOAD PUSH32 0x8C379A000000000000000000000000000000000000000000000000000000000 DUP2 MSTORE PUSH1 0x4 ADD PUSH2 0x8F9 SWAP1 PUSH2 0x35ED JUMP JUMPDEST PUSH1 0x40 MLOAD DUP1 SWAP2 SUB SWAP1 REVERT JUMPDEST DUP2 PUSH1 0x4 PUSH0 DUP4 DUP2 MSTORE PUSH1 0x20 ADD SWAP1 DUP2 MSTORE PUSH1 0x20 ADD PUSH0 KECCAK256 PUSH0 DUP3 ADD MLOAD DUP2 PUSH0 ADD SSTORE PUSH1 0x20 DUP3 ADD MLOAD DUP2 PUSH1 0x1 ADD SWAP1 DUP2 PUSH2 0x931 SWAP2 SWAP1 PUSH2 0x37A8 JUMP JUMPDEST POP PUSH1 0x40 DUP3 ADD MLOAD DUP2 PUSH1 0x2 ADD PUSH0 PUSH2 0x100 EXP DUP2 SLOAD DUP2 PUSH20 0xFFFFFFFFFFFFFFFFFFFFFFFFFFFFFFFFFFFFFFFF MUL NOT AND SWAP1 DUP4 PUSH20 0xFFFFFFFFFFFFFFFFFFFFFFFFFFFFFFFFFFFFFFFF AND MUL OR SWAP1 SSTORE POP PUSH1 0x60 DUP3 ADD MLOAD DUP2 PUSH1 0x3 ADD PUSH0 PUSH2 0x100 EXP DUP2 SLOAD DUP2 PUSH20 0xFFFFFFFFFFFFFFFFFFFFFFFFFFFFFFFFFFFFFFFF MUL NOT AND SWAP1 DUP4 PUSH20 0xFFFFFFFFFFFFFFFFFFFFFFFFFFFFFFFFFFFFFFFF AND MUL OR SWAP1 SSTORE POP PUSH1 0x80 DUP3 ADD MLOAD DUP2 PUSH1 0x4 ADD SSTORE PUSH1 0xA0 DUP3 ADD MLOAD DUP2 PUSH1 0x5 ADD SSTORE PUSH1 0xC0 DUP3 ADD MLOAD DUP2 PUSH1 0x6 ADD PUSH0 PUSH2 0x100 EXP DUP2 SLOAD DUP2 PUSH1 0xFF MUL NOT AND SWAP1 DUP4 ISZERO ISZERO MUL OR SWAP1 SSTORE POP SWAP1 POP POP DUP2 PUSH1 0x60 ADD MLOAD PUSH20 0xFFFFFFFFFFFFFFFFFFFFFFFFFFFFFFFFFFFFFFFF AND DUP7 PUSH20 0xFFFFFFFFFFFFFFFFFFFFFFFFFFFFFFFFFFFFFFFF AND DUP3 PUSH32 0x4762453FF07AFA9B0DC3D8842A3BB2C3BADA1FEC4956FC404DBCC3C7EE45457E DUP6 PUSH1 0x80 ADD MLOAD DUP9 DUP9 DUP9 PUSH1 0xA0 ADD MLOAD PUSH1 0x40 MLOAD PUSH2 0xA64 SWAP5 SWAP4 SWAP3 SWAP2 SWAP1 PUSH2 0x38A3 JUMP JUMPDEST PUSH1 0x40 MLOAD DUP1 SWAP2 SUB SWAP1 LOG4 PUSH2 0xA74 PUSH2 0x29F6 JUMP JUMPDEST SWAP2 POP PUSH0 SWAP1 POP POP POP POP POP POP POP JUMP JUMPDEST PUSH1 0x60 PUSH1 0x2 PUSH0 CALLER PUSH20 0xFFFFFFFFFFFFFFFFFFFFFFFFFFFFFFFFFFFFFFFF AND PUSH20 0xFFFFFFFFFFFFFFFFFFFFFFFFFFFFFFFFFFFFFFFF AND DUP2 MSTORE PUSH1 0x20 ADD SWAP1 DUP2 MSTORE PUSH1 0x20 ADD PUSH0 KECCAK256 DUP1 SLOAD DUP1 PUSH1 0x20 MUL PUSH1 0x20 ADD PUSH1 0x40 MLOAD SWAP1 DUP2 ADD PUSH1 0x40 MSTORE DUP1 SWAP3 SWAP2 SWAP1 DUP2 DUP2 MSTORE PUSH1 0x20 ADD PUSH0 SWAP1 JUMPDEST DUP3 DUP3 LT ISZERO PUSH2 0xC80 JUMPI DUP4 DUP3 SWAP1 PUSH0 MSTORE PUSH1 0x20 PUSH0 KECCAK256 SWAP1 PUSH1 0x7 MUL ADD PUSH1 0x40 MLOAD DUP1 PUSH1 0xE0 ADD PUSH1 0x40 MSTORE SWAP1 DUP2 PUSH0 DUP3 ADD SLOAD DUP2 MSTORE PUSH1 0x20 ADD PUSH1 0x1 DUP3 ADD DUP1 SLOAD PUSH2 0xB19 SWAP1 PUSH2 0x341D JUMP JUMPDEST DUP1 PUSH1 0x1F ADD PUSH1 0x20 DUP1 SWAP2 DIV MUL PUSH1 0x20 ADD PUSH1 0x40 MLOAD SWAP1 DUP2 ADD PUSH1 0x40 MSTORE DUP1 SWAP3 SWAP2 SWAP1 DUP2 DUP2 MSTORE PUSH1 0x20 ADD DUP3 DUP1 SLOAD PUSH2 0xB45 SWAP1 PUSH2 0x341D JUMP JUMPDEST DUP1 ISZERO PUSH2 0xB90 JUMPI DUP1 PUSH1 0x1F LT PUSH2 0xB67 JUMPI PUSH2 0x100 DUP1 DUP4 SLOAD DIV MUL DUP4 MSTORE SWAP2 PUSH1 0x20 ADD SWAP2 PUSH2 0xB90 JUMP JUMPDEST DUP3 ADD SWAP2 SWAP1 PUSH0 MSTORE PUSH1 0x20 PUSH0 KECCAK256 SWAP1 JUMPDEST DUP2 SLOAD DUP2 MSTORE SWAP1 PUSH1 0x1 ADD SWAP1 PUSH1 0x20 ADD DUP1 DUP4 GT PUSH2 0xB73 JUMPI DUP3 SWAP1 SUB PUSH1 0x1F AND DUP3 ADD SWAP2 JUMPDEST POP POP POP POP POP DUP2 MSTORE PUSH1 0x20 ADD PUSH1 0x2 DUP3 ADD PUSH0 SWAP1 SLOAD SWAP1 PUSH2 0x100 EXP SWAP1 DIV PUSH20 0xFFFFFFFFFFFFFFFFFFFFFFFFFFFFFFFFFFFFFFFF AND PUSH20 0xFFFFFFFFFFFFFFFFFFFFFFFFFFFFFFFFFFFFFFFF AND PUSH20 0xFFFFFFFFFFFFFFFFFFFFFFFFFFFFFFFFFFFFFFFF AND DUP2 MSTORE PUSH1 0x20 ADD PUSH1 0x3 DUP3 ADD PUSH0 SWAP1 SLOAD SWAP1 PUSH2 0x100 EXP SWAP1 DIV PUSH20 0xFFFFFFFFFFFFFFFFFFFFFFFFFFFFFFFFFFFFFFFF AND PUSH20 0xFFFFFFFFFFFFFFFFFFFFFFFFFFFFFFFFFFFFFFFF AND PUSH20 0xFFFFFFFFFFFFFFFFFFFFFFFFFFFFFFFFFFFFFFFF AND DUP2 MSTORE PUSH1 0x20 ADD PUSH1 0x4 DUP3 ADD SLOAD DUP2 MSTORE PUSH1 0x20 ADD PUSH1 0x5 DUP3 ADD SLOAD DUP2 MSTORE PUSH1 0x20 ADD PUSH1 0x6 DUP3 ADD PUSH0 SWAP1 SLOAD SWAP1 PUSH2 0x100 EXP SWAP1 DIV PUSH1 0xFF AND ISZERO ISZERO ISZERO ISZERO DUP2 MSTORE POP POP DUP2 MSTORE PUSH1 0x20 ADD SWAP1 PUSH1 0x1 ADD SWAP1 PUSH2 0xADF JUMP JUMPDEST POP POP POP POP SWAP1 POP SWAP1 JUMP JUMPDEST PUSH1 0x1 DUP1 SLOAD PUSH2 0xC96 SWAP1 PUSH2 0x341D JUMP JUMPDEST DUP1 PUSH1 0x1F ADD PUSH1 0x20 DUP1 SWAP2 DIV MUL PUSH1 0x20 ADD PUSH1 0x40 MLOAD SWAP1 DUP2 ADD PUSH1 0x40 MSTORE DUP1 SWAP3 SWAP2 SWAP1 DUP2 DUP2 MSTORE PUSH1 0x20 ADD DUP3 DUP1 SLOAD PUSH2 0xCC2 SWAP1 PUSH2 0x341D JUMP JUMPDEST DUP1 ISZERO PUSH2 0xD0D JUMPI DUP1 PUSH1 0x1F LT PUSH2 0xCE4 JUMPI PUSH2 0x100 DUP1 DUP4 SLOAD DIV MUL DUP4 MSTORE SWAP2 PUSH1 0x20 ADD SWAP2 PUSH2 0xD0D JUMP JUMPDEST DUP3 ADD SWAP2 SWAP1 PUSH0 MSTORE PUSH1 0x20 PUSH0 KECCAK256 SWAP1 JUMPDEST DUP2 SLOAD DUP2 MSTORE SWAP1 PUSH1 0x1 ADD SWAP1 PUSH1 0x20 ADD DUP1 DUP4 GT PUSH2 0xCF0 JUMPI DUP3 SWAP1 SUB PUSH1 0x1F AND DUP3 ADD SWAP2 JUMPDEST POP POP POP POP POP DUP2 JUMP JUMPDEST PUSH0 DUP5 DUP5 DUP5 DUP5 PUSH1 0x40 MLOAD PUSH1 0x20 ADD PUSH2 0xD2D SWAP5 SWAP4 SWAP3 SWAP2 SWAP1 PUSH2 0x38E1 JUMP JUMPDEST PUSH1 0x40 MLOAD PUSH1 0x20 DUP2 DUP4 SUB SUB DUP2 MSTORE SWAP1 PUSH1 0x40 MSTORE DUP1 MLOAD SWAP1 PUSH1 0x20 ADD KECCAK256 SWAP1 POP SWAP5 SWAP4 POP POP POP POP JUMP JUMPDEST PUSH0 DUP1 SLOAD SWAP1 PUSH2 0x100 EXP SWAP1 DIV PUSH20 0xFFFFFFFFFFFFFFFFFFFFFFFFFFFFFFFFFFFFFFFF AND DUP2 JUMP JUMPDEST PUSH1 0xA DUP2 JUMP JUMPDEST PUSH0 DUP6 DUP6 DUP6 DUP6 DUP6 PUSH1 0x40 MLOAD PUSH1 0x20 ADD PUSH2 0xD8F SWAP6 SWAP5 SWAP4 SWAP3 SWAP2 SWAP1 PUSH2 0x391F JUMP JUMPDEST PUSH1 0x40 MLOAD PUSH1 0x20 DUP2 DUP4 SUB SUB DUP2 MSTORE SWAP1 PUSH1 0x40 MSTORE DUP1 MLOAD SWAP1 PUSH1 0x20 ADD KECCAK256 SWAP1 POP SWAP6 SWAP5 POP POP POP POP POP JUMP JUMPDEST PUSH0 DUP1 SLOAD SWAP1 PUSH2 0x100 EXP SWAP1 DIV PUSH20 0xFFFFFFFFFFFFFFFFFFFFFFFFFFFFFFFFFFFFFFFF AND PUSH20 0xFFFFFFFFFFFFFFFFFFFFFFFFFFFFFFFFFFFFFFFF AND CALLER PUSH20 0xFFFFFFFFFFFFFFFFFFFFFFFFFFFFFFFFFFFFFFFF AND EQ PUSH2 0xE3D JUMPI PUSH1 0x40 MLOAD PUSH32 0x8C379A000000000000000000000000000000000000000000000000000000000 DUP2 MSTORE PUSH1 0x4 ADD PUSH2 0xE34 SWAP1 PUSH2 0x34BD JUMP JUMPDEST PUSH1 0x40 MLOAD DUP1 SWAP2 SUB SWAP1 REVERT JUMPDEST PUSH0 DUP1 PUSH2 0xE48 DUP4 PUSH2 0x14F9 JUMP JUMPDEST SWAP2 POP SWAP2 POP PUSH0 ISZERO ISZERO DUP3 PUSH1 0xC0 ADD MLOAD ISZERO ISZERO EQ DUP1 ISZERO PUSH2 0xE86 JUMPI POP PUSH0 ISZERO ISZERO PUSH1 0x3 PUSH0 DUP6 DUP2 MSTORE PUSH1 0x20 ADD SWAP1 DUP2 MSTORE PUSH1 0x20 ADD PUSH0 KECCAK256 PUSH1 0x6 ADD PUSH0 SWAP1 SLOAD SWAP1 PUSH2 0x100 EXP SWAP1 DIV PUSH1 0xFF AND ISZERO ISZERO EQ JUMPDEST PUSH2 0xEC5 JUMPI PUSH1 0x40 MLOAD PUSH32 0x8C379A000000000000000000000000000000000000000000000000000000000 DUP2 MSTORE PUSH1 0x4 ADD PUSH2 0xEBC SWAP1 PUSH2 0x39E7 JUMP JUMPDEST PUSH1 0x40 MLOAD DUP1 SWAP2 SUB SWAP1 REVERT JUMPDEST PUSH1 0x40 MLOAD DUP1 PUSH1 0xE0 ADD PUSH1 0x40 MSTORE DUP1 DUP5 DUP2 MSTORE PUSH1 0x20 ADD DUP4 PUSH1 0x20 ADD MLOAD DUP2 MSTORE PUSH1 0x20 ADD DUP4 PUSH1 0x40 ADD MLOAD PUSH20 0xFFFFFFFFFFFFFFFFFFFFFFFFFFFFFFFFFFFFFFFF AND DUP2 MSTORE PUSH1 0x20 ADD DUP4 PUSH1 0x60 ADD MLOAD PUSH20 0xFFFFFFFFFFFFFFFFFFFFFFFFFFFFFFFFFFFFFFFF AND DUP2 MSTORE PUSH1 0x20 ADD DUP4 PUSH1 0x80 ADD MLOAD DUP2 MSTORE PUSH1 0x20 ADD DUP4 PUSH1 0xA0 ADD MLOAD DUP2 MSTORE PUSH1 0x20 ADD PUSH1 0x1 ISZERO ISZERO DUP2 MSTORE POP PUSH1 0x2 PUSH0 DUP5 PUSH1 0x40 ADD MLOAD PUSH20 0xFFFFFFFFFFFFFFFFFFFFFFFFFFFFFFFFFFFFFFFF AND PUSH20 0xFFFFFFFFFFFFFFFFFFFFFFFFFFFFFFFFFFFFFFFF AND DUP2 MSTORE PUSH1 0x20 ADD SWAP1 DUP2 MSTORE PUSH1 0x20 ADD PUSH0 KECCAK256 DUP3 DUP2 SLOAD DUP2 LT PUSH2 0xF8E JUMPI PUSH2 0xF8D PUSH2 0x3A05 JUMP JUMPDEST JUMPDEST SWAP1 PUSH0 MSTORE PUSH1 0x20 PUSH0 KECCAK256 SWAP1 PUSH1 0x7 MUL ADD PUSH0 DUP3 ADD MLOAD DUP2 PUSH0 ADD SSTORE PUSH1 0x20 DUP3 ADD MLOAD DUP2 PUSH1 0x1 ADD SWAP1 DUP2 PUSH2 0xFB7 SWAP2 SWAP1 PUSH2 0x37A8 JUMP JUMPDEST POP PUSH1 0x40 DUP3 ADD MLOAD DUP2 PUSH1 0x2 ADD PUSH0 PUSH2 0x100 EXP DUP2 SLOAD DUP2 PUSH20 0xFFFFFFFFFFFFFFFFFFFFFFFFFFFFFFFFFFFFFFFF MUL NOT AND SWAP1 DUP4 PUSH20 0xFFFFFFFFFFFFFFFFFFFFFFFFFFFFFFFFFFFFFFFF AND MUL OR SWAP1 SSTORE POP PUSH1 0x60 DUP3 ADD MLOAD DUP2 PUSH1 0x3 ADD PUSH0 PUSH2 0x100 EXP DUP2 SLOAD DUP2 PUSH20 0xFFFFFFFFFFFFFFFFFFFFFFFFFFFFFFFFFFFFFFFF MUL NOT AND SWAP1 DUP4 PUSH20 0xFFFFFFFFFFFFFFFFFFFFFFFFFFFFFFFFFFFFFFFF AND MUL OR SWAP1 SSTORE POP PUSH1 0x80 DUP3 ADD MLOAD DUP2 PUSH1 0x4 ADD SSTORE PUSH1 0xA0 DUP3 ADD MLOAD DUP2 PUSH1 0x5 ADD SSTORE PUSH1 0xC0 DUP3 ADD MLOAD DUP2 PUSH1 0x6 ADD PUSH0 PUSH2 0x100 EXP DUP2 SLOAD DUP2 PUSH1 0xFF MUL NOT AND SWAP1 DUP4 ISZERO ISZERO MUL OR SWAP1 SSTORE POP SWAP1 POP POP PUSH1 0x1 PUSH1 0x3 PUSH0 DUP6 DUP2 MSTORE PUSH1 0x20 ADD SWAP1 DUP2 MSTORE PUSH1 0x20 ADD PUSH0 KECCAK256 PUSH1 0x6 ADD PUSH0 PUSH2 0x100 EXP DUP2 SLOAD DUP2 PUSH1 0xFF MUL NOT AND SWAP1 DUP4 ISZERO ISZERO MUL OR SWAP1 SSTORE POP PUSH2 0x10AE PUSH2 0x29F6 JUMP JUMPDEST SWAP2 POP DUP3 PUSH32 0xE452CDB9BED412D2A2730F7B94259EE6508BAE240CFF3CF9FDA5EF24C034F022 PUSH1 0x40 MLOAD PUSH1 0x40 MLOAD DUP1 SWAP2 SUB SWAP1 LOG2 POP POP POP JUMP JUMPDEST PUSH3 0x69780 DUP2 JUMP JUMPDEST PUSH0 DUP1 SLOAD SWAP1 PUSH2 0x100 EXP SWAP1 DIV PUSH20 0xFFFFFFFFFFFFFFFFFFFFFFFFFFFFFFFFFFFFFFFF AND PUSH20 0xFFFFFFFFFFFFFFFFFFFFFFFFFFFFFFFFFFFFFFFF AND CALLER PUSH20 0xFFFFFFFFFFFFFFFFFFFFFFFFFFFFFFFFFFFFFFFF AND EQ PUSH2 0x1176 JUMPI PUSH1 0x40 MLOAD PUSH32 0x8C379A000000000000000000000000000000000000000000000000000000000 DUP2 MSTORE PUSH1 0x4 ADD PUSH2 0x116D SWAP1 PUSH2 0x34BD JUMP JUMPDEST PUSH1 0x40 MLOAD DUP1 SWAP2 SUB SWAP1 REVERT JUMPDEST PUSH1 0x1 ISZERO ISZERO PUSH2 0x1183 DUP3 PUSH2 0x48E JUMP JUMPDEST ISZERO ISZERO EQ PUSH2 0x11C5 JUMPI PUSH1 0x40 MLOAD PUSH32 0x8C379A000000000000000000000000000000000000000000000000000000000 DUP2 MSTORE PUSH1 0x4 ADD PUSH2 0x11BC SWAP1 PUSH2 0x3A7C JUMP JUMPDEST PUSH1 0x40 MLOAD DUP1 SWAP2 SUB SWAP1 REVERT JUMPDEST PUSH0 PUSH1 0x4 PUSH0 DUP4 DUP2 MSTORE PUSH1 0x20 ADD SWAP1 DUP2 MSTORE PUSH1 0x20 ADD PUSH0 KECCAK256 PUSH1 0x40 MLOAD DUP1 PUSH1 0xE0 ADD PUSH1 0x40 MSTORE SWAP1 DUP2 PUSH0 DUP3 ADD SLOAD DUP2 MSTORE PUSH1 0x20 ADD PUSH1 0x1 DUP3 ADD DUP1 SLOAD PUSH2 0x11FB SWAP1 PUSH2 0x341D JUMP JUMPDEST DUP1 PUSH1 0x1F ADD PUSH1 0x20 DUP1 SWAP2 DIV MUL PUSH1 0x20 ADD PUSH1 0x40 MLOAD SWAP1 DUP2 ADD PUSH1 0x40 MSTORE DUP1 SWAP3 SWAP2 SWAP1 DUP2 DUP2 MSTORE PUSH1 0x20 ADD DUP3 DUP1 SLOAD PUSH2 0x1227 SWAP1 PUSH2 0x341D JUMP JUMPDEST DUP1 ISZERO PUSH2 0x1272 JUMPI DUP1 PUSH1 0x1F LT PUSH2 0x1249 JUMPI PUSH2 0x100 DUP1 DUP4 SLOAD DIV MUL DUP4 MSTORE SWAP2 PUSH1 0x20 ADD SWAP2 PUSH2 0x1272 JUMP JUMPDEST DUP3 ADD SWAP2 SWAP1 PUSH0 MSTORE PUSH1 0x20 PUSH0 KECCAK256 SWAP1 JUMPDEST DUP2 SLOAD DUP2 MSTORE SWAP1 PUSH1 0x1 ADD SWAP1 PUSH1 0x20 ADD DUP1 DUP4 GT PUSH2 0x1255 JUMPI DUP3 SWAP1 SUB PUSH1 0x1F AND DUP3 ADD SWAP2 JUMPDEST POP POP POP POP POP DUP2 MSTORE PUSH1 0x20 ADD PUSH1 0x2 DUP3 ADD PUSH0 SWAP1 SLOAD SWAP1 PUSH2 0x100 EXP SWAP1 DIV PUSH20 0xFFFFFFFFFFFFFFFFFFFFFFFFFFFFFFFFFFFFFFFF AND PUSH20 0xFFFFFFFFFFFFFFFFFFFFFFFFFFFFFFFFFFFFFFFF AND PUSH20 0xFFFFFFFFFFFFFFFFFFFFFFFFFFFFFFFFFFFFFFFF AND DUP2 MSTORE PUSH1 0x20 ADD PUSH1 0x3 DUP3 ADD PUSH0 SWAP1 SLOAD SWAP1 PUSH2 0x100 EXP SWAP1 DIV PUSH20 0xFFFFFFFFFFFFFFFFFFFFFFFFFFFFFFFFFFFFFFFF AND PUSH20 0xFFFFFFFFFFFFFFFFFFFFFFFFFFFFFFFFFFFFFFFF AND PUSH20 0xFFFFFFFFFFFFFFFFFFFFFFFFFFFFFFFFFFFFFFFF AND DUP2 MSTORE PUSH1 0x20 ADD PUSH1 0x4 DUP3 ADD SLOAD DUP2 MSTORE PUSH1 0x20 ADD PUSH1 0x5 DUP3 ADD SLOAD DUP2 MSTORE PUSH1 0x20 ADD PUSH1 0x6 DUP3 ADD PUSH0 SWAP1 SLOAD SWAP1 PUSH2 0x100 EXP SWAP1 DIV PUSH1 0xFF AND ISZERO ISZERO ISZERO ISZERO DUP2 MSTORE POP POP SWAP1 POP PUSH0 PUSH2 0x1362 DUP3 PUSH0 ADD MLOAD PUSH2 0x14F9 JUMP JUMPDEST SWAP2 POP POP PUSH2 0x1373 DUP3 PUSH1 0x40 ADD MLOAD DUP3 PUSH2 0x25E0 JUMP JUMPDEST PUSH0 DUP3 PUSH1 0x40 ADD MLOAD PUSH20 0xFFFFFFFFFFFFFFFFFFFFFFFFFFFFFFFFFFFFFFFF AND DUP4 PUSH1 0x80 ADD MLOAD PUSH1 0x40 MLOAD PUSH2 0x13A0 SWAP1 PUSH2 0x3AC7 JUMP JUMPDEST PUSH0 PUSH1 0x40 MLOAD DUP1 DUP4 SUB DUP2 DUP6 DUP8 GAS CALL SWAP3 POP POP POP RETURNDATASIZE DUP1 PUSH0 DUP2 EQ PUSH2 0x13DA JUMPI PUSH1 0x40 MLOAD SWAP2 POP PUSH1 0x1F NOT PUSH1 0x3F RETURNDATASIZE ADD AND DUP3 ADD PUSH1 0x40 MSTORE RETURNDATASIZE DUP3 MSTORE RETURNDATASIZE PUSH0 PUSH1 0x20 DUP5 ADD RETURNDATACOPY PUSH2 0x13DF JUMP JUMPDEST PUSH1 0x60 SWAP2 POP JUMPDEST POP POP SWAP1 POP DUP1 PUSH2 0x1423 JUMPI PUSH1 0x40 MLOAD PUSH32 0x8C379A000000000000000000000000000000000000000000000000000000000 DUP2 MSTORE PUSH1 0x4 ADD PUSH2 0x141A SWAP1 PUSH2 0x3B25 JUMP JUMPDEST PUSH1 0x40 MLOAD DUP1 SWAP2 SUB SWAP1 REVERT JUMPDEST PUSH1 0x4 PUSH0 DUP6 DUP2 MSTORE PUSH1 0x20 ADD SWAP1 DUP2 MSTORE PUSH1 0x20 ADD PUSH0 KECCAK256 PUSH0 DUP1 DUP3 ADD PUSH0 SWAP1 SSTORE PUSH1 0x1 DUP3 ADD PUSH0 PUSH2 0x144A SWAP2 SWAP1 PUSH2 0x2A5E JUMP JUMPDEST PUSH1 0x2 DUP3 ADD PUSH0 PUSH2 0x100 EXP DUP2 SLOAD SWAP1 PUSH20 0xFFFFFFFFFFFFFFFFFFFFFFFFFFFFFFFFFFFFFFFF MUL NOT AND SWAP1 SSTORE PUSH1 0x3 DUP3 ADD PUSH0 PUSH2 0x100 EXP DUP2 SLOAD SWAP1 PUSH20 0xFFFFFFFFFFFFFFFFFFFFFFFFFFFFFFFFFFFFFFFF MUL NOT AND SWAP1 SSTORE PUSH1 0x4 DUP3 ADD PUSH0 SWAP1 SSTORE PUSH1 0x5 DUP3 ADD PUSH0 SWAP1 SSTORE PUSH1 0x6 DUP3 ADD PUSH0 PUSH2 0x100 EXP DUP2 SLOAD SWAP1 PUSH1 0xFF MUL NOT AND SWAP1 SSTORE POP POP PUSH2 0x14C1 PUSH2 0x29F6 JUMP JUMPDEST SWAP3 POP PUSH0 SWAP2 POP DUP4 PUSH32 0x2C7ACEDED1437F250F60BC94F49680C49933E6C720BCA1C2A6BF91F64D4DE162 PUSH1 0x40 MLOAD PUSH1 0x40 MLOAD DUP1 SWAP2 SUB SWAP1 LOG2 POP POP POP POP JUMP JUMPDEST PUSH2 0x1501 PUSH2 0x29F6 JUMP JUMPDEST PUSH0 DUP1 PUSH0 SWAP1 POP JUMPDEST PUSH1 0x2 PUSH0 CALLER PUSH20 0xFFFFFFFFFFFFFFFFFFFFFFFFFFFFFFFFFFFFFFFF AND PUSH20 0xFFFFFFFFFFFFFFFFFFFFFFFFFFFFFFFFFFFFFFFF AND DUP2 MSTORE PUSH1 0x20 ADD SWAP1 DUP2 MSTORE PUSH1 0x20 ADD PUSH0 KECCAK256 DUP1 SLOAD SWAP1 POP DUP2 LT ISZERO PUSH2 0x17A5 JUMPI DUP4 PUSH1 0x2 PUSH0 CALLER PUSH20 0xFFFFFFFFFFFFFFFFFFFFFFFFFFFFFFFFFFFFFFFF AND PUSH20 0xFFFFFFFFFFFFFFFFFFFFFFFFFFFFFFFFFFFFFFFF AND DUP2 MSTORE PUSH1 0x20 ADD SWAP1 DUP2 MSTORE PUSH1 0x20 ADD PUSH0 KECCAK256 DUP3 DUP2 SLOAD DUP2 LT PUSH2 0x159F JUMPI PUSH2 0x159E PUSH2 0x3A05 JUMP JUMPDEST JUMPDEST SWAP1 PUSH0 MSTORE PUSH1 0x20 PUSH0 KECCAK256 SWAP1 PUSH1 0x7 MUL ADD PUSH0 ADD SLOAD SUB PUSH2 0x1798 JUMPI PUSH1 0x2 PUSH0 CALLER PUSH20 0xFFFFFFFFFFFFFFFFFFFFFFFFFFFFFFFFFFFFFFFF AND PUSH20 0xFFFFFFFFFFFFFFFFFFFFFFFFFFFFFFFFFFFFFFFF AND DUP2 MSTORE PUSH1 0x20 ADD SWAP1 DUP2 MSTORE PUSH1 0x20 ADD PUSH0 KECCAK256 DUP2 DUP2 SLOAD DUP2 LT PUSH2 0x1602 JUMPI PUSH2 0x1601 PUSH2 0x3A05 JUMP JUMPDEST JUMPDEST SWAP1 PUSH0 MSTORE PUSH1 0x20 PUSH0 KECCAK256 SWAP1 PUSH1 0x7 MUL ADD DUP2 DUP2 PUSH1 0x40 MLOAD DUP1 PUSH1 0xE0 ADD PUSH1 0x40 MSTORE SWAP1 DUP2 PUSH0 DUP3 ADD SLOAD DUP2 MSTORE PUSH1 0x20 ADD PUSH1 0x1 DUP3 ADD DUP1 SLOAD PUSH2 0x1634 SWAP1 PUSH2 0x341D JUMP JUMPDEST DUP1 PUSH1 0x1F ADD PUSH1 0x20 DUP1 SWAP2 DIV MUL PUSH1 0x20 ADD PUSH1 0x40 MLOAD SWAP1 DUP2 ADD PUSH1 0x40 MSTORE DUP1 SWAP3 SWAP2 SWAP1 DUP2 DUP2 MSTORE PUSH1 0x20 ADD DUP3 DUP1 SLOAD PUSH2 0x1660 SWAP1 PUSH2 0x341D JUMP JUMPDEST DUP1 ISZERO PUSH2 0x16AB JUMPI DUP1 PUSH1 0x1F LT PUSH2 0x1682 JUMPI PUSH2 0x100 DUP1 DUP4 SLOAD DIV MUL DUP4 MSTORE SWAP2 PUSH1 0x20 ADD SWAP2 PUSH2 0x16AB JUMP JUMPDEST DUP3 ADD SWAP2 SWAP1 PUSH0 MSTORE PUSH1 0x20 PUSH0 KECCAK256 SWAP1 JUMPDEST DUP2 SLOAD DUP2 MSTORE SWAP1 PUSH1 0x1 ADD SWAP1 PUSH1 0x20 ADD DUP1 DUP4 GT PUSH2 0x168E JUMPI DUP3 SWAP1 SUB PUSH1 0x1F AND DUP3 ADD SWAP2 JUMPDEST POP POP POP POP POP DUP2 MSTORE PUSH1 0x20 ADD PUSH1 0x2 DUP3 ADD PUSH0 SWAP1 SLOAD SWAP1 PUSH2 0x100 EXP SWAP1 DIV PUSH20 0xFFFFFFFFFFFFFFFFFFFFFFFFFFFFFFFFFFFFFFFF AND PUSH20 0xFFFFFFFFFFFFFFFFFFFFFFFFFFFFFFFFFFFFFFFF AND PUSH20 0xFFFFFFFFFFFFFFFFFFFFFFFFFFFFFFFFFFFFFFFF AND DUP2 MSTORE PUSH1 0x20 ADD PUSH1 0x3 DUP3 ADD PUSH0 SWAP1 SLOAD SWAP1 PUSH2 0x100 EXP SWAP1 DIV PUSH20 0xFFFFFFFFFFFFFFFFFFFFFFFFFFFFFFFFFFFFFFFF AND PUSH20 0xFFFFFFFFFFFFFFFFFFFFFFFFFFFFFFFFFFFFFFFF AND PUSH20 0xFFFFFFFFFFFFFFFFFFFFFFFFFFFFFFFFFFFFFFFF AND DUP2 MSTORE PUSH1 0x20 ADD PUSH1 0x4 DUP3 ADD SLOAD DUP2 MSTORE PUSH1 0x20 ADD PUSH1 0x5 DUP3 ADD SLOAD DUP2 MSTORE PUSH1 0x20 ADD PUSH1 0x6 DUP3 ADD PUSH0 SWAP1 SLOAD SWAP1 PUSH2 0x100 EXP SWAP1 DIV PUSH1 0xFF AND ISZERO ISZERO ISZERO ISZERO DUP2 MSTORE POP POP SWAP2 POP SWAP3 POP SWAP3 POP POP PUSH2 0x17A7 JUMP JUMPDEST DUP1 DUP1 PUSH1 0x1 ADD SWAP2 POP POP PUSH2 0x1507 JUMP JUMPDEST POP JUMPDEST SWAP2 POP SWAP2 JUMP JUMPDEST PUSH1 0x2 PUSH1 0x20 MSTORE DUP2 PUSH0 MSTORE PUSH1 0x40 PUSH0 KECCAK256 DUP2 DUP2 SLOAD DUP2 LT PUSH2 0x17C5 JUMPI PUSH0 DUP1 REVERT JUMPDEST SWAP1 PUSH0 MSTORE PUSH1 0x20 PUSH0 KECCAK256 SWAP1 PUSH1 0x7 MUL ADD PUSH0 SWAP2 POP SWAP2 POP POP DUP1 PUSH0 ADD SLOAD SWAP1 DUP1 PUSH1 0x1 ADD DUP1 SLOAD PUSH2 0x17EB SWAP1 PUSH2 0x341D JUMP JUMPDEST DUP1 PUSH1 0x1F ADD PUSH1 0x20 DUP1 SWAP2 DIV MUL PUSH1 0x20 ADD PUSH1 0x40 MLOAD SWAP1 DUP2 ADD PUSH1 0x40 MSTORE DUP1 SWAP3 SWAP2 SWAP1 DUP2 DUP2 MSTORE PUSH1 0x20 ADD DUP3 DUP1 SLOAD PUSH2 0x1817 SWAP1 PUSH2 0x341D JUMP JUMPDEST DUP1 ISZERO PUSH2 0x1862 JUMPI DUP1 PUSH1 0x1F LT PUSH2 0x1839 JUMPI PUSH2 0x100 DUP1 DUP4 SLOAD DIV MUL DUP4 MSTORE SWAP2 PUSH1 0x20 ADD SWAP2 PUSH2 0x1862 JUMP JUMPDEST DUP3 ADD SWAP2 SWAP1 PUSH0 MSTORE PUSH1 0x20 PUSH0 KECCAK256 SWAP1 JUMPDEST DUP2 SLOAD DUP2 MSTORE SWAP1 PUSH1 0x1 ADD SWAP1 PUSH1 0x20 ADD DUP1 DUP4 GT PUSH2 0x1845 JUMPI DUP3 SWAP1 SUB PUSH1 0x1F AND DUP3 ADD SWAP2 JUMPDEST POP POP POP POP POP SWAP1 DUP1 PUSH1 0x2 ADD PUSH0 SWAP1 SLOAD SWAP1 PUSH2 0x100 EXP SWAP1 DIV PUSH20 0xFFFFFFFFFFFFFFFFFFFFFFFFFFFFFFFFFFFFFFFF AND SWAP1 DUP1 PUSH1 0x3 ADD PUSH0 SWAP1 SLOAD SWAP1 PUSH2 0x100 EXP SWAP1 DIV PUSH20 0xFFFFFFFFFFFFFFFFFFFFFFFFFFFFFFFFFFFFFFFF AND SWAP1 DUP1 PUSH1 0x4 ADD SLOAD SWAP1 DUP1 PUSH1 0x5 ADD SLOAD SWAP1 DUP1 PUSH1 0x6 ADD PUSH0 SWAP1 SLOAD SWAP1 PUSH2 0x100 EXP SWAP1 DIV PUSH1 0xFF AND SWAP1 POP DUP8 JUMP JUMPDEST PUSH1 0x3 PUSH1 0x20 MSTORE DUP1 PUSH0 MSTORE PUSH1 0x40 PUSH0 KECCAK256 PUSH0 SWAP2 POP SWAP1 POP DUP1 PUSH0 ADD SLOAD SWAP1 DUP1 PUSH1 0x1 ADD DUP1 SLOAD PUSH2 0x18F9 SWAP1 PUSH2 0x341D JUMP JUMPDEST DUP1 PUSH1 0x1F ADD PUSH1 0x20 DUP1 SWAP2 DIV MUL PUSH1 0x20 ADD PUSH1 0x40 MLOAD SWAP1 DUP2 ADD PUSH1 0x40 MSTORE DUP1 SWAP3 SWAP2 SWAP1 DUP2 DUP2 MSTORE PUSH1 0x20 ADD DUP3 DUP1 SLOAD PUSH2 0x1925 SWAP1 PUSH2 0x341D JUMP JUMPDEST DUP1 ISZERO PUSH2 0x1970 JUMPI DUP1 PUSH1 0x1F LT PUSH2 0x1947 JUMPI PUSH2 0x100 DUP1 DUP4 SLOAD DIV MUL DUP4 MSTORE SWAP2 PUSH1 0x20 ADD SWAP2 PUSH2 0x1970 JUMP JUMPDEST DUP3 ADD SWAP2 SWAP1 PUSH0 MSTORE PUSH1 0x20 PUSH0 KECCAK256 SWAP1 JUMPDEST DUP2 SLOAD DUP2 MSTORE SWAP1 PUSH1 0x1 ADD SWAP1 PUSH1 0x20 ADD DUP1 DUP4 GT PUSH2 0x1953 JUMPI DUP3 SWAP1 SUB PUSH1 0x1F AND DUP3 ADD SWAP2 JUMPDEST POP POP POP POP POP SWAP1 DUP1 PUSH1 0x2 ADD PUSH0 SWAP1 SLOAD SWAP1 PUSH2 0x100 EXP SWAP1 DIV PUSH20 0xFFFFFFFFFFFFFFFFFFFFFFFFFFFFFFFFFFFFFFFF AND SWAP1 DUP1 PUSH1 0x3 ADD PUSH0 SWAP1 SLOAD SWAP1 PUSH2 0x100 EXP SWAP1 DIV PUSH20 0xFFFFFFFFFFFFFFFFFFFFFFFFFFFFFFFFFFFFFFFF AND SWAP1 DUP1 PUSH1 0x4 ADD SLOAD SWAP1 DUP1 PUSH1 0x5 ADD SLOAD SWAP1 DUP1 PUSH1 0x6 ADD PUSH0 SWAP1 SLOAD SWAP1 PUSH2 0x100 EXP SWAP1 DIV PUSH1 0xFF AND SWAP1 POP DUP8 JUMP JUMPDEST DUP1 PUSH2 0x19EC DUP2 PUSH2 0x293E JUMP JUMPDEST PUSH2 0x1A2B JUMPI PUSH1 0x40 MLOAD PUSH32 0x8C379A000000000000000000000000000000000000000000000000000000000 DUP2 MSTORE PUSH1 0x4 ADD PUSH2 0x1A22 SWAP1 PUSH2 0x3BB3 JUMP JUMPDEST PUSH1 0x40 MLOAD DUP1 SWAP2 SUB SWAP1 REVERT JUMPDEST PUSH0 DUP1 PUSH2 0x1A36 DUP9 PUSH2 0x14F9 JUMP JUMPDEST SWAP2 POP SWAP2 POP PUSH0 PUSH2 0x1A48 DUP9 CALLER DUP10 DUP10 DUP10 PUSH2 0xD75 JUMP JUMPDEST SWAP1 POP PUSH0 DUP7 GT PUSH2 0x1A8C JUMPI PUSH1 0x40 MLOAD PUSH32 0x8C379A000000000000000000000000000000000000000000000000000000000 DUP2 MSTORE PUSH1 0x4 ADD PUSH2 0x1A83 SWAP1 PUSH2 0x3C1B JUMP JUMPDEST PUSH1 0x40 MLOAD DUP1 SWAP2 SUB SWAP1 REVERT JUMPDEST PUSH0 DUP4 PUSH1 0x80 ADD MLOAD GT PUSH2 0x1AD2 JUMPI PUSH1 0x40 MLOAD PUSH32 0x8C379A000000000000000000000000000000000000000000000000000000000 DUP2 MSTORE PUSH1 0x4 ADD PUSH2 0x1AC9 SWAP1 PUSH2 0x3C83 JUMP JUMPDEST PUSH1 0x40 MLOAD DUP1 SWAP2 SUB SWAP1 REVERT JUMPDEST DUP3 PUSH1 0x80 ADD MLOAD DUP7 GT ISZERO PUSH2 0x1C03 JUMPI DUP3 PUSH1 0x80 ADD MLOAD DUP7 PUSH2 0x1AEE SWAP2 SWAP1 PUSH2 0x3CA1 JUMP JUMPDEST CALLER PUSH20 0xFFFFFFFFFFFFFFFFFFFFFFFFFFFFFFFFFFFFFFFF AND BALANCE GT PUSH2 0x1B46 JUMPI PUSH1 0x40 MLOAD PUSH32 0x8C379A000000000000000000000000000000000000000000000000000000000 DUP2 MSTORE PUSH1 0x4 ADD PUSH2 0x1B3D SWAP1 PUSH2 0x3D1E JUMP JUMPDEST PUSH1 0x40 MLOAD DUP1 SWAP2 SUB SWAP1 REVERT JUMPDEST PUSH0 ADDRESS PUSH20 0xFFFFFFFFFFFFFFFFFFFFFFFFFFFFFFFFFFFFFFFF AND DUP5 PUSH1 0x80 ADD MLOAD DUP9 PUSH2 0x1B6E SWAP2 SWAP1 PUSH2 0x3CA1 JUMP JUMPDEST PUSH1 0x40 MLOAD PUSH2 0x1B7A SWAP1 PUSH2 0x3AC7 JUMP JUMPDEST PUSH0 PUSH1 0x40 MLOAD DUP1 DUP4 SUB DUP2 DUP6 DUP8 GAS CALL SWAP3 POP POP POP RETURNDATASIZE DUP1 PUSH0 DUP2 EQ PUSH2 0x1BB4 JUMPI PUSH1 0x40 MLOAD SWAP2 POP PUSH1 0x1F NOT PUSH1 0x3F RETURNDATASIZE ADD AND DUP3 ADD PUSH1 0x40 MSTORE RETURNDATASIZE DUP3 MSTORE RETURNDATASIZE PUSH0 PUSH1 0x20 DUP5 ADD RETURNDATACOPY PUSH2 0x1BB9 JUMP JUMPDEST PUSH1 0x60 SWAP2 POP JUMPDEST POP POP SWAP1 POP DUP1 PUSH2 0x1BFD JUMPI PUSH1 0x40 MLOAD PUSH32 0x8C379A000000000000000000000000000000000000000000000000000000000 DUP2 MSTORE PUSH1 0x4 ADD PUSH2 0x1BF4 SWAP1 PUSH2 0x3D86 JUMP JUMPDEST PUSH1 0x40 MLOAD DUP1 SWAP2 SUB SWAP1 REVERT JUMPDEST POP PUSH2 0x1C2A JUMP JUMPDEST DUP3 PUSH1 0x80 ADD MLOAD DUP7 LT ISZERO PUSH2 0x1C29 JUMPI PUSH2 0x1C28 CALLER DUP8 DUP6 PUSH1 0x80 ADD MLOAD PUSH2 0x1C23 SWAP2 SWAP1 PUSH2 0x3CA1 JUMP JUMPDEST PUSH2 0x2949 JUMP JUMPDEST JUMPDEST JUMPDEST PUSH1 0x40 MLOAD DUP1 PUSH1 0xE0 ADD PUSH1 0x40 MSTORE DUP1 PUSH2 0x1C42 DUP11 CALLER DUP12 DUP12 DUP12 PUSH2 0xD75 JUMP JUMPDEST DUP2 MSTORE PUSH1 0x20 ADD DUP10 DUP2 MSTORE PUSH1 0x20 ADD CALLER PUSH20 0xFFFFFFFFFFFFFFFFFFFFFFFFFFFFFFFFFFFFFFFF AND DUP2 MSTORE PUSH1 0x20 ADD DUP9 PUSH20 0xFFFFFFFFFFFFFFFFFFFFFFFFFFFFFFFFFFFFFFFF AND DUP2 MSTORE PUSH1 0x20 ADD DUP8 DUP2 MSTORE PUSH1 0x20 ADD DUP7 DUP2 MSTORE PUSH1 0x20 ADD PUSH0 ISZERO ISZERO DUP2 MSTORE POP PUSH1 0x2 PUSH0 CALLER PUSH20 0xFFFFFFFFFFFFFFFFFFFFFFFFFFFFFFFFFFFFFFFF AND PUSH20 0xFFFFFFFFFFFFFFFFFFFFFFFFFFFFFFFFFFFFFFFF AND DUP2 MSTORE PUSH1 0x20 ADD SWAP1 DUP2 MSTORE PUSH1 0x20 ADD PUSH0 KECCAK256 DUP4 DUP2 SLOAD DUP2 LT PUSH2 0x1CE6 JUMPI PUSH2 0x1CE5 PUSH2 0x3A05 JUMP JUMPDEST JUMPDEST SWAP1 PUSH0 MSTORE PUSH1 0x20 PUSH0 KECCAK256 SWAP1 PUSH1 0x7 MUL ADD PUSH0 DUP3 ADD MLOAD DUP2 PUSH0 ADD SSTORE PUSH1 0x20 DUP3 ADD MLOAD DUP2 PUSH1 0x1 ADD SWAP1 DUP2 PUSH2 0x1D0F SWAP2 SWAP1 PUSH2 0x37A8 JUMP JUMPDEST POP PUSH1 0x40 DUP3 ADD MLOAD DUP2 PUSH1 0x2 ADD PUSH0 PUSH2 0x100 EXP DUP2 SLOAD DUP2 PUSH20 0xFFFFFFFFFFFFFFFFFFFFFFFFFFFFFFFFFFFFFFFF MUL NOT AND SWAP1 DUP4 PUSH20 0xFFFFFFFFFFFFFFFFFFFFFFFFFFFFFFFFFFFFFFFF AND MUL OR SWAP1 SSTORE POP PUSH1 0x60 DUP3 ADD MLOAD DUP2 PUSH1 0x3 ADD PUSH0 PUSH2 0x100 EXP DUP2 SLOAD DUP2 PUSH20 0xFFFFFFFFFFFFFFFFFFFFFFFFFFFFFFFFFFFFFFFF MUL NOT AND SWAP1 DUP4 PUSH20 0xFFFFFFFFFFFFFFFFFFFFFFFFFFFFFFFFFFFFFFFF AND MUL OR SWAP1 SSTORE POP PUSH1 0x80 DUP3 ADD MLOAD DUP2 PUSH1 0x4 ADD SSTORE PUSH1 0xA0 DUP3 ADD MLOAD DUP2 PUSH1 0x5 ADD SSTORE PUSH1 0xC0 DUP3 ADD MLOAD DUP2 PUSH1 0x6 ADD PUSH0 PUSH2 0x100 EXP DUP2 SLOAD DUP2 PUSH1 0xFF MUL NOT AND SWAP1 DUP4 ISZERO ISZERO MUL OR SWAP1 SSTORE POP SWAP1 POP POP PUSH0 PUSH1 0x3 PUSH0 DUP6 PUSH0 ADD MLOAD DUP2 MSTORE PUSH1 0x20 ADD SWAP1 DUP2 MSTORE PUSH1 0x20 ADD PUSH0 KECCAK256 PUSH1 0x4 ADD SLOAD GT PUSH2 0x1E2B JUMPI PUSH1 0x40 MLOAD PUSH32 0x8C379A000000000000000000000000000000000000000000000000000000000 DUP2 MSTORE PUSH1 0x4 ADD PUSH2 0x1E22 SWAP1 PUSH2 0x3E14 JUMP JUMPDEST PUSH1 0x40 MLOAD DUP1 SWAP2 SUB SWAP1 REVERT JUMPDEST PUSH1 0x3 PUSH0 DUP5 PUSH0 ADD MLOAD DUP2 MSTORE PUSH1 0x20 ADD SWAP1 DUP2 MSTORE PUSH1 0x20 ADD PUSH0 KECCAK256 PUSH0 DUP1 DUP3 ADD PUSH0 SWAP1 SSTORE PUSH1 0x1 DUP3 ADD PUSH0 PUSH2 0x1E55 SWAP2 SWAP1 PUSH2 0x2A5E JUMP JUMPDEST PUSH1 0x2 DUP3 ADD PUSH0 PUSH2 0x100 EXP DUP2 SLOAD SWAP1 PUSH20 0xFFFFFFFFFFFFFFFFFFFFFFFFFFFFFFFFFFFFFFFF MUL NOT AND SWAP1 SSTORE PUSH1 0x3 DUP3 ADD PUSH0 PUSH2 0x100 EXP DUP2 SLOAD SWAP1 PUSH20 0xFFFFFFFFFFFFFFFFFFFFFFFFFFFFFFFFFFFFFFFF MUL NOT AND SWAP1 SSTORE PUSH1 0x4 DUP3 ADD PUSH0 SWAP1 SSTORE PUSH1 0x5 DUP3 ADD PUSH0 SWAP1 SSTORE PUSH1 0x6 DUP3 ADD PUSH0 PUSH2 0x100 EXP DUP2 SLOAD SWAP1 PUSH1 0xFF MUL NOT AND SWAP1 SSTORE POP POP PUSH1 0x40 MLOAD DUP1 PUSH1 0xE0 ADD PUSH1 0x40 MSTORE DUP1 DUP3 DUP2 MSTORE PUSH1 0x20 ADD DUP10 DUP2 MSTORE PUSH1 0x20 ADD CALLER PUSH20 0xFFFFFFFFFFFFFFFFFFFFFFFFFFFFFFFFFFFFFFFF AND DUP2 MSTORE PUSH1 0x20 ADD DUP9 PUSH20 0xFFFFFFFFFFFFFFFFFFFFFFFFFFFFFFFFFFFFFFFF AND DUP2 MSTORE PUSH1 0x20 ADD DUP8 DUP2 MSTORE PUSH1 0x20 ADD DUP7 DUP2 MSTORE PUSH1 0x20 ADD PUSH0 ISZERO ISZERO DUP2 MSTORE POP PUSH1 0x3 PUSH0 DUP4 DUP2 MSTORE PUSH1 0x20 ADD SWAP1 DUP2 MSTORE PUSH1 0x20 ADD PUSH0 KECCAK256 PUSH0 DUP3 ADD MLOAD DUP2 PUSH0 ADD SSTORE PUSH1 0x20 DUP3 ADD MLOAD DUP2 PUSH1 0x1 ADD SWAP1 DUP2 PUSH2 0x1F53 SWAP2 SWAP1 PUSH2 0x37A8 JUMP JUMPDEST POP PUSH1 0x40 DUP3 ADD MLOAD DUP2 PUSH1 0x2 ADD PUSH0 PUSH2 0x100 EXP DUP2 SLOAD DUP2 PUSH20 0xFFFFFFFFFFFFFFFFFFFFFFFFFFFFFFFFFFFFFFFF MUL NOT AND SWAP1 DUP4 PUSH20 0xFFFFFFFFFFFFFFFFFFFFFFFFFFFFFFFFFFFFFFFF AND MUL OR SWAP1 SSTORE POP PUSH1 0x60 DUP3 ADD MLOAD DUP2 PUSH1 0x3 ADD PUSH0 PUSH2 0x100 EXP DUP2 SLOAD DUP2 PUSH20 0xFFFFFFFFFFFFFFFFFFFFFFFFFFFFFFFFFFFFFFFF MUL NOT AND SWAP1 DUP4 PUSH20 0xFFFFFFFFFFFFFFFFFFFFFFFFFFFFFFFFFFFFFFFF AND MUL OR SWAP1 SSTORE POP PUSH1 0x80 DUP3 ADD MLOAD DUP2 PUSH1 0x4 ADD SSTORE PUSH1 0xA0 DUP3 ADD MLOAD DUP2 PUSH1 0x5 ADD SSTORE PUSH1 0xC0 DUP3 ADD MLOAD DUP2 PUSH1 0x6 ADD PUSH0 PUSH2 0x100 EXP DUP2 SLOAD DUP2 PUSH1 0xFF MUL NOT AND SWAP1 DUP4 ISZERO ISZERO MUL OR SWAP1 SSTORE POP SWAP1 POP POP DUP7 PUSH20 0xFFFFFFFFFFFFFFFFFFFFFFFFFFFFFFFFFFFFFFFF AND CALLER PUSH20 0xFFFFFFFFFFFFFFFFFFFFFFFFFFFFFFFFFFFFFFFF AND PUSH31 0x80500DD3135B317A9964A886FC89087F9464CFBB755449E146ACE57A1E0CF4 DUP11 DUP10 DUP10 PUSH1 0x40 MLOAD PUSH2 0x2076 SWAP4 SWAP3 SWAP2 SWAP1 PUSH2 0x3E32 JUMP JUMPDEST PUSH1 0x40 MLOAD DUP1 SWAP2 SUB SWAP1 LOG3 POP POP POP POP POP POP POP POP POP JUMP JUMPDEST PUSH1 0x60 PUSH0 DUP1 SLOAD SWAP1 PUSH2 0x100 EXP SWAP1 DIV PUSH20 0xFFFFFFFFFFFFFFFFFFFFFFFFFFFFFFFFFFFFFFFF AND PUSH20 0xFFFFFFFFFFFFFFFFFFFFFFFFFFFFFFFFFFFFFFFF AND CALLER PUSH20 0xFFFFFFFFFFFFFFFFFFFFFFFFFFFFFFFFFFFFFFFF AND EQ PUSH2 0x2118 JUMPI PUSH1 0x40 MLOAD PUSH32 0x8C379A000000000000000000000000000000000000000000000000000000000 DUP2 MSTORE PUSH1 0x4 ADD PUSH2 0x210F SWAP1 PUSH2 0x34BD JUMP JUMPDEST PUSH1 0x40 MLOAD DUP1 SWAP2 SUB SWAP1 REVERT JUMPDEST PUSH0 PUSH2 0x2125 DUP7 DUP7 DUP7 DUP7 PUSH2 0xD15 JUMP JUMPDEST SWAP1 POP PUSH0 PUSH1 0x4 PUSH0 DUP4 DUP2 MSTORE PUSH1 0x20 ADD SWAP1 DUP2 MSTORE PUSH1 0x20 ADD PUSH0 KECCAK256 PUSH1 0x40 MLOAD DUP1 PUSH1 0xE0 ADD PUSH1 0x40 MSTORE SWAP1 DUP2 PUSH0 DUP3 ADD SLOAD DUP2 MSTORE PUSH1 0x20 ADD PUSH1 0x1 DUP3 ADD DUP1 SLOAD PUSH2 0x215D SWAP1 PUSH2 0x341D JUMP JUMPDEST DUP1 PUSH1 0x1F ADD PUSH1 0x20 DUP1 SWAP2 DIV MUL PUSH1 0x20 ADD PUSH1 0x40 MLOAD SWAP1 DUP2 ADD PUSH1 0x40 MSTORE DUP1 SWAP3 SWAP2 SWAP1 DUP2 DUP2 MSTORE PUSH1 0x20 ADD DUP3 DUP1 SLOAD PUSH2 0x2189 SWAP1 PUSH2 0x341D JUMP JUMPDEST DUP1 ISZERO PUSH2 0x21D4 JUMPI DUP1 PUSH1 0x1F LT PUSH2 0x21AB JUMPI PUSH2 0x100 DUP1 DUP4 SLOAD DIV MUL DUP4 MSTORE SWAP2 PUSH1 0x20 ADD SWAP2 PUSH2 0x21D4 JUMP JUMPDEST DUP3 ADD SWAP2 SWAP1 PUSH0 MSTORE PUSH1 0x20 PUSH0 KECCAK256 SWAP1 JUMPDEST DUP2 SLOAD DUP2 MSTORE SWAP1 PUSH1 0x1 ADD SWAP1 PUSH1 0x20 ADD DUP1 DUP4 GT PUSH2 0x21B7 JUMPI DUP3 SWAP1 SUB PUSH1 0x1F AND DUP3 ADD SWAP2 JUMPDEST POP POP POP POP POP DUP2 MSTORE PUSH1 0x20 ADD PUSH1 0x2 DUP3 ADD PUSH0 SWAP1 SLOAD SWAP1 PUSH2 0x100 EXP SWAP1 DIV PUSH20 0xFFFFFFFFFFFFFFFFFFFFFFFFFFFFFFFFFFFFFFFF AND PUSH20 0xFFFFFFFFFFFFFFFFFFFFFFFFFFFFFFFFFFFFFFFF AND PUSH20 0xFFFFFFFFFFFFFFFFFFFFFFFFFFFFFFFFFFFFFFFF AND DUP2 MSTORE PUSH1 0x20 ADD PUSH1 0x3 DUP3 ADD PUSH0 SWAP1 SLOAD SWAP1 PUSH2 0x100 EXP SWAP1 DIV PUSH20 0xFFFFFFFFFFFFFFFFFFFFFFFFFFFFFFFFFFFFFFFF AND PUSH20 0xFFFFFFFFFFFFFFFFFFFFFFFFFFFFFFFFFFFFFFFF AND PUSH20 0xFFFFFFFFFFFFFFFFFFFFFFFFFFFFFFFFFFFFFFFF AND DUP2 MSTORE PUSH1 0x20 ADD PUSH1 0x4 DUP3 ADD SLOAD DUP2 MSTORE PUSH1 0x20 ADD PUSH1 0x5 DUP3 ADD SLOAD DUP2 MSTORE PUSH1 0x20 ADD PUSH1 0x6 DUP3 ADD PUSH0 SWAP1 SLOAD SWAP1 PUSH2 0x100 EXP SWAP1 DIV PUSH1 0xFF AND ISZERO ISZERO ISZERO ISZERO DUP2 MSTORE POP POP SWAP1 POP PUSH0 PUSH1 0x4 PUSH0 DUP5 DUP2 MSTORE PUSH1 0x20 ADD SWAP1 DUP2 MSTORE PUSH1 0x20 ADD PUSH0 KECCAK256 PUSH1 0x4 ADD SLOAD GT PUSH2 0x230D JUMPI PUSH1 0x40 MLOAD PUSH32 0x8C379A000000000000000000000000000000000000000000000000000000000 DUP2 MSTORE PUSH1 0x4 ADD PUSH2 0x2304 SWAP1 PUSH2 0x3A7C JUMP JUMPDEST PUSH1 0x40 MLOAD DUP1 SWAP2 SUB SWAP1 REVERT JUMPDEST TIMESTAMP PUSH1 0x4 PUSH0 DUP5 DUP2 MSTORE PUSH1 0x20 ADD SWAP1 DUP2 MSTORE PUSH1 0x20 ADD PUSH0 KECCAK256 PUSH1 0x5 ADD SLOAD LT PUSH2 0x2363 JUMPI PUSH1 0x40 MLOAD PUSH32 0x8C379A000000000000000000000000000000000000000000000000000000000 DUP2 MSTORE PUSH1 0x4 ADD PUSH2 0x235A SWAP1 PUSH2 0x3EB8 JUMP JUMPDEST PUSH1 0x40 MLOAD DUP1 SWAP2 SUB SWAP1 REVERT JUMPDEST PUSH3 0x69780 PUSH1 0x4 PUSH0 DUP5 DUP2 MSTORE PUSH1 0x20 ADD SWAP1 DUP2 MSTORE PUSH1 0x20 ADD PUSH0 KECCAK256 PUSH1 0x5 ADD SLOAD PUSH2 0x2386 SWAP2 SWAP1 PUSH2 0x3570 JUMP JUMPDEST TIMESTAMP LT PUSH2 0x23C7 JUMPI PUSH1 0x40 MLOAD PUSH32 0x8C379A000000000000000000000000000000000000000000000000000000000 DUP2 MSTORE PUSH1 0x4 ADD PUSH2 0x23BE SWAP1 PUSH2 0x3F20 JUMP JUMPDEST PUSH1 0x40 MLOAD DUP1 SWAP2 SUB SWAP1 REVERT JUMPDEST PUSH1 0x60 DUP6 DUP6 PUSH1 0x40 MLOAD PUSH2 0x23D9 SWAP3 SWAP2 SWAP1 PUSH2 0x3F62 JUMP JUMPDEST PUSH1 0x40 MLOAD DUP1 SWAP2 SUB SWAP1 KECCAK256 DUP4 PUSH1 0x40 MLOAD PUSH1 0x20 ADD PUSH2 0x23F3 SWAP3 SWAP2 SWAP1 PUSH2 0x3FE5 JUMP JUMPDEST PUSH1 0x40 MLOAD PUSH1 0x20 DUP2 DUP4 SUB SUB DUP2 MSTORE SWAP1 PUSH1 0x40 MSTORE SWAP1 POP PUSH0 DUP1 DUP4 PUSH1 0x60 ADD MLOAD PUSH20 0xFFFFFFFFFFFFFFFFFFFFFFFFFFFFFFFFFFFFFFFF AND DUP5 PUSH1 0x80 ADD MLOAD DUP5 PUSH1 0x40 MLOAD PUSH2 0x2434 SWAP2 SWAP1 PUSH2 0x4040 JUMP JUMPDEST PUSH0 PUSH1 0x40 MLOAD DUP1 DUP4 SUB DUP2 DUP6 DUP8 GAS CALL SWAP3 POP POP POP RETURNDATASIZE DUP1 PUSH0 DUP2 EQ PUSH2 0x246E JUMPI PUSH1 0x40 MLOAD SWAP2 POP PUSH1 0x1F NOT PUSH1 0x3F RETURNDATASIZE ADD AND DUP3 ADD PUSH1 0x40 MSTORE RETURNDATASIZE DUP3 MSTORE RETURNDATASIZE PUSH0 PUSH1 0x20 DUP5 ADD RETURNDATACOPY PUSH2 0x2473 JUMP JUMPDEST PUSH1 0x60 SWAP2 POP JUMPDEST POP SWAP2 POP SWAP2 POP DUP2 PUSH2 0x24B8 JUMPI PUSH1 0x40 MLOAD PUSH32 0x8C379A000000000000000000000000000000000000000000000000000000000 DUP2 MSTORE PUSH1 0x4 ADD PUSH2 0x24AF SWAP1 PUSH2 0x40A0 JUMP JUMPDEST PUSH1 0x40 MLOAD DUP1 SWAP2 SUB SWAP1 REVERT JUMPDEST DUP4 PUSH1 0x60 ADD MLOAD PUSH20 0xFFFFFFFFFFFFFFFFFFFFFFFFFFFFFFFFFFFFFFFF AND DUP11 PUSH20 0xFFFFFFFFFFFFFFFFFFFFFFFFFFFFFFFFFFFFFFFF AND DUP7 PUSH32 0xA7D0A908E9A681226C49F8746DD888D9324C460437A92654E38A466D23F217A8 DUP8 PUSH1 0x80 ADD MLOAD DUP9 PUSH1 0xA0 ADD MLOAD PUSH1 0x40 MLOAD PUSH2 0x2524 SWAP3 SWAP2 SWAP1 PUSH2 0x40BE JUMP JUMPDEST PUSH1 0x40 MLOAD DUP1 SWAP2 SUB SWAP1 LOG4 PUSH1 0x4 PUSH0 DUP7 DUP2 MSTORE PUSH1 0x20 ADD SWAP1 DUP2 MSTORE PUSH1 0x20 ADD PUSH0 KECCAK256 PUSH0 DUP1 DUP3 ADD PUSH0 SWAP1 SSTORE PUSH1 0x1 DUP3 ADD PUSH0 PUSH2 0x2553 SWAP2 SWAP1 PUSH2 0x2A5E JUMP JUMPDEST PUSH1 0x2 DUP3 ADD PUSH0 PUSH2 0x100 EXP DUP2 SLOAD SWAP1 PUSH20 0xFFFFFFFFFFFFFFFFFFFFFFFFFFFFFFFFFFFFFFFF MUL NOT AND SWAP1 SSTORE PUSH1 0x3 DUP3 ADD PUSH0 PUSH2 0x100 EXP DUP2 SLOAD SWAP1 PUSH20 0xFFFFFFFFFFFFFFFFFFFFFFFFFFFFFFFFFFFFFFFF MUL NOT AND SWAP1 SSTORE PUSH1 0x4 DUP3 ADD PUSH0 SWAP1 SSTORE PUSH1 0x5 DUP3 ADD PUSH0 SWAP1 SSTORE PUSH1 0x6 DUP3 ADD PUSH0 PUSH2 0x100 EXP DUP2 SLOAD SWAP1 PUSH1 0xFF MUL NOT AND SWAP1 SSTORE POP POP PUSH2 0x25CA PUSH2 0x29F6 JUMP JUMPDEST SWAP4 POP PUSH1 0x60 SWAP3 POP DUP1 SWAP6 POP POP POP POP POP POP SWAP5 SWAP4 POP POP POP POP JUMP JUMPDEST PUSH1 0x2 PUSH0 DUP4 PUSH20 0xFFFFFFFFFFFFFFFFFFFFFFFFFFFFFFFFFFFFFFFF AND PUSH20 0xFFFFFFFFFFFFFFFFFFFFFFFFFFFFFFFFFFFFFFFF AND DUP2 MSTORE PUSH1 0x20 ADD SWAP1 DUP2 MSTORE PUSH1 0x20 ADD PUSH0 KECCAK256 DUP1 SLOAD SWAP1 POP DUP2 LT ISZERO PUSH2 0x293A JUMPI PUSH1 0x2 PUSH0 DUP4 PUSH20 0xFFFFFFFFFFFFFFFFFFFFFFFFFFFFFFFFFFFFFFFF AND PUSH20 0xFFFFFFFFFFFFFFFFFFFFFFFFFFFFFFFFFFFFFFFF AND DUP2 MSTORE PUSH1 0x20 ADD SWAP1 DUP2 MSTORE PUSH1 0x20 ADD PUSH0 KECCAK256 PUSH1 0x1 PUSH1 0x2 PUSH0 DUP6 PUSH20 0xFFFFFFFFFFFFFFFFFFFFFFFFFFFFFFFFFFFFFFFF AND PUSH20 0xFFFFFFFFFFFFFFFFFFFFFFFFFFFFFFFFFFFFFFFF AND DUP2 MSTORE PUSH1 0x20 ADD SWAP1 DUP2 MSTORE PUSH1 0x20 ADD PUSH0 KECCAK256 DUP1 SLOAD SWAP1 POP PUSH2 0x26B2 SWAP2 SWAP1 PUSH2 0x3CA1 JUMP JUMPDEST DUP2 SLOAD DUP2 LT PUSH2 0x26C3 JUMPI PUSH2 0x26C2 PUSH2 0x3A05 JUMP JUMPDEST JUMPDEST SWAP1 PUSH0 MSTORE PUSH1 0x20 PUSH0 KECCAK256 SWAP1 PUSH1 0x7 MUL ADD PUSH1 0x2 PUSH0 DUP5 PUSH20 0xFFFFFFFFFFFFFFFFFFFFFFFFFFFFFFFFFFFFFFFF AND PUSH20 0xFFFFFFFFFFFFFFFFFFFFFFFFFFFFFFFFFFFFFFFF AND DUP2 MSTORE PUSH1 0x20 ADD SWAP1 DUP2 MSTORE PUSH1 0x20 ADD PUSH0 KECCAK256 DUP3 DUP2 SLOAD DUP2 LT PUSH2 0x271E JUMPI PUSH2 0x271D PUSH2 0x3A05 JUMP JUMPDEST JUMPDEST SWAP1 PUSH0 MSTORE PUSH1 0x20 PUSH0 KECCAK256 SWAP1 PUSH1 0x7 MUL ADD PUSH0 DUP3 ADD SLOAD DUP2 PUSH0 ADD SSTORE PUSH1 0x1 DUP3 ADD DUP2 PUSH1 0x1 ADD SWAP1 DUP2 PUSH2 0x2746 SWAP2 SWAP1 PUSH2 0x40FA JUMP JUMPDEST POP PUSH1 0x2 DUP3 ADD PUSH0 SWAP1 SLOAD SWAP1 PUSH2 0x100 EXP SWAP1 DIV PUSH20 0xFFFFFFFFFFFFFFFFFFFFFFFFFFFFFFFFFFFFFFFF AND DUP2 PUSH1 0x2 ADD PUSH0 PUSH2 0x100 EXP DUP2 SLOAD DUP2 PUSH20 0xFFFFFFFFFFFFFFFFFFFFFFFFFFFFFFFFFFFFFFFF MUL NOT AND SWAP1 DUP4 PUSH20 0xFFFFFFFFFFFFFFFFFFFFFFFFFFFFFFFFFFFFFFFF AND MUL OR SWAP1 SSTORE POP PUSH1 0x3 DUP3 ADD PUSH0 SWAP1 SLOAD SWAP1 PUSH2 0x100 EXP SWAP1 DIV PUSH20 0xFFFFFFFFFFFFFFFFFFFFFFFFFFFFFFFFFFFFFFFF AND DUP2 PUSH1 0x3 ADD PUSH0 PUSH2 0x100 EXP DUP2 SLOAD DUP2 PUSH20 0xFFFFFFFFFFFFFFFFFFFFFFFFFFFFFFFFFFFFFFFF MUL NOT AND SWAP1 DUP4 PUSH20 0xFFFFFFFFFFFFFFFFFFFFFFFFFFFFFFFFFFFFFFFF AND MUL OR SWAP1 SSTORE POP PUSH1 0x4 DUP3 ADD SLOAD DUP2 PUSH1 0x4 ADD SSTORE PUSH1 0x5 DUP3 ADD SLOAD DUP2 PUSH1 0x5 ADD SSTORE PUSH1 0x6 DUP3 ADD PUSH0 SWAP1 SLOAD SWAP1 PUSH2 0x100 EXP SWAP1 DIV PUSH1 0xFF AND DUP2 PUSH1 0x6 ADD PUSH0 PUSH2 0x100 EXP DUP2 SLOAD DUP2 PUSH1 0xFF MUL NOT AND SWAP1 DUP4 ISZERO ISZERO MUL OR SWAP1 SSTORE POP SWAP1 POP POP PUSH1 0x2 PUSH0 DUP4 PUSH20 0xFFFFFFFFFFFFFFFFFFFFFFFFFFFFFFFFFFFFFFFF AND PUSH20 0xFFFFFFFFFFFFFFFFFFFFFFFFFFFFFFFFFFFFFFFF AND DUP2 MSTORE PUSH1 0x20 ADD SWAP1 DUP2 MSTORE PUSH1 0x20 ADD PUSH0 KECCAK256 DUP1 SLOAD DUP1 PUSH2 0x28A0 JUMPI PUSH2 0x289F PUSH2 0x41DF JUMP JUMPDEST JUMPDEST PUSH1 0x1 SWAP1 SUB DUP2 DUP2 SWAP1 PUSH0 MSTORE PUSH1 0x20 PUSH0 KECCAK256 SWAP1 PUSH1 0x7 MUL ADD PUSH0 DUP1 DUP3 ADD PUSH0 SWAP1 SSTORE PUSH1 0x1 DUP3 ADD PUSH0 PUSH2 0x28C8 SWAP2 SWAP1 PUSH2 0x2A5E JUMP JUMPDEST PUSH1 0x2 DUP3 ADD PUSH0 PUSH2 0x100 EXP DUP2 SLOAD SWAP1 PUSH20 0xFFFFFFFFFFFFFFFFFFFFFFFFFFFFFFFFFFFFFFFF MUL NOT AND SWAP1 SSTORE PUSH1 0x3 DUP3 ADD PUSH0 PUSH2 0x100 EXP DUP2 SLOAD SWAP1 PUSH20 0xFFFFFFFFFFFFFFFFFFFFFFFFFFFFFFFFFFFFFFFF MUL NOT AND SWAP1 SSTORE PUSH1 0x4 DUP3 ADD PUSH0 SWAP1 SSTORE PUSH1 0x5 DUP3 ADD PUSH0 SWAP1 SSTORE PUSH1 0x6 DUP3 ADD PUSH0 PUSH2 0x100 EXP DUP2 SLOAD SWAP1 PUSH1 0xFF MUL NOT AND SWAP1 SSTORE POP POP SWAP1 SSTORE JUMPDEST POP POP JUMP JUMPDEST PUSH0 DUP2 TIMESTAMP LT SWAP1 POP SWAP2 SWAP1 POP JUMP JUMPDEST PUSH0 DUP3 PUSH20 0xFFFFFFFFFFFFFFFFFFFFFFFFFFFFFFFFFFFFFFFF AND DUP3 PUSH1 0x40 MLOAD PUSH2 0x296E SWAP1 PUSH2 0x3AC7 JUMP JUMPDEST PUSH0 PUSH1 0x40 MLOAD DUP1 DUP4 SUB DUP2 DUP6 DUP8 GAS CALL SWAP3 POP POP POP RETURNDATASIZE DUP1 PUSH0 DUP2 EQ PUSH2 0x29A8 JUMPI PUSH1 0x40 MLOAD SWAP2 POP PUSH1 0x1F NOT PUSH1 0x3F RETURNDATASIZE ADD AND DUP3 ADD PUSH1 0x40 MSTORE RETURNDATASIZE DUP3 MSTORE RETURNDATASIZE PUSH0 PUSH1 0x20 DUP5 ADD RETURNDATACOPY PUSH2 0x29AD JUMP JUMPDEST PUSH1 0x60 SWAP2 POP JUMPDEST POP POP SWAP1 POP DUP1 PUSH2 0x29F1 JUMPI PUSH1 0x40 MLOAD PUSH32 0x8C379A000000000000000000000000000000000000000000000000000000000 DUP2 MSTORE PUSH1 0x4 ADD PUSH2 0x29E8 SWAP1 PUSH2 0x3D86 JUMP JUMPDEST PUSH1 0x40 MLOAD DUP1 SWAP2 SUB SWAP1 REVERT JUMPDEST POP POP POP JUMP JUMPDEST PUSH1 0x40 MLOAD DUP1 PUSH1 0xE0 ADD PUSH1 0x40 MSTORE DUP1 PUSH0 DUP1 NOT AND DUP2 MSTORE PUSH1 0x20 ADD PUSH1 0x60 DUP2 MSTORE PUSH1 0x20 ADD PUSH0 PUSH20 0xFFFFFFFFFFFFFFFFFFFFFFFFFFFFFFFFFFFFFFFF AND DUP2 MSTORE PUSH1 0x20 ADD PUSH0 PUSH20 0xFFFFFFFFFFFFFFFFFFFFFFFFFFFFFFFFFFFFFFFF AND DUP2 MSTORE PUSH1 0x20 ADD PUSH0 DUP2 MSTORE PUSH1 0x20 ADD PUSH0 DUP2 MSTORE PUSH1 0x20 ADD PUSH0 ISZERO ISZERO DUP2 MSTORE POP SWAP1 JUMP JUMPDEST POP DUP1 SLOAD PUSH2 0x2A6A SWAP1 PUSH2 0x341D JUMP JUMPDEST PUSH0 DUP3 SSTORE DUP1 PUSH1 0x1F LT PUSH2 0x2A7B JUMPI POP PUSH2 0x2A98 JUMP JUMPDEST PUSH1 0x1F ADD PUSH1 0x20 SWAP1 DIV SWAP1 PUSH0 MSTORE PUSH1 0x20 PUSH0 KECCAK256 SWAP1 DUP2 ADD SWAP1 PUSH2 0x2A97 SWAP2 SWAP1 PUSH2 0x2A9B JUMP JUMPDEST JUMPDEST POP JUMP JUMPDEST JUMPDEST DUP1 DUP3 GT ISZERO PUSH2 0x2AB2 JUMPI PUSH0 DUP2 PUSH0 SWAP1 SSTORE POP PUSH1 0x1 ADD PUSH2 0x2A9C JUMP JUMPDEST POP SWAP1 JUMP JUMPDEST PUSH0 PUSH1 0x40 MLOAD SWAP1 POP SWAP1 JUMP JUMPDEST PUSH0 DUP1 REVERT JUMPDEST PUSH0 DUP1 REVERT JUMPDEST PUSH0 DUP2 SWAP1 POP SWAP2 SWAP1 POP JUMP JUMPDEST PUSH2 0x2AD9 DUP2 PUSH2 0x2AC7 JUMP JUMPDEST DUP2 EQ PUSH2 0x2AE3 JUMPI PUSH0 DUP1 REVERT JUMPDEST POP JUMP JUMPDEST PUSH0 DUP2 CALLDATALOAD SWAP1 POP PUSH2 0x2AF4 DUP2 PUSH2 0x2AD0 JUMP JUMPDEST SWAP3 SWAP2 POP POP JUMP JUMPDEST PUSH0 PUSH1 0x20 DUP3 DUP5 SUB SLT ISZERO PUSH2 0x2B0F JUMPI PUSH2 0x2B0E PUSH2 0x2ABF JUMP JUMPDEST JUMPDEST PUSH0 PUSH2 0x2B1C DUP5 DUP3 DUP6 ADD PUSH2 0x2AE6 JUMP JUMPDEST SWAP2 POP POP SWAP3 SWAP2 POP POP JUMP JUMPDEST PUSH0 DUP2 ISZERO ISZERO SWAP1 POP SWAP2 SWAP1 POP JUMP JUMPDEST PUSH2 0x2B39 DUP2 PUSH2 0x2B25 JUMP JUMPDEST DUP3 MSTORE POP POP JUMP JUMPDEST PUSH0 PUSH1 0x20 DUP3 ADD SWAP1 POP PUSH2 0x2B52 PUSH0 DUP4 ADD DUP5 PUSH2 0x2B30 JUMP JUMPDEST SWAP3 SWAP2 POP POP JUMP JUMPDEST PUSH2 0x2B61 DUP2 PUSH2 0x2AC7 JUMP JUMPDEST DUP3 MSTORE POP POP JUMP JUMPDEST PUSH0 DUP2 MLOAD SWAP1 POP SWAP2 SWAP1 POP JUMP JUMPDEST PUSH0 DUP3 DUP3 MSTORE PUSH1 0x20 DUP3 ADD SWAP1 POP SWAP3 SWAP2 POP POP JUMP JUMPDEST DUP3 DUP2 DUP4 MCOPY PUSH0 DUP4 DUP4 ADD MSTORE POP POP POP JUMP JUMPDEST PUSH0 PUSH1 0x1F NOT PUSH1 0x1F DUP4 ADD AND SWAP1 POP SWAP2 SWAP1 POP JUMP JUMPDEST PUSH0 PUSH2 0x2BA9 DUP3 PUSH2 0x2B67 JUMP JUMPDEST PUSH2 0x2BB3 DUP2 DUP6 PUSH2 0x2B71 JUMP JUMPDEST SWAP4 POP PUSH2 0x2BC3 DUP2 DUP6 PUSH1 0x20 DUP7 ADD PUSH2 0x2B81 JUMP JUMPDEST PUSH2 0x2BCC DUP2 PUSH2 0x2B8F JUMP JUMPDEST DUP5 ADD SWAP2 POP POP SWAP3 SWAP2 POP POP JUMP JUMPDEST PUSH0 PUSH20 0xFFFFFFFFFFFFFFFFFFFFFFFFFFFFFFFFFFFFFFFF DUP3 AND SWAP1 POP SWAP2 SWAP1 POP JUMP JUMPDEST PUSH0 PUSH2 0x2C00 DUP3 PUSH2 0x2BD7 JUMP JUMPDEST SWAP1 POP SWAP2 SWAP1 POP JUMP JUMPDEST PUSH2 0x2C10 DUP2 PUSH2 0x2BF6 JUMP JUMPDEST DUP3 MSTORE POP POP JUMP JUMPDEST PUSH0 DUP2 SWAP1 POP SWAP2 SWAP1 POP JUMP JUMPDEST PUSH2 0x2C28 DUP2 PUSH2 0x2C16 JUMP JUMPDEST DUP3 MSTORE POP POP JUMP JUMPDEST PUSH0 PUSH1 0xE0 DUP3 ADD SWAP1 POP PUSH2 0x2C41 PUSH0 DUP4 ADD DUP11 PUSH2 0x2B58 JUMP JUMPDEST DUP2 DUP2 SUB PUSH1 0x20 DUP4 ADD MSTORE PUSH2 0x2C53 DUP2 DUP10 PUSH2 0x2B9F JUMP JUMPDEST SWAP1 POP PUSH2 0x2C62 PUSH1 0x40 DUP4 ADD DUP9 PUSH2 0x2C07 JUMP JUMPDEST PUSH2 0x2C6F PUSH1 0x60 DUP4 ADD DUP8 PUSH2 0x2C07 JUMP JUMPDEST PUSH2 0x2C7C PUSH1 0x80 DUP4 ADD DUP7 PUSH2 0x2C1F JUMP JUMPDEST PUSH2 0x2C89 PUSH1 0xA0 DUP4 ADD DUP6 PUSH2 0x2C1F JUMP JUMPDEST PUSH2 0x2C96 PUSH1 0xC0 DUP4 ADD DUP5 PUSH2 0x2B30 JUMP JUMPDEST SWAP9 SWAP8 POP POP POP POP POP POP POP POP JUMP JUMPDEST PUSH0 PUSH1 0x20 DUP3 ADD SWAP1 POP PUSH2 0x2CB5 PUSH0 DUP4 ADD DUP5 PUSH2 0x2C1F JUMP JUMPDEST SWAP3 SWAP2 POP POP JUMP JUMPDEST PUSH2 0x2CC4 DUP2 PUSH2 0x2BF6 JUMP JUMPDEST DUP2 EQ PUSH2 0x2CCE JUMPI PUSH0 DUP1 REVERT JUMPDEST POP JUMP JUMPDEST PUSH0 DUP2 CALLDATALOAD SWAP1 POP PUSH2 0x2CDF DUP2 PUSH2 0x2CBB JUMP JUMPDEST SWAP3 SWAP2 POP POP JUMP JUMPDEST PUSH0 DUP1 REVERT JUMPDEST PUSH0 DUP1 REVERT JUMPDEST PUSH0 DUP1 REVERT JUMPDEST PUSH0 DUP1 DUP4 PUSH1 0x1F DUP5 ADD SLT PUSH2 0x2D06 JUMPI PUSH2 0x2D05 PUSH2 0x2CE5 JUMP JUMPDEST JUMPDEST DUP3 CALLDATALOAD SWAP1 POP PUSH8 0xFFFFFFFFFFFFFFFF DUP2 GT ISZERO PUSH2 0x2D23 JUMPI PUSH2 0x2D22 PUSH2 0x2CE9 JUMP JUMPDEST JUMPDEST PUSH1 0x20 DUP4 ADD SWAP2 POP DUP4 PUSH1 0x1 DUP3 MUL DUP4 ADD GT ISZERO PUSH2 0x2D3F JUMPI PUSH2 0x2D3E PUSH2 0x2CED JUMP JUMPDEST JUMPDEST SWAP3 POP SWAP3 SWAP1 POP JUMP JUMPDEST PUSH0 DUP1 PUSH0 DUP1 PUSH1 0x60 DUP6 DUP8 SUB SLT ISZERO PUSH2 0x2D5E JUMPI PUSH2 0x2D5D PUSH2 0x2ABF JUMP JUMPDEST JUMPDEST PUSH0 PUSH2 0x2D6B DUP8 DUP3 DUP9 ADD PUSH2 0x2CD1 JUMP JUMPDEST SWAP5 POP POP PUSH1 0x20 PUSH2 0x2D7C DUP8 DUP3 DUP9 ADD PUSH2 0x2AE6 JUMP JUMPDEST SWAP4 POP POP PUSH1 0x40 DUP6 ADD CALLDATALOAD PUSH8 0xFFFFFFFFFFFFFFFF DUP2 GT ISZERO PUSH2 0x2D9D JUMPI PUSH2 0x2D9C PUSH2 0x2AC3 JUMP JUMPDEST JUMPDEST PUSH2 0x2DA9 DUP8 DUP3 DUP9 ADD PUSH2 0x2CF1 JUMP JUMPDEST SWAP3 POP SWAP3 POP POP SWAP3 SWAP6 SWAP2 SWAP5 POP SWAP3 POP JUMP JUMPDEST PUSH0 DUP2 MLOAD SWAP1 POP SWAP2 SWAP1 POP JUMP JUMPDEST PUSH0 DUP3 DUP3 MSTORE PUSH1 0x20 DUP3 ADD SWAP1 POP SWAP3 SWAP2 POP POP JUMP JUMPDEST PUSH0 DUP2 SWAP1 POP PUSH1 0x20 DUP3 ADD SWAP1 POP SWAP2 SWAP1 POP JUMP JUMPDEST PUSH2 0x2DE9 DUP2 PUSH2 0x2AC7 JUMP JUMPDEST DUP3 MSTORE POP POP JUMP JUMPDEST PUSH0 DUP3 DUP3 MSTORE PUSH1 0x20 DUP3 ADD SWAP1 POP SWAP3 SWAP2 POP POP JUMP JUMPDEST PUSH0 PUSH2 0x2E09 DUP3 PUSH2 0x2B67 JUMP JUMPDEST PUSH2 0x2E13 DUP2 DUP6 PUSH2 0x2DEF JUMP JUMPDEST SWAP4 POP PUSH2 0x2E23 DUP2 DUP6 PUSH1 0x20 DUP7 ADD PUSH2 0x2B81 JUMP JUMPDEST PUSH2 0x2E2C DUP2 PUSH2 0x2B8F JUMP JUMPDEST DUP5 ADD SWAP2 POP POP SWAP3 SWAP2 POP POP JUMP JUMPDEST PUSH2 0x2E40 DUP2 PUSH2 0x2BF6 JUMP JUMPDEST DUP3 MSTORE POP POP JUMP JUMPDEST PUSH2 0x2E4F DUP2 PUSH2 0x2C16 JUMP JUMPDEST DUP3 MSTORE POP POP JUMP JUMPDEST PUSH2 0x2E5E DUP2 PUSH2 0x2B25 JUMP JUMPDEST DUP3 MSTORE POP POP JUMP JUMPDEST PUSH0 PUSH1 0xE0 DUP4 ADD PUSH0 DUP4 ADD MLOAD PUSH2 0x2E79 PUSH0 DUP7 ADD DUP3 PUSH2 0x2DE0 JUMP JUMPDEST POP PUSH1 0x20 DUP4 ADD MLOAD DUP5 DUP3 SUB PUSH1 0x20 DUP7 ADD MSTORE PUSH2 0x2E91 DUP3 DUP3 PUSH2 0x2DFF JUMP JUMPDEST SWAP2 POP POP PUSH1 0x40 DUP4 ADD MLOAD PUSH2 0x2EA6 PUSH1 0x40 DUP7 ADD DUP3 PUSH2 0x2E37 JUMP JUMPDEST POP PUSH1 0x60 DUP4 ADD MLOAD PUSH2 0x2EB9 PUSH1 0x60 DUP7 ADD DUP3 PUSH2 0x2E37 JUMP JUMPDEST POP PUSH1 0x80 DUP4 ADD MLOAD PUSH2 0x2ECC PUSH1 0x80 DUP7 ADD DUP3 PUSH2 0x2E46 JUMP JUMPDEST POP PUSH1 0xA0 DUP4 ADD MLOAD PUSH2 0x2EDF PUSH1 0xA0 DUP7 ADD DUP3 PUSH2 0x2E46 JUMP JUMPDEST POP PUSH1 0xC0 DUP4 ADD MLOAD PUSH2 0x2EF2 PUSH1 0xC0 DUP7 ADD DUP3 PUSH2 0x2E55 JUMP JUMPDEST POP DUP1 SWAP2 POP POP SWAP3 SWAP2 POP POP JUMP JUMPDEST PUSH0 PUSH2 0x2F08 DUP4 DUP4 PUSH2 0x2E64 JUMP JUMPDEST SWAP1 POP SWAP3 SWAP2 POP POP JUMP JUMPDEST PUSH0 PUSH1 0x20 DUP3 ADD SWAP1 POP SWAP2 SWAP1 POP JUMP JUMPDEST PUSH0 PUSH2 0x2F26 DUP3 PUSH2 0x2DB7 JUMP JUMPDEST PUSH2 0x2F30 DUP2 DUP6 PUSH2 0x2DC1 JUMP JUMPDEST SWAP4 POP DUP4 PUSH1 0x20 DUP3 MUL DUP6 ADD PUSH2 0x2F42 DUP6 PUSH2 0x2DD1 JUMP JUMPDEST DUP1 PUSH0 JUMPDEST DUP6 DUP2 LT ISZERO PUSH2 0x2F7D JUMPI DUP5 DUP5 SUB DUP10 MSTORE DUP2 MLOAD PUSH2 0x2F5E DUP6 DUP3 PUSH2 0x2EFD JUMP JUMPDEST SWAP5 POP PUSH2 0x2F69 DUP4 PUSH2 0x2F10 JUMP JUMPDEST SWAP3 POP PUSH1 0x20 DUP11 ADD SWAP10 POP POP PUSH1 0x1 DUP2 ADD SWAP1 POP PUSH2 0x2F45 JUMP JUMPDEST POP DUP3 SWAP8 POP DUP8 SWAP6 POP POP POP POP POP POP SWAP3 SWAP2 POP POP JUMP JUMPDEST PUSH0 PUSH1 0x20 DUP3 ADD SWAP1 POP DUP2 DUP2 SUB PUSH0 DUP4 ADD MSTORE PUSH2 0x2FA7 DUP2 DUP5 PUSH2 0x2F1C JUMP JUMPDEST SWAP1 POP SWAP3 SWAP2 POP POP JUMP JUMPDEST PUSH0 PUSH1 0x20 DUP3 ADD SWAP1 POP DUP2 DUP2 SUB PUSH0 DUP4 ADD MSTORE PUSH2 0x2FC7 DUP2 DUP5 PUSH2 0x2B9F JUMP JUMPDEST SWAP1 POP SWAP3 SWAP2 POP POP JUMP JUMPDEST PUSH0 PUSH1 0x20 DUP3 ADD SWAP1 POP PUSH2 0x2FE2 PUSH0 DUP4 ADD DUP5 PUSH2 0x2B58 JUMP JUMPDEST SWAP3 SWAP2 POP POP JUMP JUMPDEST PUSH0 PUSH1 0x20 DUP3 ADD SWAP1 POP PUSH2 0x2FFB PUSH0 DUP4 ADD DUP5 PUSH2 0x2C07 JUMP JUMPDEST SWAP3 SWAP2 POP POP JUMP JUMPDEST PUSH0 DUP1 REVERT JUMPDEST PUSH32 0x4E487B7100000000000000000000000000000000000000000000000000000000 PUSH0 MSTORE PUSH1 0x41 PUSH1 0x4 MSTORE PUSH1 0x24 PUSH0 REVERT JUMPDEST PUSH2 0x303B DUP3 PUSH2 0x2B8F JUMP JUMPDEST DUP2 ADD DUP2 DUP2 LT PUSH8 0xFFFFFFFFFFFFFFFF DUP3 GT OR ISZERO PUSH2 0x305A JUMPI PUSH2 0x3059 PUSH2 0x3005 JUMP JUMPDEST JUMPDEST DUP1 PUSH1 0x40 MSTORE POP POP POP JUMP JUMPDEST PUSH0 PUSH2 0x306C PUSH2 0x2AB6 JUMP JUMPDEST SWAP1 POP PUSH2 0x3078 DUP3 DUP3 PUSH2 0x3032 JUMP JUMPDEST SWAP2 SWAP1 POP JUMP JUMPDEST PUSH0 PUSH8 0xFFFFFFFFFFFFFFFF DUP3 GT ISZERO PUSH2 0x3097 JUMPI PUSH2 0x3096 PUSH2 0x3005 JUMP JUMPDEST JUMPDEST PUSH2 0x30A0 DUP3 PUSH2 0x2B8F JUMP JUMPDEST SWAP1 POP PUSH1 0x20 DUP2 ADD SWAP1 POP SWAP2 SWAP1 POP JUMP JUMPDEST DUP3 DUP2 DUP4 CALLDATACOPY PUSH0 DUP4 DUP4 ADD MSTORE POP POP POP JUMP JUMPDEST PUSH0 PUSH2 0x30CD PUSH2 0x30C8 DUP5 PUSH2 0x307D JUMP JUMPDEST PUSH2 0x3063 JUMP JUMPDEST SWAP1 POP DUP3 DUP2 MSTORE PUSH1 0x20 DUP2 ADD DUP5 DUP5 DUP5 ADD GT ISZERO PUSH2 0x30E9 JUMPI PUSH2 0x30E8 PUSH2 0x3001 JUMP JUMPDEST JUMPDEST PUSH2 0x30F4 DUP5 DUP3 DUP6 PUSH2 0x30AD JUMP JUMPDEST POP SWAP4 SWAP3 POP POP POP JUMP JUMPDEST PUSH0 DUP3 PUSH1 0x1F DUP4 ADD SLT PUSH2 0x3110 JUMPI PUSH2 0x310F PUSH2 0x2CE5 JUMP JUMPDEST JUMPDEST DUP2 CALLDATALOAD PUSH2 0x3120 DUP5 DUP3 PUSH1 0x20 DUP7 ADD PUSH2 0x30BB JUMP JUMPDEST SWAP2 POP POP SWAP3 SWAP2 POP POP JUMP JUMPDEST PUSH2 0x3132 DUP2 PUSH2 0x2C16 JUMP JUMPDEST DUP2 EQ PUSH2 0x313C JUMPI PUSH0 DUP1 REVERT JUMPDEST POP JUMP JUMPDEST PUSH0 DUP2 CALLDATALOAD SWAP1 POP PUSH2 0x314D DUP2 PUSH2 0x3129 JUMP JUMPDEST SWAP3 SWAP2 POP POP JUMP JUMPDEST PUSH0 DUP1 PUSH0 DUP1 PUSH0 PUSH1 0xA0 DUP7 DUP9 SUB SLT ISZERO PUSH2 0x316C JUMPI PUSH2 0x316B PUSH2 0x2ABF JUMP JUMPDEST JUMPDEST PUSH0 DUP7 ADD CALLDATALOAD PUSH8 0xFFFFFFFFFFFFFFFF DUP2 GT ISZERO PUSH2 0x3189 JUMPI PUSH2 0x3188 PUSH2 0x2AC3 JUMP JUMPDEST JUMPDEST PUSH2 0x3195 DUP9 DUP3 DUP10 ADD PUSH2 0x30FC JUMP JUMPDEST SWAP6 POP POP PUSH1 0x20 PUSH2 0x31A6 DUP9 DUP3 DUP10 ADD PUSH2 0x2CD1 JUMP JUMPDEST SWAP5 POP POP PUSH1 0x40 PUSH2 0x31B7 DUP9 DUP3 DUP10 ADD PUSH2 0x2CD1 JUMP JUMPDEST SWAP4 POP POP PUSH1 0x60 PUSH2 0x31C8 DUP9 DUP3 DUP10 ADD PUSH2 0x313F JUMP JUMPDEST SWAP3 POP POP PUSH1 0x80 PUSH2 0x31D9 DUP9 DUP3 DUP10 ADD PUSH2 0x313F JUMP JUMPDEST SWAP2 POP POP SWAP3 SWAP6 POP SWAP3 SWAP6 SWAP1 SWAP4 POP JUMP JUMPDEST PUSH0 PUSH1 0xE0 DUP4 ADD PUSH0 DUP4 ADD MLOAD PUSH2 0x31FB PUSH0 DUP7 ADD DUP3 PUSH2 0x2DE0 JUMP JUMPDEST POP PUSH1 0x20 DUP4 ADD MLOAD DUP5 DUP3 SUB PUSH1 0x20 DUP7 ADD MSTORE PUSH2 0x3213 DUP3 DUP3 PUSH2 0x2DFF JUMP JUMPDEST SWAP2 POP POP PUSH1 0x40 DUP4 ADD MLOAD PUSH2 0x3228 PUSH1 0x40 DUP7 ADD DUP3 PUSH2 0x2E37 JUMP JUMPDEST POP PUSH1 0x60 DUP4 ADD MLOAD PUSH2 0x323B PUSH1 0x60 DUP7 ADD DUP3 PUSH2 0x2E37 JUMP JUMPDEST POP PUSH1 0x80 DUP4 ADD MLOAD PUSH2 0x324E PUSH1 0x80 DUP7 ADD DUP3 PUSH2 0x2E46 JUMP JUMPDEST POP PUSH1 0xA0 DUP4 ADD MLOAD PUSH2 0x3261 PUSH1 0xA0 DUP7 ADD DUP3 PUSH2 0x2E46 JUMP JUMPDEST POP PUSH1 0xC0 DUP4 ADD MLOAD PUSH2 0x3274 PUSH1 0xC0 DUP7 ADD DUP3 PUSH2 0x2E55 JUMP JUMPDEST POP DUP1 SWAP2 POP POP SWAP3 SWAP2 POP POP JUMP JUMPDEST PUSH0 PUSH1 0x40 DUP3 ADD SWAP1 POP DUP2 DUP2 SUB PUSH0 DUP4 ADD MSTORE PUSH2 0x3297 DUP2 DUP6 PUSH2 0x31E6 JUMP JUMPDEST SWAP1 POP PUSH2 0x32A6 PUSH1 0x20 DUP4 ADD DUP5 PUSH2 0x2C1F JUMP JUMPDEST SWAP4 SWAP3 POP POP POP JUMP JUMPDEST PUSH0 DUP1 PUSH1 0x40 DUP4 DUP6 SUB SLT ISZERO PUSH2 0x32C3 JUMPI PUSH2 0x32C2 PUSH2 0x2ABF JUMP JUMPDEST JUMPDEST PUSH0 PUSH2 0x32D0 DUP6 DUP3 DUP7 ADD PUSH2 0x2CD1 JUMP JUMPDEST SWAP3 POP POP PUSH1 0x20 PUSH2 0x32E1 DUP6 DUP3 DUP7 ADD PUSH2 0x313F JUMP JUMPDEST SWAP2 POP POP SWAP3 POP SWAP3 SWAP1 POP JUMP JUMPDEST PUSH0 DUP1 PUSH0 DUP1 PUSH0 PUSH1 0xA0 DUP7 DUP9 SUB SLT ISZERO PUSH2 0x3304 JUMPI PUSH2 0x3303 PUSH2 0x2ABF JUMP JUMPDEST JUMPDEST PUSH0 PUSH2 0x3311 DUP9 DUP3 DUP10 ADD PUSH2 0x2AE6 JUMP JUMPDEST SWAP6 POP POP PUSH1 0x20 DUP7 ADD CALLDATALOAD PUSH8 0xFFFFFFFFFFFFFFFF DUP2 GT ISZERO PUSH2 0x3332 JUMPI PUSH2 0x3331 PUSH2 0x2AC3 JUMP JUMPDEST JUMPDEST PUSH2 0x333E DUP9 DUP3 DUP10 ADD PUSH2 0x30FC JUMP JUMPDEST SWAP5 POP POP PUSH1 0x40 PUSH2 0x334F DUP9 DUP3 DUP10 ADD PUSH2 0x2CD1 JUMP JUMPDEST SWAP4 POP POP PUSH1 0x60 PUSH2 0x3360 DUP9 DUP3 DUP10 ADD PUSH2 0x313F JUMP JUMPDEST SWAP3 POP POP PUSH1 0x80 PUSH2 0x3371 DUP9 DUP3 DUP10 ADD PUSH2 0x313F JUMP JUMPDEST SWAP2 POP POP SWAP3 SWAP6 POP SWAP3 SWAP6 SWAP1 SWAP4 POP JUMP JUMPDEST PUSH0 DUP2 MLOAD SWAP1 POP SWAP2 SWAP1 POP JUMP JUMPDEST PUSH0 DUP3 DUP3 MSTORE PUSH1 0x20 DUP3 ADD SWAP1 POP SWAP3 SWAP2 POP POP JUMP JUMPDEST PUSH0 PUSH2 0x33A2 DUP3 PUSH2 0x337E JUMP JUMPDEST PUSH2 0x33AC DUP2 DUP6 PUSH2 0x3388 JUMP JUMPDEST SWAP4 POP PUSH2 0x33BC DUP2 DUP6 PUSH1 0x20 DUP7 ADD PUSH2 0x2B81 JUMP JUMPDEST PUSH2 0x33C5 DUP2 PUSH2 0x2B8F JUMP JUMPDEST DUP5 ADD SWAP2 POP POP SWAP3 SWAP2 POP POP JUMP JUMPDEST PUSH0 PUSH1 0x20 DUP3 ADD SWAP1 POP DUP2 DUP2 SUB PUSH0 DUP4 ADD MSTORE PUSH2 0x33E8 DUP2 DUP5 PUSH2 0x3398 JUMP JUMPDEST SWAP1 POP SWAP3 SWAP2 POP POP JUMP JUMPDEST PUSH32 0x4E487B7100000000000000000000000000000000000000000000000000000000 PUSH0 MSTORE PUSH1 0x22 PUSH1 0x4 MSTORE PUSH1 0x24 PUSH0 REVERT JUMPDEST PUSH0 PUSH1 0x2 DUP3 DIV SWAP1 POP PUSH1 0x1 DUP3 AND DUP1 PUSH2 0x3434 JUMPI PUSH1 0x7F DUP3 AND SWAP2 POP JUMPDEST PUSH1 0x20 DUP3 LT DUP2 SUB PUSH2 0x3447 JUMPI PUSH2 0x3446 PUSH2 0x33F0 JUMP JUMPDEST JUMPDEST POP SWAP2 SWAP1 POP JUMP JUMPDEST PUSH32 0x4F6E6C79204F776E65722063616E206578656375746520746869732066756E63 PUSH0 DUP3 ADD MSTORE PUSH32 0x74696F6E00000000000000000000000000000000000000000000000000000000 PUSH1 0x20 DUP3 ADD MSTORE POP JUMP JUMPDEST PUSH0 PUSH2 0x34A7 PUSH1 0x24 DUP4 PUSH2 0x2B71 JUMP JUMPDEST SWAP2 POP PUSH2 0x34B2 DUP3 PUSH2 0x344D JUMP JUMPDEST PUSH1 0x40 DUP3 ADD SWAP1 POP SWAP2 SWAP1 POP JUMP JUMPDEST PUSH0 PUSH1 0x20 DUP3 ADD SWAP1 POP DUP2 DUP2 SUB PUSH0 DUP4 ADD MSTORE PUSH2 0x34D4 DUP2 PUSH2 0x349B JUMP JUMPDEST SWAP1 POP SWAP2 SWAP1 POP JUMP JUMPDEST PUSH32 0x416C72656164795175657565644572726F720000000000000000000000000000 PUSH0 DUP3 ADD MSTORE POP JUMP JUMPDEST PUSH0 PUSH2 0x350F PUSH1 0x12 DUP4 PUSH2 0x2B71 JUMP JUMPDEST SWAP2 POP PUSH2 0x351A DUP3 PUSH2 0x34DB JUMP JUMPDEST PUSH1 0x20 DUP3 ADD SWAP1 POP SWAP2 SWAP1 POP JUMP JUMPDEST PUSH0 PUSH1 0x20 DUP3 ADD SWAP1 POP DUP2 DUP2 SUB PUSH0 DUP4 ADD MSTORE PUSH2 0x353C DUP2 PUSH2 0x3503 JUMP JUMPDEST SWAP1 POP SWAP2 SWAP1 POP JUMP JUMPDEST PUSH32 0x4E487B7100000000000000000000000000000000000000000000000000000000 PUSH0 MSTORE PUSH1 0x11 PUSH1 0x4 MSTORE PUSH1 0x24 PUSH0 REVERT JUMPDEST PUSH0 PUSH2 0x357A DUP3 PUSH2 0x2C16 JUMP JUMPDEST SWAP2 POP PUSH2 0x3585 DUP4 PUSH2 0x2C16 JUMP JUMPDEST SWAP3 POP DUP3 DUP3 ADD SWAP1 POP DUP1 DUP3 GT ISZERO PUSH2 0x359D JUMPI PUSH2 0x359C PUSH2 0x3543 JUMP JUMPDEST JUMPDEST SWAP3 SWAP2 POP POP JUMP JUMPDEST PUSH32 0x54696D657374616D704E6F74496E52616E67654572726F720000000000000000 PUSH0 DUP3 ADD MSTORE POP JUMP JUMPDEST PUSH0 PUSH2 0x35D7 PUSH1 0x18 DUP4 PUSH2 0x2B71 JUMP JUMPDEST SWAP2 POP PUSH2 0x35E2 DUP3 PUSH2 0x35A3 JUMP JUMPDEST PUSH1 0x20 DUP3 ADD SWAP1 POP SWAP2 SWAP1 POP JUMP JUMPDEST PUSH0 PUSH1 0x20 DUP3 ADD SWAP1 POP DUP2 DUP2 SUB PUSH0 DUP4 ADD MSTORE PUSH2 0x3604 DUP2 PUSH2 0x35CB JUMP JUMPDEST SWAP1 POP SWAP2 SWAP1 POP JUMP JUMPDEST PUSH0 DUP2 SWAP1 POP DUP2 PUSH0 MSTORE PUSH1 0x20 PUSH0 KECCAK256 SWAP1 POP SWAP2 SWAP1 POP JUMP JUMPDEST PUSH0 PUSH1 0x20 PUSH1 0x1F DUP4 ADD DIV SWAP1 POP SWAP2 SWAP1 POP JUMP JUMPDEST PUSH0 DUP3 DUP3 SHL SWAP1 POP SWAP3 SWAP2 POP POP JUMP JUMPDEST PUSH0 PUSH1 0x8 DUP4 MUL PUSH2 0x3667 PUSH32 0xFFFFFFFFFFFFFFFFFFFFFFFFFFFFFFFFFFFFFFFFFFFFFFFFFFFFFFFFFFFFFFFF DUP3 PUSH2 0x362C JUMP JUMPDEST PUSH2 0x3671 DUP7 DUP4 PUSH2 0x362C JUMP JUMPDEST SWAP6 POP DUP1 NOT DUP5 AND SWAP4 POP DUP1 DUP7 AND DUP5 OR SWAP3 POP POP POP SWAP4 SWAP3 POP POP POP JUMP JUMPDEST PUSH0 DUP2 SWAP1 POP SWAP2 SWAP1 POP JUMP JUMPDEST PUSH0 PUSH2 0x36AC PUSH2 0x36A7 PUSH2 0x36A2 DUP5 PUSH2 0x2C16 JUMP JUMPDEST PUSH2 0x3689 JUMP JUMPDEST PUSH2 0x2C16 JUMP JUMPDEST SWAP1 POP SWAP2 SWAP1 POP JUMP JUMPDEST PUSH0 DUP2 SWAP1 POP SWAP2 SWAP1 POP JUMP JUMPDEST PUSH2 0x36C5 DUP4 PUSH2 0x3692 JUMP JUMPDEST PUSH2 0x36D9 PUSH2 0x36D1 DUP3 PUSH2 0x36B3 JUMP JUMPDEST DUP5 DUP5 SLOAD PUSH2 0x3638 JUMP JUMPDEST DUP3 SSTORE POP POP POP POP JUMP JUMPDEST PUSH0 SWAP1 JUMP JUMPDEST PUSH2 0x36ED PUSH2 0x36E1 JUMP JUMPDEST PUSH2 0x36F8 DUP2 DUP5 DUP5 PUSH2 0x36BC JUMP JUMPDEST POP POP POP JUMP JUMPDEST JUMPDEST DUP2 DUP2 LT ISZERO PUSH2 0x371B JUMPI PUSH2 0x3710 PUSH0 DUP3 PUSH2 0x36E5 JUMP JUMPDEST PUSH1 0x1 DUP2 ADD SWAP1 POP PUSH2 0x36FE JUMP JUMPDEST POP POP JUMP JUMPDEST PUSH1 0x1F DUP3 GT ISZERO PUSH2 0x3760 JUMPI PUSH2 0x3731 DUP2 PUSH2 0x360B JUMP JUMPDEST PUSH2 0x373A DUP5 PUSH2 0x361D JUMP JUMPDEST DUP2 ADD PUSH1 0x20 DUP6 LT ISZERO PUSH2 0x3749 JUMPI DUP2 SWAP1 POP JUMPDEST PUSH2 0x375D PUSH2 0x3755 DUP6 PUSH2 0x361D JUMP JUMPDEST DUP4 ADD DUP3 PUSH2 0x36FD JUMP JUMPDEST POP POP JUMPDEST POP POP POP JUMP JUMPDEST PUSH0 DUP3 DUP3 SHR SWAP1 POP SWAP3 SWAP2 POP POP JUMP JUMPDEST PUSH0 PUSH2 0x3780 PUSH0 NOT DUP5 PUSH1 0x8 MUL PUSH2 0x3765 JUMP JUMPDEST NOT DUP1 DUP4 AND SWAP2 POP POP SWAP3 SWAP2 POP POP JUMP JUMPDEST PUSH0 PUSH2 0x3798 DUP4 DUP4 PUSH2 0x3771 JUMP JUMPDEST SWAP2 POP DUP3 PUSH1 0x2 MUL DUP3 OR SWAP1 POP SWAP3 SWAP2 POP POP JUMP JUMPDEST PUSH2 0x37B1 DUP3 PUSH2 0x2B67 JUMP JUMPDEST PUSH8 0xFFFFFFFFFFFFFFFF DUP2 GT ISZERO PUSH2 0x37CA JUMPI PUSH2 0x37C9 PUSH2 0x3005 JUMP JUMPDEST JUMPDEST PUSH2 0x37D4 DUP3 SLOAD PUSH2 0x341D JUMP JUMPDEST PUSH2 0x37DF DUP3 DUP3 DUP6 PUSH2 0x371F JUMP JUMPDEST PUSH0 PUSH1 0x20 SWAP1 POP PUSH1 0x1F DUP4 GT PUSH1 0x1 DUP2 EQ PUSH2 0x3810 JUMPI PUSH0 DUP5 ISZERO PUSH2 0x37FE JUMPI DUP3 DUP8 ADD MLOAD SWAP1 POP JUMPDEST PUSH2 0x3808 DUP6 DUP3 PUSH2 0x378D JUMP JUMPDEST DUP7 SSTORE POP PUSH2 0x386F JUMP JUMPDEST PUSH1 0x1F NOT DUP5 AND PUSH2 0x381E DUP7 PUSH2 0x360B JUMP JUMPDEST PUSH0 JUMPDEST DUP3 DUP2 LT ISZERO PUSH2 0x3845 JUMPI DUP5 DUP10 ADD MLOAD DUP3 SSTORE PUSH1 0x1 DUP3 ADD SWAP2 POP PUSH1 0x20 DUP6 ADD SWAP5 POP PUSH1 0x20 DUP2 ADD SWAP1 POP PUSH2 0x3820 JUMP JUMPDEST DUP7 DUP4 LT ISZERO PUSH2 0x3862 JUMPI DUP5 DUP10 ADD MLOAD PUSH2 0x385E PUSH1 0x1F DUP10 AND DUP3 PUSH2 0x3771 JUMP JUMPDEST DUP4 SSTORE POP JUMPDEST PUSH1 0x1 PUSH1 0x2 DUP9 MUL ADD DUP9 SSTORE POP POP POP JUMPDEST POP POP POP POP POP POP JUMP JUMPDEST PUSH0 PUSH2 0x3882 DUP4 DUP6 PUSH2 0x2B71 JUMP JUMPDEST SWAP4 POP PUSH2 0x388F DUP4 DUP6 DUP5 PUSH2 0x30AD JUMP JUMPDEST PUSH2 0x3898 DUP4 PUSH2 0x2B8F JUMP JUMPDEST DUP5 ADD SWAP1 POP SWAP4 SWAP3 POP POP POP JUMP JUMPDEST PUSH0 PUSH1 0x60 DUP3 ADD SWAP1 POP PUSH2 0x38B6 PUSH0 DUP4 ADD DUP8 PUSH2 0x2C1F JUMP JUMPDEST DUP2 DUP2 SUB PUSH1 0x20 DUP4 ADD MSTORE PUSH2 0x38C9 DUP2 DUP6 DUP8 PUSH2 0x3877 JUMP JUMPDEST SWAP1 POP PUSH2 0x38D8 PUSH1 0x40 DUP4 ADD DUP5 PUSH2 0x2C1F JUMP JUMPDEST SWAP6 SWAP5 POP POP POP POP POP JUMP JUMPDEST PUSH0 PUSH1 0x60 DUP3 ADD SWAP1 POP PUSH2 0x38F4 PUSH0 DUP4 ADD DUP8 PUSH2 0x2C07 JUMP JUMPDEST PUSH2 0x3901 PUSH1 0x20 DUP4 ADD DUP7 PUSH2 0x2B58 JUMP JUMPDEST DUP2 DUP2 SUB PUSH1 0x40 DUP4 ADD MSTORE PUSH2 0x3914 DUP2 DUP5 DUP7 PUSH2 0x3877 JUMP JUMPDEST SWAP1 POP SWAP6 SWAP5 POP POP POP POP POP JUMP JUMPDEST PUSH0 PUSH1 0xA0 DUP3 ADD SWAP1 POP DUP2 DUP2 SUB PUSH0 DUP4 ADD MSTORE PUSH2 0x3937 DUP2 DUP9 PUSH2 0x2B9F JUMP JUMPDEST SWAP1 POP PUSH2 0x3946 PUSH1 0x20 DUP4 ADD DUP8 PUSH2 0x2C07 JUMP JUMPDEST PUSH2 0x3953 PUSH1 0x40 DUP4 ADD DUP7 PUSH2 0x2C07 JUMP JUMPDEST PUSH2 0x3960 PUSH1 0x60 DUP4 ADD DUP6 PUSH2 0x2C1F JUMP JUMPDEST PUSH2 0x396D PUSH1 0x80 DUP4 ADD DUP5 PUSH2 0x2C1F JUMP JUMPDEST SWAP7 SWAP6 POP POP POP POP POP POP JUMP JUMPDEST PUSH32 0x54686973206465706F73697420686173206265656E20636C61696D656420616C PUSH0 DUP3 ADD MSTORE PUSH32 0x7265616479000000000000000000000000000000000000000000000000000000 PUSH1 0x20 DUP3 ADD MSTORE POP JUMP JUMPDEST PUSH0 PUSH2 0x39D1 PUSH1 0x25 DUP4 PUSH2 0x2B71 JUMP JUMPDEST SWAP2 POP PUSH2 0x39DC DUP3 PUSH2 0x3977 JUMP JUMPDEST PUSH1 0x40 DUP3 ADD SWAP1 POP SWAP2 SWAP1 POP JUMP JUMPDEST PUSH0 PUSH1 0x20 DUP3 ADD SWAP1 POP DUP2 DUP2 SUB PUSH0 DUP4 ADD MSTORE PUSH2 0x39FE DUP2 PUSH2 0x39C5 JUMP JUMPDEST SWAP1 POP SWAP2 SWAP1 POP JUMP JUMPDEST PUSH32 0x4E487B7100000000000000000000000000000000000000000000000000000000 PUSH0 MSTORE PUSH1 0x32 PUSH1 0x4 MSTORE PUSH1 0x24 PUSH0 REVERT JUMPDEST PUSH32 0x4E6F745175657565644572726F72000000000000000000000000000000000000 PUSH0 DUP3 ADD MSTORE POP JUMP JUMPDEST PUSH0 PUSH2 0x3A66 PUSH1 0xE DUP4 PUSH2 0x2B71 JUMP JUMPDEST SWAP2 POP PUSH2 0x3A71 DUP3 PUSH2 0x3A32 JUMP JUMPDEST PUSH1 0x20 DUP3 ADD SWAP1 POP SWAP2 SWAP1 POP JUMP JUMPDEST PUSH0 PUSH1 0x20 DUP3 ADD SWAP1 POP DUP2 DUP2 SUB PUSH0 DUP4 ADD MSTORE PUSH2 0x3A93 DUP2 PUSH2 0x3A5A JUMP JUMPDEST SWAP1 POP SWAP2 SWAP1 POP JUMP JUMPDEST PUSH0 DUP2 SWAP1 POP SWAP3 SWAP2 POP POP JUMP JUMPDEST POP JUMP JUMPDEST PUSH0 PUSH2 0x3AB2 PUSH0 DUP4 PUSH2 0x3A9A JUMP JUMPDEST SWAP2 POP PUSH2 0x3ABD DUP3 PUSH2 0x3AA4 JUMP JUMPDEST PUSH0 DUP3 ADD SWAP1 POP SWAP2 SWAP1 POP JUMP JUMPDEST PUSH0 PUSH2 0x3AD1 DUP3 PUSH2 0x3AA7 JUMP JUMPDEST SWAP2 POP DUP2 SWAP1 POP SWAP2 SWAP1 POP JUMP JUMPDEST PUSH32 0x5265696D62757273656D656E74204572726F7200000000000000000000000000 PUSH0 DUP3 ADD MSTORE POP JUMP JUMPDEST PUSH0 PUSH2 0x3B0F PUSH1 0x13 DUP4 PUSH2 0x2B71 JUMP JUMPDEST SWAP2 POP PUSH2 0x3B1A DUP3 PUSH2 0x3ADB JUMP JUMPDEST PUSH1 0x20 DUP3 ADD SWAP1 POP SWAP2 SWAP1 POP JUMP JUMPDEST PUSH0 PUSH1 0x20 DUP3 ADD SWAP1 POP DUP2 DUP2 SUB PUSH0 DUP4 ADD MSTORE PUSH2 0x3B3C DUP2 PUSH2 0x3B03 JUMP JUMPDEST SWAP1 POP SWAP2 SWAP1 POP JUMP JUMPDEST PUSH32 0x5468652074696D656C6F636B20706572696F642068617320746F20626520696E PUSH0 DUP3 ADD MSTORE PUSH32 0x2074686520667574757265000000000000000000000000000000000000000000 PUSH1 0x20 DUP3 ADD MSTORE POP JUMP JUMPDEST PUSH0 PUSH2 0x3B9D PUSH1 0x2B DUP4 PUSH2 0x2B71 JUMP JUMPDEST SWAP2 POP PUSH2 0x3BA8 DUP3 PUSH2 0x3B43 JUMP JUMPDEST PUSH1 0x40 DUP3 ADD SWAP1 POP SWAP2 SWAP1 POP JUMP JUMPDEST PUSH0 PUSH1 0x20 DUP3 ADD SWAP1 POP DUP2 DUP2 SUB PUSH0 DUP4 ADD MSTORE PUSH2 0x3BCA DUP2 PUSH2 0x3B91 JUMP JUMPDEST SWAP1 POP SWAP2 SWAP1 POP JUMP JUMPDEST PUSH32 0x416D6F756E744C6F774572726F72000000000000000000000000000000000000 PUSH0 DUP3 ADD MSTORE POP JUMP JUMPDEST PUSH0 PUSH2 0x3C05 PUSH1 0xE DUP4 PUSH2 0x2B71 JUMP JUMPDEST SWAP2 POP PUSH2 0x3C10 DUP3 PUSH2 0x3BD1 JUMP JUMPDEST PUSH1 0x20 DUP3 ADD SWAP1 POP SWAP2 SWAP1 POP JUMP JUMPDEST PUSH0 PUSH1 0x20 DUP3 ADD SWAP1 POP DUP2 DUP2 SUB PUSH0 DUP4 ADD MSTORE PUSH2 0x3C32 DUP2 PUSH2 0x3BF9 JUMP JUMPDEST SWAP1 POP SWAP2 SWAP1 POP JUMP JUMPDEST PUSH32 0x4E6F4465706F736974466F756E644572726F7200000000000000000000000000 PUSH0 DUP3 ADD MSTORE POP JUMP JUMPDEST PUSH0 PUSH2 0x3C6D PUSH1 0x13 DUP4 PUSH2 0x2B71 JUMP JUMPDEST SWAP2 POP PUSH2 0x3C78 DUP3 PUSH2 0x3C39 JUMP JUMPDEST PUSH1 0x20 DUP3 ADD SWAP1 POP SWAP2 SWAP1 POP JUMP JUMPDEST PUSH0 PUSH1 0x20 DUP3 ADD SWAP1 POP DUP2 DUP2 SUB PUSH0 DUP4 ADD MSTORE PUSH2 0x3C9A DUP2 PUSH2 0x3C61 JUMP JUMPDEST SWAP1 POP SWAP2 SWAP1 POP JUMP JUMPDEST PUSH0 PUSH2 0x3CAB DUP3 PUSH2 0x2C16 JUMP JUMPDEST SWAP2 POP PUSH2 0x3CB6 DUP4 PUSH2 0x2C16 JUMP JUMPDEST SWAP3 POP DUP3 DUP3 SUB SWAP1 POP DUP2 DUP2 GT ISZERO PUSH2 0x3CCE JUMPI PUSH2 0x3CCD PUSH2 0x3543 JUMP JUMPDEST JUMPDEST SWAP3 SWAP2 POP POP JUMP JUMPDEST PUSH32 0x42616C616E6365206C6F772E20546F70757020796F7572206163636F756E7400 PUSH0 DUP3 ADD MSTORE POP JUMP JUMPDEST PUSH0 PUSH2 0x3D08 PUSH1 0x1F DUP4 PUSH2 0x2B71 JUMP JUMPDEST SWAP2 POP PUSH2 0x3D13 DUP3 PUSH2 0x3CD4 JUMP JUMPDEST PUSH1 0x20 DUP3 ADD SWAP1 POP SWAP2 SWAP1 POP JUMP JUMPDEST PUSH0 PUSH1 0x20 DUP3 ADD SWAP1 POP DUP2 DUP2 SUB PUSH0 DUP4 ADD MSTORE PUSH2 0x3D35 DUP2 PUSH2 0x3CFC JUMP JUMPDEST SWAP1 POP SWAP2 SWAP1 POP JUMP JUMPDEST PUSH32 0x4661696C656420746F2073656E64204574686572000000000000000000000000 PUSH0 DUP3 ADD MSTORE POP JUMP JUMPDEST PUSH0 PUSH2 0x3D70 PUSH1 0x14 DUP4 PUSH2 0x2B71 JUMP JUMPDEST SWAP2 POP PUSH2 0x3D7B DUP3 PUSH2 0x3D3C JUMP JUMPDEST PUSH1 0x20 DUP3 ADD SWAP1 POP SWAP2 SWAP1 POP JUMP JUMPDEST PUSH0 PUSH1 0x20 DUP3 ADD SWAP1 POP DUP2 DUP2 SUB PUSH0 DUP4 ADD MSTORE PUSH2 0x3D9D DUP2 PUSH2 0x3D64 JUMP JUMPDEST SWAP1 POP SWAP2 SWAP1 POP JUMP JUMPDEST PUSH32 0x5468657265206973206E6F206465706F736974206173736F6369617465642077 PUSH0 DUP3 ADD MSTORE PUSH32 0x6974682074686973206964000000000000000000000000000000000000000000 PUSH1 0x20 DUP3 ADD MSTORE POP JUMP JUMPDEST PUSH0 PUSH2 0x3DFE PUSH1 0x2B DUP4 PUSH2 0x2B71 JUMP JUMPDEST SWAP2 POP PUSH2 0x3E09 DUP3 PUSH2 0x3DA4 JUMP JUMPDEST PUSH1 0x40 DUP3 ADD SWAP1 POP SWAP2 SWAP1 POP JUMP JUMPDEST PUSH0 PUSH1 0x20 DUP3 ADD SWAP1 POP DUP2 DUP2 SUB PUSH0 DUP4 ADD MSTORE PUSH2 0x3E2B DUP2 PUSH2 0x3DF2 JUMP JUMPDEST SWAP1 POP SWAP2 SWAP1 POP JUMP JUMPDEST PUSH0 PUSH1 0x60 DUP3 ADD SWAP1 POP DUP2 DUP2 SUB PUSH0 DUP4 ADD MSTORE PUSH2 0x3E4A DUP2 DUP7 PUSH2 0x2B9F JUMP JUMPDEST SWAP1 POP PUSH2 0x3E59 PUSH1 0x20 DUP4 ADD DUP6 PUSH2 0x2C1F JUMP JUMPDEST PUSH2 0x3E66 PUSH1 0x40 DUP4 ADD DUP5 PUSH2 0x2C1F JUMP JUMPDEST SWAP5 SWAP4 POP POP POP POP JUMP JUMPDEST PUSH32 0x54696D657374616D704E6F745061737365644572726F72000000000000000000 PUSH0 DUP3 ADD MSTORE POP JUMP JUMPDEST PUSH0 PUSH2 0x3EA2 PUSH1 0x17 DUP4 PUSH2 0x2B71 JUMP JUMPDEST SWAP2 POP PUSH2 0x3EAD DUP3 PUSH2 0x3E6E JUMP JUMPDEST PUSH1 0x20 DUP3 ADD SWAP1 POP SWAP2 SWAP1 POP JUMP JUMPDEST PUSH0 PUSH1 0x20 DUP3 ADD SWAP1 POP DUP2 DUP2 SUB PUSH0 DUP4 ADD MSTORE PUSH2 0x3ECF DUP2 PUSH2 0x3E96 JUMP JUMPDEST SWAP1 POP SWAP2 SWAP1 POP JUMP JUMPDEST PUSH32 0x54696D657374616D70457870697265644572726F720000000000000000000000 PUSH0 DUP3 ADD MSTORE POP JUMP JUMPDEST PUSH0 PUSH2 0x3F0A PUSH1 0x15 DUP4 PUSH2 0x2B71 JUMP JUMPDEST SWAP2 POP PUSH2 0x3F15 DUP3 PUSH2 0x3ED6 JUMP JUMPDEST PUSH1 0x20 DUP3 ADD SWAP1 POP SWAP2 SWAP1 POP JUMP JUMPDEST PUSH0 PUSH1 0x20 DUP3 ADD SWAP1 POP DUP2 DUP2 SUB PUSH0 DUP4 ADD MSTORE PUSH2 0x3F37 DUP2 PUSH2 0x3EFE JUMP JUMPDEST SWAP1 POP SWAP2 SWAP1 POP JUMP JUMPDEST PUSH0 PUSH2 0x3F49 DUP4 DUP6 PUSH2 0x3A9A JUMP JUMPDEST SWAP4 POP PUSH2 0x3F56 DUP4 DUP6 DUP5 PUSH2 0x30AD JUMP JUMPDEST DUP3 DUP5 ADD SWAP1 POP SWAP4 SWAP3 POP POP POP JUMP JUMPDEST PUSH0 PUSH2 0x3F6E DUP3 DUP5 DUP7 PUSH2 0x3F3E JUMP JUMPDEST SWAP2 POP DUP2 SWAP1 POP SWAP4 SWAP3 POP POP POP JUMP JUMPDEST PUSH0 PUSH32 0xFFFFFFFF00000000000000000000000000000000000000000000000000000000 DUP3 AND SWAP1 POP SWAP2 SWAP1 POP JUMP JUMPDEST PUSH0 DUP2 SWAP1 POP SWAP2 SWAP1 POP JUMP JUMPDEST PUSH2 0x3FBF PUSH2 0x3FBA DUP3 PUSH2 0x3F7A JUMP JUMPDEST PUSH2 0x3FA5 JUMP JUMPDEST DUP3 MSTORE POP POP JUMP JUMPDEST PUSH0 DUP2 SWAP1 POP SWAP2 SWAP1 POP JUMP JUMPDEST PUSH2 0x3FDF PUSH2 0x3FDA DUP3 PUSH2 0x2AC7 JUMP JUMPDEST PUSH2 0x3FC5 JUMP JUMPDEST DUP3 MSTORE POP POP JUMP JUMPDEST PUSH0 PUSH2 0x3FF0 DUP3 DUP6 PUSH2 0x3FAE JUMP JUMPDEST PUSH1 0x4 DUP3 ADD SWAP2 POP PUSH2 0x4000 DUP3 DUP5 PUSH2 0x3FCE JUMP JUMPDEST PUSH1 0x20 DUP3 ADD SWAP2 POP DUP2 SWAP1 POP SWAP4 SWAP3 POP POP POP JUMP JUMPDEST PUSH0 PUSH2 0x401A DUP3 PUSH2 0x337E JUMP JUMPDEST PUSH2 0x4024 DUP2 DUP6 PUSH2 0x3A9A JUMP JUMPDEST SWAP4 POP PUSH2 0x4034 DUP2 DUP6 PUSH1 0x20 DUP7 ADD PUSH2 0x2B81 JUMP JUMPDEST DUP1 DUP5 ADD SWAP2 POP POP SWAP3 SWAP2 POP POP JUMP JUMPDEST PUSH0 PUSH2 0x404B DUP3 DUP5 PUSH2 0x4010 JUMP JUMPDEST SWAP2 POP DUP2 SWAP1 POP SWAP3 SWAP2 POP POP JUMP JUMPDEST PUSH32 0x54784661696C65644572726F7200000000000000000000000000000000000000 PUSH0 DUP3 ADD MSTORE POP JUMP JUMPDEST PUSH0 PUSH2 0x408A PUSH1 0xD DUP4 PUSH2 0x2B71 JUMP JUMPDEST SWAP2 POP PUSH2 0x4095 DUP3 PUSH2 0x4056 JUMP JUMPDEST PUSH1 0x20 DUP3 ADD SWAP1 POP SWAP2 SWAP1 POP JUMP JUMPDEST PUSH0 PUSH1 0x20 DUP3 ADD SWAP1 POP DUP2 DUP2 SUB PUSH0 DUP4 ADD MSTORE PUSH2 0x40B7 DUP2 PUSH2 0x407E JUMP JUMPDEST SWAP1 POP SWAP2 SWAP1 POP JUMP JUMPDEST PUSH0 PUSH1 0x40 DUP3 ADD SWAP1 POP PUSH2 0x40D1 PUSH0 DUP4 ADD DUP6 PUSH2 0x2C1F JUMP JUMPDEST PUSH2 0x40DE PUSH1 0x20 DUP4 ADD DUP5 PUSH2 0x2C1F JUMP JUMPDEST SWAP4 SWAP3 POP POP POP JUMP JUMPDEST PUSH0 DUP2 SLOAD SWAP1 POP PUSH2 0x40F3 DUP2 PUSH2 0x341D JUMP JUMPDEST SWAP1 POP SWAP2 SWAP1 POP JUMP JUMPDEST DUP2 DUP2 SUB PUSH2 0x4108 JUMPI POP POP PUSH2 0x41DD JUMP JUMPDEST PUSH2 0x4111 DUP3 PUSH2 0x40E5 JUMP JUMPDEST PUSH8 0xFFFFFFFFFFFFFFFF DUP2 GT ISZERO PUSH2 0x412A JUMPI PUSH2 0x4129 PUSH2 0x3005 JUMP JUMPDEST JUMPDEST PUSH2 0x4134 DUP3 SLOAD PUSH2 0x341D JUMP JUMPDEST PUSH2 0x413F DUP3 DUP3 DUP6 PUSH2 0x371F JUMP JUMPDEST PUSH0 PUSH1 0x1F DUP4 GT PUSH1 0x1 DUP2 EQ PUSH2 0x416C JUMPI PUSH0 DUP5 ISZERO PUSH2 0x415A JUMPI DUP3 DUP8 ADD SLOAD SWAP1 POP JUMPDEST PUSH2 0x4164 DUP6 DUP3 PUSH2 0x378D JUMP JUMPDEST DUP7 SSTORE POP PUSH2 0x41D6 JUMP JUMPDEST PUSH1 0x1F NOT DUP5 AND PUSH2 0x417A DUP8 PUSH2 0x360B JUMP JUMPDEST SWAP7 POP PUSH2 0x4185 DUP7 PUSH2 0x360B JUMP JUMPDEST PUSH0 JUMPDEST DUP3 DUP2 LT ISZERO PUSH2 0x41AC JUMPI DUP5 DUP10 ADD SLOAD DUP3 SSTORE PUSH1 0x1 DUP3 ADD SWAP2 POP PUSH1 0x1 DUP6 ADD SWAP5 POP PUSH1 0x20 DUP2 ADD SWAP1 POP PUSH2 0x4187 JUMP JUMPDEST DUP7 DUP4 LT ISZERO PUSH2 0x41C9 JUMPI DUP5 DUP10 ADD SLOAD PUSH2 0x41C5 PUSH1 0x1F DUP10 AND DUP3 PUSH2 0x3771 JUMP JUMPDEST DUP4 SSTORE POP JUMPDEST PUSH1 0x1 PUSH1 0x2 DUP9 MUL ADD DUP9 SSTORE POP POP POP JUMPDEST POP POP POP POP POP POP JUMPDEST JUMP JUMPDEST PUSH32 0x4E487B7100000000000000000000000000000000000000000000000000000000 PUSH0 MSTORE PUSH1 0x31 PUSH1 0x4 MSTORE PUSH1 0x24 PUSH0 REVERT INVALID LOG2 PUSH5 0x6970667358 0x22 SLT KECCAK256 SAR PUSH10 0x83C6A7AB0059A683452D 0xD0 SWAP8 0xB8 0xF7 0xC1 ORIGIN PUSH30 0x272DE263DD1E10D3300E3F217464736F6C634300081A0033000000000000 "
				},
				"gasEstimates": {
					"creation": {
						"codeDepositCost": "3392400",
						"executionCost": "infinite",
						"totalCost": "infinite"
					},
					"external": {
						"GRACE_PERIOD()": "392",
						"MAX_DELAY()": "393",
						"MIN_DELAY()": "436",
						"cancel(bytes32)": "infinite",
						"claim(bytes32)": "infinite",
						"depositIdToDeposit(bytes32)": "infinite",
						"deposits(address,uint256)": "infinite",
						"description()": "infinite",
						"execute(address,bytes32,string)": "infinite",
						"getDepositTxId(string,address,address,uint256,uint256)": "infinite",
						"getDeposits()": "infinite",
						"getOneDeposit(bytes32)": "infinite",
						"getTxId(address,bytes32,string)": "infinite",
						"isQueued(bytes32)": "2886",
						"owner()": "2594",
						"queue(address,bytes32,string)": "infinite",
						"queued(bytes32)": "infinite",
						"updateDeposit(bytes32,string,address,uint256,uint256)": "infinite"
					},
					"internal": {
						"fetchDeposit(address,bytes32)": "infinite",
						"reimburseUser(address,uint256)": "infinite",
						"removeDepositByIndex(address,uint256)": "infinite",
						"validTimestamp(uint256)": "32"
					}
				},
				"methodIdentifiers": {
					"GRACE_PERIOD()": "c1a287e2",
					"MAX_DELAY()": "4125ff90",
					"MIN_DELAY()": "9f81aed7",
					"cancel(bytes32)": "c4d252f5",
					"claim(bytes32)": "bd66528a",
					"depositIdToDeposit(bytes32)": "e62e7f04",
					"deposits(address,uint256)": "d6d68177",
					"description()": "7284e416",
					"execute(address,bytes32,string)": "ff1529e7",
					"getDepositTxId(string,address,address,uint256,uint256)": "baf61ac3",
					"getDeposits()": "6b149d87",
					"getOneDeposit(bytes32)": "d283238b",
					"getTxId(address,bytes32,string)": "85d3ca09",
					"isQueued(bytes32)": "0dc051f8",
					"owner()": "8da5cb5b",
					"queue(address,bytes32,string)": "4f4ac9a4",
					"queued(bytes32)": "228250c9",
					"updateDeposit(bytes32,string,address,uint256,uint256)": "fb580b76"
				}
			},
			"storageLayout": {
				"storage": [
					{
						"astId": 3,
						"contract": "contracts/Timelock.sol:Timelock",
						"label": "owner",
						"offset": 0,
						"slot": "0",
						"type": "t_address"
					},
					{
						"astId": 5,
						"contract": "contracts/Timelock.sol:Timelock",
						"label": "description",
						"offset": 0,
						"slot": "1",
						"type": "t_string_storage"
					},
					{
						"astId": 736,
						"contract": "contracts/Timelock.sol:Timelock",
						"label": "deposits",
						"offset": 0,
						"slot": "2",
						"type": "t_mapping(t_address,t_array(t_struct(Deposit)730_storage)dyn_storage)"
					},
					{
						"astId": 741,
						"contract": "contracts/Timelock.sol:Timelock",
						"label": "depositIdToDeposit",
						"offset": 0,
						"slot": "3",
						"type": "t_mapping(t_bytes32,t_struct(Deposit)730_storage)"
					},
					{
						"astId": 746,
						"contract": "contracts/Timelock.sol:Timelock",
						"label": "queued",
						"offset": 0,
						"slot": "4",
						"type": "t_mapping(t_bytes32,t_struct(Deposit)730_storage)"
					}
				],
				"types": {
					"t_address": {
						"encoding": "inplace",
						"label": "address",
						"numberOfBytes": "20"
					},
					"t_array(t_struct(Deposit)730_storage)dyn_storage": {
						"base": "t_struct(Deposit)730_storage",
						"encoding": "dynamic_array",
						"label": "struct Timelock.Deposit[]",
						"numberOfBytes": "32"
					},
					"t_bool": {
						"encoding": "inplace",
						"label": "bool",
						"numberOfBytes": "1"
					},
					"t_bytes32": {
						"encoding": "inplace",
						"label": "bytes32",
						"numberOfBytes": "32"
					},
					"t_mapping(t_address,t_array(t_struct(Deposit)730_storage)dyn_storage)": {
						"encoding": "mapping",
						"key": "t_address",
						"label": "mapping(address => struct Timelock.Deposit[])",
						"numberOfBytes": "32",
						"value": "t_array(t_struct(Deposit)730_storage)dyn_storage"
					},
					"t_mapping(t_bytes32,t_struct(Deposit)730_storage)": {
						"encoding": "mapping",
						"key": "t_bytes32",
						"label": "mapping(bytes32 => struct Timelock.Deposit)",
						"numberOfBytes": "32",
						"value": "t_struct(Deposit)730_storage"
					},
					"t_string_storage": {
						"encoding": "bytes",
						"label": "string",
						"numberOfBytes": "32"
					},
					"t_struct(Deposit)730_storage": {
						"encoding": "inplace",
						"label": "struct Timelock.Deposit",
						"members": [
							{
								"astId": 717,
								"contract": "contracts/Timelock.sol:Timelock",
								"label": "depositId",
								"offset": 0,
								"slot": "0",
								"type": "t_bytes32"
							},
							{
								"astId": 719,
								"contract": "contracts/Timelock.sol:Timelock",
								"label": "description",
								"offset": 0,
								"slot": "1",
								"type": "t_string_storage"
							},
							{
								"astId": 721,
								"contract": "contracts/Timelock.sol:Timelock",
								"label": "from",
								"offset": 0,
								"slot": "2",
								"type": "t_address"
							},
							{
								"astId": 723,
								"contract": "contracts/Timelock.sol:Timelock",
								"label": "to",
								"offset": 0,
								"slot": "3",
								"type": "t_address"
							},
							{
								"astId": 725,
								"contract": "contracts/Timelock.sol:Timelock",
								"label": "amount",
								"offset": 0,
								"slot": "4",
								"type": "t_uint256"
							},
							{
								"astId": 727,
								"contract": "contracts/Timelock.sol:Timelock",
								"label": "timestamp",
								"offset": 0,
								"slot": "5",
								"type": "t_uint256"
							},
							{
								"astId": 729,
								"contract": "contracts/Timelock.sol:Timelock",
								"label": "claimed",
								"offset": 0,
								"slot": "6",
								"type": "t_bool"
							}
						],
						"numberOfBytes": "224"
					},
					"t_uint256": {
						"encoding": "inplace",
						"label": "uint256",
						"numberOfBytes": "32"
					}
				}
			},
			"userdoc": {
				"kind": "user",
				"methods": {},
				"version": 1
			}
		}
	}
}